:020000040000FA
:0600000002011A0227456F
:03002B00022E6939
:03003B00022E860C
:03004300022E404A
:030053000227BBC6
:03006B00022EF66C
:1000830002259BE5C754F84401F5C7790122000016
:100093000080FB120086B90003020104E479217891
:1000A30008B800028004F709D8FCE479297802B87B
:1000B30000028004F709D8FCE4900281785D791787
:1000C3008002F0A3D8FCD9FA781A90014A7A01BACF
:1000D30000028007E493A3F608DAF97ADD7B18902F
:1000E300014B78DA79038015E493A3AD82AE838A5A
:1000F300828B83F0A3AA82AB838D828E83D8E9D9C6
:10010300E77582967583FF740212012C75829175CF
:100113008300740012012C75D00075813F7518811E
:10012300751902759F00020096C09FF59FE473D076
:100133009F22D083D082C09FE493C0E0740193C018
:10014300E0740293F59F2201BC05C805FE05F8057E
:10015300FF0000B4000028002800283075A000A08C
:1001630000A000A00000080008E001F0001000104B
:10017300001000100010001000500050005000103C
:10018300001000D0070000000000000F0001000570
:1001930000307507001000010081FF00000000FF20
:1001A300FFFF3C075A0742077E07FF0202020802CD
:1001B3005000A0000000E803027E8201000040829C
:1001C300024C820100004019027482010000C60241
:1001D300024C820100004119027282010000DC021C
:1001E300024C820100004219027082010000DE020B
:1001F300024C820100004319025682080000DF020C
:10020300024C820100004419025482010000451986
:10021300FFFF0100FF20027E820100003D82024CAD
:1002230082010000AA19025282000000000002505D
:10023300820300000F0317008E0F8E0F8E0F8E0F99
:100243008E0F8E0F8E0F8E0F8E0F8E0F8E0F8E0FC3
:100253008E0FBC11DA11B61100131213FA12020237
:1002630002020202020202010D0000001001027EDE
:10027300820100003A82024C82010000F319026CF1
:10028300820100005E0D024C82010000F419026A33
:10029300820100001581024C82010000F5190268F9
:1002A300820100000781024C82010000F6190266F8
:1002B300820100009380024C82010000F71902645E
:1002C300820100008180024C82010000F819026261
:1002D30082010000A580024C82010000F919025C32
:1002E30082010000B780024C82010000FA19025A11
:1002F30082010000F980024C82010000FB190258C0
:1003030082010000FC1901E803057710020A0AE0E4
:1003130014000000000001000002000003000004BC
:1003230000000500000600000700010000010100B5
:1003330001020001030001040001050001060001A0
:1003430007000000000000000100000002000000A0
:100353000300000004000000050000000600000088
:10036300070000010000000101000001020000017C
:100373000300000104000001050000010600000164
:1003830007FFFF002017261700002C17000038175F
:1003930001307503020106000000000000000000A8
:1003A300000000000000000000000000000000004A
:1003B300000000FFFF0600800CE8030A5365727615
:1003C300657220546F20436C69656E74000010439E
:1003D3006C69656E7420546F205365727665720084
:1003E30000027E820100004382024C820100005021
:1003F3001B027882030000AF18024E8201000051F5
:100403001B024C82010000631B027682000000C5C0
:1004130018025082030000DB18024E8201000064C0
:100423001B120135D4D104120135E7D10412013571
:1004330008D20412013573D204120135B4D2041266
:100443000135D5D20412013516D304120135AED3CA
:1004530004120135F6D304120135B5C10412013576
:10046300C8C104120135F9C10412013533C20412A3
:1004730001358CC204120135D3C2041201351BC3EA
:10048300041201354AC30412013579C3041201353C
:10049300B0C304120135F7C30412013510C40412AA
:1004A300013565C4041201357EC404120135CCC480
:1004B3000412013506C504120135A4A20312013545
:1004C300A7A303120135D4A30312013525A40312F4
:1004D300013548A4031201355AA4031201355DA462
:1004E300031201359BA4031201350FA50312013535
:1004F3007BA50312013543A6031201355FA6031240
:10050300013596A603120135D0A60312013567A75C
:1005130003120135B9A703120135EAA70312013506
:100523001BA80312013528A80312013592A8031250
:10053300013595A803120135A2A803120135A5A818
:1005430003120135FCA803120135FFA8031201357C
:1005530038A9031201353BA9031201356FA9031210
:10056300013572A903120135C6A9031201350FAA79
:10057300031201351FAA0312013552AA03120135D2
:100583005FAA0312013562AA03120135CAAA031234
:100593000135CCAB0312013570AC03120135D9AC74
:1005A3000312013517AD0312013525CB03120135B3
:1005B3001DCC0312013551CC03120135E7CC0312D4
:1005C300013532CD0312013596CD0312013520CE0C
:1005D30003120135D9CE03120135FBD103120135C4
:1005E30078D3031201359BD30312013584B504126A
:1005F300013529B70412013549B7041201356AB828
:1006030004120135BDB804120135CAB9041201350B
:10061300F2B9041201351FBA0412013557BA041294
:100623000135B5BA0412013501BB0412013568BBAB
:1006330004120135A8BB04120135E5BB04120135D0
:1006430013BC04120135BDBC04120135C7BC04122E
:100653000135D4BC0412013507BD0412013513BDA5
:10066300041201352BBD0412013535BD04120135C9
:1006730060E3041201356EE30412013586E30412CC
:1006830001359EE304120135B5E3041201357BD134
:100693000212013525D20212013538D30212013577
:1006A300B4D302120135D2D4021201350ED502128F
:1006B3000135A9D5021201358DD60212013550D765
:1006C30002120135C8D70212013556D9021201357B
:1006D300C7D90212013581DA0212013573DB021226
:1006E3000135B3DB0212013567DC0212013599DCF7
:1006F300021201358FDE02120135D6DE02120135F8
:10070300F4DE021201355ADF0212013529E002122A
:100713000135EDE0021201350CE30212013516E357
:1007230002120135DEE403120135C8E50312013577
:1007330073E603120135C4E60312013574E70312AD
:100743000135E5E703120135CAE803120135FEE876
:1007530003120135F7E90312013534EA03120135B7
:1007630010EB031201354FEB031201356BEB031250
:10077300013521D404120135A5D404120135D0D496
:1007830004120135EAD504120135C3BD0412013543
:10079300D9BD04120135F7BD0412013508BF041297
:1007A300013512BF041201353DC00412013534C1B5
:1007B30004120135A1C104120135ABC10412013584
:1007C3001AF20312013550F303120135CAF303126F
:1007D3000135FAF3031201350DF40312013564F404
:1007E3000312013579F60312013508970212013518
:1007F300B99702120135D597021201359E9802125C
:100803000135B89802120135C3980212013599993E
:1008130002120135769A02120135069B0212013546
:10082300BD9B02120135CB9E02120135BAA0021202
:1008330001356CA10212013535A2021201357AA5E8
:100843000212013524A6021201354DA70212013509
:1008530009A902120135A9A902120135F7A9021249
:10086300013536AA0212013509AB021201353DAB3F
:1008730002120135CAAB02120135C0AC02120135B6
:100883004CAD02120135B0AE02120135BCAE0212FC
:100893000135F7AE0212013566AF021201356FB0B2
:1008A3000212013578B1021201353FB2021201354D
:1008B3009CB302120135BAB302120135D7B3021247
:1008C300013584B40212013501B50212013529B58F
:1008D30002120135F3B702120135F8B702120135DE
:1008E30011BA021201355FBA02120135CFBA0212F0
:1008F30001350DBB02120135E9BB02120135A9BC5A
:1009030002120135F5BC02120135F8BC02120135A1
:100913003CBD0212013584BD02120135C3BD021272
:100923000135E5BD0212013519BE021201357CBE47
:1009330002120135F99404120135029504120135AE
:100943001095041201356395041201358295041242
:100953000135C795041201350B9704120135A6978B
:1009630004120135EA970412013514980412013573
:10097300839804120135C998041201354099041271
:100983000135F19904120135242F00120135342F5A
:1009930000120135D52F0012013531300012013517
:1009A300EE30001201350A32001201353C320012DA
:1009B30001356B32001201351834001201358F36C0
:1009C30000120135FF3800120135F13900120135EB
:1009D300EA3A00120135F13C00120135E53F0012FD
:1009E3000135144100120135184300120135284422
:1009F30000120135B74500120135A8460012013532
:100A0300F646001201356547001201358947001289
:100A13000135DA47001201357B4C001201357C4D5C
:100A230000120135DD4D00120135084E001201356B
:100A3300CE4E0012013540F8031201354AF8031275
:100A430001358FF803120135A3F80312013533F989
:100A5300031201356CF903120135A7F903120135AD
:100A6300D0F9031201351EFA0312013533FA0312CA
:100A7300013548FA031201355DFA03120135A0FA74
:100A830003120135B5FA0312013520FB03120135B8
:100A930034FB0312013548FB031201355DFB0312DE
:100AA300013597FB03120135BBFB03120135E7FB4D
:100AB300031201351EFC0312013580FC03120135BC
:100AC300F2FC031201351DFD0312013560FD031213
:100AD30001358AFD03120135B5FD0312013550E0DE
:100AE30004120135A8F0021201358BF1021201350F
:100AF30006F20212013541F20212013592F302129B
:100B030001351BF40212013533F602120135C5F823
:100B13000212013577F90212013583FA0212013507
:100B2300F6FB021201354FFC02120135D68F041277
:100B330001351990041201359D900412013570910D
:100B430004120135479404120135F8FC02120135F1
:100B5300A5FD02120135B2FE02120135F1FE0212A9
:100B630001354BFF0212013519D6041201357CD62B
:100B73000412013519D7041201354ED70412013579
:100B83007ED7041201359FD704120135DAD7041238
:100B93000135FAD704120135039A041201358F9AED
:100BA300041201354E9B04120135669C0412013573
:100BB300809E04120135F38B03120135188C031246
:100BC3000135E58C03120135B98D03120135268EEB
:100BD300031201357C8E03120135188F0312013580
:100BE3004C900312013527910312013586910312AC
:100BF30001351292031201358092031201350C93D1
:100C0300031201350F930312013559930312013572
:100C1300CB93031201355D9403120135FE94031245
:100C230001351E9503120135669503120135AF9503
:100C330003120135CB9503120135F19503120135EA
:100C43006B96031201357996031201350897031247
:100C5300013571970312013569A304120135EEA31F
:100C63000412013530A40412013514A50412013510
:100C730081A504120135C5A50412013509A6041284
:100C8300013536A6041201355EA60412013596A677
:100C930004120135D4A604120135FBA60412013552
:100CA30075A704120135BFA704120135838201120F
:100CB30001357C8401120135698701120135BD8735
:100CC30001120135E88701120135C188011201358E
:100CD300FC88011201352C89011201353F8901126B
:100CE3000135808901120135AD8901120135FB8976
:100CF30001120135308A01120135668A011201356C
:100D0300C58A011201354A8B01120135E98D0112A1
:100D13000135D18F011201350D90011201358B91EF
:100D230001120135D09101120135D1920112013521
:100D3300BB94011201353E9501120135AD950112A7
:100D43000135E99A01120135419B01120135239DB9
:100D530001120135F29E01120135F79E0112013590
:100D6300C59F01120135F09F0112013586A00112C2
:100D73000135B8A00112013506A20112013517A2EF
:100D83000112013563CF041201354ED0041201352F
:100D930091D004120135E0D00412013531D104128F
:100DA300013582D10412013586C103120135FFC119
:100DB30003120135B9C703120135C4C80312013543
:100DC3006DCA03120135FBCA031201353AA201129F
:100DD3000135BBA201120135E8A20112013533A38B
:100DE3000112013534A40112013579A40112013530
:100DF300A5A40112013521A601120135A3A60112F2
:100E03000135F2A6011201355DA70112013511A8C2
:100E130001120135AEA80112013529A901120135CC
:100E2300B3A90112013506AA011201354EAB011215
:100E33000135CDAC0112013598AD01120135A5ADD7
:100E430001120135F5AD0112013505AE011201356F
:100E530029AE011201352CAE0112013515AF011275
:100E63000135F7AF0112013599B00112013534B1E3
:100E7300011201355BB101120135B8B1011201351F
:100E83000FB2011201355DB201120135ABB201128D
:100E9300013514B301120135B4B30112013550B455
:100EA30001120135DDB40112013552B501120135CC
:100EB300A2B50112013501B60112013528B601129E
:100EC3000135E2B601120135D3B8011201351CB95F
:100ED300011201354EB901120135C5B901120135AF
:100EE3004FBB0112013503BC0112013528BC0112AD
:100EF300013567BC011201357CBC01120135BFBC51
:100F0300011201352FBD0112013570BD01120135EA
:100F130085BE0112013506BF0112013595B70312D3
:100F23000135E0B703120135ECB703120135C0B840
:100F330003120135D7B80312013514B90312013571
:100F430045B90312013576B903120135AEB903125F
:100F5300013504BA031201351ABA0312013556BA20
:100F63000312013569BA0312013590BA0312013530
:100F7300C4BA03120135EABB0312013534BD0312AF
:100F8300013530BE031201354DBF03120135F07F29
:100F9300001201357F85041201352D8904120135B4
:100FA300618A04120135008003120135C3820312E2
:100FB3000135C98203120135868503120135E087A5
:100FC30003120135B79E041201354E9F04120135F9
:100FD3000CA00412013536A0041201356CA20412D0
:100FE30001353CBF0112013577BF01120135BCCB7E
:100FF3000112013528CD0112013525CE011201352B
:10100300AAD10112013594D201120135E0D20112A5
:101013000135FAD20112013537D30112013542D31A
:10102300011201354BD301120135FBD301120135F6
:10103300CBD40112013512D50112013578D5011235
:101043000135EAD50112013554BF021201359CC2A4
:1010530002120135A2C202120135F5C9021201358D
:1010630002CE021201356EC50412013504C6041204
:1010730001351AC60412013573C604120135B7C609
:1010830004120135F1C60412013589C70412013572
:10109300F8C70412013501C8041201350DC8041242
:1010A300013527C80412013551C80412013566C839
:1010B30004120135C8C804120135EFC80412013502
:1010C300CCEB03120135D9EB03120135F3EB031219
:1010D300013526EC0312013564EC03120135C9EC2A
:1010E30003120135DEEC03120135E9EC031201357D
:1010F300F6EC031201350DED031201351BED03125E
:1011030001352AED031201353FED0312013554ED8C
:10111300031201355FED031201356BED0312013547
:1011230078ED0312013587ED0312013592ED0312B9
:101133000135B7ED031201355BEE031201356BEE9A
:101143000312013580EE0312013595EE03120135CA
:10115300AFEE03120135CCEE03120135E9EE0312B3
:101163000135F4EE03120135A0EF0312013581F0CE
:1011730003120135A6F003120135B1F00312013554
:10118300C6F003120135DAF0031201353BF1031205
:10119300013541F10312013547F1031201354DF1D8
:1011A3000312013565F10312013598F1031201357C
:1011B3003DAD031201355FAD0312013527AE0312B6
:1011C3000135E1B003120135F7B10312013518B34C
:1011D30003120135F2B303120135A1B40312013531
:1011E30025E302120135BCE30212013554E4021275
:1011F300013544E5021201357BE5021201358EE526
:1012030002120135FCE50212013597E7021201359E
:10121300BEE70212013560E80212013595E80212B9
:101223000135A6E8021201351FE90212013540E932
:101233000212013558E902120135B0EA02120135F2
:10124300B9EC0212013509EF021201350CF002125A
:1012530001355BF0021201351D6F001201351A7062
:10126300001201350571001201350F7100120135AD
:101273001971001201353B710012013547710012DB
:101283000135997200120135C87200120135F873E5
:10129300001201353A7400120135667500120135EA
:1012A3003C76001201358E7600120135ED76001280
:1012B30001352477001201355F7700120135FA7A80
:1012C30000120135137B00120135957B00120135A5
:1012D300A37B00120135F87B00120135067C001256
:1012E3000135737C00120135E57C001201352B7D3D
:1012F30000120135949703120135B6970312013595
:10130300A09903120135459D03120135889E0312EE
:101313000135629F031201359CDB04120135C1DBE9
:101323000412013532DC04120135BED40312013537
:10133300C7D403120135D0D40312013501D60312E9
:10134300013520D80312013556D80312013590D840
:1013530003120135C6D80312013500D90312013532
:1013630034D90312013560D903120135A9D9031207
:101373000135E3D9031201352BDA0312013581DA82
:1013830003120135B6DA0312013511DB03120135FD
:101393004BDB031201359CDB03120135D2DB031255
:1013A30001350CDC031201353ADC031201355DDC37
:1013B30003120135F0E4041201351CE50412013572
:1013C30077E50412013581E50412013591E5041234
:1013D3000135AC8A04120135EA8A04120135718B96
:1013E30004120135868B04120135D58B04120135A5
:1013F300098C04120135488C04120135578C0412F0
:101403000135B08C04120135FF8C04120135518D66
:10141300041201356F8E04120135618F04120135F8
:101423009E8F0412013545CC041201356CCC041295
:10143300013597CC04120135D2E604120135008040
:101443000212013569820212013508840212013544
:10145300658402120135018502120135DE8502120F
:101463000135598602120135DB86021201350087E8
:1014730002120135638702120135C28A0212013555
:10148300268B02120135138C02120135498C02128C
:1014930001358C8C021201351D8E02120135498EE5
:1014A300021201358B8E02120135D48E02120135E0
:1014B300408F021201356E8F02120135888F02129E
:1014C3000135AF9002120135C69002120135A19287
:1014D30002120135BF9202120135F5920212013553
:1014E300819402120135FE940212013574950212A1
:1014F3000135B29502120135D69602120135FFA7C6
:10150300041201355DA804120135B4A90412013592
:1015130016AA04120135D7AA04120135F6AA041239
:10152300013546AB0412013584AB04120135E3FFE8
:101533000112013547E70412013586E7041201352C
:10154300DB7F0012013545E40412013555E4041232
:10155300013567E404120135E3E40412013564E163
:1015630004120135E8E1041201354EE2041201359B
:10157300DDDE041201359BDF04120135ECDF0412BA
:101583000135E2D904120135C5DA0412013523DB32
:1015930004120135F87F0012013508D80412013511
:1015A3007ED904120135DFD9041201351DC9041295
:1015B3000135ADC9041201352BCA04120135BCCA69
:1015C300041201354DCB0412013590CB04120135C1
:1015D3009ACB04120135A9CB04120135BFCB0412F7
:1015E3000135D2CB041201352ECC0412013542CC85
:1015F3000412013542E604120135ACE6041201354A
:10160300B7E604120135C7E604120135D6E7041222
:101613000135E8E7041201350080041201350A8020
:10162300041201354A8004120135938004120135F6
:10163300CB80041201352581041201354281041245
:1016430001354C8104120135938104120135B881AF
:1016530004120135CD81041201353E820412013595
:10166300D782041201352283041201354F830412F9
:101673000135D383041201350E84041201354184EC
:1016830004120135538404120135728404120135A6
:101693008B84041201359A84041201355385041294
:1016A300013552DD04120135A7DD0412013515DEC3
:1016B3000412013589DE0412013563FC0112013580
:1016C3008BFC0112013580FD01120135A5FD0112CC
:1016D300013547FE01120135C8FE0112013567E2EB
:1016E30004120135DDFD0312013513FE031201352A
:1016F30046FE031201359FFF031201359BE50412D9
:101703000135B1E504120135BBE5041201350FE6DD
:1017130004120135B47D00120135D67D0012013566
:10172300F87D001201352E7E00120135A07E0012D5
:101733000135CB7E00120135127F00120135237F64
:1017430000120135EBDC03120135B4DD0312013560
:10175300EFDD0312013520DE0312013580DE0312B3
:101763000135CADE0312013518DF03120135A3DF89
:10177300031201359CE00312013540E203120135E7
:10178300C0E2031201352BE3031201353EE30312DA
:10179300013525E4031201356FE4031201358AACE8
:1017A30004120135A0AC0412013541AD0412013518
:1017B30080AD041201359DAD04120135CEAD041286
:1017C30001351BAE041201354EAE0412013589AE4C
:1017D3000412013594B004120135FCB00412013532
:1017E300B7EE011201355AF201120135E9F3011284
:1017F300013540F4011201355FF40112013568F43B
:1018030001120135E6F4011201357BF601120135AF
:101813004EF701120135E5FA01120135CDFB011234
:1018230001353A4F001201354C4F00120135F85083
:10183300001201359751001201350552001201358E
:10184300805200120135FA5400120135215600125C
:1018530001353456001201351658001201359358DC
:1018630000120135B15800120135CF58001201356D
:101873001F5900120135CA5F001201354A60001278
:101883000135C362001201352C6300120135716307
:101893000012013573640012013529650012013508
:1018A3006D6500120135D16D001201356E6E0012A7
:1018B3000135E76E001201355DD7011201356FD78F
:1018C30001120135A7D8011201355AD90112013588
:1018D30037DA0112013558DA01120135A2DE01129D
:1018E3000135E7DE01120135DFDF01120135FADFD1
:1018F300011201350DE0011201357EE001120135BF
:10190300FEE0011201350FE201120135C3E20112BB
:101913000135E2E20112013502E301120135F1E37F
:101923000112013574E401120135D2E401120135CB
:101933003BE50112013560E5011201356CED011241
:10194300013507EE011201357AEE0112013509B1B5
:10195300041201356EB1041201358BB10412013545
:101963004BB204120135DFB20412013538B304124D
:10197300013502B40412013550B50412013590E764
:101983000412013511E804120135D9FF03E0667032
:101993001008A3E066700A08A3E066700408A3E0D9
:1019A3006622C3E7960809E7960809E7960809E758
:1019B3009622C3E09608A3E09608A3E09608A3E066
:1019C3009622C008C3E096F50808A3E096420808EB
:1019D300A3E096420808A3E09645087001D3D00817
:1019E30022080808EAC0E0EBC0E086F0E7A4FA1892
:1019F3000986F0E7A42AFA180986F0E7A42AFA1858
:101A03000986F0E7A42AFA1986F0E7A4FBE5F02A91
:101A1300FA190886F0E7A42BFBE5F03AFA190886D1
:101A2300F0E7A42BFBE5F03AFA18180986F0E7A4CF
:101A3300C5F02BFBE43AFA1908E7C5F0C6A426F66D
:101A4300E5F03BFBE43AFA1886F0E7A4F6E5F00884
:101A530026F6E43B08F6E43A08F6D0E0FBD0E0FAD9
:101A630022E4CFC0E0E4CEC0E0E4CDC0E0E4CCC0EB
:101A7300E075F020E626F608E633F608E633F608C6
:101A8300E633F6181818EC33FCED33FDEE33FEEFB6
:101A930033FFC3EC9709ED9709EE9709EF971919EF
:101AA30019400FFFEC97FC09ED97FD09EE97FE191E
:101AB3001906D5F0BFECF709EDF709EEF709EFF7D3
:101AC300191919D0E0FCD0E0FDD0E0FED0E0FF22F0
:101AD3006016080808C6C313C618C613C618C6136B
:101AE300C618C613C6D5E0EA2270090808082260A2
:101AF30016181818C6C333C608C633C608C633C675
:101B030008C633C6D5E0EA22E627F60809E637F623
:101B13000809E637F60809E637F622E026F608A3B1
:101B2300E036F608A3E036F608A3E036F622E02610
:101B3300F008A3E036F008A3E036F008A3E036F09F
:101B430022C3E697F60809E697F60809E697F6082A
:101B530009E697F622C3E096F008A3E096F008A3FF
:101B6300E096F008A3E096F022E657F60809E65758
:101B7300F60809E657F60809E657F622E056F6088E
:101B8300A3E056F608A3E056F608A3E056F622E0D3
:101B930056F008A3E056F008A3E056F008A3E05679
:101BA300F022E066F608A3E066F608A3E066F6080E
:101BB300A3E066F622E0F608A3E0F608A3E0F60841
:101BC300A3E0F622E6F008A3E6F008A3E6F008A3F4
:101BD300E6F022E0FAA3E0FBA3E0FCA3E0FD22EAA7
:101BE300F0A3EBF0A3ECF0A3EDF022E0F8A3E0F90F
:101BF300A3E0FAA3E0FB22E8F0A3E9F0A3EAF0A351
:101C0300EBF022CAC0E0E6F0A308DAFAD0E0FA2249
:101C1300CAC0E0E0A3C582CCC582C583CDC583F02D
:101C2300A3C582CCC582C583CDC583DAE6D0E0CA1D
:101C330022C3E498F8E499F9121C758026C3E49A48
:101C4300FAE49BFBE920E7E9121C75E498F8E499B0
:101C5300F922C3E498F8E499F9121C75E498F8E4BE
:101C630099F9C3E49AFAE49BFB22EB20E7CFE9203E
:101C7300E7E0B90010BB0008E88AF084F8AAF02274
:101C8300E4FBC8FA22EB70227B10C833C8C933C9FE
:101C9300335007C39AC3DBF280069A50012ADBEA6A
:101CA300C833F4C8C933F4C9FA2275F008E4C83359
:101CB300C8C933C933C99AC99B5004C92AC93BD57A
:101CC300F0ECFBC833F4C8E4C9FA22600D08C6A2DD
:101CD300E713C618C613C6D5E0F322600C08C6C3C3
:101CE30013C618C613C6D5E0F422700422600D187B
:101CF300C6C333C608C633C6D5E0F4182225181068
:101D0300AF08F518400C15198008F518400215198D
:101D1300D2AF2200C0D0251810AF08F518500C051B
:101D2300198008F51850020519D2AFD0D022251812
:101D3300F58210AF08F518400C15198008F5184006
:101D4300021519D2AF851983222518F582E43519B6
:101D5300F583222518F8E43519F9222518FAE43514
:101D630019FB222518FCE43519FD22E4732518C557
:101D730082C0E0E51934FFC583C0E0E518C395824E
:101D830024F810AF08858319858218800885831984
:101D9300858218D2AFCEF0A3E520F0A37808E60839
:101DA300F0A3DEFAEFF0A3E58124FAF8E608F0A346
:101DB300E608F0A3E608F0A30808E608F0A3E6089F
:101DC300F0A315811581D0E0FED0E0F815811581CF
:101DD3001581E8C0E0EEC0E0222518C582C0E0E529
:101DE3001934FFC583C0E0E518C3958224F910AF09
:101DF300088583198582188008858319858218D2FE
:101E0300AFCEF0A3E520F0A37808E608F0A3DEFA4E
:101E1300EFF0A3E58124FBF8E608F0A3E608F0A3BE
:101E23000808E608F0A3E608F0A315811581D0E0C1
:101E3300FED0E0F815811581E8C0E0EEC0E0228510
:101E43001983851882E0A3FEE0A3F5207808E0A3B8
:101E5300F608DFFAE0A3FFE0A3C0E0E0A3C0E0E000
:101E6300A3C0E0E0A3C0E0E0A3C0E010AF08858218
:101E7300188583198008858218858319D2AFD0838A
:101E8300D082020132851983851882E0A3FEE0A384
:101E9300F5207808E0A3F608DFFAE0A3FFE0A3C08B
:101EA300E0E0A3C0E0E0A3C0E0E0A3C0E010AF081F
:101EB3008582188583198008858218858319D2AF96
:101EC300D083D08222C0D02518C582C0E0E5193462
:101ED300FFC583C0E0E518C3958224F310AF0885DE
:101EE30083198582188008858319858218D2AFC823
:101EF300F0A3E9F0A3EAF0A3EBF0A37908E709F074
:101F0300A3D8FAECF0A3EDF0A3EEF0A3EFF0A3D087
:101F1300E0F0A3D0E0F0A3D0E0F0A3E520F0A3E548
:101F2300F0F0A322851983851882E0C0E0A3E0F9CD
:101F3300A3E0FAA3E0FBA37808E0F608A3DFFAE046
:101F4300FCA3E0FDA3E0FEA3E0FFA3E0C0E0A3E069
:101F5300C0E0A3E0F5D0A3E0F520A3E0A3F5F010E3
:101F6300AF088583198582188008858319858218AF
:101F7300D2AFD082D083D0E0F8D0E03274048006B0
:101F8300740280027401C0E0F404121D31D0E01227
:101F93001C06227404800474028000CCC0E0EDC0EF
:101FA300E0E518C39CCCAD1950011D10AF068C1889
:101FB3008D1980068C188D19D2AF121C13D0E0FD39
:101FC300D0E0FC22D083D082E9C0E0E493A3C386AF
:101FD300F0C5F095F0F908E493A386F0C5F095F009
:101FE300700BE493A3C3994005E9048002A3E4754D
:101FF300F002A42582F582E5F03583F583D0E0F97C
:10200300E493A3C0E0E493C0E022D083D082ECC089
:10201300E0EDC0E0E493A3FCE493A3FDED4C600D7D
:10202300122059EC24FFFCED34FFFD80EFE493A371
:10203300FCE493A3FDED4C600D122098EC24FFFC0F
:10204300ED34FFFD80EFD0E0FDD0E0FCE493A3C0CE
:10205300E0E493C0E022C0E0C3E4939608740193E4
:102063009618400FE493667008087401936618701D
:10207300007019A3A3C3E49396087401939618A35D
:10208300A3400DD0E0D0E0D0E0022049A3A3A3A356
:10209300A3A3D0E022C0E0C0F088F0E49366700808
:1020A3000874019366187000A8F0A3A3700BD0F016
:1020B300D0E0D0E0D0E0022049A3A3D0F0D0E022CA
:1020C40074F6121DDCEAFEEBFF8C088D09EE243455
:1020D400F8E43FF9E8FCE9FDEE24351223E0FAEEDA
:1020E40024371223E0F88508F0A4C885F00A85098E
:1020F400F0A4250AF9EA28F8E439F97A257B0012D4
:102104001C75EA8C828D83F0FA131313541FF8EEB6
:1021140028F8E43FF9E8245DF582E439F583E0C06A
:10212400E074075AF8D0E0B800028004C313D8FC66
:10213400A2E0EE50082434F582E43F8018243612DD
:1021440023E0F5F0EA84A8F0EE28F8E43FF9E82467
:1021540038F582E439F583E0F97F03021E8874F7C9
:10216400121DDCEAFEEBFFEE24341223E0C0E0EEA5
:102174002435F582E43FF583D0E0F08E828F83A38B
:10218400A3A3A3A3A3A3C082C0838E828F83A3A38C
:10219400A3A3A3E0F8A3E0F9D083D082E0C398F529
:1021A40008A3E099F509EE247F1223E06401703E50
:1021B400EE2480F582E43FF583C082C0838E828F53
:1021C40083A3A3A3A3A3E0240108A3E03400F9D0CC
:1021D40083D082E0687003A3E06970127CD67D0628
:1021E400120EBCEE247FF582E43FF583E4F0AC08E4
:1021F400AD09EEFAEFFB1220C4E9F9122E327F0288
:10220400021E88C082C083851882851983E0F8A3E2
:10221400E0F9C3EA9CEB9D5010C3EC98ED99401B88
:10222400C3EA98EB995014800EC3EA98EB994007DF
:10223400C3EC98ED994004790180027900D083D0F1
:102244008222EAC39CFAEB9DFB2274EF121DDC9000
:10225400037FE064086005E06407702A9061C8E0C9
:1022640060249003ADE0F4601DE0F875F00DA4C89F
:10227400AAF02AF974AF28FE740339FF8E828F8383
:10228400A3A3A3E0700302235C906060E0C0E0EECF
:102294002468F582E43FF583D0E0F0750C70750D89
:1022A40007750800750900E5D914F50AE5D9540342
:1022B400F50E60127403650E6043E50A600AEE24AD
:1022C400671223E07002807590076BE06401601F61
:1022D4001223DD60047A0480027A00E50AC39AFAC4
:1022E40095E0FB120CBE8A088B09EA4509700512B9
:1022F400119280641223DD70048A0C8B0DE50A6050
:1023040012850C82850D83F50BE5D9F0A3150BE539
:102314000B70F61223DD604474FC250AF50A780C70
:10232400121F83AC0AA90EEEFAEFFB120F88740297
:10233400121D16E97026AA08AB091216A8793D8E5B
:10234400828F83A3A3A3A3E0FA7B00120B0EEEFA01
:10235400EFFB120EE0120FE8790080787403650E2B
:102364006051850A107511007810121F83AC0CADF2
:102374000DAA08AB09120F4C7402121D16EE246844
:102384001223E064807004747F8001E0F50C780C03
:10239400121F87E50EF50C780C121F87A90AAC08EA
:1023A400AD099003ADE0FA7B00120ADE7402121D3F
:1023B40016801C90037FE06408AC0CAD0D7009EE30
:1023C400FAEFFB120FB88007EEFAEFFB12105A1265
:1023D400119E79017F0A021E88EE2483F582E43F70
:1023E400F583E02274F2121DDC74FC121D00EAFE77
:1023F400EBFF8909A2AFE433F508C2AF0224B2E0CF
:10240400601B780C121F83AC0BA90EEEFAEFFB12C3
:102414000F827402121D167404250BF50B7401252A
:102424000BF5D9850ED9E50B6018F50A850C828564
:102434000D83E0F5D9A385820C85830D150AE50A81
:1024440070EA75E195EE2463F8E43FF97A007B00C5
:10245400A2AFE433F50BC2AF88828983E0FCA3E02A
:10246400FDEC4D603A88828983E0FAA3E0FB8A821E
:102474008B83E0FCA3E0FD88828983ECF0A3EDF07C
:102484008A828B83E4F0A3F088828983E0FCA3E052
:10249400FDEC4D700A88828983A3A3E4F0A3F0E5E0
:1024A4000BA2E092AF1216A89006DDE004F0EE2431
:1024B400631223E0F8A3E0F9E8496064EE246312B0
:1024C40023E02402F8A3E03400F988828983E582BA
:1024D4002402F50CE43583F50DE0F50BA3E0F50ECD
:1024E400EE24621223E0640170369061D0E0F812A9
:1024F40023DD60047C0480027C007480C398FA9518
:10250400E0FBE50B2CF8E43400F9E82402F8500170
:1025140009C3EA98EB99A2D265D03340030224039D
:102524009006DDE0604D9006DEE0F89006DDE0C345
:1025340098500C74026509703A9006DFE060348E9E
:10254400828F83A3A3A3A3E0851882851983122510
:10255400877402121D4CE81225879006DCE028F0EF
:102564007402121D66AA18AB197901120B3E90066B
:10257400DDE4F0E508A2E092AF7404121D167F07B3
:10258400021E88F0A3E4F09006DDE0F822000000CB
:102594008521878522C622C0E074EB121EC8A2AF33
:1025A400E433F508C2AF759B00906182E0A2E0506D
:1025B40030E591A2E0502A7591FE740165217021E5
:1025C40012272E1210A812271C121F96122BDC742D
:1025D40004121D16E96401700579011210F012222B
:1025E4004E906182E0A2E5505DE591A2E5505775F9
:1025F40091DF90037FE064076005E06408702F12A8
:10260400272E74016521703E1210A812271C121F78
:1026140096122BDC7404121D16E96401700579010D
:102624001210F07901EEFAEFFB1223E88018E0644F
:102634000D70139003A1E004F064287002E4F07AB2
:1026440000E0F91211A4906182E0A2E640030226A0
:10265400F1E591A2E640030226F17591BF90037F54
:10266400E06405700812109012109C8003121096FA
:1026740075210012110EE9900380F079001210F018
:10268400120DDE7A017B0090037EE0F9121672903F
:102694007803E06442705690076FE014F0704EC205
:1026A400AF1226A800782AD0E0F618D0E0F6E59F0D
:1026B4005407F87005750DFF8003750D7FC4C0E0E5
:1026C4007829E6F50A08E6550DF50B740B780A121D
:1026D4001CDED0E0250AF8906270E0A2E740F8E83A
:1026E400C333906272F0906270E0D2E0F090618146
:1026F400E0A2E35009E5E9A2E3500375E9F7A3E09A
:10270400A2E75009E591A2E7500375917FE508A27D
:10271400E092AF7F08021F278E828F83E0F8A3E048
:10272400C82416F582E438F583229003ADE0F875E9
:10273400F00DA4C8AAF02AF974AF28FE740339FF77
:1027440022C0E0C0D0C082C083906183E0A2E05088
:1027540009E5BFA2E0500375BFFEE0A2E15009E520
:10276400BFA2E1500375BFFDE0A2E25009E5BFA29C
:10277400E2500375BFFBE0A2E35009E5BFA2E350BA
:102784000375BFF7E0A2E45009E5BFA2E450037566
:10279400BFEFE0A2E55009E5BFA2E5500375BFDF36
:1027A400E0A2E65009E5BFA2E6500375BFBFD0839F
:1027B400D082D0D0D0E032C0E074F2121EC8E5A7B7
:1027C400A2E6500FE5A1A2E6500953A7BF75A1BF29
:1027D40012280FE5A7A2E5500CE5A1A2E550065387
:1027E400A7DF75A1DFE5A7A2E15009E5A1A2E150A9
:1027F4000375A1FDE5A7A2E2500CE5A1A2E25006F3
:1028040053A7FB75A1FB7F01021F2774F7121DDC80
:1028140075210190037FE06406701512100C8A8202
:102824008B83A3A3A3A3A3A3E0FAA3E0FB12107ECC
:10283400A2AFE433FED2AF900385E0640170187A4E
:10284400207B0090037EE0F91217C27A207B00906F
:10285400037EE0F9121678906182E0D2E6F09007E8
:102864006CE0602185C6228016900384E0640170C8
:1028740008E5C654F84405F5C653BEFC1225947405
:1028840001652160E4EEA2E092AF7F02021E88009F
:102894008E238F2485822885832785188285198332
:1028A400E0CEA3E0CF852882852783EBC9EAC8ED73
:1028B400CBECCA75F010C3E833C8E933C9EA33CAAC
:1028C400EB33CBC3EA9EF526EB9FF525B35004AB5F
:1028D40025AA26EC33CCED33CDD5F0DAAE23AF24E4
:1028E4002274E9121DDC74FA121D00EAFEEBFF8C5F
:1028F4000A8D0B1210B4EAF8EBF9ECFAEDFB8E82B8
:102904008F83121BFA90037FE024F7C394055006CB
:10291400751401022A4C12100C8A088B09EA450925
:102924007003022A49EEFCEFFDAA18AB191210AE8F
:10293400850882850983A3A3780C121BB890819C17
:10294400780C121B7F8518828519837810121BB8A6
:1029540090819C7810121B7F780C79101219A55065
:102964001F780C7910121B4490818C780C1219C5B5
:102974004047850C14850D15850E16850F17804567
:1029840090818C851014851115851216851317787E
:1029940014790C121B4478141219C5501C751400B8
:1029A40075150075160075170178147910121B44FB
:1029B4007814790C121B0B800C75140175150075B5
:1029C400160075170074097814121AEC9081907827
:1029D4000C121BB87814790C121A648508828509C4
:1029E40083A3A3A3A3A3A3122A6A121C75880C8928
:1029F4000DE4F50EF50F7814790C121B0B74041208
:102A04001D4C122A6A121C75E8FA8A0CE4F50D783A
:102A140014790C1219A550077814790C121B4490E0
:102A2400037FE06408600AE064066005E064057002
:102A34002090819478141219C550169081987814B6
:102A4400121B1E800C751400751500751600751781
:102A540000850A82850B837814121BC77406121D25
:102A6400167F10021E88E0F8A3E0F97AD07B0322D7
:102A740074F7121DDC1210C690076AE0640170102E
:102A8400906245E4F0A3F053F4F343FE0C5390F347
:102A940012106CE5C654B84441F5C6E59E5447642B
:102AA4004170F8906185740FF0900768E0F470024B
:102AB400A3E0604E900769E0600814601B14602E68
:102AC4008040750801750900900768E07808121CB9
:102AD400EDE508F45280802A750801750900900715
:102AE40068E07808121CEDE508F45290801475082B
:102AF40001750900900768E07808121CEDE508F4F8
:102B040052A079007F02021E8874F7121DDCE9FED0
:102B1400EAFF1210C674016E700C7A807B00900379
:102B24007EE0F9121672902F1CE493F46008E4938B
:102B3400F9120DD2800953C6B8E59E544770FA12B3
:102B4400107290076AE064017003120DF690076832
:102B5400E0F47002A3E0604B900769E06008146041
:102B64001A14602C803D750801750900900768E00F
:102B74007808121CEDE50842808028750801750963
:102B840000900768E07808121CEDE5084290801375
:102B9400750801750900900768E07808121CEDE5D6
:102BA4000842A012100C8A088B09A808A909E84950
:102BB4006014E5E170FCE82414F582E439F583E05F
:102BC400F46003E0F5E174016F700A7A0190037E0A
:102BD400E0F9121708022B0874F1121DDC8A088B25
:102BE400098C0A8D0B90819C7808121B7F740F123C
:102BF4001D4C780C121BB890819C780C121B7F78AA
:102C040008790C1219A590818C50107808790C124F
:102C14001B4478081219C54014800E780C790812E8
:102C24001B44780C1219C550047901800279007F85
:102C340008021E8874ED121DDC8A088B098C0A8D2B
:102C44000B90819C7808121B7F7413121D4C780C16
:102C5400121BB890819C780C121B7F780C79081297
:102C640019A540117808790C121B44AA08AB09ACC9
:102C74000AAD0B80227510007511007512007513D2
:102C8400017810790C121B4478107908121B0BAAD6
:102C940010AB11AC12AD137F0C021E8890819C788E
:102CA40008121BB88A828B837808121B927F040255
:102CB4001E8874F5121DDC8C828D837808121BB873
:102CC4008A828B837808121B58122D0EC3E09CF065
:102CD400A3E09D122D0040229081E07808121BB8D9
:102CE4008A828B837808121B318A828B83A3A3A3E5
:102CF400A3E02420F0A3E0344EF080A0F088828981
:102D040083C3E09420A3E0944E22EA2404F8E43B35
:102D1400F98C828D83A3A3A3A3E0FCA3E0FD8882A6
:102D240089832274F5121DDCE9FE9006F8E0FAA30B
:102D3400E0FBEE29F8E433F974C928F5827480398C
:102D4400F583E02AF508A3E03BF5097808121F8310
:102D5400908204121BD61228947402121D168A083B
:102D64008B098C0A8D0B74107808121AD3AA08AB3D
:102D7400097F04021E8874F1121DDC8A0C8B0D8CF1
:102D84000E8D0F7411121D4C121F9A7411121D4CCA
:102D9400E02401F508A3E03400F509E4F50AF50B95
:102DA400780C79081219E49081A47808121BB87879
:102DB4000C79081219E4AA0CAB0DAC0EAD0F122855
:102DC400947402121D168B09EA450960047A018085
:102DD400027A00EC2AFCE43DFD7413121D4CE0F869
:102DE400A3E0F9E8FEE9FFECF8EDF97A717B021251
:102DF4001C7588088909E4F50AF50B8E828F83789F
:102E040008121BC7ECF8EDF97A717B02121C758A63
:102E1400088B0974057808121CED8E828F83A3A396
:102E2400A3A3E508F0A3E509F07F08021E88C08289
:102E3400C083E9906000F0D083D08222C0E074F2B5
:102E4400121EC8A2AFE433FED2AFC2C0E5D1A2E4E1
:102E5400500675D10F1215EE751A00EEA2E092AF6E
:102E64007F01021F27C0E0C0D0E8C0E0A8A8D2AF0D
:102E7400C2C7751A00E8A2E792AFD0E0F8D0D0D06C
:102E8400E032C0E0C0D0E8C0E0E9C0E0EAC0E0EB76
:102E9400C0E0C082C083A2AFE433F9D2AF900FCEBA
:102EA400E0F8A3E0687008539AFBA374018022C27F
:102EB400E9900FCEE0F8740128F0744E28F582E40E
:102EC400340FF583E0F5C1900FCEE0C39480400247
:102ED400E4F0E9A2E092AFD083D082D0E0FBD0E06E
:102EE400FAD0E0F9D0E0F8D0D0D0E032C2AF02009E
:102EF4000022C0E074F2121EC8A2AFE433FED2AFC7
:102F0400E589A2E25003121726758900C2C5EEA214
:102F1400E092AF7F01021F27FFFFFFFFFFFFFFFFCC
:102F2400C082C083E99019A9F0D083D08202013213
:102F340074F6121D70E99002F1F0900351E0F50867
:102F440075090074027808121CEDAA08AB09121660
:102F5400F09002F21238E79002F2123CD4606F90C3
:102F64000351E075F003A4FAABF01216F090030FCE
:102F74001238E790030F123CD4700B9002F2123C0B
:102F8400A51216F6804890030F124C397AFF7BFF86
:102F94001214FE7A0080198A0875090074027808F0
:102FA400121CED1246E174FF1230E7E4F0A3F00ABC
:102FB400900351E0F8EAC39840DD79051209A09026
:102FC40002F1E0F91208867A2A7B0A120C5E0247A3
:102FD4008474F4121D708A088B09EB548060479046
:102FE40002F1E0F912165A8A0A8B0BAE0AAF0BEE05
:102FF4004F602A8E828F83E064B0701A1209B2E99E
:1030040060148E828F83A3A3A3A3E0F9EE2405FAB0
:10301400E43FFB120982EEFAEFFB121648AA08E518
:10302400096480FB80047A007B0002323774F21258
:103034001D7074FB121D00EAFEEBFFEE4F60457439
:1030440003121D4CEEF0A3EFF0851882851983EC72
:10305400F0A3EDF07402121D4CE9F0AA18AB19129A
:103064000880E9F50870757413121D4CE0F50AA385
:10307400E0F50BE50A450B60638E828F8312367090
:10308400EE4F700575080280537A067B001216F025
:103094008A0C8B0DA80CA90DE849700575081380DE
:1030A4003B88828983E41230E7EEF0A3EF12320307
:1030B400E50AF0A3E50BF09002F51231FC9002F55D
:1030C4006017E0FCA3E08003EAFCEBFD8C828D83B7
:1030D4001231FC70F38C828D831242FCA9087405B2
:1030E400024EB9F0A3124C1BA32274F2121D708974
:1030F40008890C750D007403780C121CED850C0AFC
:10310400850D0B9002F4F09002F21241071231FA8D
:10311400602E1216F67900801D890C750D0074025C
:10312400780C121CED9002F21245A08882F583A35C
:10313400A3E4F0A3F009900351E0F8E9C39840D95F
:10314400900351E0FA850AF0A4CAA8F0850BF0A414
:1031540028FB1216F08A0C8B0DAE0CAF0DEE4F70DF
:10316400030231F0900351E0FC850AF0A4CCA8F0EE
:10317400850BF0A428FD79001216367C0080318D71
:103184000C750D007403780C121CED8A828B83126B
:1031940031F588828983E4F0123202A3A3F0A3F00C
:1031A4000DEDC3950840D8EE250AFEEF350BFF0C54
:1031B400900351E0F8ECC39850288C0C750D007402
:1031C40002780C121CED9002F21231F5E824025040
:1031D4000109FAE9FB8A828B83EEF0A3EFF07D000C
:1031E40080BFE5089002F4F0790080027913024E62
:1031F400BC1245A4F922A3A3123CA9EA4B22A312B0
:103204004C1BA3A3A32274F4121D707900EAA2E05C
:10321400501F7508767509817808121F8379107C10
:10322400047D007AAB7B1912099A7402121D16E907
:10323400F980007F04021E42C082C0839002F5120E
:103244003CD4601C88828983A3A3E06A7003A3E052
:103254006B8882898370E8A3A3A3A3123CA580048E
:103264007A007B00022F2D74F2121D7074FD121D62
:1032740000EAFEEBFF851882851983E4F0A3F0745D
:1032840002121D4C7401F0123CD17014120B9212F4
:1032940016F09002F81238E7123CD170030233FDA5
:1032A4001239E7EE2404F50AE43FF50B850A82F5AA
:1032B40083E024FE603C24FC607424FE607E24FED3
:1032C400700302334D24FE700302335A24FE70034C
:1032D40002336724FE700302337424FE7003023346
:1032E4008124FC70030233A224FE70030233BA0269
:1032F40033F6120B929002FAEAF0A3EB123409129D
:103304000466E960030233F69002FA121F9A8E8271
:103314008F83A3A3A3A3A3124C39850882850983B1
:10332400123CA512096A7402121D160233F6AC1877
:10333400AD19EEFAEFFB1209B80233C5AC18AD199A
:10334400EEFAEFFB1209BE8078AC18AD19EEFAEF75
:10335400FB1209C4806BAC18AD19EEFAEFFB12092D
:10336400CA805EAC18AD19EEFAEFFB1209D0805199
:10337400AC18AD19EEFAEFFB1209D68044740212B0
:103384001D56880C890D780C121F837402121D6659
:10339400EEFAEFFB1209DC7402121D168023AC183E
:1033A400AD19EEFAEFFB1209E2E9F8701674021295
:1033B4001D4CE4F0803CAC18AD19EEFAEFFB120999
:1033C400E8E9F8E8602C8E828F83A3E0641460221D
:1033D400850A82850B83E09002FAF08518828519AC
:1033E40083123CA59002FB1238E7E8A312340912B9
:1033F4000460EEFAEFFB1209407402121D4CE0F96E
:103404007403024EB9F07CFA7D0285088285098333
:10341400123CA92274E8121D7074FA121D0074047F
:10342400121D4CECF0A3EDF08A128B13EA2405F57F
:103434000EE43513F50FEA2402F510E43513F51103
:10344400851082F583123CA51205A48A0A8B0B759C
:1034540008007C037D0079007AFA7B02121636E5B7
:103464000E2402F516E4350FF5177402121D568862
:103474000C890D780C121F83850E82850F83A3A3FC
:10348400A3A3E0F50C750D00780C121F83E50E2440
:1034940005F50CE4350FF50D780C121F83851682A3
:1034A400851783123FAC12089E7406121D168A0CEF
:1034B4008B0DE50C450D700302363980208518828A
:1034C400851983E088828983F00508851882851927
:1034D40083A3E0C0E012367AD0E0F00508E50A24C0
:1034E400FBFAE50B34FFFBC3E5089AE49B400302B7
:1034F40036397E007F00851282851383A3A3A3A39C
:10350400E0F5097809121F87E4F514F5157814120B
:103514001F837514F77515027814121F839002F82F
:10352400121F9A7409121D4C121F9AE50A24F9F904
:10353400AC0CAD0D851082851183123CA5120A12C4
:103544007409121D16E960030235DA850E82850FAF
:1035540083A3A3A3A3A3A3A3E0F89002F7E0687056
:1035640075E0F5148E157814121F83124C36850EEF
:1035740082850F83A3A3A3A3A3A3A3A3123CA51291
:1035840016307402121D16E9604C9002FB123CD4F2
:10359400703BE4F5147814121F837CFF7DFF7907D8
:1035A400851082851183123CA512097C7402121DB8
:1035B40016123CDA7017850E82850F83124DD37470
:1035C40004121D4C124694123FDD02366D850C82A6
:1035D400850D83123670A818A919881489157814D2
:1035E400121F837404121D4C121F9A8516828517AC
:1035F400831238DD1208AA7404121D168A0C8B0D6E
:10360400EE4F70030234B612367AEE123685123F4C
:1036140093EF123685F8A3E03400F9E50C450D600C
:10362400030234C18882898374FFF0050812367A54
:1036340074FFF00508E508601A1313543F1238EDBF
:10364400120472E960099002FB123CA51216A879D3
:10365400008016850E82850F83124DD37404121DCB
:103664004C1246941242FC790A023F66A3A3A3A318
:10367400E0FEA3E0FF22A8089002FBE028123F939B
:1036840022F00508089002FBE0282274E8121D705D
:1036940074FA121D007402121D4C1238E7740412DD
:1036A4001D4CECF0A3EDF07402121D4CE024051245
:1036B4003F7CE0F50CA3E0F50D7402121D4CE024F0
:1036C40002F510A3E03400F511851082F583123C55
:1036D400A51205A4750800750900EA24FCFEEB3464
:1036E400FFFF8008050CE50C7002050DA808C3EE69
:1036F40098EF94005003023899A818A919880E89E4
:103704000F780E121F83851482851583A3A3A3A3A8
:10371400124C3D121F83E5142405F50EE43515F50E
:103724000F780E121F838514828515831238DB12DD
:10373400089E7406121D168A0E8B0FEA450F70033D
:10374400023899EA2404F516E4350FF51785168234
:10375400F583E0F50CA3E0F50D8518828519831235
:103764004C398A828B83A3A3A3E0F9851082851147
:1037740083123CA512088CE9F50960030238997498
:1037840002121D4C123FA3F5097809121F87E4F5B4
:1037940012F5137812121F837512F775130278123B
:1037A400121F839002F8121F9A7407121D4C121FE5
:1037B4009AEEF9AC0EAD0F851082851183123CA5EB
:1037C400120A127409121D16E9F5096003023899E8
:1037D400E508703FE4F50EF50F780E121F837CFFA9
:1037E4007DFF7909851082851183123CA512097C1D
:1037F4007402121D16123FC9700D7404121D4C126E
:1038040038D079110238CD9002F7E024029002FBFF
:10381400F080149002FBE0FA9002F7E079002402B1
:103824005001096A497072A8089002F7E0FAE82A80
:10383400FAE43400FBEE9AEF9B405A851682851712
:1038440083E0C0E09002FC12367FD0E0F0050885EA
:103854001682851783A3E0C0E0089002FC12367F2D
:10386400D0E0F005089002F7124C3D121F83124C71
:1038740036A808123F7012161E7402121D1690020A
:10388400F7E02508F50874FF650C700474FF650DF6
:1038940060030236E8E508601F9002FBE0F5F0E5FE
:1038A40008841238ED120478E960099002FC123C95
:1038B400A51216A879008011E509700375090A7428
:1038C40004121D4C1238D0A909023F6612410BE5BF
:1038D4000CF0A3E50DF022A3A3124EC8AA0CAB0D65
:1038E40022A3A3EAF0A3EBF0229002FAF07CFA7D83
:1038F40002851082851183123CA92274EC121D707A
:1039040074FC121D0012440C7402121D66123C9FBA
:103914001208A48A0C8B0DEA450D70030239D712E4
:1039240039E7A818A919881089117810121F837C07
:10393400FF7DFF790B850882850983123CA5120956
:103944007C7402121D16123ADD700C850A82850BF6
:1039540083123FDA0239E48E828F83A3A3A3A3E008
:10396400F5127812121F87E4F512F5137812121F5C
:10397400837512FA7513027812121F837810121FBE
:10398400837409121D4C121F9A7409121D4CE0F91C
:10399400AC0CAD0D850882850983123CA5120A1270
:1039A4007409121D16E9FE70157CFA7D02850882E1
:1039B400850983123CA512047EE9700980207416DF
:1039C4006E70027E009002FB123CA51216A8EE70E7
:1039D40004800B7E01850A82850B831242F9EEF97D
:1039E40002430EEE2402F508E43FF5092274EC12BA
:1039F4001D7074FC121D00EAFEEBFF8C0E8D0FEEA1
:103A04002405F508E43FF5097402121D6685088251
:103A1400850983123CA51208A48A0C8B0DEA450D76
:103A24007003023ACDEE2402F50AE43FF50BA81820
:103A3400A919881089117810121F837CFF7DFF79E2
:103A44000D123C9F12097C7402121D16123ADD708D
:103A54000B850882850983123FDA807A8E828F83F0
:103A6400A3A3A3A3E0F5127812121F878508828509
:103A74000983A3A3121F9A7512FA751302781212FE
:103A84001F837810121F837409121D4C121F9A741D
:103A940009121D4CE0F9123C9B120A127409121D02
:103AA40016E9FE700F7CFA7D02123C9F120484E931
:103AB4007009802074166E70027E009002FB123C26
:103AC400A51216A8EE7004800B7E01850882850974
:103AD400831242F9EEF902430E123CE4F510A3E01E
:103AE400F511EA45112274E8121D7074FE121D00CE
:103AF4008A168B178C148D15EA2405F50CE43517FA
:103B0400F50DEA2402F50EE43517F50F850E82F55E
:103B140083123CA51205A48A088B09750B007C034B
:103B24007D0079007AFA7B02121636750A00E508E0
:103B340014F5100424FFF508E50934FFF509805451
:103B44009002FAE0FA9002F7E0F8EA28F8E4340088
:103B5400F9E50898E50999500D9002FAE0F8E510A6
:103B6400C3989002F7F0E0F5127513007812121F53
:103B740083124C369002FBE02AFAA3E03400FB12D5
:103B8400161E7402121D169002F7E0F89002FAE075
:103B940028F0050A850C82850D83A3A31245B04045
:103BA40003023C809002FAE0C39508E495094003BF
:103BB400023C80AE0AEE2EFEE433FF123CBFAC188A
:103BC400AD19124C51E439FB1208A48A128B13ACC0
:103BD40012AD13EC4D701B750B01123CAF1242FD7C
:103BE4009002FB1231FC60031216A8A90B740202A6
:103BF4003F68851682851783A3A3A3A3E0F50B78FA
:103C04000B121F87E4F512F5137812121F83751235
:103C1400F77513027812121F839002F8121F9A7418
:103C240007121D4C121F9AA910850E82850F83124C
:103C34003CA5120A127409121D16E9F50B709B902B
:103C440002FB123CD46003023B44E4F512F5137802
:103C540012121F837CFF7DFF790F850E82850F83EF
:103C6400123CA512097C7402121D16123CDA600380
:103C7400023B44123CAF123FDE023BF17CFA7D0270
:103C8400850E82850F83123CA512048AE960030223
:103C94003BE47900023BF1AC0CAD0D850A82850B47
:103CA40083123CA922E0FAA3E0FB22123CBFE0FA13
:103CB400A3E0F9EA85148285158322850C82850D9B
:103CC40083E02EF8A3E03FF988828983229002F8EA
:103CD400124DD7E84922123CE4F8A3E0F9E849225E
:103CE4009002FBEAF0A3EBF09002FBE02274E812EE
:103CF4001D7074FA121D007404121D4C1238E78CE6
:103D0400168D177404121D4CE02405F50EA3E0343F
:103D140000F50F7404121D4CE02402123F7C123C87
:103D2400A51205A48A0A8B0B7F007E00A818A91986
:103D3400880889097808121F83850E82850F83A35A
:103D4400A3A3A3E0F5088E097808121F83E50E24C7
:103D540005F508E4350FF5097808121F83850E82EE
:103D6400850F83A3A3123FAC12089E7406121D167E
:103D74008A0C8B0D8029123F9DF00F123F9DF00F8E
:103D84009002F71242E8121F83124C36EFF8123FEA
:103D94007012161E7402121D169002F7E02FFFE532
:103DA4000C450D7003023E2C85188285198312443C
:103DB4001EA3A3A3E0F9851482851583123CA512E2
:103DC400088CE9FEE50C2404F510E4350DF511EE3C
:103DD40070507404121D4C123FA3F5087808121F8A
:103DE40087E4F508F5097808121F837508F7750943
:103DF400027808121F839002F8121F9A7407121D8A
:103E04004C121F9AE50A24FAF9AC0CAD0D85148204
:103E1400851583123CA5120A127409121D16E9FEB7
:103E24006039123FB91242FCEF7003023F53900213
:103E3400FBE0F5F0EF849002FAF07CFA7D02851441
:103E440082851583123CA5120490E960099002FC56
:103E5400123CA51216A87900023F668F08EF703B4A
:103E6400E4F512F5137812121F837CFF7DFF79119C
:103E7400851482851583123CA512097C7402121DD7
:103E840016123FC97009123FB9123FDD023F669016
:103E940002F7E024049002FBF080359002F7E0F88A
:103EA4009002FBE0FAE82404FCE43400FDEC6A4DE3
:103EB4006003023E32E50A24FAFAE50B34FFFBE51F
:103EC4000828F8E43400F9EA98EB995003023E32EA
:103ED400851082851183E0C0E09002FCE02FF8A3F6
:103EE400E034008882F583D0E0F00F8510828511DC
:103EF40083A3E0C0E0123F8AD0E0F00F7402121DE9
:103F040056880889097808121F837402121D4C12FE
:103F14001F9A850E82850F831238DB1208AA740457
:103F2400121D168A0C8B0DEA450D7003023D7A743E
:103F340002121D4CE0C0E0123F8AD0E0F00F740280
:103F4400121D4CA3E0C0E0123F8AD0E0023D82EE95
:103F540070027E0A850E82850F83123FBF1242FCD7
:103F6400EEF97406121D167F10021E429002FCE048
:103F740028FAA3E03400FB22F514A3E03400F5157D
:103F8400851482F58322123F8E229002FCE02FFAE0
:103F9400A3E034008A82F58322123F8E74FF22123A
:103FA400410BA3A3A3A3E022124EC8850E82850F62
:103FB40083123CA922851082851183124DD7851660
:103FC40082851783229002FCEAF0A3EBF09002FCB6
:103FD400124DD7E84922124302E8F0A3E9F079111F
:103FE4002274EA121D7074FE121D008A088B098C5B
:103FF400128D13EA2405FEE43509FFAC18AD198EC1
:10400400828F83123CA51208A48A0C8B0DEE240621
:10401400F50EE43FF50FEA450D70030240DDE508B7
:104024002402F50AE43509F50B8A828B83A3A3A342
:10403400E0A2E55028851882851983123CA5120A4E
:10404400068A108B11EA451160207912123C9B8577
:104054001082851183121D6EE9F50C707F850E8226
:10406400850F83E0600979528011750C0E806D858F
:104074000882850983A3A3A3A3E0F9E4F508F5095D
:104084007808121F838E828F83A3A3E0F508780833
:10409400121F838E828F83A3A3A3121F9A8E828FF3
:1040A40083124C39123C9F120A187406121D16E929
:1040B400F50C7011850E82850F83E0702D123C9FE4
:1040C40012049680257416650C7011750C00741812
:1040D400121D4C124107E48010750C01124DCF855E
:1040E4001282851383E8F0A3E9F0850E82850F839D
:1040F400E0600479008002A90C7402121D167F0E80
:10410400021E4212410B22E0F8A3E0F583888222CA
:1041140074EC121D7074F7121D008A0A8B0B8C103C
:104124008D11EA2405FEE4350BFF750C00AC18ADC7
:10413400198E828F83123CA51208A48A088B09EA7F
:10414400450970030242D3E50A2402F50A50020528
:104154000B8A828B83A3A3A3E0A2E5502F85188248
:10416400851983123CA5120A068A0C8B0DEA450DAB
:10417400604F7912AC08AD09123C9F850C82850D05
:1041840083121D6EE9F50C60030242D6850A82850E
:104194000B83E0F508A3E0F509AA08FB1209FAEA83
:1041A4004B70197AFF7BFF1209FAEA4B7003024243
:1041B400C98A828B83E508F0A3E509F075080080BD
:1041C40008750C0E0242D605089002F4E0F8E508E2
:1041D400C39840030242C985080E750F0074037822
:1041E4000E121CED8A828B83A3A3E0250EF8A3E0B4
:1041F400350F12469D70D08E828F831242F1123891
:10420400E78E828F83A3A31242F11238E5EE2404D1
:10421400F508E43FF509850882F583E088828983FF
:10422400A3A3A3A3F0A3E4F0EE2405F50EE43FF565
:104234000F850E82F5831242F1A3A3A3A31238E5DE
:104244007512077513007812121F83EEFCEFFD74CC
:1042540004121D5E12161E7402121D16E4F5127865
:1042640012121F83850882850983E0FC7D0079177B
:10427400123C9F12097C7402121D167407121D4C05
:104284001238E77407121D4CE0FA4B603D85088232
:104294008509831242E8121F83850E82850F8312DB
:1042A4004C3912161E7402121D167402121D661267
:1042B4003C9F12049CE960267407121D4C123CA515
:1042C4001216A88019750C098008750C11800375E5
:1042D4000C01124DCF8510828511831242FCA90C6A
:1042E40074098028E0F508750900780822123CA9B1
:1042F4008882898322124302E8F0A3E9F022E0F8DD
:10430400A3E0F9850E82850F83227404121D167FA3
:104314000C021E4274EC121D7012440C751000EE57
:104324002402F50CE43FF50D850C82F583123CA5BF
:104334001209FA8A088B09EA450970030243F085D9
:104344000A82850B83E0640160030243E5AC08AD97
:1043540009AA0AAB0B1209EEE9606E850882850989
:1043640083123672EE2406F50AE43FF50B8E828F33
:1043740083A3A3121F9A8E828F83A3A3A3A3121FC6
:104384009A850A82850B83121F9A79188E828F83ED
:1043940012441E123CA5120A187406121D16E9F8DE
:1043A400741668700B850A82850B83E4F0A380146D
:1043B400E860128E828F83123CA5850E82850F835E
:1043C400EAF0A3EBF088108018780E121F83AC0873
:1043D400AD09EEFAEFFB1209F47402121D16E9F5A9
:1043E40010AA08AB09120A00E510700E850C82852C
:1043F4000D83123CA51204A2800974166510700383
:10440400751000A910024313EAFEEBFF8C0E8D0F0A
:10441400EE2405F50AE43FF50B22124EC8850C8202
:10442400850D832274EA121D707508007509007EDB
:10443400007F00750A00EC2402F510E43DF51180BC
:1044440035EC65087003ED650960030244DD88827C
:104454008983A3A3E06A7003A3E06B707C888289DC
:1044640083A3A3A3A3124DD3EE28FEEF39FFEA28BA
:10447400FAEB39FB050A1245AD503A850A0C750D65
:10448400007403780C121CED85108285118312458B
:10449400A012469D601FE508450970A58C088D098A
:1044A4008882898312367088828983A3A3E02EFAD6
:1044B400A3E03F80BEE50AC39402500302459B7506
:1044C4000800750900EE4F6010EEFAEFFB1216A219
:1044D4008A0E8B0FEA450F7005790002459D750B16
:1044E40000024570850B0C750D007403780C121CCA
:1044F400ED851082851183E0250CF50CA3E0350DC4
:10450400F50DE50C2406F514E4350DF51585148236
:10451400F5831246A26042E50C2404F512E4350D3D
:10452400F513851282F583121F9AE50E2508FAE524
:104534000F3509FB12161E7402121D168512828590
:104544001383E02508F508A3E03509F509851482ED
:10455400851583123CA51216A8E50B600D7C087D19
:10456400007900AA0CAB0D121636050BE50BC395AA
:104574000A50030244E8851082851183124DD388C2
:10458400828983A3A3A3A3A3A3E50EF0A3E50F123B
:104594003203EEF0A3EFF079010241021245A422A6
:1045A400E0250CF8A3E0350D229002F4E0F8E50ACA
:1045B400C3982274F0121D708A0E8B0F8C0A8D0B17
:1045C400750D00750C0080507916EE2406F508E48C
:1045D4003FF5098E828F83A3A3121F9A8E828F8345
:1045E400A3A3A3A3121F9A850882850983121F9A85
:1045F400850E82850F83A3A3123CA5120A187406A4
:10460400121D16E9F50D7416650D706C850882850A
:104614000983E4F0A3F0050C9002F4E0F8E50CC380
:10462400985066AA0C8A0875090074037808121C4D
:10463400ED850A82850B83A3A31246ECE8FEE9FF0D
:104644008E828F831246A26040EA2401F508E43486
:1046540000F5099002F4E065087002E50960148829
:10466400828983A3A3A3A3A3A3A3A3123CD460031B
:104674000245CC79180245CEE9609B124DCF7410E7
:10468400121D4C1246941242FCA90D7F08021E42D0
:10469400E0FAA3E0F5838A8222F988828983124EA4
:1046A400C8EC4D2274F6121D707C0080010C90033E
:1046B40051E0F8ECC398501E8C0875090074027818
:1046C40008121CED1246E1E06A7003A3E06B70DD92
:1046D400E8FAE9FB80047A007B000247849002F246
:1046E4001246EC8882898322E02508F8A3E0350984
:1046F400F92274F2121D708A088B09750A0080274A
:104704008E828F83A3A3A3A31231FA60031216A887
:104714007C087D007900EEFAEFFB1216368E828F4C
:1047240083E4F0A3F0050A1245AD5027850A0C7501
:104734000D007403780C121CED850882850983A38F
:10474400A3E0250CFEA3E0350DFF8E828F83123C7F
:10475400D470AD85088285098374FFF0A3F0024EFE
:10476400BC74F6121D701209AC8A828B83E58245F3
:104774008370067A007B008007A3A3A3A3123CA541
:104784007F02021E4274F4121D7089088C828D838C
:10479400E06402703C124D72FEA3E0F9EEF874027C
:1047A4006870037429697029750A02750B00780A08
:1047B400121F837410121D4C121F9A7410121D4C78
:1047C400121F9AA9081215107406121D16E9F98011
:1047D40002790102323774E8121D7074FB121D0055
:1047E400E9851882851983F08A168B17ECFEEDFF94
:1047F4007510008E828F83A3A3A3E0A2E4502D74CE
:104804001D121D4C123CA5120A068A828B83E58276
:1048140045837003024C11790AEEFCEFFDAA16AB36
:1048240017121D6EE9F5106003024C14741F121D5B
:104834004CE0F508A3E0F5097421121D4CE0F50ADB
:10484400A3E0F50B7423121D4CE0F50EA3E0F50F65
:104854008E828F83E064026003024BB2A3124DD3B5
:10486400850882850983A3858212858313EE240635
:10487400F50CE43FF50D88828983124C51F514E45C
:1048840039F515781412200D010000280128B448C8
:104894000700022879490328E7480029A84A012982
:1048A400D34A0229744A0329A84A04294C4BB24B1F
:1048B400E50E450F6003024BAD850C82850D831216
:1048C4004DD3E8FAE9FB8A828B83E0850A82850B63
:1048D40083124C5C121F838A828B83A3E0FCA3E0C7
:1048E400024B36E50E450F6003024BAD850A828507
:1048F4000B837401F0124C46850882850983F07C91
:10490400007D008E828F83A3A3A3A3E02401FAA3D6
:10491400E03400FB1208A4EA4B60408A828B83E0F7
:104924002402F8850A82850B83E028F0EA2404F83F
:10493400E43BF988828983E0851282851383124CD3
:104944006A124C5C121F838A828B83A3124C39E552
:10495400082403FAE43509FB024B3B850A82850BE4
:1049640083E02404F07C047D007900AA12AB1312C6
:104974001636024C14E50E450F6003024BAD124C83
:1049840046FEA3E0FF850A82850B837404F0EE855E
:104994000882850983F0EF851282851383F07403FE
:1049A400121D66EEFAEFFB1208A48A0C8B0DEA4581
:1049B4000D7003024A578A828B83A3A31236707444
:1049C40001121D56880E890F780E121F837405126A
:1049D4001D4C121F9A7CFF7DFF1208AA7404121D3D
:1049E400168B0FEA450F7033850C82850D83124CAC
:1049F4003D121F83850C82850D83A3121F9A7C02AE
:104A04007D007A3A7B811205927404121D16E970B6
:104A14000A7401121D4C74FFF0A3F08E828F83E0A0
:104A240064027039750C02750D00780C121F838EA8
:104A3400828F83A3124C39E5082404FAE43509FB78
:104A440012161E7402121D16850A82850B83E02439
:104A54000280097401121D4CEEF0A3EFF0740112F0
:104A64001D4C124C2B7401121D4C124C22024BA7EC
:104A7400E50E450F6003024BAD850C82850D831254
:104A84004EC1AA16AB17121516850A82850B8374BC
:104A940002F0850882850983EAF0851282851383F2
:104AA400EB024BAAE50E450F6003024BAD124C46D8
:104AB400F8A3E0F9850A82850B837402F0E885087F
:104AC40082850983F0E9851282851383024BAA85C6
:104AD4000C82850D83123CA5121618EAFAF8C395C8
:104AE4000EE4950F405CE8650E450F70047A008073
:104AF40021851882851983E0FCE50E2CFCE4350F32
:104B0400FDC3EC98ED94005003E08005E50ECAC3A4
:104B14009AFAEA850A82850B83F08A0A750B007873
:104B24000A121F83850C82850D83E0250EFCA3E009
:104B3400350FFDAA08AB0912161E7402121D1602C7
:104B44004C14751007024C14E50E450F705B850C70
:104B540082850D83124DD3850A82850B837407F0F9
:104B640088828983124C23124C1BE08512828513A0
:104B740083F0E82402FAE439FB8A828B83124C2BFB
:104B84008A828B83124C22A3A3123202124C30F07D
:104B9400E82405F850010988828983124C30A31255
:104BA4004C6AA3A3A3A3F0806775100B8062741DE5
:104BB400121D4C123CA51209AC8A828B83E58245F6
:104BC40083604A124DD3880C890DE8450D603E740C
:104BD40025121D4CE0F5107810121F87780E121F55
:104BE40083780A121F837808121F837407121D4CDE
:104BF400E0F9EEFCEFFDAA16AB17850C82850D8358
:104C0400121D6E7407121D16E9F510800375100E3F
:104C1400A9107405023F68F088828983A322A3E067
:104C240085088285098322124C71F022124C71A3EB
:104C3400A3229002F8124EC822E0F50E750F0078F8
:104C44000E22850C82850D8312410BE022E0FAA32B
:104C5400E0F8E4C8F9EA2822F08A828B83E0F50AB6
:104C6400750B00780A22124C1B124C7122E0850845
:104C740082850983A3A32274EE121D7074FE121D93
:104C8400008A088B09ECFEEDFF890AAC18AD19EE19
:104C9400FAEFFB1208A48A0C8B0DEA450D7003028F
:104CA4004D63851882851983123CA51209AC8A824A
:104CB4008B83E58245837003024D5EA3A3124DD31B
:104CC400880E890FE8450F7003024D5E7414121D9F
:104CD4004CE0F510A3E0F511E50AF50B780B121F73
:104CE400877419121D4C121F9A7810121F83741B9B
:104CF400121D4CE0F9AC0CAD0DAA08AB09850E826F
:104D0400850F83121D6E7405121D16E9F50B705282
:104D140074FE650A604C850C82850D83E064027024
:104D240041124D72FAA3E0F9EAF874026870037450
:104D34002969702E851082851183124C51F50CE47B
:104D440039F50D780C121F83EEFCEFFDAA08AB09B0
:104D5400120A307402121D168008750B0E8003753A
:104D64000B01A90B7402121D167F0A021E42A31224
:104D74004DD788828983E02274F6121D7074FE1266
:104D84001D00740C121D4C124DD3E8851882851930
:104D940083F07401121D4CE9F0E4F508F509780874
:104DA400121F837508027808121F837404121D569B
:104DB400880889097808121F8379FE120A18740674
:104DC400121D167402121D160247848E828F8312DE
:104DD4004DD722E0F8A3E0F92274F7121D70EAFE21
:104DE400EBFF890890030F124C39121516EA54028E
:104DF400600BA908EEFAEFFB120898800279017F94
:104E040001021E4274F2121D7074FE121D00EAFEAD
:104E1400EBFF890A7401650A60147402650A600371
:104E2400024EB77901120C7CE96003024EB7EEFA28
:104E3400EFFB1209FAEA4B6003120A00A818A91939
:104E4400880889097808121F837508027509007893
:104E540008121F837508507509827808121F837C15
:104E6400FF7DFF7A017B0012089E7406121D1680D6
:104E740038850882850983A3A3A3A3A3A3124EC1E3
:104E8400EEFAEFFB1214FEE4F50CF50D780C121F8C
:104E9400837402121D4C121F9A7CFF7DFFAA08AB7B
:104EA400091208AA7404121D168A088B09E508451C
:104EB4000970BE7402121D167F06021E4212410BB7
:104EC400124EC822E0FCA3E0FD2274F4121D708A85
:104ED400088B09ECFEEDFF9019A9E0F4604B7A0908
:104EE4007B00121642EA4B60408A828B8374B1F0D5
:104EF400A3E4124F30F08A828B83A3A3E508F0A3C6
:104F0400E509124F30A3EEF0A3EFF0740C121D4C20
:104F1400124DD38A828B83A3A3A3A3A3A3A3124278
:104F2400FC9019A9E0F912164E023237F08A828BEE
:104F340083A3A3A3A322C082C08312158E12157C5F
:104F4400790112188202519074F7121D70EAFEEB77
:104F5400FF8A82F5837401F0A3E4F0A3F0A374D470
:104F64001250D974011250D01250ED1250EDA3A377
:104F740074021250D0A3A3A3A3A31250C8240CF507
:104F840082E43FF58374BCF0EA2434F582E43FF50F
:104F94008374E8F0A37403F0EA2436F582E43FF561
:104FA4008374A0F0A3740FF0EA2438F582E43FF58B
:104FB400831250C8243AF582E43FF583740AF0EA78
:104FC400243BF582E43FF5837409F0EA243CF5823E
:104FD400E43FF58374961250CA243EF582E43FF50B
:104FE400837442F0EA243FF582E43FF583744CF085
:104FF400EA2440F582E43FF5837445F0EA2441F560
:1050040082E43FF5837443F0EA244AF582E43FF5F1
:10501400837404F0EA244FF582E43FF5837403F0CB
:10502400EA2450F582E43FF5837440F0A374E2F07F
:10503400A374011250CA244BF582E43F1250E3F0EA
:10504400EA2454F582E43FF5837401F07C107D007A
:105054007900EA2455FAE43FFB121636EE2465F58E
:1050640082E43FF583E4F07C00ECFA75F00CA4F8DC
:10507400A9F0EE28F8EF39F9E8240DF582E439F5C2
:10508400837442F0E8240EF582E439F583744CF01D
:10509400E8240FF582E439F5837445F0E82410F52B
:1050A40082E439F5837450F0EE2AF8E43FF9E824F9
:1050B40031F582E439F5837404F00CECC3940340B5
:1050C400A802591A74C8F0A3E4F0EA221250D422B8
:1050D4001250D9A322F08A828B83A3A3A3A322F51F
:1050E40083E4F0A3F0A3F0A3227420F0A3E412500D
:1050F400D4A3A322C082C0837A907B011216F090BD
:1051040018A9EAF0A3EB12604424CEF582E43BF53F
:1051140083E4125F8FE4F0A31254EA1262B81262BD
:10512400B024D3F582E438F583E4125F9F1262B8A9
:105134002483F582E834011262B62484F582E834CB
:10514400011250E31262B924881251837458F0A3F7
:1051540074181262B9248A1251837470F0A37418FB
:105164001262B9248C1251837464F0A3741812620D
:10517400B9248E125183745EF0A37418F0800DF577
:1051840082E83401F583227404121D16D083D08280
:1051940002013274F0121D708A088B098C0A8D0B7F
:1051A4007A207B0079007410121D4C12627EFD740B
:1051B400F82AFA85080C85090D850A0E850B0F78E7
:1051C4000C121AD3E50CF87005E9A2E0500F79012E
:1051D400EBFEEC2EF582E43DF583E8F00BEAC39494
:1051E4000850CC7412121D4C12629BF9EB88828910
:1051F40083F0700A8C828D83E41254B604F0025F4B
:10520400C574F0121D7074FC121D007402121D4C42
:10521400EAF0A3EBF0851882851983ECF0A3EDF096
:10522400E9FB125F161250E5F07A008045125F1612
:10523400780C121BB87408780C121AECEAF8740291
:10524400121D4CE028FCA3E034008C82F583E0F5C9
:1052540008E4F509F50AF50B780C7908121B0B1212
:105264005F16E50CF0A3E50DF0A3E50EF0A3E50F42
:10527400F00AEAC39B40B67404025FC274F0121DC4
:105284007074F8121D00890BEAFEEBFF12182E7AD7
:10529400B27B181216909018A9125F1CEEF0A3EFBF
:1052A400126044F8A3E0F583888212629BF9888235
:1052B400F583A3A3A3A3A3A3A3A374ACF0A374181B
:1052C4001254B6A3A3A3A37422F0A374181254EA2D
:1052D400E50B1260442402FCA3E03400FD7A6679F5
:1052E40082121792E970129081C8780C121BB812BE
:1052F40054BC780C12199060099018A9E024021289
:105304006D0F1254BCC082C083125606D083D08263
:105314007466121C13750A00E50AF50875F021A4D9
:10532400FEAFF0125F4CE4126044126031F50C756C
:105334000D00780C121F83E5081254C5240FFCE4F9
:1053440039FDEA24E7FA50010B125ED9121D1690BA
:1053540018A9E0126031C0E01262A024F3F582E4DF
:1053640039F583D0E0F0050AE50AC3940340A91295
:10537400628C243CF582E438F583125EDFAC18AD10
:105384001979017A047B041213D81254D47A027B5B
:105394000012060A1254D47A037B0012060A9018EB
:1053A400A9E02440FCA3E03400FD12628C244C12DA
:1053B4006F15FA79001207C07404121D4C1250E5DF
:1053C4001260442451125EE8E0FA74026A6003EA4F
:1053D4007004740280027401851882851983125442
:1053E400E1600574036A70047A0180027A00740330
:1053F400121D4CEA1254E16003EA70047A00800240
:105404007A027402121D4CEA1254B6E0F87402686F
:105414006003E870047800800278017401121D4C66
:10542400E8F07404121D6679047A087B0412143EB1
:10543400AC18AD1979017A007B0412143E7403127E
:105444001D6679017A027B0412143E7402121D66F1
:1054540079017A037B0412143E7401121D667901EA
:105464007A067B0412143E1207EA1256131207F04E
:105474009081E0121BD61207CC9081E0121BD61249
:1054840009A67A017B001256131216727900120AC9
:10549400BA126F0C14600814600A14600C80107542
:1054A400C900800875C901800375C90243C908028F
:1054B4005FC0F088828983229018A9125F20A3A379
:1054C4002275F00CA4F8A9F09018A9E0126DA2229C
:1054D4001262902436126F15FCA3E0FD221254B61A
:1054E400E0FA74026A221262BD1254F12224D1F548
:1054F40082E438F5832274F4121D70EAFEEBFF5443
:1055040080602012561312165A8A088B09EA4B60DF
:105514000A12184CAA08AB09121648EEFAEF648076
:105524000255FAEAA2E050249018A9E02488FAA3CC
:10553400E03401FB1213D29018A9E0248CFAA3E002
:105544003401FB121468EE64010255F85402601B26
:10555400126D56E06401700A1256067A6679821258
:10556400178C122EF0EE64020255F8EA54046028F7
:10557400125F0A7401F07B00FA79031213F01262CD
:105584008C243812641D7808121F7F7A08126EDC8E
:10559400121D16EE6404805CEA5408600B1213F6C4
:1055A400126434EE6408804CEA54106008121876D1
:1055B400EE6410803FEA542060219018A9E024830F
:1055C400F8A3E034018882F583E0600AE4F0FCFA91
:1055D400FB7972121894EE64208019EA5440601921
:1055E4001265092406F582E438F583125F1C121D46
:1055F4006EEE6440FAEFFB80047A007B007F0402C5
:105604001E429018A9E02468FCA3E03400FD221295
:10561400561722126298C81254F1E0F922C082C0CF
:10562400838A828B83E064B0700312185202519013
:1056340074F0121D7074FF121D00EAFEEBFF851852
:1056440082851983E4F0E012580860030257D6E813
:1056540024D412603CFAA3E0FB8E828F83A3A3E0E0
:105664006A7003A3E06B60030257D68E828F83A314
:10567400A3A3A3E0F508740B650870030257E7E8D9
:1056840024DDFAE439FBEE2405FCE43FFD740165F6
:105694000870278C828D83E0F509740A650970030C
:1056A4000257E774126509703A8A828B83E070228C
:1056B4007C01AA18AB1979758015741365087023D9
:1056C4008A828B83E0700B7C01AA18AB197974125F
:1056D4001894851882851983126D8CF5837401F0F2
:1056E4000257E7E824D612603C600AEEFAEFFB1298
:1056F400187C0257E7741B650860030257E78C8225
:105704008D83E064287002A3E060030257E79018D9
:10571400A9E02451F8A3E03401F98808F509888246
:10572400F583A385820E85830FE82402F50AE43904
:10573400F50B851882851983E0850E82850F831207
:105744005F7DE0F50C750D00780C121F838E828F3F
:1057540083A3A3A3A3A3A3A3A312627EFDAA0AAB5C
:105764000B125ED9121D168E828F83A3A3A3A3A34B
:10577400A3A3E0F98508828509831262B91258004F
:105784007032741069703E780A121F83AC0AAD0B34
:10579400126D19120D667402121D16E97027E50ABE
:1057A400240FF508E4350BF509850882F583E0C379
:1057B40094105011850882850983E004FCAA0EAB7D
:1057C4000F797680087C01AA0EAB0F7977121894B2
:1057D4008011851882851983E004F0C39403500373
:1057E40002564A8E828F83A3A3A3A3E0F9EE240575
:1057F400FAE43FFB1209827401025FC22456126F5D
:105804001564012275F021A4F8A9F0126D9E1264AA
:105814006C2274F7121D7074FD121D00E9FE7F00E6
:10582400EFFC75F021A4F885F008A90812580F7050
:105834004FE824D412603C6A7003A3E06B7041E823
:1058440024F412603CF83395E0F9EC687001E960E7
:1058540036EEF0908228AC18AD197403121C137440
:1058640001121D4CEFF0EEF404C0E07402121D4C62
:10587400D0E0F07C03AA18AB197978121894800749
:105884000FEFC3940340997403121D1602591A743E
:10589400F7121D70E9FEECFFE9601074016E700BE5
:1058A400EC600874086F60031213DE8069C082C064
:1058B40083ECFAEDFB12628C2452F582E438F58312
:1058C400121F96790012146E02518B74F7121D7018
:1058D400890878008003E928F8E8C39C5036E81268
:1058E4006026F90860F3EA28126029FD08E5086DCE
:1058F40070E4E8C0E07409121D4C125F1CD0E0F0A3
:1059040074FF29C0E0740B121D4C125F1CD0E0F030
:105914007901800279007F01021E4274F0121D7029
:1059240074E1121D008A0A8B0BEA2403F8E4350B98
:10593400F98A828B83A3A3E06020147003025CB213
:1059440024FC7003025D15147003025E4714700397
:10595400025E8124FA600B025EC67901121882028B
:105964005EC6EA240DFEE4350BFFEA240CF508E4D8
:10597400350BF50988828983E0600A24FC700302F0
:105984005A4F025EC6125ECDC0E0125F28D0E0120C
:105994005F8FE02401F0A3E03400F07401121D567F
:1059A400880A890B780A121F837402121D56880A0A
:1059B400890B780A121F83125F2F790212186A74F6
:1059C40004121D16E9640160467401121D56880A0A
:1059D400890B780A121F837402121D56880A890BD8
:1059E400780A121F83125F2F790312186A74041243
:1059F4001D16E964016003025EC680138518828562
:105A04001983E02402F07401121D4CE024FEF074AA
:105A140001121D4CE0C394025003025EC685188235
:105A2400851983125EF3125EE8A3E0FA8882898303
:105A3400E0F9EAF874F068700374FF6970BE1262EA
:105A44008C2437F582E83401025E2E9018A9E024F4
:105A540037F8A3E03401F9E8FCE9FD8882F583E036
:105A64007003025EC6F83395E0F9125ECDFA339501
:105A7400E0FBE82AF8E93BF97A027B00121C6DE8A6
:105A84008C828D83125F9FE0F89018A9E0F9A3E05F
:105A9400C9240E12603CC398A2D265D033400302DD
:105AA4005EC67403121D56880C890D780C121F8370
:105AB4007406121D56880C890D780C121F83125F10
:105AC4002F790912186A7404121D16E9640160031F
:105AD400025EC67403121D4CE0C3940D4003025EC3
:105AE400C690812E7413121D66740C121C13740359
:105AF400121D4C125EDFF5087509007808121F8329
:105B04007406121D4C125EF3FCA3E03400FD741500
:105B1400121D5E125ED9121D1690815E7407121D4D
:105B2400667406121C139081647406121C13125FAF
