:020000040000FA
:0600000002011A021E8934
:03002B0002263C6E
:03003B0002265941
:030043000225840F
:03005300021EFF8B
:03006B000225ADBE
:03007B000225E873
:10008300021CDFE5C754F84401F5C77901220000DB
:100093000080FB120086B90003020104E479217891
:1000A30008B800028004F709D8FCE479297802B87B
:1000B30000028004F709D8FCE4900281785C791689
:1000C3008002F0A3D8FCD9FA781A90014A7A01BACF
:1000D30000028007E493A3F608DAF97ADC7B179031
:1000E300014B782179028015E493A3AD82AE838A14
:1000F300828B83F0A3AA82AB838D828E83D8E9D9C6
:10010300E775828D7583FF740112012C75829175D9
:100113008300740012012C75D00075813F7518811E
:10012300751902759F00020096C09FF59FE473D076
:100133009F22D083D082C09FE493C0E0740193C018
:10014300E0740293F59F2201FF0000B40000280031
:100153002800283075A000A000A000A0000008001F
:1001630008E001F000100010001000100010001053
:100173000050005000500010001000D00700000095
:100183000000000F0001000500307507001000019A
:100193000081FF00000000FFFFFF0202020802507F
:1001A30000A0000000E803024F810100003E81022D
:1001B3004B810100002E18024581010000B60202A6
:1001C3004B810100002F18024381010000CC020281
:1001D3004B810100003018024181010000CE020270
:1001E3004B81010000311802A280080000CF0202F7
:1001F3004B8101000032180247810100003318FFD0
:10020300FF17004B0A4B0A4B0A4B0A4B0A4B0A4B8C
:100213000A4B0A4B0A4B0A4B0A4B0A4B0A01E803E7
:10022300057710020A0A530E0000000100000200C5
:1002330000030000040000050000060000070000A2
:10024300100000110000120000130000140000153C
:100253000000160000170000FFFF00014B105110B3
:100263000000571000006B02120135C58C03120108
:1002730035D68C03120135F08C03120135608D03E2
:10028300120135638D0312013547EC021201355A11
:10029300EC021201358BEC02120135C5EC0212019E
:1002A300351EED0212013565ED02120135ADED0289
:1002B300120135DCED021201350BEE02120135425B
:1002C300EE0212013589EE02120135A2EE0212018D
:1002D30035F7EE0212013525EF021201355FEF0209
:1002E300120135C0A602120135C3A702120135FC63
:1002F300A7021201351FA80212013531A80212010B
:10030300356FA802120135EBA802120135B3A90219
:10031300120135D5A9021201356CAA02120135BEAC
:10032300AA02120135EFAA02120135FCAA02120138
:100333003566AB02120135BDAB02120135C0AB020B
:10034300120135F9AB02120135FCAB02120135067D
:10035300AC021201355AAC021201359BAC021201F8
:1003630035CEAC021201350BAD021201350DAE02D2
:10037300120135B1AE021201351AAF02120135581E
:10038300AF02120135C7EF02120135EFEF0212017E
:100393003521F0021201356DF002120135D1F00260
:1003A30012013511F1021201354EF1021201357CB1
:1003B300F10212013526F20212013530F202120166
:1003C300353DF20212013570F2021201357CF20260
:1003D30012013594F2021201359EF2021201350325
:1003E3008F03120135118F0312013586CA011201E1
:1003F3003530CB011201354ECC011201358ACC01C7
:1004030012013525CD0112013509CE01120135D571
:10041300CE0112013563D001120135D4D00112018E
:10042300358ED10112013580D201120135ECD20192
:100433001201351ED30112013514D50112013558AD
:10044300D50112013576D50112013519D6011201F4
:1004530035D0E402120135EEE402120135FFE50264
:1004630012013509E60212013534E7021201352B78
:10047300E8021201356DFD01120135A3FE011201DF
:10048300351DFF0112013530FF01120135B5B901E8
:1004930012013541BA011201354DBA0112013588F5
:1004A300BA01120135F7BA0112013500BC0112017C
:1004B3003509BD01120135D0BD011201352DBF0132
:1004C3001201354BBF0112013568BF0112013533EB
:1004D300C0011201355BC00112013525C3011201B0
:1004E300352AC30112013543C50112013591C501F6
:1004F30012013501C6011201353FC6011201351B38
:10050300C701120135DBC70112013527C8011201EA
:10051300352AC8011201356EC801120135B6C8016A
:10052300120135F5C80112013517C9011201354B06
:10053300C901120135AEC9011201355ACD021201AA
:100543003568CD02120135BBCD02120135DACD0279
:100553001201351FCE0212013563CF02120135FE9F
:10056300CF0212013542D0021201356CD0021201C2
:1005730035DBD00212013521D10212013598D102A7
:1005830012013549D202120135DB26001201357CF6
:100593002700120135DF270012013500290012015F
:1005A300352F2900120135DC2A00120135532D00A5
:1005B300120135C32F00120135B53000120135AEDB
:1005C3003100120135B53300120135A9360012018D
:1005D30035D83700120135DC3900120135EC3A0009
:1005E3001201357B3C001201356C3D00120135BA16
:1005F3003D00120135293E001201354D3E00120126
:1006030035EE4200120135FD430012013528440046
:10061300120135EE440012013554F6021201355E23
:10062300F602120135A3F602120135B7F6021201E2
:10063300354DF70212013583F70212013597F702A0
:10064300120135ACF702120135F7F7021201355EDC
:10065300F80212013589F802120135CCF8021201B1
:1006630035F6F80212013521F902120135B287037A
:100673001201352AE5011201350DE6011201358813
:10068300E601120135C3E60112013514E801120136
:10069300359DE801120135B5EA0112013547ED0137
:1006A300120135F9ED0112013505EF01120135781B
:1006B300F001120135D1F00112013537C8021201E0
:1006C300357AC802120135FEC802120135D1C902BA
:1006D300120135A8CC02120135B68103120135C3CC
:1006E300820312013502830312013566830312016B
:1006F30035C98303120135668403120135948403DB
:10070300120135CF8403120135EF84031201355BE7
:10071300D202120135E7D202120135A6D302120129
:1007230035BED402120135D8D602120135299D02F5
:100733001201354E9D02120135229E021201358FA0
:100743009E02120135CF9E021201356B9F021201E8
:10075300359FA0021201357AA102120135D9A102F7
:10076300120135AAA20212013536A3021201357C09
:10077300A302120135EEA30212013599A40212015C
:1007830035B9A40212013501A5021201351DA502D6
:1007930012013597A502120135A5A50212013534C0
:1007A300A6021201359DA602120135C1DB02120118
:1007B3003546DC0212013588DC021201356CDD029C
:1007C300120135D9DD021201351DDE021201356138
:1007D300DE021201358EDE02120135B6DE0212018F
:1007E30035EEDE021201352CDF0212013553DF0232
:1007F300120135CDDF0212013517E0021201356611
:10080300A8011201355FAA011201354CAD01120195
:1008130035A0AD01120135CBAD01120135A4AE01F6
:10082300120135D4AE01120135E7AE0112013528AC
:10083300AF0112013555AF01120135A3AF0112010A
:1008430035D8AF0112013506B0011201358BB00165
:1008530012013535B301120135B8B401120135A2C5
:10086300B60112013591B7011201359BB70112018F
:10087300352BB80112013556B801120135A4B9015F
:100883001201358A9302120135039402120135BD18
:100893009902120135C89A02120135719C021201A4
:1008A30035FF9C021201355A4500120135DB450024
:1008B3001201350846001201355346001201355422
:1008C3004700120135A347001201351F49001201E9
:1008D30035A14900120135F049001201355B4A0088
:1008E3001201350F4B00120135AC4B0012013527B5
:1008F3004C00120135B14C00120135044D001201B8
:10090300354C4E00120135CB4F0012013596500085
:10091300120135A35000120135F3500012013503C3
:1009230051001201352751001201352A51001201DD
:1009330035135200120135F5520012013597530059
:10094300120135325400120135595400120135B6E3
:1009530054001201350D55001201355B550012018B
:1009630035A95500120135125600120135B2560051
:100973001201354E5700120135DB57001201355075
:100983005800120135A05800120135FF580012011A
:1009930035265900120135E05900120135D15B00AB
:1009A3001201351A5C001201354C5C00120135E767
:1009B3005C001201359B5D00120135CB5D00120115
:1009C30035E05D00120135505E00120135915E0085
:1009D300120135A65F00120135276000120135CAE6
:1009E3008902120135158A02120135218A02120188
:1009F30035F58A021201350C8B02120135498B023F
:100A03001201357A8B02120135B28B0212013508BD
:100A13008C021201351E8C021201355A8C0212010E
:100A2300356D8C02120135948C02120135C88C028B
:100A3300120135EE8D02120135388F021201353461
:100A43009002120135519102120135C9260012019B
:100A5300350AC302120135B8C602120135ECC702CA
:100A63001201357AF1011201353DF40112013543CA
:100A7300F40112013500F7011201355AF90112018F
:100A8300350FD702120135A6D70212013564D802F9
:100A93001201358ED802120135C4DA021201355D16
:100AA3006000120135986000120135DD6C001201FF
:100AB30035496E00120135466F00120135CB7200C5
:100AC300120135B573001201350174001201351B93
:100AD3007400120135587400120135637400120159
:100AE300356C74001201351C7500120135EC75006C
:100AF3001201353376001201359976001201350B58
:100B030077001201353F96011201358799011201D1
:100B1300358D9901120135E0A001120135EDA401D3
:100B230012013598E8021201352EE902120135440B
:100B3300E9021201359DE902120135E1E9021201D0
:100B4300351BEA02120135B3EA0212013522EB0228
:100B53001201352BEB0212013537EB02120135512D
:100B6300EB021201357BEB0212013590EB0212010D
:100B730035F2EB0212013519EC0212013571B7029D
:100B83001201357EB70212013598B702120135CB37
:100B9300B70212013509B8021201356EB80212010B
:100BA3003583B8021201358EB8021201359BB802A3
:100BB300120135B2B802120135C0B802120135CFA5
:100BC300B802120135E4B802120135F9B802120174
:100BD3003504B90212013510B9021201351DB902EB
:100BE3001201352CB90212013537B9021201355CF5
:100BF300B90212013500BA0212013515BA02120107
:100C0300352FBA021201354CBA0212013569BA0204
:100C130012013574BA0212013520BB0212013501EB
:100C2300BC0212013526BC0212013531BC0212018D
:100C33003546BC021201355ABC02120135BBBC0257
:100C4300120135C1BC02120135C7BC02120135CDF8
:100C5300BC02120135E5BC0212013518BD021201B6
:100C6300353DD801120135D4D8011201356CD901B3
:100C73001201355CDA0112013593DA01120135A64E
:100C8300DA0112013514DB01120135AFDC01120167
:100C930035E2DC0112013517DD0112013528DD01D2
:100CA300120135A1DD01120135C2DD01120135DA70
:100CB300DD0112013532DF011201353BE101120181
:100CC300358BE3011201358EE401120135DDE401B8
:100CD300120135008002120135FD8002120135E850
:100CE30081021201350A82021201351682021201B3
:100CF30035688302120135978302120135C78402D6
:100D030012013504850212013530860212013506BF
:100D13008702120135588702120135B78702120183
:100D230035628802120135CF8802120135418902EA
:100D33001201350080031201352580031201359617
:100D430080031201357E7800120135877800120185
:100D530035907800120135C17900120135E07B002E
:100D6300120135167C00120135507C001201358AC0
:100D73007C00120135BE7C00120135FD7C0012019E
:100D830035377D001201358D7D00120135C77D0099
:100D9300120135187E00120135527E00120135759D
:100DA3007E00120135728B031201359E8B031201F3
:100DB30035F98B03120135038C03120135138C03B0
:100DC300120135568101120135C783011201352401
:100DD3008401120135C084011201359D8501120180
:100DE300351886011201359A8601120135F98901F8
:100DF3001201355D8A011201354A8B0112013580DA
:100E03008B01120135C38B01120135548D0112017F
:100E130035808D01120135C28D011201350B8E0112
:100E2300120135778E01120135A58E01120135BFEE
:100E33008E01120135E68F01120135FD8F0112017A
:100E430035D89101120135F691011201352C920129
:100E5300120135B89301120135359401120135ABF6
:100E63009401120135E994011201350D9601120125
:100E730035037F00120135617F00120135807F0049
:100E83001201357F8E03120135BE8E0312013529FF
:100E93008F031201351D8C031201352D8C031201B2
:100EA300353C8C03120135B88C03120135C6880317
:100EB3001201354A8903120135B08903120135FA4B
:100EC3008D03120135F87F001201352DFE02120148
:100ED3003597FF02120135F8FF021201352CF30298
:100EE300120135BCF3021201353AF402120135CB7B
:100EF300F4021201355CF5021201359FF50212016D
:100F030035A9F502120135B8F502120135CEF50205
:100F1300120135E1F5021201353DF6021201355198
:100F2300F6021201356A8D03120135D48D031201C5
:100F330035DF8D03120135EF8D03120135C88E03A2
:100F4300120135DA8E031201359ABD02120135A45E
:100F5300BD02120135E4BD021201352DBE0212019C
:100F63003565BE02120135BFBE02120135DCBE0279
:100F7300120135E6BE021201352DBF0212013552B0
:100F8300BF0212013567BF02120135D8BF02120139
:100F93003571C002120135BCC002120135E9C0022D
:100FA3001201356DC102120135A8C102120135DBF0
:100FB300C102120135EDC1021201350CC202120148
:100FC3003525C202120135DEC202120135FD84034A
:100FD300120135528503120135C0850312013534E0
:100FE300860312013549F90212013571F902120122
:100FF3003566FA0212013595FA0212013516FB0223
:10100300120135C9890312013531FC02120135671A
:10101300FC021201359AFC02120135F3FD021201A2
:1010230035C28A03120135D88A03120135E28A03D5
:10103300120135368B03120135678B031201358894
:1010430086031201358F860312013591860312013F
:1010530035948603120135FF86031201351D87037C
:101063001201357EAF0212013547B00212013582FB
:10107300B002120135B3B00212013513B1021201ED
:10108300355DB102120135ABB10212013536B20240
:101093001201352FB302120135D3B40212013553B5
:1010A300B502120135BEB502120135D1B5021201E6
:1010B30035B8B60212013502B70212013557E00204
:1010C3001201356DE0021201350EE1021201354DB8
:1010D300E1021201356AE1021201359BE1021201BC
:1010E30035E8E1021201351BE20212013556E20234
:1010F30012013561E402120135BE7F00120135E0B1
:10110300FF01E066701008A3E066700A08A3E066BA
:10111300700408A3E06622C3E7960809E796080966
:10112300E7960809E79622C3E09608A3E09608A38A
:10113300E09608A3E09622C008C3E096F50808A34A
:10114300E096420808A3E096420808A3E096450803
:101153007001D3D00822080808EAC0E0EBC0E0869B
:10116300F0E7A4FA180986F0E7A42AFA180986F02A
:10117300E7A42AFA180986F0E7A42AFA1986F0E701
:10118300A4FBE5F02AFA190886F0E7A42BFBE5F0A7
:101193003AFA190886F0E7A42BFBE5F03AFA181897
:1011A3000986F0E7A4C5F02BFBE43AFA1908E7C572
:1011B300F0C6A426F6E5F03BFBE43AFA1886F0E71E
:1011C300A4F6E5F00826F6E43B08F6E43A08F6D080
:1011D300E0FBD0E0FA22E4CFC0E0E4CEC0E0E4CD0F
:1011E300C0E0E4CCC0E075F020E626F608E633F66E
:1011F30008E633F608E633F6181818EC33FCED333B
:10120300FDEE33FEEF33FFC3EC9709ED9709EE973D
:1012130009EF97191919400FFFEC97FC09ED97FD9A
:1012230009EE97FE191906D5F0BFECF709EDF7099A
:10123300EEF709EFF7191919D0E0FCD0E0FDD0E083
:10124300FED0E0FF226016080808C6C313C618C6FE
:1012530013C618C613C618C613C6D5E0EA2270090A
:10126300080808226016181818C6C333C608C63300
:10127300C608C633C608C633C6D5E0EA22E627F653
:101283000809E637F60809E637F60809E637F622CD
:10129300E026F608A3E036F608A3E036F608A3E056
:1012A30036F622E026F008A3E036F008A3E036F095
:1012B30008A3E036F022C3E697F60809E697F60896
:1012C30009E697F60809E697F622C3E096F008A325
:1012D300E096F008A3E096F008A3E096F022E0562B
:1012E300F608A3E056F608A3E056F608A3E056F680
:1012F30022E056F008A3E056F008A3E056F008A356
:10130300E056F022E0F608A3E0F608A3E0F608A30F
:10131300E0F622E6F008A3E6F008A3E6F008A3E669
:10132300F022E0FAA3E0FBA3E0FCA3E0FD22E0F857
:10133300A3E0F9A3E0FAA3E0FB22E8F0A3E9F0A31A
:10134300EAF0A3EBF022CAC0E0E6F0A308DAFAD091
:10135300E0FA22CAC0E0E0A3C582CCC582C583CD32
:10136300C583F0A3C582CCC582C583CDC583DAE628
:10137300D0E0CA22C3E498F8E499F91213B880269E
:10138300C3E49AFAE49BFBE920E7E91213B8E49873
:10139300F8E499F922C3E498F8E499F91213B8E44C
:1013A30098F8E499F9C3E49AFAE49BFB22EB20E76B
:1013B300CFE920E7E0B90010BB0008E88AF084F821
:1013C300AAF022E4FBC8FA22EB70227B10C833C8D0
:1013D300C933C9335007C39AC3DBF280069A50015D
:1013E3002ADBEAC833F4C8C933F4C9FA2275F00812
:1013F300E4C833C8C933C933C99AC99B5004C92A3D
:10140300C93BD5F0ECFBC833F4C8E4C9FA22600D3C
:1014130008C6A2E713C618C613C6D5E0F322600CAC
:1014230008C6C313C618C613C6D5E0F42270042237
:10143300600D18C6C333C608C633C6D5E0F41822F8
:10144300251810AF08F518400C15198008F5184039
:10145300021519D2AF2200C0D0251810AF08F51815
:10146300500C05198008F51850020519D2AFD0D0D9
:10147300222518F58210AF08F518400C15198008BD
:10148300F51840021519D2AF851983222518F58264
:10149300E43519F583222518F8E43519F9222518BE
:1014A300FAE43519FB222518FCE43519FD22E4730F
:1014B3002518C582C0E0E51934FFC583C0E0E518EF
:1014C300C3958224F810AF08858319858218800894
:1014D300858319858218D2AFCEF0A3E520F0A378D7
:1014E30008E608F0A3DEFAEFF0A3E58124FAF8E6B4
:1014F30008F0A3E608F0A3E608F0A30808E608F05E
:10150300A3E608F0A315811581D0E0FED0E0F8151D
:101513008115811581E8C0E0EEC0E0222518C5825F
:10152300C0E0E51934FFC583C0E0E518C395822404
:10153300F910AF088583198582188008858319857A
:101543008218D2AFCEF0A3E520F0A37808E608F026
:10155300A3DEFAEFF0A3E58124FBF8E608F0A3E6A7
:1015630008F0A30808E608F0A3E608F0A315811520
:1015730081D0E0FED0E0F815811581E8C0E0EEC02F
:10158300E022851983851882E0A3FEE0A3F5207885
:1015930008E0A3F608DFFAE0A3FFE0A3C0E0E0A3BE
:1015A300C0E0E0A3C0E0E0A3C0E0E0A3C0E010AF70
:1015B300088582188583198008858218858319D246
:1015C300AFD083D082020132851983851882E0A3CC
:1015D300FEE0A3F5207808E0A3F608DFFAE0A3FF16
:1015E300E0A3C0E0E0A3C0E0E0A3C0E0E0A3C0E06C
:1015F30010AF088582188583198008858218858332
:1016030019D2AFD083D08222C0D02518C582C0E0C2
:10161300E51934FFC583C0E0E518C3958224F310B0
:10162300AF088583198582188008858319858218F8
:10163300D2AFC8F0A3E9F0A3EAF0A3EBF0A37908D3
:10164300E709F0A3D8FAECF0A3EDF0A3EEF0A3EFD3
:10165300F0A3D0E0F0A3D0E0F0A3D0E0F0A3E52026
:10166300F0A3E5F0F0A322851983851882E0C0E09A
:10167300A3E0F9A3E0FAA3E0FBA37808E0F608A34C
:10168300DFFAE0FCA3E0FDA3E0FEA3E0FFA3E0C0DC
:10169300E0A3E0C0E0A3E0F5D0A3E0F520A3E0A33E
:1016A300F5F010AF088583198582188008858319A2
:1016B300858218D2AFD082D083D0E0F8D0E03274E4
:1016C300048006740280027401C0E0F404121474EE
:1016D300D0E0121349227404800474028000CCC049
:1016E300E0EDC0E0E518C39CCCAD1950011D10AF6F
:1016F300068C188D1980068C188D19D2AF121356CB
:10170300D0E0FDD0E0FC22D083D082E9C0E0E493B6
:10171300A3C386F0C5F095F0F908E493A386F0C55A
:10172300F095F0700BE493A3C3994005E90480029C
:10173300A3E475F002A42582F582E5F03583F583F1
:10174300D0E0F9E493A3C0E0E493C0E022D083D0D7
:1017530082ECC0E0EDC0E0E493A3FCE493A3FDEDD1
:101763004C600D12179CEC24FFFCED34FFFD80EF61
:10177300E493A3FCE493A3FDED4C600D1217DBECA3
:1017830024FFFCED34FFFD80EFD0E0FDD0E0FCE46E
:1017930093A3C0E0E493C0E022C0E0C3E4939608BF
:1017A3007401939618400FE49366700808740193CC
:1017B300661870007019A3A3C3E493960874019389
:1017C3009618A3A3400DD0E0D0E0D0E002178CA37D
:1017D300A3A3A3A3A3D0E022C0E0C0F088F0E493C6
:1017E3006670080874019366187000A8F0A3A370CC
:1017F3000BD0F0D0E0D0E0D0E002178CA3A3D0F060
:03180300D0E02210
:1018080074F612151FEAFEEBFF8C088D09EE2434DE
:10181800F8E43FF9E8FCE9FDEE2435121B24FAEE62
:101828002437121B24F88508F0A4C885F00A850916
:10183800F0A4250AF9EA28F8E439F97A257B001298
:1018480013B8EA8C828D83F0FA131313541FF8EE41
:1018580028F8E43FF9E8245DF582E439F583E0C02F
:10186800E074075AF8D0E0B800028004C313D8FC2B
:10187800A2E0EE50082434F582E43F8018243612A2
:101888001B24F5F0EA84A8F0EE28F8E43FF9E824F0
:1018980038F582E439F583E0F97F030215CB74F754
:1018A80012151FEAFEEBFFEE2434121B24C0E0EEF3
:1018B8002435F582E43FF583D0E0F08E828F83A350
:1018C800A3A3A3A3A3A3C082C0838E828F83A3A351
:1018D800A3A3A3E0F8A3E0F9D083D082E0C398F5EE
:1018E80008A3E099F509EE247F121B246401703ED9
:1018F800EE2480F582E43FF583C082C0838E828F18
:1019080083A3A3A3A3A3E0240108A3E03400F9D090
:1019180083D082E0687003A3E06970127CC37D06FF
:10192800120991EE247FF582E43FF583E4F0AC08D8
:10193800AD09EEFAEFFB121808E9F91225767F02D5
:101948000215CBC082C083851882851983E0F8A36D
:10195800E0F9C3EA9CEB9D5010C3EC98ED99401B4D
:10196800C3EA98EB995014800EC3EA98EB994007A4
:10197800C3EC98ED994004790180027900D083D0B6
:101988008222EAC39CFAEB9DFB2274EF12151F908A
:10199800036CE064086005E06407702A9061C8E0A1
:1019A800602490039AE0F4601DE0F875F00DA4C877
:1019B800AAF02AF9749C28FE740339FF8E828F835B
:1019C800A3A3A3E07003021AA0906060E0C0E0EE59
:1019D8002468F582E43FF583D0E0F0750C5D750D61
:1019E80007750800750900E5D914F50AE5D9540307
:1019F800F50E60127403650E6043E50A600AEE2472
:101A080067121B2470028075900758E06401601FFC
:101A1800121B2160047A0480027A00E50AC39AFA4C
:101A280095E0FB1208118A088B09EA45097005122E
:101A38000C438064121B2170048A0C8B0DE50A602C
:101A480012850C82850D83F50BE5D9F0A3150BE5FE
:101A58000B70F6121B21604474FC250AF50A780CF9
:101A68001216C6AC0AA90EEEFAEFFB120A4574026A
:101A7800121459E97026AA08AB09120FD3793D8EC2
:101A8800828F83A3A3A3A3E0FA7B0012069DEEFA3C
:101A9800EFFB1209AF120AA5790080787403650E6E
:101AA8006051850A1075110078101216C6AC0CAD7D
:101AB8000DAA08AB09120A097402121459EE246817
:101AC800121B2464807004747F8001E0F50C780C8C
:101AD8001216CAE50EF50C780C1216CAA90AAC083B
:101AE800AD0990039AE0FA7B0012066D7402121495
:101AF80059801C90036CE06408AC0CAD0D7009EEC5
:101B0800FAEFFB120A758007EEFAEFFB120B1712B9
:101B18000C4F79017F0A0215CBEE2483F582E43F4E
:101B2800F583E02274F212151F74FC121443EAFEC6
:101B3800EBFF8909A2AFE433F508C2AF021BF6E058
:101B4800601B780C1216C6AC0BA90EEEFAEFFB124E
:101B58000A3F74021214597404250BF50B740125FD
:101B68000BF5D9850ED9E50B6018F50A850C828529
:101B78000D83E0F5D9A385820C85830D150AE50A46
:101B880070EA75E195EE2463F8E43FF97A007B008A
:101B9800A2AFE433F50BC2AF88828983E0FCA3E0EF
:101BA800FDEC4D603A88828983E0FAA3E0FB8A82E3
:101BB8008B83E0FCA3E0FD88828983ECF0A3EDF041
:101BC8008A828B83E4F0A3F088828983E0FCA3E017
:101BD800FDEC4D700A88828983A3A3E4F0A3F0E5A5
:101BE8000BA2E092AF120FD39006CAE004F0EE24E5
:101BF80063121B24F8A3E0F9E8496064EE24631239
:101C08001B242402F8A3E03400F988828983E58242
:101C18002402F50CE43583F50DE0F50BA3E0F50E91
:101C2800EE2462121B24640170369061D0E0F81231
:101C38001B2160047C0480027C007480C398FA95A0
:101C4800E0FBE50B2CF8E43400F9E82402F8500135
:101C580009C3EA98EB99A2D265D0334003021B4727
:101C68009006CAE0604D9006CBE0F89006CAE0C343
:101C780098500C74026509703A9006CCE060348E76
:101C8800828F83A3A3A3A3E0851882851983121CDE
:101C9800CB740212148FE8121CCB9006C9E028F00E
:101CA80074021214A9AA18AB1979011206CD90066C
:101CB800CAE4F0E508A2E092AF74041214597F0751
:101CC8000215CBF0A3E4F09006CAE0F82200000069
:101CD8008521878522C622C0E074EB12160BA2AFBD
:101CE800E433F508C2AF759B00906182E0A2E05032
:101CF80030E591A2E0502A7591FE740165217021AA
:101D0800121E72120B65121E601216D9122320744D
:101D180004121459E9640170057901120BAD121906
:101D280092906182E0A2E5505DE591A2E550577579
:101D380091DF90036CE064076005E06408702F127F
:101D48001E7274016521703E120B65121E60121618
:101D5800D91223207404121459E964017005790119
:101D6800120BAD7901EEFAEFFB121B2C8018E06420
:101D78000D701390038EE004F064287002E4F07A8A
:101D880000E0F9120C55906182E0A2E64003021EC1
:101D980035E591A2E64003021E357591BF90036CAC
:101DA800E064057008120B4D120B598003120B5397
:101DB800752100120BCBE990036DF07900120BAD81
:101DC8001208B97A017B0090036BE0F9120FA39017
:101DD8007803E06442705690075CE014F0704EC2DD
:101DE800AF121DEC00782AD0E0F618D0E0F6E59F97
:101DF8005407F87005750DFF8003750D7FC4C0E0AA
:101E08007829E6F50A08E6550DF50B740B780A12E1
:101E18001421D0E0250AF8906270E0A2E740F8E8C3
:101E2800C333906272F0906270E0D2E0F09061810A
:101E3800E0A2E35009E5E9A2E3500375E9F7A3E05E
:101E4800A2E75009E591A2E7500375917FE508A242
:101E5800E092AF7F0802166A8E828F83E0F8A3E0D3
:101E6800C82416F582E438F5832290039AE0F875C1
:101E7800F00DA4C8AAF02AF9749C28FE740339FF4F
:101E880022C0E0C0D0C082C083906183E0A2E0504D
:101E980009E5BFA2E0500375BFFEE0A2E15009E5E5
:101EA800BFA2E1500375BFFDE0A2E25009E5BFA261
:101EB800E2500375BFFBE0A2E35009E5BFA2E3507F
:101EC8000375BFF7E0A2E45009E5BFA2E45003752B
:101ED800BFEFE0A2E55009E5BFA2E5500375BFDFFB
:101EE800E0A2E65009E5BFA2E6500375BFBFD08364
:101EF800D082D0D0D0E032C0E074F212160BE5A741
:101F0800A2E6500FE5A1A2E6500953A7BF75A1BFED
:101F1800121F53E5A7A2E5500CE5A1A2E550065310
:101F2800A7DF75A1DFE5A7A2E15009E5A1A2E1506D
:101F38000375A1FDE5A7A2E2500CE5A1A2E25006B7
:101F480053A7FB75A1FB7F0102166A74F712151FD0
:101F580075210190036CE064067015120AC98A8223
:101F68008B83A3A3A3A3A3A3E0FAA3E0FB120B3BD9
:101F7800A2AFE433FED2AF900372E0640170187A26
:101F8800207B0090036BE0F91210E17A207B00902F
:101F9800036BE0F9120FA9906182E0D2E6F0900796
:101FA80059E0602185C6228016900371E0640170B3
:101FB80008E5C654F84405F5C653BEFC121CD8748F
:101FC80001652160E4EEA2E092AF7F020215CB002A
:101FD8008E238F24858228858327851882851983F7
:101FE800E0CEA3E0CF852882852783EBC9EAC8ED38
:101FF800CBECCA75F010C3E833C8E933C9EA33CA71
:10200800EB33CBC3EA9EF526EB9FF525B35004AB23
:1020180025AA26EC33CCED33CDD5F0DAAE23AF24A8
:102028002274E912151F74FA121443EAFEEBFF8CAE
:102038000A8D0B120B71EAF8EBF9ECFAEDFB8E82C4
:102048008F8312133D90036CE024F7C39405500668
:10205800751401022190120AC98A088B09EA4509F8
:10206800700302218DEEFCEFFDAA18AB19120B6B61
:10207800850882850983A3A3780C1213079081062B
:10208800780C1212E18518828519837810121307CB
:1020980090810678101212E1780C791012111A50FA
:1020A8001F780C79101212B99080E6780C12113A48
:1020B8004047850C14850D15850E16850F1780452C
:1020C8009080E685101485111585121685131778EA
:1020D80014790C1212B9781412113A501C751400A4
:1020E800751500751600751701781479101212B954
:1020F8007814790C121280800C751401751500750E
:102108001600751700740978141212619080EA7825
:102118000C1213077814790C1211D98508828509D5
:1021280083A3A3A3A3A3A31221AE1213B8880C8977
:102138000DE4F50EF50F7814790C12128074041260
:10214800148F1221AE1213B8E8FA8A0CE4F50D7850
:1021580014790C12111A50077814790C1212B990CC
:10216800036CE06408600AE064066005E0640570DA
:10217800209080EE781412113A50169080F278145C
:10218800121293800C7514007515007516007517DA
:1021980000850A82850B83781412131674061214AC
:1021A800597F100215CBE0F8A3E0F97AD07B03221F
:1021B80074F712151F120B83900757E06401701013
:1021C800906245E4F0A3F053F4F343FE0C5390F30C
:1021D800120B29E5C654B84441F5C6E59E54476438
:1021E8004170F8906185740FF0900755E0F4700223
:1021F800A3E0604E900756E0600814601B14602E40
:102208008040750801750900900755E07808121498
:1022180030E508F45280802A750801750900900796
:1022280055E07808121430E508F4529080147508C7
:1022380001750900900755E07808121430E508F494
:1022480052A079007F020215CB74F712151FE9FE20
:10225800EAFF120B8374016E700C7A807B00900386
:102268006BE0F9120FA39026CCE493F46008E49392
:10227800F91208AD800953C6B8E59E544770FA12A2
:102288000B2F900757E0640170031208CB90075595
:10229800E0F47002A3E0604B900756E06008146019
:1022A8001A14602C803D750801750900900755E0E7
:1022B8007808121430E508428080287508017509ED
:1022C80000900755E07808121430E5084290801312
:1022D800750801750900900755E07808121430E573
:1022E8000842A0120AC98A088B09A808A909E8495E
:1022F8006014E5E170FCE82414F582E439F583E024
:10230800F46003E0F5E174016F700A7A0190036BE1
:10231800E0F912102D02224C74F112151F8A088B55
:10232800098C0A8D0B90810678081212E1740F123D
:10233800148F780C121307908106780C1212E1782A
:1023480008790C12111A9080E650107808790C124E
:1023580012B9780812113A4014800E780C790812D4
:1023680012B9780C12113A50047901800279007F71
:10237800080215CB74ED12151F8A088B098C0A8D7B
:102388000B90810678081212E1741312148F780CDE
:10239800121307908106780C1212E1780C79081252
:1023A800111A40117808790C1212B9AA08AB09ACB5
:1023B8000AAD0B8022751000751100751200751397
:1023C800017810790C1212B978107908121280AAC3
:1023D80010AB11AC12AD137F0C0215CB90810678AF
:1023E800081213078A828B8378081212F47F04027A
:1023F80015CB74F512151F8C828D8378081213077C
:102408008A828B8378081212CD122452C3E09CF082
:10241800A3E09D12244440229081167808121307E5
:102428008A828B8378081212A68A828B83A3A3A33D
:10243800A3E02420F0A3E0344EF080A0F088828945
:1024480083C3E09420A3E0944E22EA2404F8E43BFA
:10245800F98C828D83A3A3A3A3E0FCA3E0FD88826B
:1024680089832274F512151FE9FE9006E5E0FAA3A8
:10247800E0FBEE29F8E433F9747A28F582748039A0
:10248800F583E02AF508A3E03BF50978081216C69B
:1024980090810A121325121FD874021214598A083F
:1024A8008B098C0A8D0B74107808121248AA08AB95
:1024B800097F040215CB74F112151F8A0C8B0D8C41
:1024C8000E8D0F741112148F1216DD741112148FE1
:1024D800E02401F508A3E03400F509E4F50AF50B5A
:1024E800780C79081211599080FE78081213077831
:1024F8000C7908121159AA0CAB0DAC0EAD0F121FB6
:10250800D874021214598B09EA450960047A0180CB
:10251800027A00EC2AFCE43DFD741312148FE0F8F3
:10252800A3E0F9E8FEE9FFECF8EDF97A717B021215
:1025380013B888088909E4F50AF50B8E828F837829
:1025480008121316ECF8EDF97A717B021213B88AA7
:10255800088B09740578081214308E828F83A3A320
:10256800A3A3E508F0A3E509F07F080215CBC08214
:10257800C083E9906000F0D083D08222C0E074F27A
:1025880012160BA2AFE433FED2AFC2C0E5D1A2E46B
:10259800500675D10F120F1F751A00EEA2E092AF08
:1025A8007F0102166AC0E074F212160BA2AFE43380
:1025B800F508D2AF7F007E01E5895E600812261A11
:1025C80060031214B10FEEC333FEEFC3940840E862
:1025D800758900C2C5E508A2E092AF7F0102166ABC
:1025E800C0E074F212160BA2AFE433F508D2AF7F45
:1025F800007E01E58A5E600812261A60031214B193
:102608000FEEC333FEEFC3940840E8758A00C2EBAF
:1026180080C3EFFA7B0075F003A4F8A9F074BD2815
:10262800F582741839F583E0F8A3E08882F583E52C
:1026380082458322C0E0C0D0E8C0E0A8A8D2AFC2DB
:10264800C7751A00E8A2E792AFD0E0F8D0D0D0E082
:1026580032C0E0C0D0E8C0E0E9C0E0EAC0E0EBC0CA
:10266800E0C082C083A2AFE433F9D2AF900F70E02C
:10267800F8A3E0687008539AFBA374018022C2E9AA
:10268800900F70E0F8740128F074F028F582E434B3
:102698000EF583E0F5C1900F70E0C394804002E42A
:1026A800F0E9A2E092AFD083D082D0E0FBD0E0FA8C
:1026B800D0E0F9D0E0F8D0D0D0E032C2AF020000CC
:1026C80022020132FFFFFFFFFFFFFFFFD083D0820E
:1026D80002013274F61214B3E99002DFF090033E5F
:1026E800E0F50875090074027808121430AA08ABDE
:1026F800091210159002E0122FAB9002E0123398E5
:10270800606F90033EE075F003A4FAABF012101569
:102718009002FD122FAB9002FD123398700B9002BD
:10272800E012336912101B80489002FD1242AC7A05
:10273800FF7BFF120E717A0080198A0875090074F0
:10274800027808121430123DA574FF1227D8E4F05D
:10275800A3F00A90033EE0F8EAC39840DD79051239
:1027680005959002DFE0F91204937A0D7B061207B3
:10277800B1023E4874F41214B38A088B09EB5480F2
:1027880060479002DFE0F9120F8B8A0A8B0BAE0AC2
:10279800AF0BEE4F602A8E828F83E064B0701A12FE
:1027A80005A1E960148E828F83A3A3A3A3E0F9EEA9
:1027B8002405FAE43FFB120583EEFAEFFB120F79CA
:1027C800AA08E5096480FB80047A007B000228FBE4
:1027D800F0A312428EA32274F21214B38908890C52
:1027E800750D007403780C121430850C0A850D0BD6
:1027F8009002E2F09002E01237CB1228EB602E1222
:10280800101B7900801D890C750D007402780C125C
:1028180014309002E0123C648882F583A3A3E4F0AC
:10282800A3F00990033EE0F8E9C39840D990033E2D
:10283800E0FA850AF0A4CAA8F0850BF0A428FB12D8
:1028480010158A0C8B0DAE0CAF0DEE4F70030228DD
:10285800E190033EE0FC850AF0A4CCA8F0850BF0DB
:10286800A428FD7900120F677C0080318D0C750D4E
:10287800007403780C1214308A828B831228E6883D
:10288800828983E4F01228F3A3A3F0A3F00DEDC32B
:10289800950840D8EE250AFEEF350BFF0C90033E55
:1028A800E0F8ECC39850288C0C750D007402780C75
:1028B8001214309002E01228E6E82402500109FAC6
:1028C800E9FB8A828B83EEF0A3EFF07D0080BFE501
:1028D800089002E2F07900800279130244DC123C8D
:1028E80068F922A3A312336DEA4B22A312428EA3E6
:1028F800A3A3227F04021585C082C0839002E3123D
:102908003398601C88828983A3A3E06A7003A3E0DC
:102918006B8882898370E8A3A3A3A3123369800418
:102928007A007B000226D474F21214B374FD1214D8
:1029380043EAFEEBFF851882851983E4F0A3F0745F
:102948000212148F7401F0123395701412070912D1
:1029580010159002E6122FAB1233957003022AC1AC
:102968001230ABEE2404F50AE43FF50B850A82F534
:1029780083E024FE603C24FC607424FE607E24FE18
:102988007003022A1124FE7003022A1E24FE70031B
:10299800022A2B24FE7003022A3824FE7003022A1E
:1029A8004524FC7003022A6624FE7003022A7E0274
:1029B8002ABA1207099002E8EAF0A3EB122ACD120C
:1029C8000295E96003022ABA9002E81216DD8E82A7
:1029D8008F83A3A3A3A3A31242AC8508828509838E
:1029E80012336912056B7402121459022ABAAC1810
:1029F800AD19EEFAEFFB1205A7022A89AC18AD193A
:102A0800EEFAEFFB1205AD8078AC18AD19EEFAEFCF
:102A1800FB1205B3806BAC18AD19EEFAEFFB12058B
:102A2800B9805EAC18AD19EEFAEFFB1205BF805104
:102A3800AC18AD19EEFAEFFB1205C580447402120A
:102A48001499880C890D780C1216C674021214A9F0
:102A5800EEFAEFFB1205CB74021214598023AC185E
:102A6800AD19EEFAEFFB1205D1E9F87016740212EF
:102A7800148FE4F0803CAC18AD19EEFAEFFB1205A8
:102A8800D7E9F8E8602C8E828F83A3E06414602273
:102A9800850A82850B83E09002E8F0851882851903
:102AA800831233699002E9122FABE8A3122ACD12E0
:102AB800028FEEFAEFFB120541740212148FE0F94F
:102AC80074030244D9F07CE87D0285088285098375
:102AD80012336D2274E81214B374FA121443740496
:102AE80012148FECF0A3EDF08A128B13EA2405F58B
:102AF8000EE43513F50FEA2402F510E43513F51149
:102B0800851082F58312336912037F8A0A8B0B754D
:102B180008007C037D0079007AE87B02120F67E5E4
:102B28000E2402F516E4350FF5177402121499886D
:102B38000C890D780C1216C6850E82850F83A3A307
:102B4800A3A3E0F50C750D00780C1216C6E50E244B
:102B580005F50CE4350FF50D780C1216C6851682AE
:102B68008517831236701204AB74061214598A0C36
:102B78008B0DE50C450D7003022CFD802085188215
:102B8800851983E088828983F0050885188285196C
:102B980083A3E0C0E0122D3ED0E0F00508E50A244A
:102BA800FBFAE50B34FFFBC3E5089AE49B400302FC
:102BB8002CFD7E007F00851282851383A3A3A3A327
:102BC800E0F50978091216CAE4F514F51578141217
:102BD80016C67514E575150278141216C69002E625
:102BE8001216DD740912148F1216DDE50A24F9F99C
:102BF800AC0CAD0D8510828511831233691205FB6B
:102C08007409121459E96003022C9E850E82850FFF
:102C180083A3A3A3A3A3A3A3E0F89002E5E06870AD
:102C280075E0F5148E1578141216C61242A9850E91
:102C380082850F83A3A3A3A3A3A3A3A3123369121B
:102C48000F617402121459E9604C9002E91233982A
:102C5800703BE4F51478141216C67CFF7DFF7907E3
:102C680085108285118312336912057D740212144E
:102C78005912339E7017850E82850F831243F374A1
:102C88000412148F123D581236A1022D31850C8280
:102C9800850D83122D34A818A9198814891578145C
:102CA8001216C6740412148F1216DD851682851743
:102CB80083122FA11204B774041214598A0C8B0DB5
:102CC800EE4F7003022B7A122D3EEE122D4912366A
:102CD80057EF122D49F8A3E03400F9E50C450D60D3
:102CE80003022B858882898374FFF00508122D3E24
:102CF80074FFF00508E508601A1313543F122FB14A
:102D08001202A1E960099002E9123369120FD3791E
:102D1800008016850E82850F831243F37404121403
:102D28008F123D581239C0790A02362AA3A3A3A3E9
:102D3800E0FEA3E0FF22A8089002E9E02812365737
:102D480022F00508089002E9E0282274E81214B37A
:102D580074FA121443740212148F122FAB740412F3
:102D6800148FECF0A3EDF0740212148FE024051216
:102D78003640E0F50CA3E0F50D740212148FE02440
:102D880002F510A3E03400F511851082F5831233A3
:102D98006912037F750800750900EA24FCFEEB340C
:102DA800FFFF8008050CE50C7002050DA808C3EEAE
:102DB80098EF94005003022F5DA818A919880E896E
:102DC8000F780E1216C6851482851583A3A3A3A3B4
:102DD8001242B01216C6E5142405F50EE43515F5B1
:102DE8000F780E1216C6851482851583122F9F122E
:102DF80004AB74061214598A0E8B0FEA450F700340
:102E0800022F5DEA2404F516E4350FF517851682BE
:102E1800F583E0F50CA3E0F50D851882851983127A
:102E280042AC8A828B83A3A3A3E0F9851082851123
:102E380083123369120499E9F5096003022F5D745E
:102E48000212148F123667F50978091216CAE4F5CA
:102E580012F51378121216C67512E5751302781258
:102E68001216C69002E61216DD740712148F121697
:102E7800DDEEF9AC0EAD0F85108285118312336932
:102E88001205FB7409121459E9F5096003022F5D54
:102E9800E508703FE4F50EF50F780E1216C67CFFB4
:102EA8007DFF790985108285118312336912057DAA
:102EB800740212145912368D700D740412148F1284
:102EC8002F947911022F919002E5E024029002E9F3
:102ED800F080149002E9E0FA9002E5E0790024021B
:102EE8005001096A497072A8089002E5E0FAE82AD8
:102EF800FAE43400FBEE9AEF9B405A851682851758
:102F080083E0C0E09002EA122D43D0E0F005088586
:102F18001682851783A3E0C0E0089002EA122D43C9
:102F2800D0E0F005089002E51242B01216C612422F
:102F3800A9A808123634120F4F74021214599002BD
:102F4800E5E02508F50874FF650C700474FF650D4D
:102F58006003022DACE508601F9002E9E0F5F0E59A
:102F68000884122FB11202A7E960099002EA12330D
:102F780069120FD379008011E509700375090A7485
:102F88000412148F122F94A90902362A1237CFE59A
:102F98000CF0A3E50DF022A3A31244E8AA0CAB0D94
:102FA80022A3A3EAF0A3EBF0229002E8F07CE87DEC
:102FB8000285108285118312336D2274EC1214B3CA
:102FC80074FC121443123AD074021214A912336317
:102FD8001204B18A0C8B0DEA450D700302309B1266
:102FE80030ABA818A9198810891178101216C67C58
:102FF800FF7DFF790B8508828509831233691205E5
:103008007D74021214591231A1700C850A82850B45
:103018008312369E0230A88E828F83A3A3A3A3E0D7
:10302800F51278121216CAE4F512F5137812121670
:10303800C67512E875130278121216C678101216A1
:10304800C6740912148F1216DD740912148FE0F970
:10305800AC0CAD0D8508828509831233691205FB16
:103068007409121459E9FE70157CE87D02850882FE
:103078008509831233691202ADE97009802074163C
:103088006E70027E009002E9123369120FD3EE705F
:1030980004800B7E01850A82850B831239BDEEF907
:1030A8000239D2EE2402F508E43FF5092274EC1245
:1030B80014B374FC121443EAFEEBFF8C0E8D0FEE72
:1030C8002405F508E43FF50974021214A98508825D
:1030D8008509831233691204B18A0C8B0DEA450DF8
:1030E8007003023191EE2402F50AE43FF50BA818AB
:1030F800A9198810891178101216C67CFF7DFF79EE
:103108000D12336312057D74021214591231A17025
:103118000B85088285098312369E807A8E828F837A
:10312800A3A3A3A3E0F51278121216CA8508828514
:103138000983A3A31216DD7512E87513027812121B
:1031480016C678101216C6740912148F1216DD747A
:103158000912148FE0F912335F1205FB7409121477
:1031680059E9FE700F7CE87D021233631202B3E95D
:103178007009802074166E70027E009002E9123386
:1031880069120FD3EE7004800B7E018508828509D1
:10319800831239BDEEF90239D21233A8F510A3E033
:1031A800F511EA45112274E81214B374FE1214439F
:1031B8008A168B178C148D15EA2405F50CE435173F
:1031C800F50DEA2402F50EE43517F50F850E82F5A4
:1031D8008312336912037F8A088B09750B007C03FD
:1031E8007D0079007AE87B02120F67750A00E5080E
:1031F80014F5100424FFF508E50934FFF509805497
:103208009002E8E0FA9002E5E0F8EA28F8E43400F1
:10321800F9E50898E50999500D9002E8E0F8E510FD
:10322800C3989002E5F0E0F51275130078121216B3
:10323800C61242A99002E9E02AFAA3E03400FB1280
:103248000F4F74021214599002E5E0F89002E8E07A
:1032580028F0050A850C82850D83A3A3123C7440CF
:10326800030233449002E8E0C39508E4950940035B
:10327800023344AE0AEE2EFEE433FF123383AC1859
:10328800AD191242C4E439FB1204B18A128B13AC93
:1032980012AD13EC4D701B750B011233731239C14B
:1032A8009002E91228ED6003120FD3A90B740202F1
:1032B800362C851682851783A3A3A3A3E0F50B7884
:1032C8000B1216CAE4F512F51378121216C6751207
:1032D800E575130278121216C69002E61216DD740E
:1032E8000712148F1216DDA910850E82850F83121E
:1032F80033691205FB7409121459E9F50B709B9098
:1033080002E91233986003023208E4F512F51378E3
:10331800121216C67CFF7DFF790F850E82850F83FA
:1033280012336912057D740212145912339E600318
:103338000232081233731236A20232B57CE87D02DB
:10334800850E82850F831233691202B9E960030280
:1033580032A879000232B5AC0CAD0D850A82850B16
:103368008312336D22E0FAA3E0FB22123383E0FAE2
:10337800A3E0F9EA85148285158322850C82850DE0
:1033880083E02EF8A3E03FF988828983229002E641
:103398001243F7E849221233A8F8A3E0F9E84922D2
:1033A8009002E9EAF0A3EBF09002E9E02274E81257
:1033B80014B374FA121443740412148F122FAB8CC2
:1033C800168D17740412148FE02405F50EA3E0344B
:1033D80000F50F740412148FE024021236401233E1
:1033E8006912037F8A0A8B0B7F007E00A818A9192F
:1033F8008808890978081216C6850E82850F83A366
:10340800A3A3A3E0F5088E0978081216C6E50E24D2
:1034180005F508E4350FF50978081216C6850E82F9
:10342800850F83A3A31236701204AB7406121459C5
:103438008A0C8B0D8029123661F00F123661F00F5D
:103448009002E51239AC1216C61242A9EFF81236EC
:1034580034120F4F74021214599002E5E02FFFE561
:103468000C450D70030234F0851882851983123AD1
:10347800E2A3A3A3E0F985148285158312336912A8
:103488000499E9FEE50C2404F510E4350DF511EE78
:103498007050740412148F123667F50878081216E3
:1034A800CAE4F508F50978081216C67508E575091D
:1034B8000278081216C69002E61216DD7407121476
:1034C8008F1216DDE50A24FAF9AC0CAD0D851482CD
:1034D8008515831233691205FB7409121459E9FE24
:1034E800603912367D1239C0EF7003023617900228
:1034F800E9E0F5F0EF849002E8F07CE87D028514BD
:10350800828515831233691202BFE960099002EAC5
:10351800123369120FD3790002362A8F08EF703BF5
:10352800E4F512F51378121216C67CFF7DFF7911A7
:1035380085148285158312336912057D740212146D
:103548005912368D700912367D1236A102362A902C
:1035580002E5E024049002E9F080359002E5E0F805
:103568009002E9E0FAE82404FCE43400FDEC6A4D3A
:1035780060030234F6E50A24FAFAE50B34FFFBE5AA
:103588000828F8E43400F9EA98EB9950030234F675
:10359800851082851183E0C0E09002EAE02FF8A34D
:1035A800E034008882F583D0E0F00F851082851121
:1035B80083A3E0C0E012364ED0E0F00F740212147C
:1035C800998808890978081216C6740212148F128D
:1035D80016DD850E82850F83122F9F1204B774049F
:1035E8001214598A0C8B0DEA450D700302343E748F
:1035F8000212148FE0C0E012364ED0E0F00F7402D1
:1036080012148FA3E0C0E012364ED0E0023446EE2A
:1036180070027E0A850E82850F831236831239C0A6
:10362800EEF974061214597F100215859002EAE02B
:1036380028FAA3E03400FB22F514A3E03400F515C2
:10364800851482F58322123652229002EAE02FFA7C
:10365800A3E034008A82F5832212365274FF2212C4
:1036680037CFA3A3A3A3E0221244E8850E82850FD7
:103678008312336D228510828511831243F78516D4
:1036880082851783229002EAEAF0A3EBF09002EA1F
:103698001243F7E849221239C6E8F0A3E9F0791194
:1036A8002274EA1214B374FE1214438A088B098C2C
:1036B800128D13EA2405FEE43509FFAC18AD198E06
:1036C800828F831233691204B18A0C8B0DEE2406A3
:1036D800F50EE43FF50FEA450D70030237A1E50842
:1036E8002402F50AE43509F50B8A828B83A3A3A388
:1036F800E0A2E550288518828519831233691205DE
:10370800F58A108B11EA45116020791212335F8512
:1037180010828511831214B1E9F50C707F850E8231
:10372800850F83E0600979528011750C0E806D85D4
:103738000882850983A3A3A3A3E0F9E4F508F509A2
:1037480078081216C68E828F83A3A3E0F50878083E
:103758001216C68E828F83A3A3A31216DD8E828FC4
:10376800831242AC1233631206017406121459E92B
:10377800F50C7011850E82850F83E0702D1233636E
:103788001202C580257416650C7011750C0074182A
:1037980012148F1237CBE48010750C011243EF8599
:1037A8001282851383E8F0A3E9F0850E82850F83E2
:1037B800E0600479008002A90C74021214597F0E8B
:1037C8000215851237CF22E0F8A3E0F5838882221C
:1037D80074EC1214B374F71214438A0A8B0B8C100E
:1037E8008D11EA2405FEE4350BFF750C00AC18AD0D
:1037F800198E828F831233691204B18A088B09EA01
:1038080045097003023997E50A2402F50A500205B2
:103818000B8A828B83A3A3A3E0A2E5502F8518828D
:103828008519831233691205F58A0C8B0DEA450D4B
:10383800604F7912AC08AD09123363850C82850D8F
:10384800831214B1E9F50C600302399A850A82855E
:103858000B83E0F508A3E0F509AA08FB1205E9EADD
:103868004B70197AFF7BFF1205E9EA4B70030239A6
:103878008D8A828B83E508F0A3E509F0750800803E
:1038880008750C0E02399A05089002E2E0F8E5087E
:10389800C398400302398D85080E750F00740378AC
:1038A8000E1214308A828B83A3A3E0250EF8A3E0BE
:1038B800350F123D6170D08E828F831239B5122F69
:1038C800AB8E828F83A3A31239B5122FA9EE2404DD
:1038D800F508E43FF509850882F583E08882898345
:1038E800A3A3A3A3F0A3E4F0EE2405F50EE43FF5AB
:1038F8000F850E82F5831239B5A3A3A3A3122FA9AE
:1039080075120775130078121216C6EEFCEFFD74D7
:10391800041214A1120F4F7402121459E4F512780C
:10392800121216C6850882850983E0FC7D00791786
:1039380012336312057D7402121459740712148F1E
:10394800122FAB740712148FE0FA4B603D85088282
:103958008509831239AC1216C6850E82850F83122B
:1039680042AC120F4F740212145974021214A912A5
:1039780033631202CBE96026740712148F1233697D
:10398800120FD38019750C098008750C1180037506
:103998000C011243EF8510828511831239C0A90CDE
:1039A80074098028E0F50875090078082212336D3B
:1039B80088828983221239C6E8F0A3E9F022E0F868
:1039C800A3E0F9850E82850F832274041214597FAF
:1039D8000C02158574EC1214B3123AD0751000EE6F
:1039E8002402F50CE43FF50D850C82F5831233694A
:1039F8001205E98A088B09EA45097003023AB48579
:103A08000A82850B83E064016003023AA9AC08AD21
:103A180009AA0AAB0B1205DDE9606E8508828509E3
:103A280083122D36EE2406F50AE43FF50B8E828FBD
:103A380083A3A31216DD8E828F83A3A3A3A31216DA
:103A4800DD850A82850B831216DD79188E828F83B5
:103A5800123AE21233691206017406121459E9F88F
:103A6800741668700B850A82850B83E4F0A38014B2
:103A7800E860128E828F83123369850E82850F83E8
:103A8800EAF0A3EBF088108018780E1216C6AC087E
:103A9800AD09EEFAEFFB1205E37402121459E9F5C9
:103AA80010AA08AB091205EFE510700E850C828587
:103AB8000D831233691202D18009741665107003E0
:103AC800751000A9100239D7EAFEEBFF8C0E8D0F96
:103AD800EE2405F50AE43FF50B221244E8850C8232
:103AE800850D832274EA1214B37508007509007EE7
:103AF800007F00750A00EC2402F510E43DF5118002
:103B080035EC65087003ED65096003023BA1888206
:103B18008983A3A3E06A7003A3E06B707C88828921
:103B280083A3A3A3A31243F3EE28FEEF39FFEA28E9
:103B3800FAEB39FB050A123C71503A850A0C750DEF
:103B4800007403780C121430851082851183123C9E
:103B580064123D61601FE508450970A58C088D0950
:103B680088828983122D3488828983A3A3E02EFA60
:103B7800A3E03F80BEE50AC394025003023C5F7590
:103B88000800750900EE4F6010EEFAEFFB120FCD3A
:103B98008A0E8B0FEA450F70057900023C61750BA0
:103BA80000023C34850B0C750D007403780C12145C
:103BB80030851082851183E0250CF50CA3E0350DC6
:103BC800F50DE50C2406F514E4350DF5158514827C
:103BD800F583123D666042E50C2404F512E4350DC8
:103BE800F513851282F5831216DDE50E2508FAE530
:103BF8000F3509FB120F4F74021214598512828572
:103C08001383E02508F508A3E03509F50985148232
:103C1800851583123369120FD3E50B600D7C087D7F
:103C2800007900AA0CAB0D120F67050BE50BC395C5
:103C38000A5003023BAC8510828511831243F38836
:103C4800828983A3A3A3A3A3A3E50EF0A3E50F1280
:103C580028F4EEF0A3EFF079010237C6123C68228F
:103C6800E0250CF8A3E0350D229002E2E0F8E50A21
:103C7800C3982274F01214B38A0E8B0F8C0A8D0B22
:103C8800750D00750C0080507916EE2406F508E4D1
:103C98003FF5098E828F83A3A31216DD8E828F8350
:103CA800A3A3A3A31216DD8508828509831216DD56
:103CB800850E82850F83A3A3123369120601740649
:103CC800121459E9F50D7416650D706C8508828516
:103CD8000983E4F0A3F0050C9002E2E0F8E50CC3D8
:103CE800985066AA0C8A087509007403780812149B
:103CF80030850A82850B83A3A3123DB0E8FEE9FF55
:103D08008E828F83123D666040EA2401F508E43410
:103D180000F5099002E2E065087002E50960148880
:103D2800828983A3A3A3A3A3A3A3A31233986003A5
:103D3800023C907918023C92E9609B1243EF7410A0
:103D480012148F123D581239C0A90D7F080215852B
:103D5800E0FAA3E0F5838A8222F9888289831244F3
:103D6800E8EC4D2274F61214B37C0080010C900329
:103D78003EE0F8ECC398501E8C0875090074027870
:103D880008121430123DA5E06A7003A3E06B70DDE1
:103D9800E8FAE9FB80047A007B00023E489002E0E2
:103DA800123DB08882898322E02508F8A3E035090E
:103DB800F92274F21214B38A088B09750A00802755
:103DC8008E828F83A3A3A3A31228EB6003120FD3C1
:103DD8007C087D007900EEFAEFFB120F678E828F68
:103DE80083E4F0A3F0050A123C715027850A0C758C
:103DF8000D007403780C121430850882850983A39A
:103E0800A3E0250CFEA3E0350DFF8E828F831233CD
:103E18009870AD85088285098374FFF0A3F0024489
:103E2800DC74F61214B312059B8A828B83E58245F3
:103E38008370067A007B008007A3A3A3A3123369CB
:103E48007F0202158574E81214B374FB121443E957
:103E5800851882851983F08A168B17ECFEEDFF759D
:103E680010008E828F83A3A3A3E0A2E4502D741DBB
:103E780012148F1233691205F58A828B83E5824505
:103E8800837003024284790AEEFCEFFDAA16AB1791
:103E98001214B1E9F5106003024287741F12148FDF
:103EA800E0F508A3E0F509742112148FE0F50AA3E0
:103EB800E0F50B742312148FE0F50EA3E0F50F8ED6
:103EC800828F83E064026003024225A31243F385D4
:103ED8000882850983A3858212858313EE2406F55B
:103EE8000CE43FF50D888289831242C4F514E43945
:103EF800F5157814121750010000280128273F07EC
:103F0800000228EC3F03285A3F00291B410129469B
:103F1800410229E74003291B410429BF412542E505
:103F28000E450F6003024220850C82850D831243E3
:103F3800F3E8FAE9FB8A828B83E0850A82850B83A2
:103F48001242CF1216C68A828B83A3E0FCA3E0023A
:103F580041A9E50E450F6003024220850A82850BC0
:103F6800837401F01242B9850882850983F07C00C8
:103F78007D008E828F83A3A3A3A3E02401FAA3E08C
:103F88003400FB1204B1EA4B60408A828B83E02440
:103F980002F8850A82850B83E028F0EA2404F8E415
:103FA8003BF988828983E08512828513831242DD7A
:103FB8001242CF1216C68A828B83A31242ACE5083E
:103FC8002403FAE43509FB0241AE850A82850B8396
:103FD800E02404F07C047D007900AA12AB13120FD0
:103FE80067024287E50E450F60030242201242B97C
:103FF800FEA3E0FF850A82850B837404F0EE850832
:1040080082850983F0EF851282851383F074031289
:1040180014A9EEFAEFFB1204B18A0C8B0DEA450DD8
:1040280070030240CA8A828B83A3A3122D347401C1
:10403800121499880E890F780E1216C67405121478
:104048008F1216DD7CFF7DFF1204B7740412145919
:104058008B0FEA450F7033850C82850D831242B0B1
:104068001216C6850C82850D83A31216DD7C027D8F
:10407800007A4D7B8112036D7404121459E9700A99
:10408800740112148F74FFF0A3F08E828F83E064A2
:10409800027039750C02750D00780C1216C68E82E6
:1040A8008F83A31242ACE5082404FAE43509FB1215
:1040B8000F4F7402121459850A82850B83E024027B
:1040C8008009740112148FEEF0A3EFF0740112143A
:1040D8008F12429E740112148F12429502421AE501
:1040E8000E450F6003024220850C82850D83124421
:1040F800E1AA16AB17120E77850A82850B83740224
:10410800F0850882850983EAF0851282851383EB9E
:1041180002421DE50E450F60030242201242B9F823
:10412800A3E0F9850A82850B837402F0E88508828A
:10413800850983F0E985128285138302421D850C67
:1041480082850D83123369120F49EAFAF8C3950E76
:10415800E4950F405CE8650E450F70047A008021F5
:10416800851882851983E0FCE50E2CFCE4350FFDEB
:10417800C3EC98ED94005003E08005E50ECAC39A9D
:10418800FAEA850A82850B83F08A0A750B00780A99
:104198001216C6850C82850D83E0250EFCA3E0353A
:1041A8000FFDAA08AB09120F4F74021214590242EC
:1041B80087751007024287E50E450F705B850C82F4
:1041C800850D831243F3850A82850B837407F08873
:1041D80082898312429612428EE085128285138369
:1041E800F0E82402FAE439FB8A828B8312429E8A21
:1041F800828B83124295A3A31228F31242A3F0E8FC
:104208002405F8500109888289831242A3A3124227
:10421800DDA3A3A3A3F0806775100B8062741D1241
:10422800148F12336912059B8A828B83E58245833A
:10423800604A1243F3880C890DE8450D603E7425E9
:1042480012148FE0F51078101216CA780E1216C6DE
:10425800780A1216C678081216C6740712148FE068
:10426800F9EEFCEFFDAA16AB17850C82850D8312BB
:1042780014B17407121459E9F510800375100EA9CA
:1042880010740502362CF088828983A322A3E08566
:104298000882850983221242E4F0221242E4A3A391
:1042A800229002E61244E822E0F50E750F00780E1F
:1042B80022850C82850D831237CFE022E0FAA3E035
:1042C800F8E4C8F9EA2822F08A828B83E0F50A75B7
:1042D8000B00780A2212428E1242E422E0850882FC
:1042E800850983A3A32274EE1214B374FE12144337
:1042F8008A088B09ECFEEDFF890AAC18AD19EEFAB5
:10430800EFFB1204B18A0C8B0DEA450D70030243D2
:10431800D685188285198312336912059B8A828B88
:1043280083E582458370030243D1A3A31243F38834
:104338000E890FE8450F70030243D1741412148FCD
:10434800E0F510A3E0F511E50AF50B780B1216CA93
:10435800741912148F1216DD78101216C6741B12F7
:10436800148FE0F9AC0CAD0DAA08AB09850E828557
:104378000F831214B17405121459E9F50B705274B5
:10438800FE650A604C850C82850D83E064027041ED
:104398001243E5FAA3E0F9EAF87402687003742995
:1043A80069702E8510828511831242C4F50CE43998
:1043B800F50D780C1216C6EEFCEFFDAA08AB091233
:1043C800061374021214598008750B0E8003750BBE
:1043D80001A90B74021214597F0A021585A312430E
:1043E800F788828983E0228E828F831243F722E046
:1043F800F8A3E0F92274F71214B3EAFEEBFF890878
:104408009002FD1242AC120E77EA5402600BA90822
:10441800EEFAEFFB1204A5800279017F01021585EF
:1044280074F21214B374FE121443EAFEEBFF890A05
:104438007401650A60147402650A60030244D7793E
:10444800011207CFE960030244D7EEFAEFFB120529
:10445800E9EA4B60031205EFA818A9198808890929
:1044680078081216C675080275090078081216C66B
:1044780075085375098178081216C67CFF7DFF7A86
:10448800017B001204AB7406121459803885088227
:10449800850983A3A3A3A3A3A31244E1EEFAEFFB28
:1044A800120E71E4F50CF50D780C1216C674021292
:1044B800148F1216DD7CFF7DFFAA08AB091204B722
:1044C80074041214598A088B09E508450970BE74EA
:1044D800021214597F060215851237CF1244E822BA
:1044E800E0FCA3E0FD2274F41214B38A088B09ECF3
:1044F800FEEDFF901894E0F4604B7A097B00120FF0
:1045080073EA4B60408A828B8374B1F0A3E412454E
:1045180050F08A828B83A3A3E508F0A3E50912452E
:1045280050A3EEF0A3EFF0740C12148F1243F38A29
:10453800828B83A3A3A3A3A3A3A31239C090189427
:10454800E0F9120F7F0228FBF08A828B83A3A3A3D2
:10455800A322C082C0839061907404F0A37448F0D1
:10456800A37402F09061807440F09061BC7403F011
:104578009061877419F0906265741BF0906249E04D
:10458800C3941390619C40107409F09060667401A4
:10459800F090619F7428800D740BF0906066E4F0D1
:1045A80090619F742CF01247477009C29190037074
:1045B800746780059003707461F01247999026CC57
:1045C800E493F46006E493F91208AD7905120C3708
:1045D8000249E9C082C083E9540FF9906185E06916
:1045E8006012E5C654B84441F5C6E59E5447644197
:1045F80070F8E9F053C6B8E59E544770FA0249E9E5
:10460800C082C083A8A853A87E906181E4F0A3F07B
:10461800A3F0C2BA539AFEC289759B00C2C275E95B
:104628000075910075BF0075A91175B90590618174
:10463800F0A374C0F0A3E4F0D2BA439A017480588E
:1046480042A80249E9F0A3F00249E9C082C0837494
:10465800F812144390036E126015700302473F90DE
:10466800036EE0544060177908AA18AB191209EBD9
:10467800AA18AB1912065590036EE054BFF0E05427
:10468800806010790C7A7D7B071209EB90036EE04D
:10469800547FF0E0A2E0501E1247477009C2919083
:1046A8000370746780059003707461F012065B9064
:1046B800036EE054FEF0E05402601E12478C70094D
:1046C800D29190037074718005900370746AF0122F
:1046D800065B90036EE054FDF0E0540460109026F1
:1046E800D012479C12066190036EE054FBF0E05430
:1046F8000860109026D112479C12066190036EE064
:1047080054F7F0E05410600D1247991206619003B7
:104718006EE054EFF0E05420600A12066190036ED8
:10472800E054DFF0A3E05401600D1208CB120667D5
:1047380090036FE054FEF074081214590249E9908E
:10474800619A12498E900757E0640122C082C083A3
:10475800E9600514601780291247477009C29190D3
:1047680003707467801A9003707461801312478C09
:104778007009D29190037074718005900370746A07
:10478800F00249E990619A124980900757E0640164
:10479800229026D2E493906186F02274EA1214B330
:1047A80074F41214439080BAAC18AD19740412133F
:1047B800569026D093F46003024915907808E0C318
:1047C800940250030248F990809A74041214A97450
:1047D80008121356A818A9198814891574041214F4
:1047E8009988088909AE08AF097510FF7511FF751A
:1047F8000EFF7C00750C48750D78801274086C707B
:104808000302488F74096C607E740A6C6079850CA9
:1048180082850D8378081213078E828F83A909E594
:104828000AC9F8881274187808121248E51245085F
:10483800F8C3E098A3E099850C82850D8378081267
:10484800130740188E828F8374187808121248E56F
:10485800124508F8E0C398F8A3E0801A741878089D
:10486800121248E5124508FAE9FB8E828F8312542A
:10487800B2EAC398F8EB99F9C3E89510E995115095
:1048880006881089118C0E0CE50C2404F50C5002D6
:10489800050DECC39413500302480474FF651070AF
:1048A8000474FF65116024850E08740278081214D8
:1048B8003074482508F58274783509F5837808122C
:1048C8001307851482851583E508F0EE2402FE504F
:1048D800010F851482851583A38582148583157439
:1048E8000C12148FE5826E7003E5836F6003024734
:1048F800F175080175090078081216C674021214B9
:10490800A97AB47B09120EB37402121459740C12EA
:1049180014597F0E021585C082C0839061AE7468F9
:10492800F0A3746AF090624574FBF0A304F053F4AA
:10493800FD43FE029007577401F09061A0E0643ACD
:1049480090619A701912498E740164017009C291BC
:104958009003707467801E90037074618017124909
:1049680080740164017009D291900370747180059C
:10497800900370746A02464F743FF0A3745AF09023
:1049880061A0747FF0227433F0A37455F09061A095
:10499800743AF0227F04021585C082C083900735DF
:1049A800E06401701190073BE064016027E0700645
:1049B800A3E06401601E90074CE064017008900752
:1049C80052E06401600E9006DFE06401700A900610
:1049D800E4E06004790C800279008005E0F9122592
:1049E80076D083D082020132C082C08375E1F19013
:1049F80006E2E0604B14600914604F1460471470BD
:104A08004E1208DD9006D1E0F97AD27B06120B8FA0
:104A18009080B6121325120BDD9080CE121325124A
:104A28000B9B9006E3E0F9120BA77901120C2B906F
:104A380006CF124CF8740DF0A37409F0790080A128
:104A48001208E380BF1208E980BA1208EF80B5792E
:104A58001280EB74F41214B375D90D9006D8E0A245
:104A6800E0E4331313F89006D1124E03484401F5DD
:104A7800D97582D2758306124C0B7004E5836406DF
:104A880070F57582D9758306124DF864DF7004E5F8
:104A980083640670F375E1959006D8E0F97AD97BBE
:104AA80006120B959018977483F0A37408124B762E
:104AB800124E2374A1F0A37408124E369006E2E059
:104AC80064019006CF700B124B091213079080C631
:104AD8008009124B091213079080D6780812129396
:104AE80090810678081212E1124B9D78081213166D
:104AF8009006CF124E0A7413124CAC7402F002499D
:104B08009C125CBD78082274F71214B3124BF5F5A9
:104B1800D97582D2758306124C0B7004E58364063E
:104B280070F59006E8E0600A78E97906FA124CA078
:104B3800DAFB124C8F124C0B7004E583640670F597
:104B4800900708E0600A78097907FA124CA0DAFBA6
:104B580075E195901897748FF0A37408124B76122C
:104B68004B807412124CAC7401F0FF021585124F81
:104B7800AF7489F0A3740822124E29F0A374A1F02F
:104B8800A37408124E3A124B9D74FF125BC0900634
:104B9800CF124E0E229006CF124DF2240EF582E46B
:104BA80038F5832274F71214B3124BF54402F5D981
:104BB8007582D2758306124C0B7004E58364067007
:104BC800F59006E8E0600A78E97906FA124CA0DA6E
:104BD800FB75E195901897124C11F0A3124C111225
:104BE8004B837414124CAC7404F00255A49006E87C
:104BF800124BFC22E02407F5D99006D1E0C43333E8
:104C080054C022124DFC64D822749B124C1E124CC4
:104C18001EF0A3740822F0A37408F0A3749B2274F6
:104C2800F71214B3124BF54406F5D97582D2758381
:104C380006124C0B7004E583640670F59006E8E0F4
:104C4800600A78E97906FA124CA0DAFB124C8F1246
:104C58004C0B7004E583640670F5900708E0600A61
:104C680078097907FA124CA0DAFB75E19590189744
:104C78007495F0A37408124FA8124B807415124C47
:104C8800AC7403F00255A4900708124BFC4404F5D9
:104C9800D97582D27583062288828983125556A8CF
:104CA80082A98322F090036C22C082C08390073FC0
:104CB8007425F090073D7401F0A3E4F07A01FB122B
:104CC8000BB990072B124CF87419F0A37409F090E3
:104CD800073CE06401701690073BE0701079011200
:104CE8000C13120BE9120C0D7900120C1F0249E982
:104CF800124DF2241AF582E438F5832274F6121460
:104D0800B374FA121443900734E06401700812086F
:104D1800F5900734E4F075E1F190072B124DF22479
:104D280015F582E438F5837401F0900736E06401E4
:104D380070499080AAAC18AD19740612135675D92B
:104D48000D90072D124E034403F5D975822E7583F5
:104D580007124DF864347004E583640770F3A818EB
:104D6800A919124CA0740612148FE582687003E525
:104D7800836970EE75E195790180027900120BBFA5
:104D88009018977481F0A3740AF0A37487F0A37441
:104D98000A124E1A124E1A124E23124E2FF0A374F4
:104DA8008DF0A3740A124E3690072DE0F97A2E7B07
:104DB80007120B8F90073FE0F91225767901120B45
:104DC800C59080B6121325120BDD9080CE121325E4
:104DD800120B9B7900120C2B90072B124E0A74169B
:104DE800124CAC7405F00402560AE0F8A3E0C8229D
:104DF800124DFC22E0F5D9A3E58222E0C4333354F6
:104E0800C022124E0E22124DF22414F582E438F517
:104E18008322F0A37481F0A3740A22124E29F0A30E
:104E280022124E2D22F0A3744BF0A3740A22124EC4
:104E38003A22F09018A5124E2F124FB3124E2F128D
:104E48004E2DF02274F71214B38908A808E875F0FB
:104E58000DA4C8AAF02AF9749C28FE740339FF909F
:104E68000744E0F97A457B07120B8F900752E070F0
:104E7800257900120BF5EE240CF582EF3401F58349
:104E8800E07004790080027901EE2406FAEF34011B
:104E9800FB120B9580057901120BF575E1F175D9B7
:104EA80023900744124E034405F5D975824575834E
:104EB80007124DF8644B7004E583640770F375D9E5
:104EC8000075D90075D90075D90075D90075D90054
:104ED800EE24221253711253907003E9658370F621
:104EE800EE242612537C2403F8E43583F9125390F8
:104EF8007003E9658370F6EE242B125385242C1277
:104F08005385242D125385242E125385242F125392
:104F18008524301253852431125385243212538547
:104F28002433125385245D12537C2405F8E4358319
:104F3800F91253907003E9658370F6EE2437125F17
:104F480083541FF8EE242A125F83C43354E048F5D3
:104F5800D975E1959018977451F0A3740AF0A37469
:104F680057F0A3740A124FA8F0A3745DF0A3740A53
:104F7800124E36900751E0F91225769080B612133A
:104F880025120BDD9080CE121325120B9B90600D1D
:104F9800E4F07901120C2B90036C7406F00255A40E
:104FA800124FAF124E2F22124FB322124FC0744B22
:104FB800F0A3740A124FC022F0A3744BF0A3740A32
:104FC800F0A32274EC1214B3900742125CB9781063
:104FD800121307900753E0FAF875F00DA4C8ACF067
:104FE8002CF9125CCCFFEE2EFEEF33FF8E0CF50D84
:104FF800750E00750F0085100885110985120A8540
:10500800130B9080D6780812129378081216C2856E
:10501800100885110985120A85130B7808790C1276
:1050280012807810790C1211D9E4F50EF50F780872
:10503800790C1212B98A0C750D007403780C1214CD
:10504800307808790C12128090810678081212E1E3
:10505800AA08AB09AC0AAD0B12237C7404121459CC
:105068008A088B09A808A909C3EE98EF995006E8A1
:105078002EF8E93FF9E890600EF0E9A3F0EEA3F00E
:10508800EFA3F090600D74C1F07F0C021585C0820B
:10509800C0839006CF12511A02464D74F71214B30A
:1050A80090039A125CDB749C28F8740339F9E8249D
:1050B80005FAE439FB8A828B83125D95888289839D
:1050C800A3A3A3A3A3A3A3A3A3ECF0A3ED12520C41
:1050D800A3A3A3A3A3A3E024FFF8A3E034FFF98AC2
:1050E800828B83E8F0A3E9F00255A4C082C08390C4
:1050F800072B12511390073F0249E4C082C08390E6
:1051080007421251139007510249E412511AF0A3B1
:10511800F022124DF22406F582E438F583E42202E7
:10512800013274F61214B31252C16004780480027A
:105138007800E8240EF8ECC39850030251F87C0C70
:1051480090075DE4F0EA2476F582E43BF583E0908D
:10515800075EF0EA24771251FD90075F125207901C
:105168000760F0EA24791251FD9007611252079006
:105178000762F0EA247B1251FD90076312520790F0
:105188000764F0EA247D1251FD90076512520790DA
:105198000766F0EA2474F8E43BF98A828B83A3A3B8
:1051A800A3A3A3E0FEA3E0FF88828983E02EF0A3F7
:1051B800E03F1259D99007671252079007681252B8
:1051C800E5601775085D75090778081216C6790332
:1051D800120A3F74021214597C1012567AECFE120D
:1051E8005556DEFB75E1957904120BE379018002CF
:1051F800790002560DF8E43BF988828983E022128F
:10520800520CE022F088828983A32274F61214B328
:105218001252C16004780480027800E8240AF8EC8D
:10522800C39850030252BC7E0890075D7401F07C5D
:10523800C37D06785E79077F051252CFA882A983BD
:10524800DFF7EA2480FCE43BFD8A828B83A3A3A3D7
:10525800A3A3E0F508A3E0F5098C828D83E0250877
:10526800F0A3E03509F01252CF08A9838C828D8310
:10527800E0888289831252E5601975085D7509070F
:1052880078081216C67C087903120A3F74021214B1
:10529800597E0C74012EF5D975D90375825D758315
:1052A80007EEFF125556DFFB75E1957904120BE303
:1052B80079018002790002560D9061D0E0F874807F
:1052C800C398FC1252EA221252D3228C828D83E0B8
:1052D8008882898312605288828983A322F01252BD
:1052E800EA22EA2483F582E43BF583E02274F7128C
:1052F80014B3EAFEEBFF9061D0E0706875D91875B9
:10530800D90375D903EE249C1254271253907003C5
:10531800E9658370F6EE24A412538524A5125385FB
:1053280024941254271253907003E9658370F6EEA3
:1053380024881253711253907003E9658370F675CF
:10534800E1957908EE2494FAE43FFB1209DF790429
:10535800EE2488FAE43FFB1209DF7904120BE3120A
:105368005585800279000255A412537C2404F8E480
:105378003583F922F582E43FF583E58222F582E45C
:105388003FF583E0F5D9EE22125556E8658222747E
:10539800F71214B3EAFEEBFF9061D0E0707C75D988
:1053A8000E75D90375D904EE248C12542712539024
:1053B8007003E9658370F6EE2484125371125390DA
:1053C8007003E9658370F675E1957908EE248CFA27
:1053D800E43FFB1209DF7904EE2484FAE43FFB1270
:1053E80009DF7C00EE24ABF8E43FF9ECFAC3E49A59
:1053F800FA95E0FBEE2AFAEF3BFBEA248BF582E410
:105408003BF583E088828983F00CA3A882A983EC0A
:10541800C3940840D6125585800279000255A4121B
:10542800537C2408F8E43583F922C082C08375D9F7
:105438000275D90375D90575E195EA246FF582E4FB
:105448003B1254B0EA2471F582E43B1255920249AA
:10545800E974F61214B3EAFEEBFF90075D740612C6
:1054680055031216C67C017903120A3F74021214FE
:105478005975D90675D90375825D7583071254FD70
:105488007004E583640770F575E19590036CE0643A
:10549800087010EE246FF582E43F1254B0EE2471C8
:1054A800125E21790102560DF5831260212274F6ED
:1054B8001214B3EAFEEBFF9061D0E0703390075D01
:1054C800740A1255031216C67C017903120A3F7436
:1054D8000212145975D90675D90375825D7583074B
:1054E8001254FD7004E583640770F512558280023A
:1054F800790002560D124DFC646222F075085D7544
:10550800090778082274F61214B3EAFEEBFF9061DB
:10551800D0E07035780190075D740B124CACE064F4
:1055280007701975085D75090778081216C67C0199
:105538007903120A3F7402121459780512583B1263
:105548005556DAFB1255828002790002560DE0F5B5
:10555800D9A32274F71214B3EAFEEBFF75D90375C9
:10556800D90375D90DEE24DE125F83F5D975E1955F
:105578007904120BE3125585802275E195EE246FAC
:1055880012601BEE2471F582E43FF583E8F0A3E98D
:10559800F0790122F0EEA2E092AF79007F010215C6
:1055A8008574F61214B312573C60047804800278AC
:1055B80000E8240BF8EAC39840447C0990075D741E
:1055C80008125689125698DDFB125F80601B750819
:1055D8005D75090778081216C67903EEFAEFFB1213
:1055E8000A3F74021214597C0D1256741257347003
:1055F800FB75E1957904120BE31255858002790059
:1056080080031214597F0202158574F61214B3121E
:10561800573C6004780480027800E8240BF8EAC359
:105628009840457C0990075DEC125689125698DD22
:10563800FB125F80601B75085D75090778081216F4
:10564800C67903EEFAEFFB120A3F74021214597C72
:105658000D12567412573470FB75E1957904120BCC
:10566800E31257B7790180027900809912567A8C33
:10567800082274012CF5D975D90375825D758307E5
:1056880022F0EE24E5F8E43FF97A5E7B077D0822F4
:1056980088828983E08A828B8312520CA882A9832C
:1056A8008A828B83A3AA82AB832274F61214B31264
:1056B800573C6004780480027800E82408F8EAC3BC
:1056C800984064780690075D740CF0900389E09028
:1056D800075EF090038AE090075FF090038BE090FC
:1056E8000760F090038CE0900761F090038DE090E4
:1056F80007621257CB601B75085D75090778081299
:1057080016C67C067903EEFA120A3F74021214597F
:10571800780A1257C512573470FB75E1957904124F
:105728000BE31255858002790002560D1255561565
:1057380008E50822EAFEEBFF9061D0E0F87480C328
:1057480098FA1257D02274F61214B312573C600418
:10575800780480027800E82404F8EAC398404B787B
:105768000290075DE8F0EE24F7125F8390075E125F
:1057780057CB601B75085D75090778081216C67C3B
:10578800027903EEFA120A3F7402121459780612CB
:1057980057C512573470FB75E1951257B779041243
:1057A8000BE3EE240D1255888002790002560DEEA7
:1057B800241DF582E43FF583E4F0A3F0221258415A
:1057C800880822F01257D022EE2483F582E43FF5B0
:1057D80083E02274F61214B31252C1600478048074
:1057E800027800E82404F8ECC39840427802900755
:1057F8005D7407F0EA24F8F582E43BF583E090074E
:105808005E1252E5601975085D7509077808121669
:10581800C67C027903120A3F7402121459780612E0
:10582800583B125556DAFB75E195790180027900EB
:1058380002560D125841E8FA22740128F5D975D993
:105848000375825D7583072274F71214B3E9FFA20A
:10585800AFE433FEC2AF7C0080010C1258EC50104C
:10586800ECF8EA28F8E43BF9125DC06F70EC80169A
:10587800EA246EF8E43BF9E0FCEA2CFAE43BFB127C
:105888005896EF1259D3EEA2E092AF0255A4EA243B
:105898006AF582E43BF58322C082C083A2AFE43379
:1058A800FDC2AF1258F414F07C00801DECF8EA2811
:1058B800F8E43BF9E8246B125DC3C0E0E8246AF51C
:1058C80082E439F583D0E0F00C1258EC40DEEA248B
:1058D8006DF582E43BF58374FF125919EDA2E0924D
:1058E800AF0249E91258F4F8ECC39822EA246EF59D
:1058F80082E43BF583E022C082C083A8A8C2AF122D
:105908005896E9125919E8A2E7E433FAE8A2E780C1
:10591800CEF0EA2469F582E43BF583E4F02274F3DF
:105928001214B3EAFEEBFFECFAEDFB8A828B83A339
:10593800A3A3A3E0541FF0EE2436F582E43FF583D9
:10594800E4F0750A00EE245DFCE43FFD8A828B8357
:10595800E08C828D83F0750B00E50A33333354F8FD
:10596800F50C8A828B83E0F508750900E50B780849
:10597800121411E508A2E05027EE2436F8E43FF9A6
:1059880088828983E0F508EE2508F508E43FF509E3
:10599800E5082438F582E43509F583E50C1259D376
:1059A800050B050CE50BC3940840B7050A8A828BE2
:1059B80083A3AA82AB838C828D83A3AC82AD83E55B
:1059C8000AC3940540867F050215851259D904F04B
:1059D80022F088828983E02274F71214B390039826
:1059E800E064037003025B7D7C0075829E7583030F
:1059F800E06003025B67ECF875F00DA4C8AAF02A12
:105A0800F9749C28FA740339FB8A828B83A3A374E4
:105A180001125B9FE4F0EC8A828B83A3A3A3A3F01B
:105A2800125F9C7401F0EA2467F582E43BF5837405
:105A380001125B99E4F0A3125B99A3A3125BAF2454
:105A48000FF582E43BF5837401F0EA2435125B8498
:105A58002418125BB4241C125B84241D125BA82436
:105A68007F125B842473125B842482125B84246813
:105A7800F582E43BF5837480125919EA246E125BAF
:105A88008424ED125B8424EE125B8424EF125B8481
:105A980024F0125B8424F1125BA824F3125BA8247F
:105AA800F6125B842483125B8424D3125B8424D48F
:105AB800125B8424D5125BB424D9125BB424DF12A0
:105AC8005B8424E1125B8424DD125B8424E2125B94
:105AD8008424E3125B8424F9125BA824FB125BA8DC
:105AE80024FD125BA824FF125BA8240C125B8E24F1
:105AF80006125B8E2407125B8E2408125B8E240923
:105B0800125B8E240A125B8E240B125B8E1258973E
:105B180074FF7804F0A3D8FCEA245DF8E43BF97C30
