:020000040000FA
:0600000002011A0224D1E6
:03002B00022C8420
:03003B00022CA1F3
:03004300022BCCC1
:030053000225473C
:03006B00022BF570
:03007B00022C3024
:10008300022327E5C754F84401F5C779012200008C
:100093000080FB120086B90003020104E479217891
:1000A30008B800028004F709D8FCE479297802B87B
:1000B30000028004F709D8FCE4900281787E791766
:1000C3008002F0A3D8FCD9FA781A90014A7A01BACF
:1000D30000028007E493A3F608DAF97AFE7B18900E
:1000E300014B78B879038015E493A3AD82AE838A7C
:1000F300828B83F0A3AA82AB838D828E83D8E9D9C6
:10010300E775826B75839B740412012C758291755C
:100113008300740012012C75D00075813F7518811E
:10012300751902759F00020096C09FF59FE473D076
:100133009F22D083D082C09FE493C0E0740193C018
:10014300E0740293F59F22012E053A056A056405C2
:10015300FF0000B4000028002800283075A000A08C
:1001630000A000A00000080008E001F0001000104B
:10017300001000100010001000500050005000103C
:10018300001000D0070000000000000F0001000570
:1001930000307507001000010081FF00000000FF20
:1001A300FFFFA206C006A806E406FF020202080239
:1001B3005000A0000000E803023082010000228208
:1001C300022E820100006119023C82010000E30259
:1001D300022E820100006219023882010000F90236
:1001E300022E820100006319023682010000FB0225
:1001F300022E820100006419022C82080000FC0216
:10020300022E820100006519024281010000661975
:10021300FF0100FF200230820100002582022E82AE
:10022300010000CA190228820000000000022A828D
:100233000300002A031700160E160E160E160E16CE
:100243000E160E160E160E160E160E160E160E168B
:100253000E3E105C103810821194117C11020202C0
:10026300020202020202010D0000001001023082AC
:100273000100001C82022E82010000131A02528226
:10028300010000370D022E82010000141A02508271
:100293000100002581022E82010000151A024E8200
:1002A3000100001781022E82010000161A024C82FF
:1002B300010000A780022E82010000171A024A8261
:1002C3000100008380022E82010000181A0244827A
:1002D300010000B980022E82010000191A02428235
:1002E3000100009580022E820100001A1A0240824A
:1002F300010000FB80022E820100001B1A023E82D5
:100303000100001C1A01E803057710020A0A0E1304
:1003130000000001000002000003000004000005CB
:10032300000006000007000010000011000012008A
:100333000013000014000015000016000017000051
:10034300000000010002000300040005000600078E
:1003530000100011001200130014001500160017FE
:10036300FFFF00013C1500004215000002040130AC
:1003730075030201060000000000000000000000F9
:10038300000000000000000000000000000000006A
:1003930000FFFF0600800CE8030A5365727665725E
:1003A30020546F20436C69656E74000010436C69C0
:1003B300656E7420546F2053657276657200000277
:1003C30030820100001F82022E820100004F1B02B7
:1003D3005882030000D018023A82010000501B0229
:1003E3002E82010000621B024682000000E6180212
:1003F3002A82030000FC18023A82010000631B12E8
:100403000135757E00120135847E001201359D7E13
:1004130000120135B37E00120135777F00120135DA
:100423008C7F00120135CBED03120135DEED031293
:1004330001350FEE0312013549EE03120135A2EE29
:1004430003120135E9EE0312013531EF03120135D1
:1004530060EF031201358FEF03120135C6EF03126C
:1004630001350DF00312013526F0031201357BF03F
:100473000312013594F003120135E2F00312013542
:100483001CF10312013500800312013503810312AD
:1004930001353C81031201355F81031201357181FE
:1004A30003120135AF81031201352B82031201358B
:1004B300F38203120135158303120135AC83031252
:1004C3000135FE83031201352F84031201353C8469
:1004D30003120135A68403120135FD84031201358D
:1004E3000085031201353985031201353C8503125A
:1004F30001354685031201359A8503120135DB85E3
:10050300031201350E86031201354B8603120135A2
:100513004D8703120135F187031201355A880312FF
:100523000135988803120135DE8803120135748979
:1005330003120135BF8903120135238A03120135E2
:10054300AD8A03120135668B03120135888E0312BF
:100553000135059003120135289003120135F58208
:100563000412013515830412013536840412013552
:10057300898404120135E0E50312013508E603120C
:10058300013535E6031201356DE603120135CBE67D
:100593000312013517E7031201357EE70312013514
:1005A300BEE703120135FBE70312013529E8031205
:1005B3000135D3E803120135DDE803120135EAE81A
:1005C300031201351DE90312013529E9031201352F
:1005D30041E9031201354BE9031201352BFF0312E5
:1005E300013539FF0312013551FF0312013568FF4D
:1005F30003120135008002120135AA80021201356F
:10060300BD8102120135398202120135578302126C
:1006130001359383021201352E84021201351285AE
:1006230002120135D585021201354D8602120135BC
:10063300DB87021201354C8802120135068902124A
:100643000135F88902120135388A02120135EC8A24
:10065300021201351E8B02120135148D021201356F
:100663005B8D02120135798D02120135DF8D021285
:100673000135AE8E02120135728F0212013591914E
:10068300021201359B91021201356BA10312013550
:1006930055A20312013500A30312013551A303121E
:1006A300013501A40312013572A40312013557A5C4
:1006B300031201358BA50312013584A603120135FC
:1006C300C1A6031201359DA703120135DCA703124E
:1006D3000135F8A7031201355F8C04120135E38C51
:1006E300041201350E8D04120135288E04120135D2
:1006F300D9E903120135EFE9031201350DEA0312BB
:1007030001351EEB0312013528EB0312013553ECBF
:10071300031201354AED03120135B7ED031201351A
:10072300C1ED03120135EFAE0312013525B00312FB
:1007330001359FB003120135CFB003120135E2B08A
:100743000312013539B1031201354EB303120135DA
:1007530082CB011201350ECC0112013572CD01128B
:1007630001357ECD01120135B9CD0112013528CEF7
:100773000112013531CF011201353AD00112013591
:1007830001D1011201355ED2011201357CD2011271
:10079300013599D20112013546D301120135C3D374
:1007A30001120135EBD301120135B5D60112013522
:1007B300BAD601120135D3D80112013521D901125C
:1007C300013591D901120135CFD901120135ABDAC7
:1007D300011201356BDB01120135B7DB0112013563
:1007E300BADB01120135FEDB0112013546DC0112D1
:1007F300013585DC01120135A7DC01120135DBDC93
:10080300011201353EDD01120135E6C9031201353E
:10081300F4C90312013547CA0312013566CA03122C
:100823000135ABCA03120135EFCB031201358ACC74
:1008330003120135CECC03120135F8CC0312013576
:1008430067CD03120135ADCD0312013524CE03125A
:100853000135D5CE031201351C2D001201352C2D87
:1008630000120135CD2D00120135292E001201355C
:10087300E62E001201350230001201353430001229
:10088300013563300012013510320012013587340F
:1008930000120135F73600120135E9370012013530
:1008A300E23800120135E93A00120135DD3D00124C
:1008B30001350C3F00120135104100120135204271
:1008C30000120135AF4300120135A0440012013577
:1008D300EE44001201355D450012013581450012D9
:1008E3000135D24500120135734A00120135744BAC
:1008F30000120135D54B00120135004C00120135B1
:10090300C64C00120135E4C403120135EEC40312D0
:10091300013533C50312013547C503120135D7C568
:100923000312013510C6031201354BC603120135FC
:1009330074C603120135C2C603120135D7C60312AA
:100943000135ECC60312013514C70312013529C75B
:10095300031201353DC70312013551C70312013597
:1009630066C703120135A0C703120135C4C70312BA
:100973000135F0C70312013527C80312013589C8B1
:1009830003120135FBC80312013526C903120135D1
:1009930069C90312013593C903120135BEC9031294
:1009A3000135D4FE01120135D9AC02120135BCADBB
:1009B3000212013537AE0212013572AE0212013551
:1009C300C3AF021201354CB00212013564B20212F8
:1009D3000135F6B402120135A8B502120135B4B6D9
:1009E3000212013527B80212013580B8021201350F
:1009F300C1BF0312013504C00312013588C00312BD
:100A030001355BC10312013532C4031201359685EA
:100A1300041201354386041201355087041201354F
:100A23008F8704120135E98704120135578E0412AA
:100A33000135BA8E04120135578F041201358C8F9C
:100A430004120135BC8F04120135DD8F0412013508
:100A5300189004120135389004120135E7CE0312C1
:100A6300013573CF0312013532D0031201354AD158
:100A73000312013564D3031201351CC5021201357B
:100A830041C5021201350EC602120135E2C6021239
:100A930001354FC702120135A5C70212013541C8FE
:100AA3000212013575C90212013550CA021201350D
:100AB300AFCA021201353BCB02120135A9CB021298
:100AC300013535CC0212013538CC0212013582CC06
:100AD30002120135F4CC0212013586CD0212013522
:100AE30027CE0212013547CE021201358FCE0212F4
:100AF3000135D8CE02120135F4CE021201351ACFD8
:100B03000212013594CF02120135A2CF0212013530
:100B130031D0021201359AD0021201354DD8031299
:100B23000135D2D80312013514D903120135F8D98E
:100B33000312013565DA03120135A9DA031201350F
:100B4300EDDA031201351ADB0312013542DB03121E
:100B530001357ADB03120135B8DB03120135DFDB24
:100B63000312013559DC03120135A3DC03120135ED
:100B73005E82011201355784011201354487011247
:100B83000135988701120135C387011201359C880D
:100B930001120135D7880112013507890112013588
:100BA3001A89011201355B89011201358889011205
:100BB3000135D689011201350B8A01120135418AAB
:100BC30001120135A08A01120135258B011201356D
:100BD300C48D01120135AC8F01120135E88F01126A
:100BE3000135669101120135C89101120135B293A5
:100BF300011201353594011201350C9501120135AD
:100C030064950112013546970112013515990112B8
:100C130001351A9901120135E89901120135139A28
:100C230001120135A59A01120135D79A0112013536
:100C3300259C01120135369C0112013516F0021272
:100C430001358FF00212013549F60212013554F7CE
:100C530002120135FDF8021201358BF9021201353A
:100C6300324D00120135B34D00120135E04D001233
:100C730001352B4E001201352C4F00120135714FF7
:100C8300001201359D4F0012013519510012013533
:100C93009B5100120135EA510012013555520012E1
:100CA3000135095300120135A653001201352154B1
:100CB30000120135AB5400120135FE540012013508
:100CC300465600120135C5570012013590580012DF
:100CD30001359D5800120135ED5800120135FD58BC
:100CE3000012013521590012013524590012013532
:100CF3000D5A00120135EF5A00120135915B0012B3
:100D030001352C5C00120135535C00120135B05CD7
:100D130000120135075D00120135555D00120135E2
:100D2300A35D001201350C5E00120135AC5E0012AA
:100D33000135485F00120135D55F001201354A6065
:100D4300001201359A6000120135F9600012013575
:100D5300206100120135DA6100120135CB63001204
:100D63000135146400120135466400120135BD6477
:100D730000120135476600120135FB66001201358A
:100D83002B6700120135406700120135B06700126E
:100D93000135F167001201350669001201358769D3
:100DA3000012013525E60212013570E60212013503
:100DB3007CE60212013550E70212013567E70212A1
:100DC3000135A4E702120135D5E70212013506E821
:100DD300021201353EE80212013594E80212013590
:100DE300AAE802120135E6E802120135F9E8021217
:100DF300013520E90212013554E9021201357AEA7C
:100E030002120135C4EB02120135C0EC02120135A6
:100E1300DDED02120135112D0012013594BA0312D2
:100E2300013542BE0312013576BF0312013529B9DC
:100E330002120135ECBB02120135F2BB021201357D
:100E4300AFBE0212013509C1021201359BD3031251
:100E5300013532D403120135F0D4031201351AD50A
:100E63000312013550D703120135599C0112013584
:100E7300949C01120135D9A80112013545AA01122A
:100E8300013542AB01120135C7AE01120135B1AFD5
:100E930001120135FDAF0112013517B00112013501
:100EA30054B0011201355FB00112013568B001126F
:100EB300013518B101120135E8B1011201352FB224
:100EC3000112013595B20112013507B30112013543
:100ED30016DE011201355EE10112013564E10112F2
:100EE3000135B7E801120135C4EC0112013536F5BD
:100EF30003120135CCF503120135E2F50312013576
:100F03003BF6031201357FF603120135B9F60312DE
:100F1300013551F703120135C0F703120135C9F743
:100F230003120135D5F703120135EFF7031201352B
:100F330019F8031201352EF80312013590F8031244
:100F43000135B7F803120135B5F902120135C2F9BB
:100F530002120135DCF9021201350FFA02120135D2
:100F63004DFA02120135B2FA02120135C7FA021222
:100F73000135D2FA02120135DFFA02120135F6FA0F
:100F83000212013504FB0212013513FB0212013573
:100F930028FB021201353DFB0212013548FB021208
:100FA300013554FB0212013561FB0212013570FB5E
:100FB300021201357BFB02120135A0FB021201353F
:100FC30044FC0212013554FC0212013569FC021281
:100FD300013583FC02120135A0FC02120135BDFC70
:100FE30002120135C8FC0212013574FD02120135EB
:100FF30055FE021201357AFE0212013585FE0212F8
:1010030001359AFE02120135AEFE021201350FFFC1
:101013000212013515FF021201351BFF02120135C1
:1010230021FF0212013539FF021201356CFF021252
:101033000135CDDB02120135EFDB02120135B7DCDE
:101043000212013571DF0212013587E00212013508
:10105300A8E10212013582E20212013531E30212E4
:101063000135569F02120135ED9F0212013585A00D
:101073000212013575A102120135ACA1021201352C
:10108300BFA1021201352DA202120135C8A302121B
:101093000135EFA30212013591A402120135C6A452
:1010A30002120135D7A40212013550A502120135EF
:1010B30071A50212013589A502120135E1A60212BA
:1010C3000135EAA8021201353AAB021201353DACF3
:1010D300021201358CAC021201353DF001120135CB
:1010E3003AF10112013525F2011201352FF20112F5
:1010F300013539F2011201355BF20112013567F254
:1011030001120135B9F301120135E8F3011201357A
:1011130018F5011201355AF50112013586F601124F
:1011230001355CF701120135AEF7011201350DF8F7
:101133000112013544F8011201357FF8011201351E
:101143001AFC0112013533FC01120135B5FC011201
:101153000135C3FC0112013518FD0112013526FDCD
:101163000112013593FD0112013505FE011201350E
:101173004BFE01120135BDD002120135DFD0021240
:101183000135C9D2021201356ED602120135B1D72B
:10119300021201358BD80212013514920412013563
:1011A300399204120135AA92041201354B910312AC
:1011B30001355491031201355D91031201358E926D
:1011C30003120135AD9403120135E3940312013583
:1011D3001D95031201355395031201358D950312A5
:1011E3000135C19503120135ED950312013536968C
:1011F30003120135709603120135B89603120135B7
:101203000E97031201354397031201359E9703127C
:101213000135D897031201352998031201355F98D8
:1012230003120135999803120135C798031201354A
:10123300EA98031201350198041201352D9804121E
:101243000135889804120135929804120135A29849
:10125300041201350DFC0312013534FC0312013570
:101263005FFC03120135F69A041201357AB40112B8
:101273000135E3B60112013582B801120135DFB839
:10128300011201357BB90112013558BA011201353A
:10129300D3BA0112013555BB011201357ABB0112D4
:1012A3000135DDBB011201353CBF01120135A0BF81
:1012B300011201358DC001120135C3C00112013580
:1012C30006C10112013597C201120135C3C20112D1
:1012D300013505C3011201354EC301120135BAC3ED
:1012E30001120135E8C30112013502C401120135AF
:1012F30029C50112013540C5011201351BC7011271
:10130300013539C7011201356FC701120135FBC819
:101313000112013578C901120135EEC901120135F7
:101323002CCA0112013550CB01120135E3DC031243
:10133300013541DD0312013598DE03120135FADE72
:1013430003120135BBDF03120135DADF0312013566
:101353002AE00312013568E003120135BE9B041233
:101363000135FD9B04120135E8FF01120135AC98EC
:1013730004120135BC9804120135CB9804120135CF
:10138300479904120135559504120135D995041274
:1013930001353F9604120135719A04120135E4991F
:1013A30004120135F87F001201354690041201350D
:1013B300B09104120135119204120135E5F80312BC
:1013C300013575F903120135F3F90312013584FA76
:1013D3000312013515FB0312013558FB03120135C6
:1013E30062FB0312013571FB0312013587FB031204
:1013F30001359AFB03120135F6FB031201350AFC92
:1014030003120135549904120135BE9904120135B2
:10141300C99904120135D999041201354D9C04125E
:1014230001355F9C0412013515B5031201351FB553
:10143300031201355FB503120135A8B50312013557
:10144300E0B5031201353AB60312013557B603125C
:10145300013561B603120135A8B603120135CDB6C5
:1014630003120135E2B60312013553B703120135F6
:10147300ECB70312013537B80312013564B8031210
:101483000135E8B80312013523B90312013556B902
:101493000312013568B90312013587B90312013507
:1014A300A0B903120135AFB90312013568BA0312AB
:1014B3000135CA93041201351F94041201358D942A
:1014C300041201350195041201350080041201351F
:1014D3002880041201351D81041201354C81041248
:1014E3000135CD8104120135589604120135638A02
:1014F30004120135998A04120135CC8A041201358C
:10150300258C041201355197041201356797041293
:101513000135719704120135C59704120135F69709
:10152300041201353488041201355388041201353D
:101533006F88041201358E8804120135DA8804128B
:1015430001354989041201358A89041201357899D4
:1015530003120135419A031201357C9A03120135B6
:10156300AD9A031201350D9B03120135579B0312EC
:101573000135A59B03120135309C03120135299DCA
:1015830003120135CD9E031201354D9F0312013520
:10159300B89F03120135CB9F03120135B2A003128A
:1015A3000135FCA0031201356EE10312013584E11C
:1015B3000312013525E20312013564E203120135FA
:1015C30081E203120135B2E203120135FFE2031295
:1015D300013532E3031201356DE30312013578E57A
:1015E30003120135A5910212013548950212013506
:1015F300D796021201352E97021201354D9702122A
:101603000135569702120135D497021201356999B3
:10161300021201353C9A02120135D39D02120135A3
:10162300BB9E0212013559A8031201357CA803128F
:101633000135F7A803120135C3A90312013545AAE1
:1016430003120135B0AA03120135BBAA03120135F7
:1016530016AB03120135A1AB03120135C7AB03125D
:1016630001353CAC03120135C0AC03120135EBACC0
:101673000312013504AD0312013518AD0312013510
:1016830046AD0312013555AD03120135CBAD03123F
:10169300013501AE0312013567AE03120135BDAE4C
:1016A30003120135BD6900120135C069001201350D
:1016B300086B00120135A76B001201358E6C001206
:1016C3000135B76C001201352670001201355370D5
:1016D300001201357071001201358A710012013553
:1016E300A17100120135547400120135B274001255
:1016F3000135D874001201351A75001201358D7544
:1017030000120135367600120135597E001201357B
:1017130084F103120135E9F10312013506F20312D4
:101723000135A3F203120135E8F203120135B2F3D6
:101733000312013504F503120135079C0412013528
:10174300C27F00120135889C04E066701008A3E094
:1017530066700A08A3E066700408A3E06622C3E784
:10176300960809E7960809E7960809E79622C3E071
:101773009608A3E09608A3E09608A3E09622C00883
:10178300C3E096F50808A3E096420808A3E0964252
:101793000808A3E09645087001D3D008220808087A
:1017A300EAC0E0EBC0E086F0E7A4FA180986F0E7A8
:1017B300A42AFA180986F0E7A42AFA180986F0E79A
:1017C300A42AFA1986F0E7A4FBE5F02AFA19088699
:1017D300F0E7A42BFBE5F03AFA190886F0E7A42B0F
:1017E300FBE5F03AFA18180986F0E7A4C5F02BFBDD
:1017F300E43AFA1908E7C5F0C6A426F6E5F03BFB80
:10180300E43AFA1886F0E7A4F6E5F00826F6E43B96
:1018130008F6E43A08F6D0E0FBD0E0FA22E4CFC0C1
:10182300E0E4CEC0E0E4CDC0E0E4CCC0E075F0205D
:10183300E626F608E633F608E633F608E633F61846
:101843001818EC33FCED33FDEE33FEEF33FFC3EC3E
:101853009709ED9709EE9709EF97191919400FFFAB
:10186300EC97FC09ED97FD09EE97FE191906D5F0E3
:10187300BFECF709EDF709EEF709EFF7191919D0DE
:10188300E0FCD0E0FDD0E0FED0E0FF2260160808C7
:1018930008C6C313C618C613C618C613C618C6137C
:1018A300C6D5E0EA2270090808082260161818183D
:1018B300C6C333C608C633C608C633C608C633C64E
:1018C300D5E0EA22E627F60809E637F60809E637FF
:1018D300F60809E637F622E026F608A3E036F6080E
:1018E300A3E036F608A3E036F622E026F008A3E0EC
:1018F30036F008A3E036F008A3E036F022C3E697FB
:10190300F60809E697F60809E697F60809E697F652
:1019130022C3E096F008A3E096F008A3E096F0084F
:10192300A3E096F022E056F608A3E056F608A3E0FB
:1019330056F608A3E056F622E056F008A3E056F068
:1019430008A3E056F008A3E056F022E0F608A3E06F
:10195300F608A3E0F608A3E0F622E6F008A3E6F013
:1019630008A3E6F008A3E6F022E0FAA3E0FBA3E075
:10197300FCA3E0FD22E0F8A3E0F9A3E0FAA3E0FB77
:1019830022E8F0A3E9F0A3EAF0A3EBF022CAC0E057
:10199300E6F0A308DAFAD0E0FA22CAC0E0E0A3C571
:1019A30082CCC582C583CDC583F0A3C582CCC58255
:1019B300C583CDC583DAE6D0E0CA22C3E498F8E450
:1019C30099F91219FF8026C3E49AFAE49BFBE920F4
:1019D300E7E91219FFE498F8E499F922C3E498F8C7
:1019E300E499F91219FFE498F8E499F9C3E49AFA2F
:1019F300E49BFB22EB20E7CFE920E7E0B90010BB33
:101A03000008E88AF084F8AAF022E4FBC8FA22EB83
:101A130070227B10C833C8C933C9335007C39AC374
:101A2300DBF280069A50012ADBEAC833F4C8C933D3
:101A3300F4C9FA2275F008E4C833C8C933C933C9F5
:101A43009AC99B5004C92AC93BD5F0ECFBC833F4AF
:101A5300C8E4C9FA22600D08C6A2E713C618C61364
:101A6300C6D5E0F322600C08C6C313C618C613C656
:101A7300D5E0F422700422600D18C6C333C608C62D
:101A830033C6D5E0F41822251810AF08F518400C1A
:101A930015198008F51840021519D2AF2200C0D0DD
:101AA300251810AF08F518500C05198008F51850C3
:101AB300020519D2AFD0D0222518F58210AF08F550
:101AC30018400C15198008F51840021519D2AF8576
:101AD3001983222518F582E43519F583222518F890
:101AE300E43519F9222518FAE43519FB222518FCE7
:101AF300E43519FD22E4732518C582C0E0E51934E5
:101B0300FFC583C0E0E518C3958224F810AF0885AC
:101B130083198582188008858319858218D2AFCEF0
:101B2300F0A3E520F0A37808E608F0A3DEFAEFF0CF
:101B3300A3E58124FAF8E608F0A3E608F0A3E60893
:101B4300F0A30808E608F0A3E608F0A315811581C1
:101B5300D0E0FED0E0F8158115811581E8C0E0EEF4
:101B6300C0E0222518C582C0E0E51934FFC583C053
:101B7300E0E518C3958224F910AF0885831985829F
:101B8300188008858319858218D2AFCEF0A3E5208B
:101B9300F0A37808E608F0A3DEFAEFF0A3E58124CA
:101BA300FBF8E608F0A3E608F0A30808E608F0A3AC
:101BB300E608F0A315811581D0E0FED0E0F8158189
:101BC3001581E8C0E0EEC0E022851983851882E024
:101BD300A3FEE0A3F5207808E0A3F608DFFAE0A36C
:101BE300FFE0A3C0E0E0A3C0E0E0A3C0E0E0A3C047
:101BF300E0E0A3C0E010AF08858218858319800850
:101C0300858218858319D2AFD083D08202013285B1
:101C13001983851882E0A3FEE0A3F5207808E0A3EA
:101C2300F608DFFAE0A3FFE0A3C0E0E0A3C0E0E032
:101C3300A3C0E0E0A3C0E010AF0885821885831934
:101C43008008858218858319D2AFD083D08222C0C1
:101C5300D02518C582C0E0E51934FFC583C0E0E58F
:101C630018C3958224F310AF0885831985821880E1
:101C730008858319858218D2AFC8F0A3E9F0A3EAD7
:101C8300F0A3EBF0A37908E709F0A3D8FAECF0A3EB
:101C9300EDF0A3EEF0A3EFF0A3D0E0F0A3D0E0F0DB
:101CA300A3D0E0F0A3E520F0A3E5F0F0A32285198B
:101CB30083851882E0C0E0A3E0F9A3E0FAA3E0FB88
:101CC300A37808E0F608A3DFFAE0FCA3E0FDA3E0B5
:101CD300FEA3E0FFA3E0C0E0A3E0C0E0A3E0F5D0F3
:101CE300A3E0F520A3E0A3F5F010AF0885831985E1
:101CF30082188008858319858218D2AFD082D08359
:101D0300D0E0F8D0E03274048006740280027401DB
:101D1300C0E0F404121ABBD0E012199022740480BC
:101D23000474028000CCC0E0EDC0E0E518C39CCC95
:101D3300AD1950011D10AF068C188D1980068C1833
:101D43008D19D2AF12199DD0E0FDD0E0FC22D083D3
:101D5300D082E9C0E0E493A3C386F0C5F095F0F91F
:101D630008E493A386F0C5F095F0700BE493A3C346
:101D7300994005E9048002A3E475F002A42582F5E5
:101D830082E5F03583F583D0E0F9E493A3C0E0E482
:101D930093C0E022D083D082ECC0E0EDC0E0E493B6
:101DA300A3FCE493A3FDED4C600D121DE3EC24FFB3
:101DB300FCED34FFFD80EFE493A3FCE493A3FDED7E
:101DC3004C600D121E22EC24FFFCED34FFFD80EF6E
:101DD300D0E0FDD0E0FCE493A3C0E0E493C0E022B4
:101DE300C0E0C3E49396087401939618400FE493FC
:101DF30066700808740193661870007019A3A3C372
:101E0300E49396087401939618A3A3400DD0E0D0F1
:101E1300E0D0E0021DD3A3A3A3A3A3A3D0E022C0D9
:101E2300E0C0F088F0E493667008087401936618C4
:101E33007000A8F0A3A3700BD0F0D0E0D0E0D0E006
:0A1E4300021DD3A3A3D0F0D0E022CB
:101E500074F6121B66EAFEEBFF8C088D09EE243443
:101E6000F8E43FF9E8FCE9FDEE243512216CFAEEC6
:101E7000243712216CF88508F0A4C885F00A85097A
:101E8000F0A4250AF9EA28F8E439F97A257B00124A
:101E900019FFEA8C828D83F0FA131313541FF8EEA6
:101EA00028F8E43FF9E8245DF582E439F583E0C0E1
:101EB000E074075AF8D0E0B800028004C313D8FCDD
:101EC000A2E0EE50082434F582E43F801824361254
:101ED000216CF5F0EA84A8F0EE28F8E43FF9E82454
:101EE00038F582E439F583E0F97F03021C1274F7B8
:101EF000121B66EAFEEBFFEE243412216CC0E0EE0A
:101F00002435F582E43FF583D0E0F08E828F83A301
:101F1000A3A3A3A3A3A3C082C0838E828F83A3A302
:101F2000A3A3A3E0F8A3E0F9D083D082E0C398F59F
:101F300008A3E099F509EE247F12216C6401703E3C
:101F4000EE2480F582E43FF583C082C0838E828FC9
:101F500083A3A3A3A3A3E0240108A3E03400F9D042
:101F600083D082E0687003A3E06970127CF17D0683
:101F7000120D50EE247FF582E43FF583E4F0AC08C7
:101F8000AD09EEFAEFFB121E50E9F9122BBE7F02EB
:101F9000021C12C082C083851882851983E0F8A3D1
:101FA000E0F9C3EA9CEB9D5010C3EC98ED99401BFF
:101FB000C3EA98EB995014800EC3EA98EB99400756
:101FC000C3EC98ED994004790180027900D083D068
:101FD0008222EAC39CFAEB9DFB2274EF121B6690EF
:101FE000039AE064086005E06407702A9061C8E025
:101FF00060249003C8E0F4601DE0F875F00DA4C8FB
:10200000AAF02AF974CA28FE740339FF8E828F83DE
:10201000A3A3A3E070030220E8906060E0C0E0EEBC
:102020002468F582E43FF583D0E0F0750C8B750DE4
:1020300007750800750900E5D914F50AE5D95403B8
:10204000F50E60127403650E6043E50A600AEE2423
:102050006712216C70028075900786E06401601F32
:1020600012216960047A0480027A00E50AC39AFAB0
:1020700095E0FB120B828A088B09EA45097005126C
:102080001014806412216970048A0C8B0DE50A60BB
:1020900012850C82850D83F50BE5D9F0A3150BE5B0
:1020A0000B70F6122169604474FC250AF50A780C5D
:1020B000121D0DAC0AA90EEEFAEFFB120E107402FF
:1020C000121AA0E97026AA08AB091214B8793D8E3D
:1020D000828F83A3A3A3A3E0FA7B001209D2EEFAB6
:1020E000EFFB120D74120E70790080787403650E88
:1020F0006051850A107511007810121D0DAC0CADE1
:102100000DAA08AB09120DD47402121AA0EE2468AD
:1021100012216C64807004747F8001E0F50C780CEF
:10212000121D11E50EF50C780C121D11A90AAC0850
:10213000AD099003C8E0FA7B001209A27402121ADA
:10214000A0801C90039AE06408AC0CAD0D7009EE01
:10215000FAEFFB120E408007EEFAEFFB120EE212CE
:10216000102079017F0A021C12EE2483F582E43FDD
:10217000F583E02274F2121B6674FC121A8AEAFEDE
:10218000EBFF8909A2AFE433F508C2AF02223EE0BB
:10219000601B780C121D0DAC0BA90EEEFAEFFB12B2
:1021A0000E0A7402121AA07404250BF50B74012593
:1021B0000BF5D9850ED9E50B6018F50A850C8285DB
:1021C0000D83E0F5D9A385820C85830D150AE50AF8
:1021D00070EA75E195EE2463F8E43FF97A007B003C
:1021E000A2AFE433F50BC2AF88828983E0FCA3E0A1
:1021F000FDEC4D603A88828983E0FAA3E0FB8A8295
:102200008B83E0FCA3E0FD88828983ECF0A3EDF0F2
:102210008A828B83E4F0A3F088828983E0FCA3E0C8
:10222000FDEC4D700A88828983A3A3E4F0A3F0E556
:102230000BA2E092AF1214B89006F8E004F0EE247E
:102240006312216CF8A3E0F9E8496064EE2463129C
:10225000216C2402F8A3E03400F988828983E582A6
:102260002402F50CE43583F50DE0F50BA3E0F50E43
:10227000EE246212216C640170369061D0E0F81295
:10228000216960047C0480027C007480C398FA9504
:10229000E0FBE50B2CF8E43400F9E82402F85001E7
:1022A00009C3EA98EB99A2D265D033400302218F8B
:1022B0009006F8E0604D9006F9E0F89006F8E0C36B
:1022C00098500C74026509703A9006FAE060348EFA
:1022D000828F83A3A3A3A3E0851882851983122389
:1022E000137402121AD6E81223139006F7E028F0AE
:1022F0007402121AF0AA18AB197901120A02900698
:10230000F8E4F0E508A2E092AF7404121AA07F0787
:10231000021C12F0A3E4F09006F8E0F8220000009E
:102320008521878522C622C0E074EB121C52A2AF21
:10233000E433F508C2AF759B00906182E0A2E050E3
:1023400030E591A2E0502A7591FE7401652170215B
:102350001224BA120F301224A8121D2012296874F8
:1023600004121AA0E9640170057901120F78121F96
:10237000DA906182E0A2E5505DE591A2E5505775E3
:1023800091DF90039AE064076005E06408702F1203
:1023900024BA74016521703E120F301224A8121D58
:1023A000201229687404121AA0E9640170057901E9
:1023B000120F787901EEFAEFFB1221748018E064B5
:1023C0000D70139003BCE004F064287002E4F07A0E
:1023D00000E0F9121026906182E0A2E64003022498
:1023E0007DE591A2E6400302247D7591BF90039A9A
:1023F000E064057008120F18120F248003120F1EDC
:10240000752100120F96E990039BF07900120F7866
:10241000120C727A017B00900399E0F912148290F9
:102420007803E06442705690078AE014F0704EC260
:10243000AF12243400782AD0E0F618D0E0F6E59FF9
:102440005407F87005750DFF8003750D7FC4C0E05B
:102450007829E6F50A08E6550DF50B740B780A1293
:102460001A68D0E0250AF8906270E0A2E740F8E828
:10247000C333906272F0906270E0D2E0F0906181BC
:10248000E0A2E35009E5E9A2E3500375E9F7A3E010
:10249000A2E75009E591A2E7500375917FE508A2F4
:1024A000E092AF7F08021CB18E828F83E0F8A3E038
:1024B000C82416F582E438F583229003C8E0F87545
:1024C000F00DA4C8AAF02AF974CA28FE740339FFD3
:1024D00022C0E0C0D0C082C083906183E0A2E050FF
:1024E00009E5BFA2E0500375BFFEE0A2E15009E597
:1024F000BFA2E1500375BFFDE0A2E25009E5BFA213
:10250000E2500375BFFBE0A2E35009E5BFA2E35030
:102510000375BFF7E0A2E45009E5BFA2E4500375DC
:10252000BFEFE0A2E55009E5BFA2E5500375BFDFAC
:10253000E0A2E65009E5BFA2E6500375BFBFD08315
:10254000D082D0D0D0E032C0E074F2121C52E5A7A5
:10255000A2E6500FE5A1A2E6500953A7BF75A1BF9F
:1025600012259BE5A7A2E5500CE5A1A2E550065374
:10257000A7DF75A1DFE5A7A2E15009E5A1A2E1501F
:102580000375A1FDE5A7A2E2500CE5A1A2E2500669
:1025900053A7FB75A1FB7F01021CB174F7121B66E8
:1025A00075210190039AE064067015120E948A82D8
:1025B0008B83A3A3A3A3A3A3E0FAA3E0FB120F06BC
:1025C000A2AFE433FED2AF9003A0E0640170187AAA
:1025D000207B00900399E0F91215CC7A207B0090C3
:1025E0000399E0F9121488906182E0D2E6F0900736
:1025F00087E0602185C622801690039FE064017009
:1026000008E5C654F84405F5C653BEFC12232074F1
:1026100001652160E4EEA2E092AF7F02021C12008D
:102620008E238F24858228858327851882851983A8
:10263000E0CEA3E0CF852882852783EBC9EAC8EDE9
:10264000CBECCA75F010C3E833C8E933C9EA33CA22
:10265000EB33CBC3EA9EF526EB9FF525B35004ABD5
:1026600025AA26EC33CCED33CDD5F0DAAE23AF245A
:102670002274E9121B6674FA121A8AEAFEEBFF8CC6
:102680000A8D0B120F3CEAF8EBF9ECFAEDFB8E82A7
:102690008F8312198490039AE024F7C3940550069F
:1026A0007514010227D8120E948A088B09EA45098D
:1026B00070030227D5EEFCEFFDAA18AB19120F36F6
:1026C000850882850983A3A3780C12194E9081F0A6
:1026D000780C121928851882851983781012194EE2
:1026E0009081F07810121928780C79101217615027
:1026F0001F780C7910121900908184780C121781C0
:102700004047850C14850D15850E16850F178045DD
:1027100090818485101485111585121685131778FC
:1027200014790C1219007814121781501C751400BA
:1027300075150075160075170178147910121900B7
:102740007814790C1218C7800C7514017515007572
:102750001600751700740978141218A890818878EB
:102760000C12194E7814790C1218208508828509EC
:1027700083A3A3A3A3A3A31227F61219FF880C898E
:102780000DE4F50EF50F7814790C1218C7740412C5
:102790001AD61227F61219FFE8FA8A0CE4F50D781A
:1027A00014790C12176150077814790C12190090E3
:1027B000039AE06408600AE064066005E06405705E
:1027C0002090818C78141217815016908190781483
:1027D0001218DA800C75140075150075160075173F
:1027E00000850A82850B83781412195D7406121A0B
:1027F000A07F10021C12E0F8A3E0F97AD07B03223C
:1028000074F7121B66120F4E900785E0640170107A
:10281000906245E4F0A3F053F4F343FE0C5390F3BD
:10282000120EF4E5C654B84441F5C6E59E5447641B
:102830004170F8906185740FF0900783E0F47002A6
:10284000A3E0604E900784E0600814601B14602EC3
:102850008040750801750900900783E07808121A16
:1028600077E508F45280802A750801750900900701
:1028700083E07808121A77E508F4529080147508FE
:1028800001750900900783E07808121A77E508F4CB
:1028900052A079007F02021C1274F7121B66E9FE37
:1028A000EAFF120F4E74016E700C7A807B00900369
:1028B00099E0F9121482902D14E493F46008E493E3
:1028C000F9120C66800953C6B8E59E544770FA1297
:1028D0000EFA900785E064017003120C8A9007835A
:1028E000E0F47002A3E0604B900784E0600814609D
:1028F0001A14602C803D750801750900900783E06B
:102900007808121A77E50842808028750801750951
:1029100000900783E07808121A77E5084290801348
:10292000750801750900900783E07808121A77E5A9
:102930000842A0120E948A088B09A808A909E84940
:102940006014E5E170FCE82414F582E439F583E0D5
:10295000F46003E0F5E174016F700A7A0190039965
:10296000E0F912151202289474F1121B668A088B82
:10297000098C0A8D0B9081F07808121928740F12B7
:102980001AD6780C12194E9081F0780C121928780A
:1029900008790C12176190818450107808790C1214
:1029A000190078081217814014800E780C790812EB
:1029B0001900780C12178150047901800279007F88
:1029C00008021C1274ED121B668A088B098C0A8D92
:1029D0000B9081F078081219287413121AD6780C0B
:1029E00012194E9081F0780C121928780C7908127F
:1029F000176140117808790C121900AA08AB09ACCC
:102A00000AAD0B8022751000751100751200751348
:102A1000017810790C121900781079081218C7AAD9
:102A200010AB11AC12AD137F0C021C129081F07828
:102A30000812194E8A828B83780812193B7F040290
:102A40001C1274F5121B668C828D83780812194E45
:102A50008A828B837808121914122A9AC3E09CF098
:102A6000A3E09D122A8C40229081D0780812194E42
:102A70008A828B8378081218ED8A828B83A3A3A3A2
:102A8000A3E02420F0A3E0344EF080A0F0888289F7
:102A900083C3E09420A3E0944E22EA2404F8E43BAC
:102AA000F98C828D83A3A3A3A3E0FCA3E0FD88821D
:102AB00089832274F5121B66E9FE900713E0FAA3DE
:102AC000E0FBEE29F8E433F974EB28F582748039E1
:102AD000F583E02AF508A3E03BF5097808121D0DFF
:102AE0009081FC12196C1226207402121AA08A0816
:102AF0008B098C0A8D0B7410780812188FAA08ABFA
:102B0000097F04021C1274F1121B668A0C8B0D8C57
:102B10000E8D0F7411121AD6121D247411121AD6AA
:102B2000E02401F508A3E03400F509E4F50AF50B0B
:102B3000780C79081217A090819C780812194E78A9
:102B40000C79081217A0AA0CAB0DAC0EAD0F122613
:102B5000207402121AA08B09EA450960047A0180E8
:102B6000027A00EC2AFCE43DFD7413121AD6E0F858
:102B7000A3E0F9E8FEE9FFECF8EDF97A717B0212C7
:102B800019FF88088909E4F50AF50B8E828F83788E
:102B90000812195DECF8EDF97A717B021219FF8ABF
:102BA000088B0974057808121A778E828F83A3A385
:102BB000A3A3E508F0A3E509F07F08021C12C08278
:102BC000C083E9906000F0D083D08222C0E074F22C
:102BD000121C52A2AFE433FED2AFC2C0E5D1A2E4D0
:102BE000500675D10F1213FE751A00EEA2E092AFD7
:102BF0007F01021CB1C0E074F2121C52A2AFE43398
:102C0000F508D2AF7F007E01E5895E6008122C6274
:102C10006003121AF80FEEC333FEEFC3940840E8C6
:102C2000758900C2C5E508A2E092AF7F01021CB120
:102C3000C0E074F2121C52A2AFE433F508D2AF7FA9
:102C4000007E01E58A5E6008122C626003121AF8A9
:102C50000FEEC333FEEFC3940840E8758A00C2EB61
:102C600080C3EFFA7B0075F003A4F8A9F074C728BD
:102C7000F582741A39F583E0F8A3E08882F583E5DC
:102C800082458322C0E0C0D0E8C0E0A8A8D2AFC28D
:102C9000C7751A00E8A2E792AFD0E0F8D0D0D0E034
:102CA00032C0E0C0D0E8C0E0E9C0E0EAC0E0EBC07C
:102CB000E0C082C083A2AFE433F9D2AF900FA6E0A8
:102CC000F8A3E0687008539AFBA374018022C2E95C
:102CD000900FA6E0F8740128F0742628F582E434F9
:102CE0000FF583E0F5C1900FA6E0C394804002E4A5
:102CF000F0E9A2E092AFD083D082D0E0FBD0E0FA3E
:102D0000D0E0F9D0E0F8D0D0D0E032C2AF0200007D
:102D100022020132FFFFFFFFFFFFFFFFC082C083DF
:102D2000E99019C9F0D083D08202013274F6121AE8
:102D3000FAE990030CF090036CE0F5087509007453
:102D4000027808121A77AA08AB091214FA90030D38
:102D50001236DF90030D123ACC606F90036CE07571
:102D6000F003A4FAABF01214FA90032A1236DF90A3
:102D7000032A123ACC700B90030D123A9D121500E3
:102D8000804890032A124A317AFF7BFF12132C7A73
:102D90000080198A0875090074027808121A7712DF
:102DA00044D974FF122EDFE4F0A3F00A90036CE024
:102DB000F8EAC39840DD790512087090030CE0F939
:102DC00012075C7AFA7B08120B2202457C74F4121B
:102DD0001AFA8A088B09EB5480604790030CE0F9DB
:102DE00012146A8A0A8B0BAE0AAF0BEE4F602A8E62
:102DF000828F83E064B0701A120882E960148E82B8
:102E00008F83A3A3A3A3E0F9EE2405FAE43FFB120A
:102E10000852EEFAEFFB121458AA08E5096480FB89
:102E200080047A007B0002302F74F2121AFA74FBCD
:102E3000121A8AEAFEEBFFEE4F60457403121AD6AF
:102E4000EEF0A3EFF0851882851983ECF0A3EDF086
:102E50007402121AD6E9F0AA18AB19120756E9F54E
:102E60000870757413121AD6E0F50AA3E0F50BE5A5
:102E70000A450B60638E828F83123468EE4F7005B3
:102E800075080280537A067B001214FA8A0C8B0DA7
:102E9000A80CA90DE8497005750813803B88828944
:102EA00083E4122EDFEEF0A3EF122FFBE50AF0A36E
:102EB000E50BF0900310122FF49003106017E0FC64
:102EC000A3E08003EAFCEBFD8C828D83122FF4706B
:102ED000F38C828D831240F4A9087405024CB1F082
:102EE000A3124A13A32274F2121AFA8908890C75E4
:102EF0000D007403780C121A77850C0A850D0B905F
:102F0000030FF090030D123EFF122FF2602E1215E8
:102F1000007900801D890C750D007402780C121A5E
:102F20007790030D1243988882F583A3A3E4F0A35E
:102F3000F00990036CE0F8E9C39840D990036CE085
:102F4000FA850AF0A4CAA8F0850BF0A428FB121495
:102F5000FA8A0C8B0DAE0CAF0DEE4F7003022FE80A
:102F600090036CE0FC850AF0A4CCA8F0850BF0A4DB
:102F700028FD79001214467C0080318D0C750D00FF
:102F80007403780C121A778A828B83122FED888251
:102F90008983E4F0122FFAA3A3F0A3F00DEDC395FB
:102FA0000840D8EE250AFEEF350BFF0C90036CE0CD
:102FB000F8ECC39850288C0C750D007402780C1234
:102FC0001A7790030D122FEDE82402500109FAE957
:102FD000FB8A828B83EEF0A3EFF07D0080BFE508D3
:102FE00090030FF0790080027913024CB412439CD5
:102FF000F922A3A3123AA1EA4B22A3124A13A3A3D4
:10300000A32274F4121AFA7900EAA2E0501F75089C
:10301000647509817808121D0D79107C047D007A91
:10302000CB7B1912086A7402121AA0E9F980007F9A
:1030300004021BCCC082C083900310123ACC601CE7
:1030400088828983A3A3E06A7003A3E06B888289E6
:103050008370E8A3A3A3A3123A9D80047A007B00A7
:10306000022D2574F2121AFA74FD121A8AEAFEEB86
:10307000FF851882851983E4F0A3F07402121AD632
:103080007401F0123AC97014120A561214FA90031D
:10309000131236DF123AC970030231F51237DFEE30
:1030A0002404F50AE43FF50B850A82F583E024FE4B
:1030B000603C24FC607424FE607E24FE70030231B8
:1030C0004524FE700302315224FE700302315F2456
:1030D000FE700302316C24FE700302317924FC700F
:1030E0000302319A24FE70030231B20231EE120A59
:1030F00056900315EAF0A3EB123201120432E96094
:10310000030231EE900315121D248E828F83A3A338
:10311000A3A3A3124A31850882850983123A9D121E
:10312000083A7402121AA00231EEAC18AD19EEFA88
:10313000EFFB1208880231BDAC18AD19EEFAEFFBB7
:1031400012088E8078AC18AD19EEFAEFFB120894D5
:10315000806BAC18AD19EEFAEFFB12089A805EACEA
:1031600018AD19EEFAEFFB1208A08051AC18AD199A
:10317000EEFAEFFB1208A680447402121AE0880CE3
:10318000890D780C121D0D7402121AF0EEFAEFFB85
:103190001208AC7402121AA08023AC18AD19EEFA12
:1031A000EFFB1208B2E9F870167402121AD6E4F0B6
:1031B000803CAC18AD19EEFAEFFB1208B8E9F8E85C
:1031C000602C8E828F83A3E064146022850A82853E
:1031D0000B83E0900315F0851882851983123A9DC0
:1031E0009003161236DFE8A312320112042CEEFA15
:1031F000EFFB1208107402121AD6E0F97403024CA5
:10320000B1F07C157D03850882850983123AA122DD
:1032100074E8121AFA74FA121A8A7404121AD6ECA2
:10322000F0A3EDF08A128B13EA2405F50EE43513B2
:10323000F50FEA2402F510E43513F511851082F537
:1032400083123A9D1205228A0A8B0B7508007C03B3
:103250007D0079007A157B03121446E50E2402F5F1
:1032600016E4350FF5177402121AE0880C890D78F0
:103270000C121D0D850E82850F83A3A3A3A3E0F579
:103280000C750D00780C121D0DE50E2405F50CE4EF
:10329000350FF50D780C121D0D85168285178312DA
:1032A0003DA41207747406121AA08A0C8B0DE50C4B
:1032B000450D70030234318020851882851983E022
:1032C00088828983F00508851882851983A3E0C068
:1032D000E0123472D0E0F00508E50A24FBFAE50BB1
:1032E00034FFFBC3E5089AE49B40030234317E00BF
:1032F0007F00851282851383A3A3A3A3E0F5097839
:1033000009121D11E4F514F5157814121D0D75142C
:10331000127515037814121D0D900313121D2474D9
:1033200009121AD6121D24E50A24F9F9AC0CAD0DC8
:10333000851082851183123A9D1208E27409121ACF
:10334000A0E960030233D2850E82850F83A3A3A375
:10335000A3A3A3A3E0F8900312E0687075E0F5144E
:103360008E157814121D0D124A2E850E82850F833C
:10337000A3A3A3A3A3A3A3A3123A9D121440740270
:10338000121AA0E9604C900316123ACC703BE4F597
:10339000147814121D0D7CFF7DFF7907851082853E
:1033A0001183123A9D12084C7402121AA0123AD2DA
:1033B0007017850E82850F83124BCB7404121AD6B8
:1033C00012448C123DD5023465850C82850D831222
:1033D0003468A818A919881489157814121D0D7459
:1033E00004121AD6121D248516828517831236D52B
:1033F0001207807404121AA08A0C8B0DEE4F700312
:103400000232AE123472EE12347D123D8BEF123462
:103410007DF8A3E03400F9E50C450D60030232B9F4
:103420008882898374FFF0050812347274FFF005F6
:1034300008E508601A1313543F1236E512043EE9FA
:103440006009900316123A9D1214B879008016850F
:103450000E82850F83124BCB7404121AD612448C41
:103460001240F4790A023D5EA3A3A3A3E0FEA3E009
:10347000FF22A808900316E028123D8B22F00508D1
:1034800008900316E0282274E8121AFA74FA121A45
:103490008A7402121AD61236DF7404121AD6ECF0AD
:1034A000A3EDF07402121AD6E02405123D74E0F583
:1034B0000CA3E0F50D7402121AD6E02402F510A355
:1034C000E03400F511851082F583123A9D12052231
:1034D000750800750900EA24FCFEEB34FFFF800844
:1034E000050CE50C7002050DA808C3EE98EF9400DA
:1034F0005003023691A818A919880E890F780E1268
:103500001D0D851482851583A3A3A3A3124A35122A
:103510001D0DE5142405F50EE43515F50F780E1292
:103520001D0D8514828515831236D3120774740617
:10353000121AA08A0E8B0FEA450F7003023691EA29
:103540002404F516E4350FF517851682F583E0F5AA
:103550000CA3E0F50D851882851983124A318A8201
:103560008B83A3A3A3E0F9851082851183123A9D72
:10357000120762E9F50960030236917402121AD645
:10358000123D9BF5097809121D11E4F512F5137827
:1035900012121D0D7512127513037812121D0D9063
:1035A0000313121D247407121AD6121D24EEF9AC4F
:1035B0000EAD0F851082851183123A9D1208E274B8
:1035C00009121AA0E9F5096003023691E508703F77
:1035D000E4F50EF50F780E121D0D7CFF7DFF7909C5
:1035E000851082851183123A9D12084C7402121ABA
:1035F000A0123DC1700D7404121AD61236C879118A
:103600000236C5900312E02402900316F080149055
:103610000316E0FA900312E0790024025001096ACF
:10362000497072A808900312E0FAE82AFAE434001C
:10363000FBEE9AEF9B405A851682851783E0C0E027
:10364000900317123477D0E0F005088516828517AD
:1036500083A3E0C0E008900317123477D0E0F005B0
:1036600008900312124A35121D0D124A2EA8081294
:103670003D6812142E7402121AA0900312E025085D
:10368000F50874FF650C700474FF650D6003023467
:10369000E0E508601F900316E0F5F0E508841236B7
:1036A000E5120444E96009900317123A9D1214B818
:1036B00079008011E509700375090A7404121AD69D
:1036C0001236C8A909023D5E123F03E50CF0A3E5DE
:1036D0000DF022A3A3124CC0AA0CAB0D22A3A3EAA7
:1036E000F0A3EBF022900315F07C157D038510828A
:1036F000851183123AA12274EC121AFA74FC121A80
:103700008A1242047402121AF0123A9712077A8A45
:103710000C8B0DEA450D70030237CF1237DFA81866
:10372000A919881089117810121D0D7CFF7DFF7971
:103730000B850882850983123A9D12084C74021287
:103740001AA01238D5700C850A82850B83123DD2DF
:103750000237DC8E828F83A3A3A3A3E0F512781235
:10376000121D11E4F512F5137812121D0D751215C4
:103770007513037812121D0D7810121D0D740912A5
:103780001AD6121D247409121AD6E0F9AC0CAD0D2C
:10379000850882850983123A9D1208E27409121A7B
:1037A000A0E9FE70157C157D0385088285098312CA
:1037B0003A9D12044AE97009802074166E70027EE8
:1037C00000900316123A9D1214B8EE7004800B7E1E
:1037D00001850A82850B831240F1EEF9024106EE63
:1037E0002402F508E43FF5092274EC121AFA74FC7D
:1037F000121A8AEAFEEBFF8C0E8D0FEE2405F508F7
:10380000E43FF5097402121AF085088285098312D3
:103810003A9D12077A8A0C8B0DEA450D7003023827
:10382000C5EE2402F50AE43FF50BA818A919881083
:1038300089117810121D0D7CFF7DFF790D123A97CA
:1038400012084C7402121AA01238D5700B85088227
:10385000850983123DD2807A8E828F83A3A3A3A38E
:10386000E0F5127812121D11850882850983A3A341
:10387000121D247512157513037812121D0D781080
:10388000121D0D7409121AD6121D247409121AD6AB
:10389000E0F9123A931208E27409121AA0E9FE70D4
:1038A0000F7C157D03123A97120450E970098020AD
:1038B00074166E70027E00900316123A9D1214B8B0
:1038C000EE7004800B7E018508828509831240F129
:1038D000EEF9024106123ADCF510A3E0F511EA45D3
:1038E000112274E8121AFA74FE121A8A8A168B17B9
:1038F0008C148D15EA2405F50CE43517F50DEA2432
:1039000002F50EE43517F50F850E82F583123A9D08
:103910001205228A088B09750B007C037D00790053
:103920007A157B03121446750A00E50814F5100495
:1039300024FFF508E50934FFF5098054900315E0EC
:10394000FA900312E0F8EA28F8E43400F9E5089860
:10395000E50999500D900315E0F8E510C398900320
:1039600012F0E0F5127513007812121D0D124A2E96
:10397000900316E02AFAA3E03400FB12142E74021E
:10398000121AA0900312E0F8900315E028F0050A3F
:10399000850C82850D83A3A31243A84003023A78C5
:1039A000900315E0C39508E495094003023A78AE08
:1039B0000AEE2EFEE433FF123AB7AC18AD19124AE4
:1039C00049E439FB12077A8A128B13AC12AD13EC5F
:1039D0004D701B750B01123AA71240F59003161299
:1039E0002FF460031214B8A90B7402023D6085160F
:1039F00082851783A3A3A3A3E0F50B780B121D11F7
:103A0000E4F512F5137812121D0D751212751303D9
:103A10007812121D0D900313121D247407121AD66A
:103A2000121D24A910850E82850F83123A9D12085B
:103A3000E27409121AA0E9F50B709B900316123A72
:103A4000CC600302393CE4F512F5137812121D0D17
:103A50007CFF7DFF790F850E82850F83123A9D12C0
:103A6000084C7402121AA0123AD2600302393C12B6
:103A70003AA7123DD60239E97C157D03850E828571
:103A80000F83123A9D120456E960030239DC790073
:103A90000239E9AC0CAD0D850A82850B83123AA17F
:103AA00022E0FAA3E0FB22123AB7E0FAA3E0F9EA37
:103AB00085148285158322850C82850D83E02EF87E
:103AC000A3E03FF98882898322900313124BCFE849
:103AD0004922123ADCF8A3E0F9E84922900316EAF9
:103AE000F0A3EBF0900316E02274E8121AFA74FACD
:103AF000121A8A7404121AD61236DF8C168D1774B5
:103B000004121AD6E02405F50EA3E03400F50F7474
:103B100004121AD6E02402123D74123A9D120522B4
:103B20008A0A8B0B7F007E00A818A91988088909CA
:103B30007808121D0D850E82850F83A3A3A3A3E031
:103B4000F5088E097808121D0DE50E2405F508E428
:103B5000350FF5097808121D0D850E82850F83A398
:103B6000A3123DA41207747406121AA08A0C8B0DBE
:103B70008029123D95F00F123D95F00F900312121F
:103B800040E0121D0D124A2EEFF8123D6812142E5D
:103B90007402121AA0900312E02FFFE50C450D707D
:103BA00003023C24851882851983124216A3A3A31D
:103BB000E0F9851482851583123A9D120762E9FEA9
:103BC000E50C2404F510E4350DF511EE7050740485
:103BD000121AD6123D9BF5087808121D11E4F5085B
:103BE000F5097808121D0D75081275090378081279
:103BF0001D0D900313121D247407121AD6121D24D2
:103C0000E50A24FAF9AC0CAD0D85148285158312F2
:103C10003A9D1208E27409121AA0E9FE6039123DB9
:103C2000B11240F4EF7003023D4B900316E0F5F043
:103C3000EF84900315F07C157D0385148285158330
:103C4000123A9D12045CE96009900317123A9D1222
:103C500014B87900023D5E8F08EF703BE4F512F571
:103C6000137812121D0D7CFF7DFF7911851482855A
:103C70001583123A9D12084C7402121AA0123DC10B
:103C80007009123DB1123DD5023D5E900312E02451
:103C900004900316F08035900312E0F8900316E0CC
:103CA000FAE82404FCE43400FDEC6A4D6003023CB5
:103CB0002AE50A24FAFAE50B34FFFBE50828F8E4C4
:103CC0003400F9EA98EB995003023C2A851082856A
:103CD0001183E0C0E0900317E02FF8A3E0340088E0
:103CE00082F583D0E0F00F851082851183A3E0C0B8
:103CF000E0123D82D0E0F00F7402121AE0880889C9
:103D0000097808121D0D7402121AD6121D24850E90
:103D100082850F831236D31207807404121AA08A88
:103D20000C8B0DEA450D7003023B727402121AD619
:103D3000E0C0E0123D82D0E0F00F7402121AD6A368
:103D4000E0C0E0123D82D0E0023B7AEE70027E0AD3
:103D5000850E82850F83123DB71240F4EEF974068A
:103D6000121AA07F10021BCC900317E028FAA3E0E0
:103D70003400FB22F514A3E03400F515851482F518
:103D80008322123D8622900317E02FFAA3E034002D
:103D90008A82F58322123D8674FF22123F03A3A379
:103DA000A3A3E022124CC0850E82850F83123AA194
:103DB00022851082851183124BCF85168285178349
:103DC00022900317EAF0A3EBF0900317124BCFE811
:103DD00049221240FAE8F0A3E9F079112274EA12BC
:103DE0001AFA74FE121A8A8A088B098C128D13EA49
:103DF0002405FEE43509FFAC18AD198E828F8312BD
:103E00003A9D12077A8A0C8B0DEE2406F50EE43FDC
:103E1000F50FEA450D7003023ED5E5082402F50AC8
:103E2000E43509F50B8A828B83A3A3A3E0A2E550B6
:103E300028851882851983123A9D1208D68A108B1C
:103E400011EA451160207912123A9385108285118A
:103E500083121AF8E9F50C707F850E82850F83E0D6
:103E6000600979528011750C0E806D850882850974
:103E700083A3A3A3A3E0F9E4F508F5097808121DCC
:103E80000D8E828F83A3A3E0F5087808121D0D8E96
:103E9000828F83A3A3A3121D248E828F83124A31A3
:103EA000123A971208E87406121AA0E9F50C70117C
:103EB000850E82850F83E0702D123A97120462807E
:103EC000257416650C7011750C007418121AD61230
:103ED0003EFFE48010750C01124BC78512828513DA
:103EE00083E8F0A3E9F0850E82850F83E060047912
:103EF000008002A90C7402121AA07F0E021BCC12C1
:103F00003F0322E0F8A3E0F58388822274EC121AC2
:103F1000FA74F7121A8A8A0A8B0B8C108D11EA2414
:103F200005FEE4350BFF750C00AC18AD198E828FC1
:103F300083123A9D12077A8A088B09EA45097003B1
:103F40000240CBE50A2402F50A5002050B8A828B57
:103F500083A3A3A3E0A2E5502F85188285198312BD
:103F60003A9D1208D68A0C8B0DEA450D604F7912E6
:103F7000AC08AD09123A97850C82850D83121AF8A8
:103F8000E9F50C60030240CE850A82850B83E0F5DB
:103F900008A3E0F509AA08FB1208CAEA4B70197ACF
:103FA000FF7BFF1208CAEA4B70030240C18A828B72
:103FB00083E508F0A3E509F07508008008750C0E8C
:103FC0000240CE050890030FE0F8E508C3984003CF
:103FD0000240C185080E750F007403780E121A771F
:103FE0008A828B83A3A3E0250EF8A3E0350F124449
:103FF0009570D08E828F831240E91236DF8E828FC9
:1040000083A3A31240E91236DDEE2404F508E43F51
:10401000F509850882F583E088828983A3A3A3A399
:10402000F0A3E4F0EE2405F50EE43FF50F850E82D3
:10403000F5831240E9A3A3A3A31236DD7512077519
:1040400013007812121D0DEEFCEFFD7404121AE835
:1040500012142E7402121AA0E4F5127812121D0D19
:10406000850882850983E0FC7D007917123A971252
:10407000084C7402121AA07407121AD61236DF7492
:1040800007121AD6E0FA4B603D8508828509831233
:1040900040E0121D0D850E82850F83124A311214E5
:1040A0002E7402121AA07402121AF0123A97120415
:1040B00068E960267407121AD6123A9D1214B88065
:1040C00019750C098008750C118003750C01124BD1
:1040D000C78510828511831240F4A90C74098028C9
:1040E000E0F508750900780822123AA188828983D0
:1040F000221240FAE8F0A3E9F022E0F8A3E0F98503
:104100000E82850F83227404121AA07F0C021BCC2E
:1041100074EC121AFA124204751000EE2402F50C27
:10412000E43FF50D850C82F583123A9D1208CA8A88
:10413000088B09EA450970030241E8850A82850B6C
:1041400083E0640160030241DDAC08AD09AA0AAB5B
:104150000B1208BEE9606E85088285098312346AF5
:10416000EE2406F50AE43FF50B8E828F83A3A3129B
:104170001D248E828F83A3A3A3A3121D24850A82EC
:10418000850B83121D2479188E828F83124216129A
:104190003A9D1208E87406121AA0E9F874166870BD
:1041A0000B850A82850B83E4F0A38014E860128EED
:1041B000828F83123A9D850E82850F83EAF0A3EBEE
:1041C000F088108018780E121D0DAC08AD09EEFABB
:1041D000EFFB1208C47402121AA0E9F510AA08AB8A
:1041E000091208D0E510700E850C82850D83123AF5
:1041F0009D12046E8009741665107003751000A975
:104200001002410BEAFEEBFF8C0E8D0FEE2405F53C
:104210000AE43FF50B22124CC0850C82850D8322E7
:1042200074EA121AFA7508007509007E007F00759D
:104230000A00EC2402F510E43DF5118035EC650828
:104240007003ED650960030242D588828983A3A3C8
:10425000E06A7003A3E06B707C88828983A3A3A3C8
:10426000A3124BCBEE28FEEF39FFEA28FAEB39FB1D
:10427000050A1243A5503A850A0C750D007403789F
:104280000C121A7785108285118312439812449577
:10429000601FE508450970A58C088D09888289830F
:1042A00012346888828983A3A3E02EFAA3E03F80BA
:1042B000BEE50AC3940250030243937508007509D2
:1042C00000EE4F6010EEFAEFFB1214B28A0E8B0F65
:1042D000EA450F70057900024395750B00024368AB
:1042E000850B0C750D007403780C121A77851082FB
:1042F000851183E0250CF50CA3E0350DF50DE50CDB
:104300002406F514E4350DF515851482F583124461
:104310009A6042E50C2404F512E4350DF51385127C
:1043200082F583121D24E50E2508FAE50F3509FBF9
:1043300012142E7402121AA0851282851383E025AE
:1043400008F508A3E03509F509851482851583125F
:104350003A9D1214B8E50B600D7C087D007900AA27
:104360000CAB0D121446050BE50BC3950A50030266
:1043700042E0851082851183124BCB88828983A30A
:10438000A3A3A3A3A3E50EF0A3E50F122FFBEEF06A
:10439000A3EFF07901023EFA12439C22E0250CF8CB
:1043A000A3E0350D2290030FE0F8E50AC3982274CC
:1043B000F0121AFA8A0E8B0F8C0A8D0B750D007590
:1043C0000C0080507916EE2406F508E43FF5098EBE
:1043D000828F83A3A3121D248E828F83A3A3A3A302
:1043E000121D24850882850983121D24850E82856D
:1043F0000F83A3A3123A9D1208E87406121AA0E9CB
:10440000F50D7416650D706C850882850983E4F0DE
:10441000A3F0050C90030FE0F8E50CC3985066AAD2
:104420000C8A0875090074037808121A77850A82C5
:10443000850B83A3A31244E4E8FEE9FF8E828F83F9
:1044400012449A6040EA2401F508E43400F509902A
:10445000030FE065087002E509601488828983A370
:10446000A3A3A3A3A3A3A3123ACC60030243C479DA
:10447000180243C6E9609B124BC77410121AD61279
:10448000448C1240F4A90D7F08021BCCE0FAA3E093
:10449000F5838A8222F988828983124CC0EC4D22EE
:1044A00074F6121AFA7C0080010C90036CE0F8ECB0
:1044B000C398501E8C0875090074027808121A7788
:1044C0001244D9E06A7003A3E06B70DDE8FAE9FBFF
:1044D00080047A007B0002457C90030D1244E4883E
:1044E00082898322E02508F8A3E03509F92274F2D5
:1044F000121AFA8A088B09750A0080278E828F8328
:10450000A3A3A3A3122FF260031214B87C087D00AA
:104510007900EEFAEFFB1214468E828F83E4F0A34B
:10452000F0050A1243A55027850A0C750D00740387
:10453000780C121A77850882850983A3A3E0250CDD
:10454000FEA3E0350DFF8E828F83123ACC70AD85CD
:10455000088285098374FFF0A3F0024CB474F6124C
:104560001AFA12087C8A828B83E582458370067A68
:10457000007B008007A3A3A3A3123A9D7F02021B26
:10458000CC74F4121AFA89088C828D83E06402706C
:104590003C124B6AFEA3E0F9EEF8740268700374F3
:1045A00029697029750A02750B00780A121D0D74AD
:1045B00010121AD6121D247410121AD6121D24A914
:1045C0000812133E7406121AA0E9F980027901025A
:1045D000302F74E8121AFA74FB121A8AE9851882CD
:1045E000851983F08A168B17ECFEEDFF7510008E8F
:1045F000828F83A3A3A3E0A2E4502D741D121AD6C8
:10460000123A9D1208D68A828B83E5824583700315
:10461000024A09790AEEFCEFFDAA16AB17121AF846
:10462000E9F5106003024A0C741F121AD6E0F5086F
:10463000A3E0F5097421121AD6E0F50AA3E0F50B00
:104640007423121AD6E0F50EA3E0F50F8E828F8345
:10465000E0640260030249AAA3124BCB850882855D
:104660000983A3858212858313EE2406F50CE43FAB
:10467000F50D88828983124A49F514E439F51578D5
:1046800014121D97010000280128AC4607000228DB
:1046900071470328DF460029A0480129CB48022999
:1046A0006C480329A04804294449AA49E50E450F4E
:1046B00060030249A5850C82850D83124BCBE8FA75
:1046C000E9FB8A828B83E0850A82850B83124A5438
:1046D000121D0D8A828B83A3E0FCA3E002492EE524
:1046E0000E450F60030249A5850A82850B8374017C
:1046F000F0124A3E850882850983F07C007D008E99
:10470000828F83A3A3A3A3E02401FAA3E03400FBD8
:1047100012077AEA4B60408A828B83E02402F88594
:104720000A82850B83E028F0EA2404F8E43BF98848
:10473000828983E0851282851383124A62124A5469
:10474000121D0D8A828B83A3124A31E5082403FAD5
:10475000E43509FB024933850A82850B83E0240492
:10476000F07C047D007900AA12AB13121446024AB1
:104770000CE50E450F60030249A5124A3EFEA3E078
:10478000FF850A82850B837404F0EE850882850913
:1047900083F0EF851282851383F07403121AF0EE12
:1047A000FAEFFB12077A8A0C8B0DEA450D700302B3
:1047B000484F8A828B83A3A31234687401121AE0D3
:1047C000880E890F780E121D0D7405121AD6121D4F
:1047D000247CFF7DFF1207807404121AA08B0FEA5D
:1047E000450F7033850C82850D83124A35121D0DDD
:1047F000850C82850D83A3121D247C027D007A5ACC
:104800007B821205107404121AA0E9700A74011256
:104810001AD674FFF0A3F08E828F83E064027039A1
:10482000750C02750D00780C121D0D8E828F83A3FE
:10483000124A31E5082404FAE43509FB12142E74F7
:1048400002121AA0850A82850B83E0240280097473
:1048500001121AD6EEF0A3EFF07401121AD6124A22
:10486000237401121AD6124A1A02499FE50E450F07
:1048700060030249A5850C82850D83124CB9AA16E6
:10488000AB17121344850A82850B837402F08508E6
:1048900082850983EAF0851282851383EB0249A29F
:1048A000E50E450F60030249A5124A3EF8A3E0F960
:1048B000850A82850B837402F0E885088285098366
:1048C000F0E98512828513830249A2850C82850D49
:1048D00083123A9D121428EAFAF8C3950EE4950F54
:1048E000405CE8650E450F70047A008021851882CF
:1048F000851983E0FCE50E2CFCE4350FFDC3EC9834
:10490000ED94005003E08005E50ECAC39AFAEA85EB
:104910000A82850B83F08A0A750B00780A121D0D36
:10492000850C82850D83E0250EFCA3E0350FFDAAE2
:1049300008AB0912142E7402121AA0024A0C751048
:1049400007024A0CE50E450F705B850C82850D83CE
:10495000124BCB850A82850B837407F0888289838A
:10496000124A1B124A13E0851282851383F0E82451
:1049700002FAE439FB8A828B83124A238A828B8370
:10498000124A1AA3A3122FFA124A28F0E82405F8B3
:1049900050010988828983124A28A3124A62A3A37C
:1049A000A3A3F0806775100B8062741D121AD612D3
:1049B0003A9D12087C8A828B83E5824583604A1285
:1049C0004BCB880C890DE8450D603E7425121AD634
:1049D000E0F5107810121D11780E121D0D780A12D4
:1049E0001D0D7808121D0D7407121AD6E0F9EEFCA1
:1049F000EFFDAA16AB17850C82850D83121AF87489
:104A000007121AA0E9F510800375100EA91074059D
:104A1000023D60F088828983A322A3E08508828515
:104A2000098322124A69F022124A69A3A322900341
:104A300013124CC022E0F50E750F00780E22850C83
:104A400082850D83123F03E022E0FAA3E0F8E4C878
:104A5000F9EA2822F08A828B83E0F50A750B007848
:104A60000A22124A13124A6922E0850882850983C4
:104A7000A3A32274EE121AFA74FE121A8A8A088B01
:104A800009ECFEEDFF890AAC18AD19EEFAEFFB1246
:104A9000077A8A0C8B0DEA450D7003024B5B851873
:104AA00082851983123A9D12087C8A828B83E58263
:104AB00045837003024B56A3A3124BCB880E890F7C
:104AC000E8450F7003024B567414121AD6E0F51025
:104AD000A3E0F511E50AF50B780B121D11741912FC
:104AE0001AD6121D247810121D0D741B121AD6E04E
:104AF000F9AC0CAD0DAA08AB09850E82850F8312A7
:104B00001AF87405121AA0E9F50B705274FE650AC2
:104B1000604C850C82850D83E064027041124B6A03
:104B2000FAA3E0F9EAF87402687003742969702E38
:104B3000851082851183124A49F50CE439F50D7808
:104B40000C121D0DEEFCEFFDAA08AB091209007452
:104B500002121AA08008750B0E8003750B01A90BB9
:104B60007402121AA07F0A021BCCA3124BCF8882B8
:104B70008983E02274F6121AFA74FE121A8A740CEF
:104B8000121AD6124BCBE8851882851983F074016E
:104B9000121AD6E9F0E4F508F5097808121D0D752A
:104BA00008027808121D0D7404121AE08808890999
:104BB0007808121D0D79FE1208E87406121AA07406
:104BC00002121AA002457C8E828F83124BCF22E004
:104BD000F8A3E0F92274F7121AFAEAFEEBFF89084B
:104BE00090032A124A31121344EA5402600BA908B6
:104BF000EEFAEFFB12076E800279017F01021BCCF7
:104C000074F2121AFA74FE121A8AEAFEEBFF890A8B
:104C10007401650A60147402650A6003024CAF797E
:104C200001120B40E96003024CAFEEFAEFFB1208F1
:104C3000CAEA4B60031208D0A818A9198808890984
:104C40007808121D0D7508027509007808121D0DEF
:104C500075082A7509827808121D0D7CFF7DFF7A80
:104C6000017B001207747406121AA080388508822E
:104C7000850983A3A3A3A3A3A3124CB9EEFAEFFB68
:104C800012132CE4F50CF50D780C121D0D740212A4
:104C90001AD6121D247CFF7DFFAA08AB09120780DB
:104CA0007404121AA08A088B09E508450970BE74BD
:104CB00002121AA07F06021BCC123F03124CC02224
:104CC000E0FCA3E0FD2274F4121AFA8A088B09ECC6
:104CD000FEEDFF9019C9E0F4604B7A097B001214D5
:104CE00052EA4B60408A828B8374B1F0A3E4124D88
:104CF00028F08A828B83A3A3E508F0A3E509124D6F
:104D000028A3EEF0A3EFF0740C121AD6124BCB8A44
:104D1000828B83A3A3A3A3A3A3A31240F49019C9D6
:104D2000E0F912145E02302FF08A828B83A3A3A3D2
:104D3000A322C082C0839061907404F0A37448F0F1
:104D4000A37402F09061807440F09061BC7403F031
:104D50009061877419F0906265741BF0906249E06D
:104D6000C3941390619C40107409F09060667401C4
:104D7000F090619F7428800D740BF0906066E4F0F1
:104D800090619F742CF0124F1F7009C29190039E86
:104D90007467800590039E7461F0124F93902D14F8
:104DA000E493F46006E493F9120C66790512100896
:104DB0000251E3C082C083E9540FF9906185E06934
:104DC0006012E5C654B84441F5C6E59E54476441B7
:104DD00070F8E9F053C6B8E59E544770FA0251E303
:104DE000C082C083A8A853A87E906181E4F0A3F09C
:104DF000A3F0C2BA539AFEC289759B00C2C275E97C
:104E00000075910075BF0075A91175B90590618194
:104E1000F0A374C0F0A3E4F0D2BA439A01748058AE
:104E200042A80251E3F0A3F00251E3C082C08374B0
:104E3000F8121A8A90039C1269757003024F17903A
:104E4000039CE0544060177908AA18AB19120DB002
:104E5000AA18AB1912098A90039CE054BFF0E054E1
:104E6000806010790C7AAB7B07120DB090039CE048
:104E7000547FF0E0A2E0501E124F1F7009C29190C3
:104E8000039E7467800590039E7461F012099090F0
:104E9000039CE054FEF0E05402601E124F6470095F
:104EA000D29190039E7471800590039E746AF012F3
:104EB000099090039CE054FDF0E054046010902DA4
:104EC00018124F9612099690039CE054FBF0E054A0
:104ED000086010902D19124F9612099690039CE0CD
:104EE00054F7F0E05410600D124F9312099690039E
:104EF0009CE054EFF0E05420600A12099690039C65
:104F0000E054DFF0A3E05401600D120C8A12099CFA
:104F100090039DE054FEF07408121AA00251E39031
:104F2000619A125188900785E0640122C082C08393
:104F3000E960051460178029124F1F7009C2919013
:104F4000039E7467801A90039E74618013124F64ED
:104F50007009D29190039E7471800590039E746ACB
:104F6000F00251E390619A12517A900785E0640152
:104F700022C082C083E9600814600A14600C8010AB
:104F8000902D188008902D198003902D1A124F969D
:104F90000251E3902D1AE493906186F02274EA1294
:104FA0001AFA74F4121A8A9081D8AC18AD197404E4
:104FB00012199D902D1893F4600302510F907808F8
:104FC000E0C3940250030250F390814A7404121A11
:104FD000F0740812199DA818A91988148915740469
:104FE000121AE088088909AE08AF097510FF75111B
:104FF000FF750EFF7C00750C48750D7880127408E3
:105000006C700302508974096C607E740A6C60795C
:10501000850C82850D83780812194E8E828F83A9A4
:1050200009E50AC9F888127418780812188FE51271
:105030004508F8C3E098A3E099850C82850D837834
:105040000812194E40188E828F837418780812182F
:105050008FE5124508F8E0C398F8A3E0801A7418A9
:10506000780812188FE5124508FAE9FB8E828F83C3
:10507000125CACEAC398F8EB99F9C3E89510E9958E
:10508000115006881089118C0E0CE50C2404F50CC7
:105090005002050DECC394135003024FFE74FF65DC
:1050A00010700474FF65116024850E08740278087E
:1050B000121A7774482508F58274783509F58378D3
:1050C0000812194E851482851583E508F0EE240236
:1050D000FE50010F851482851583A3858214858374
:1050E00015740C121AD6E5826E7003E5836F6003A7
:1050F000024FEB7508017509007808121D0D740246
:10510000121AF07A467B0B12138C7402121AA074D6
:105110000C121AA07F0E021BCCC082C0839061AE1D
:105120007468F0A3746AF090624574FBF0A304F015
:1051300053F4FD43FE029007857401F09061A0E0F6
:10514000643A90619A70191251887401640170096F
:10515000C29190039E7467801E90039E74618017B5
:1051600012517A740164017009D29190039E747196
:10517000800590039E746A024E27743FF0A3745A10
:10518000F09061A0747FF0227433F0A37455F09016
:1051900061A0743AF0227F04021BCCC082C08390CD
:1051A0000763E064017011900769E064016027E023
:1051B0007006A3E06401601E90077AE06401700845
:1051C000900780E06401600E90070DE06401700AB2
:1051D000900712E06004790C800279008005E0F904
:1051E000122BBED083D082020132C082C08375E10F
:1051F000F1900710E0604B14600914604F14604791
:1052000014704E120C9C9006FFE0F97A007B071296
:105210000F5A9081DC12196C120FA89081F41219A8
:105220006C120F66900711E0F9120F727901120FDC
:10523000FC9006FD1254F274CCF0A3740CF07900CB
:1052400080A1120CA280BF120CA880BA120CAE80F2
:10525000B5791280EB74F4121AFA75D90D9007061D
:10526000E0A2E0E4331313F89006FF1255FD484422
:1052700001F5D97582007583071254057004E58322
:10528000640770F57582077583071255F2640D7017
:1052900004E583640770F375E195900706E0F97AF9
:1052A000077B07120F609019ED743CF0A3740C1289
:1052B000537012561D745AF0A3740C125630900796
:1052C00010E064019006FD700B12530312194E900A
:1052D00081D4800912530312194E9081B0780812BC
:1052E00018DA9081F078081219281253977808126A
:1052F000195D9006FD12560474131254A67402F040
:105300000251961264B778082274F7121AFA1253EF
:10531000EFF5D97582007583071254057004E58393
:10532000640770F5900716E0600A78177907FA129B
:10533000549ADAFB1254891254057004E583640709
:1053400070F5900736E0600A78377907FA12549AB8
:10535000DAFB75E1959019ED7448F0A3740C1253C3
:105360007012537A74121254A67401F0FF021BCC0F
:105370001257A97442F0A3740C22125623F0A3749E
:105380005AF0A3740C12563412539774FF1263BA76
:105390009006FD125608229006FD1255EC240EF5DB
:1053A00082E438F5832274F7121AFA1253EF44029A
:1053B000F5D97582007583071254057004E583647E
:1053C0000770F5900716E0600A78177907FA12540B
:1053D0009ADAFB75E1959019ED12540BF0A3125473
:1053E0000B12537D74141254A67404F0025D9E9047
:1053F00007161253F622E02407F5D99006FFE0C401
:10540000333354C0221255F66406227454125418D1
:10541000125418F0A3740C22F0A3740CF0A374546B
:105420002274F7121AFA1253EF4406F5D975820066
:105430007583071254057004E583640770F59007BF
:1054400016E0600A78177907FA12549ADAFB1254B8
:10545000891254057004E583640770F5900736E0FF
:10546000600A78377907FA12549ADAFB75E1959059
:1054700019ED744EF0A3740C1257A212537A7415DE
:105480001254A67403F0025D9E9007361253F64440
:1054900004F5D97582007583072288828983125D9D
:1054A00050A882A98322F090039A22C082C08390E0
:1054B000076D7425F090076B7401F0A3E4F07A0196
:1054C000FB120F849007591254F274D8F0A3740C95
:1054D000F090076AE064017016900769E070107937
:1054E00001120FE4120FB4120FDE7900120FF00256
:1054F00051E31255EC241AF582E438F5832274F650
:10550000121AFA74FA121A8A900762E0640170089B
:10551000120CB4900762E4F075E1F190075912554E
:10552000EC2415F582E438F5837401F0900764E00B
:1055300064017049908176AC18AD19740612199DFA
:1055400075D90D90075B1255FD4403F5D975825C42
:105550007583071255F264627004E583640770F383
:10556000A818A91912549A7406121AD6E5826870FE
:1055700003E5836970EE75E1957901800279001287
:105580000F8A9019ED744CF0A3740EF0A37452F0CE
:10559000A3740E12561412561412561D125629F0E8
:1055A000A37458F0A3740E12563090075BE0F97A9A
:1055B0005C7B07120F5A90076DE0F9122BBE790140
:1055C000120F909081DC12196C120FA89081F412C6
:1055D000196C120F667900120FFC900759125604CD
:1055E00074161254A67405F004025E04E0F8A3E0F9
:1055F000C8221255F622E0F5D9A3E58222E0C43391
:105600003354C022125608221255EC2414F582E4B9
:1056100038F58322F0A3744CF0A3740E22125623A3
:10562000F0A32212562722F0A37416F0A3740E22C0
:1056300012563422F09019FB1256291257AD125609
:1056400029125627F02274F7121AFA8908A808E8D6
:1056500075F00DA4C8AAF02AF974CA28FE7403399B
:10566000FF900772E0F97A737B07120F5A90078058
:10567000E070257900120FC6EE240CF582EF34019C
:10568000F583E07004790080027901EE2406FAEFD8
:105690003401FB120F6080057901120FC675E1F12C
:1056A00075D9239007721255FD4405F5D97582739B
:1056B0007583071255F264797004E583640770F30B
:1056C00075D90075D90075D90075D90075D90075DF
:1056D000D900EE2422125B6B125B8A7003E96583AA
:1056E00070F6EE2426125B762403F8E43583F91273
:1056F0005B8A7003E9658370F6EE242B125B7F24CE
:105700002C125B7F242D125B7F242E125B7F242FB3
:10571000125B7F2430125B7F2431125B7F243212B4
:105720005B7F2433125B7F245D125B762405F8E4F3
:105730003583F9125B8A7003E9658370F6EE2437CE
:105740001268E3541FF8EE242A1268E3C43354E0CD
:1057500048F5D975E1959019ED741CF0A3740EF01D
:10576000A37422F0A3740E1257A2F0A37428F0A31E
:10577000740E12563090077FE0F9122BBE9081DC38
:1057800012196C120FA89081F412196C120F669006
:10579000600DE4F07901120FFC90039A7406F00298
:1057A0005D9E1257A9125629221257AD221257BADE
:1057B0007416F0A3740E1257BA22F0A37416F0A355
:1057C000740EF0A32274EC121AFA9007701264B3EC
:1057D000781012194E900781E0FAF875F00DA4C800
:1057E000ACF02CF912662CFFEE2EFEEF33FF8E0C80
:1057F000F50D750E00750F008510088511098512CD
:105800000A85130B9081B078081218DA7808121DF7
:105810000985100885110985120A85130B78087906
:105820000C1218C77810790C121820E4F50EF50F39
:105830007808790C1219008A0C750D007403780C25
:10584000121A777808790C1218C79081F07808122C
:105850001928AA08AB09AC0AAD0B1229C4740412AA
:105860001AA08A088B09A808A909C3EE98EF9950D5
:1058700006E82EF8E93FF9E890600EF0E9A3F0EEB3
:10588000A3F0EFA3F090600D74C1F07F0C021BCC6D
:10589000C082C0839006FD125914024E2574F7127F
:1058A0001AFA9003C812663B74CA28F8740339F9CF
:1058B000E82405FAE439FB8A828B831266F5888234
:1058C0008983A3A3A3A3A3A3A3A3A3ECF0A3ED1293
:1058D0005A06A3A3A3A3A3A3E024FFF8A3E034FFE5
:1058E000F98A828B83E8F0A3E9F0025D9EC082C052
:1058F0008390075912590D90076D0251DEC082C086
:105900008390077012590D90077F0251DE125914CF
:10591000F0A3F0221255EC2406F582E438F583E476
:105920002202013274F6121AFA125ABB6004780489
:1059300080027800E8240EF8ECC39850030259F274
:105940007C0C90078BE4F0EA2476F582E43BF58347
:10595000E090078CF0EA24771259F790078D125ADD
:105960000190078EF0EA24791259F790078F125AA6
:1059700001900790F0EA247B1259F7900791125A90
:1059800001900792F0EA247D1259F7900793125A7A
:1059900001900794F0EA2474F8E43BF98A828B833F
:1059A000A3A3A3A3A3E0FEA3E0FF88828983E02E44
:1059B000F0A3E03F1261D3900795125A0190079629
:1059C000125ADF601775088B7509077808121D0DCC
:1059D0007903120E0A7402121AA07C10125E74EC83
:1059E000FE125D50DEFB75E1957904120FAE790170
:1059F00080027900025E07F8E43BF988828983E03F
:105A000022125A06E022F088828983A32274F612B9
:105A10001AFA125ABB6004780480027800E8240A5B
:105A2000F8ECC3985003025AB67E0890078B7401B5
:105A3000F07CF17D06788C79077F05125AC9A8821F
:105A4000A983DFF7EA2480FCE43BFD8A828B83A3F1
:105A5000A3A3A3A3E0F508A3E0F5098C828D83E05E
:105A60002508F0A3E03509F0125AC908A9838C82F1
:105A70008D83E088828983125ADF601975088B75DF
:105A800009077808121D0D7C087903120E0A7402AA
:105A9000121AA07E0C74012EF5D975D90375828B6C
:105AA000758307EEFF125D50DFFB75E195790412F7
:105AB0000FAE790180027900025E079061D0E0F8B4
:105AC0007480C398FC125AE422125ACD228C828D23
:105AD00083E0888289831269B288828983A322F055
:105AE000125AE422EA2483F582E43BF583E022742F
:105AF000F7121AFAEAFEEBFF9061D0E0706875D9F0
:105B00001875D90375D903EE249C125C21125B8AA7
:105B10007003E9658370F6EE24A4125B7F24A5125E
:105B20005B7F2494125C21125B8A7003E9658370A9
