:020000040000FA
:0600000002011A0227B103
:03002B00022E4C56
:03003B00022E6C26
:03004300022E2367
:0300530002282759
:03006B00022EEC76
:10008300022607E5C754F84401F5C77901220000A9
:100093000080FB120086B90003020104E479217891
:1000A30008B800028004F709D8FCE479297802B87B
:1000B30000028004F709D8FCE4900281785D791787
:1000C3008002F0A3D8FCD9FA781A90014A7A01BACF
:1000D30000028007E493A3F608DAF97ADD7B18902F
:1000E300014B78DA79038015E493A3AD82AE838A5A
:1000F300828B83F0A3AA82AB838D828E83D8E9D9C6
:10010300E77582737583FF740112012C75829175F3
:100113008300740012012C75D00075813F7518811E
:10012300751902759F00020096C09FF59FE473D076
:100133009F22D083D082C09FE493C0E0740193C018
:10014300E0740293F59F2201BC05C805FE05F8057E
:10015300FF0000B4000028002800283075A000A08C
:1001630000A000A00000080008E001F0001000104B
:10017300001000100010001000500050005000103C
:10018300001000D0070000000000000F0001000570
:1001930000307507001000010081FF00000000FF20
:1001A300FFFF3C075A0742077E07FF0202020802CD
:1001B3005000A0000000E8030250900100002C90C2
:1001C300025A900100004019026090010000C6022B
:1001D300025A900100004119027A90010000DC02EA
:1001E300025A900100004219027E90010000DE02D3
:1001F300025A900100004319026490080000DF02D4
:10020300025A900100004419028A90010000451926
:10021300FFFF0100FF200250900100004A90025AA4
:1002230090010000AA19027C900000000000025E09
:10023300900300000F031700DC0FDC0FDC0FDC0F53
:10024300DC0FDC0FDC0FDC0FDC0FDC0FDC0FDC0F53
:10025300DC0F40125E123A12841396137E130202CD
:1002630002020202020202010D000000100102500C
:10027300900100004490025A90010000F3190276A5
:10028300900100005E0D025A90010000F4190274FF
:1002930090010000138F025A90010000F5190272B9
:1002A30090010000058F025A90010000F6190270B8
:1002B30090010000918E025A90010000F719026E1E
:1002C300900100007F8E025A90010000F819026C21
:1002D30090010000B58E025A90010000F9190266E0
:1002E30090010000A38E025A90010000FA190262E5
:1002F30090010000F78E025A90010000FB1902588A
:1003030090010000FC1901E803057710020A0AA016
:1003130015000000000001000002000003000004BB
:1003230000000500000600000700010000010100B5
:1003330001020001030001040001050001060001A0
:1003430007000000000000000100000002000000A0
:100353000300000004000000050000000600000088
:10036300070000010000000101000001020000017C
:100373000300000104000001050000010600000164
:1003830007FFFF00FE17041800000A1800001618E4
:1003930001307503020106000000000000000000A8
:1003A300000000000000000000000000000000004A
:1003B300000000FFFF0600800CE8030A5365727615
:1003C300657220546F20436C69656E74000010439E
:1003D3006C69656E7420546F205365727665720084
:1003E300000250900100004790025A900100005013
:1003F3001B028490030000AF18025C9001000051BF
:100403001B025A90010000631B028290000000C58A
:1004130018025E90030000DB18025C900100006488
:100423001B12013549BA051201355CBA05120135B3
:100433007DBA05120135E8BA0512013529BB05124B
:1004430001354ABB051201358BBB0512013523BCAF
:10045300051201356BBC0512013555A30512013593
:1004630068A30512013599A305120135D3A305121B
:1004730001352CA40512013573A405120135BBA463
:1004830005120135EAA40512013519A50512013536
:1004930050A50512013597A505120135B0A5051222
:1004A300013505A6051201351EA6051201356CA6F8
:1004B30005120135A6A60512013534E403120135F0
:1004C30037E50312013564E503120135B5E503127F
:1004D3000135D8E503120135EAE503120135EDE5EF
:1004E300031201352BE6031201359FE60312013592
:1004F3000BE703120135D3E703120135EFE70312CC
:10050300013526E80312013560E803120135F7E8E7
:100513000312013549E9031201357AE90312013562
:10052300ABE903120135B8E90312013522EA0312DC
:10053300013525EA0312013532EA0312013535EAA2
:10054300031201358CEA031201358FEA03120135D8
:10055300C8EA03120135CBEA03120135FFEA03129D
:10056300013502EB0312013556EB031201359FEB04
:1005730003120135AFEB03120135E2EB0312013530
:10058300EFEB03120135F2EB031201355AEC0312C0
:1005930001355CED0312013500EE0312013569EEFE
:1005A30003120135A7EE03120135FB930412013543
:1005B300F39404120135279504120135BD950412F5
:1005C30001350896041201356C9604120135F6962E
:1005D30004120135AF9704120135D19A0412013583
:1005E3004E9C04120135719C041201354A97051281
:1005F3000135EF98051201350F9905120135309A2F
:1006030005120135839A05120135C37B00120135AA
:10061300EB7B00120135187C00120135507C00126F
:100623000135AE7C00120135FA7C00120135617D83
:1006330000120135A17D00120135DE7D0012013566
:100643000C7E00120135B67E00120135C07E001209
:100653000135CD7E00120135007F001201350C7F7C
:1006630000120135247F001201352E7F001201355F
:1006730017FF0412013525FF041201353DFF041253
:10068300013555FF041201356CFF041201359492B4
:10069300031201353E9303120135519403120135C0
:1006A300CD9403120135EB950312013527960312FE
:1006B3000135C29603120135A697031201356998D5
:1006C30003120135E198031201356F9A03120135C4
:1006D300E09A031201359A9B031201358C9C031295
:1006E3000135CC9C03120135809D03120135B29D67
:1006F30003120135A89F03120135EF9F0312013541
:100703000DA00312013573A00312013542A1031298
:10071300013506A20312013525A4031201352FA4C6
:1007230003120135BAC504120135A4C604120135FA
:100733004FC704120135A0C70412013550C8041273
:100743000135C1C804120135A6C904120135DAC93D
:1007530004120135D3CA0412013510CB041201353A
:10076300ECCB041201352BCC0412013547CC041217
:10077300013596BC051201351ABD0512013545BD7B
:10078300051201355FBE05120135909B0512013537
:10079300A69B05120135C49B05120135D59C051294
:1007A3000135DF9C051201350A9E05120135019FB3
:1007B300051201356E9F05120135789F051201352B
:1007C3004FD30412013585D404120135FFD404122A
:1007D30001352FD50412013542D50412013599D5BF
:1007E30004120135AED70412013500BD02120135E2
:1007F300B1BD02120135CDBD0212013596BE021202
:100803000135B0BE02120135BBBE0212013591BFE4
:10081300021201356EC002120135FEC0021201350B
:10082300B5C102120135C3C402120135B2C60212A8
:10083300013564C7021201352DC80212013572CB8E
:10084300021201351CCC0212013545CD02120135CD
:1008530001CF02120135A1CF02120135EFCF0212EF
:1008630001352ED00212013501D10212013535D1E5
:1008730002120135C2D10212013500800312013583
:100883008C8003120135F08103120135FC810312C0
:100893000135378203120135A68203120135AF8376
:1008A30003120135B884031201357F850312013524
:1008B300DC8603120135FA8603120135178703120A
:1008C3000135C48703120135418803120135698854
:1008D30003120135338B03120135388B03120135B3
:1008E300518D031201359F8D031201350F8E0312B3
:1008F30001354D8E03120135298F03120135E98F1E
:100903000312013535900312013538900312013576
:100913007C9003120135C490031201350391031235
:100923000135259103120135599103120135BC910B
:10093300031201350DFA0412013516FA04120135BA
:1009430024FA0412013577FA0412013596FA0412D7
:100953000135DBFA041201351FFC04120135BAFC20
:1009630004120135FEFC0412013528FD0412013581
:1009730097FD04120135DDFD0412013554FE041206
:10098300013505FF04120135BCD301120135CCD367
:10099300011201356DD401120135C9D4011201359B
:1009A30086D501120135A2D601120135D4D6011222
:1009B300013503D701120135B0D80112013527DB08
:1009C3000112013597DD0112013589DE011201356E
:1009D30082DF0112013589E1011201357DE4011243
:1009E3000135ACE501120135B0E701120135C0E86C
:1009F300011201354FEA0112013540EB01120135B5
:100A03008EEB01120135FDEB0112013521EC0112D0
:100A1300013572EC0112013513F10112013514F2A3
:100A23000112013575F201120135A0F201120135EF
:100A330066F3011201351DE50412013527E50412A1
:100A430001356CE50412013580E50412013510E629
:100A53000412013549E60412013584E60412013516
:100A6300ADE604120135FBE60412013510E704126A
:100A7300013525E7041201353AE7041201357DE714
:100A83000412013592E704120135FDE70412013522
:100A930011E80412013525E8041201353AE804127D
:100AA300013574E80412013598E804120135C4E8ED
:100AB30004120135FBE8041201355DE90412013526
:100AC300CFE904120135FAE9041201353DEA0412B3
:100AD300013567EA0412013592EA0412013546C56D
:100AE30005120135D4CC03120135B7CD03120135FC
:100AF30032CE031201356DCE03120135BECF031280
:100B0300013547D0031201355FD203120135F1D409
:100B130003120135A3D503120135AFD603120135F4
:100B230022D8031201357BD803120135BAEA041225
:100B33000135FDEA0412013581EB0412013554EC51
:100B4300041201352BEF0412013588B20512013569
:100B530035B30512013542B40512013581B40512CE
:100B63000135DBB4051201358EBE05120135F1BE28
:100B7300051201358EBF05120135C3BF05120135BC
:100B8300F3BF0512013514C0051201354FC005121C
:100B930001356FC005120135CF84051201355B8520
:100BA300051201351A860512013532870512013502
:100BB3004C8905120135D2F301120135F7F3011205
:100BC3000135C4F40112013598F50112013505F61A
:100BD300011201355BF601120135F7F601120135F9
:100BE3002BF80112013506F90112013565F90112DD
:100BF3000135F1F9011201355FFA01120135EBFA02
:100C030001120135EEFA0112013538FB01120135EB
:100C1300AAFB011201353CFC01120135DDFC011276
:100C23000135FDFC0112013545FD011201358EFD33
:100C330001120135AAFD01120135D0FD0112013562
:100C43004AFE0112013558FE01120135E7FE011279
:100C5300013550FF01120135B49205120135399364
:100C6300051201357B93051201355F940512013599
:100C7300CC940512013510950512013554950512D2
:100C83000135819505120135A99505120135E195C7
:100C9300051201351F9605120135469605120135D9
:100CA300C096051201350A9705120135008002121C
:100CB3000135F98102120135E584021201353985C6
:100CC300021201356485021201353E860212013596
:100CD3007D8602120135C48602120135D7860212BF
:100CE30001351887021201354587021201359387B2
:100CF30002120135D28702120135FD870212013536
:100D0300508802120135DF8802120135BD8B0212B1
:100D13000135D88D02120135168E021201358B8FE3
:100D230002120135D08F02120135C490021201352F
:100D3300DD92021201353F930212013590930212A4
:100D43000135AB9802120135FA9802120135409928
:100D530002120135289B02120135F69C021201355D
:100D6300FB9C02120135D59D02120135009E021231
:100D73000135759E02120135A69E02120135D69FDA
:100D830002120135E89F02120135E2AF0512013567
:100D930054B005120135AAB005120135EEB00512A3
:100DA30001350EB1051201355BB105120135A3B151
:100DB30005120135F6B10512013547B205120135A9
:100DC300498A04120135C88A04120135C1900412FC
:100DD3000135C791041201353A9304120135D193B9
:100DE300041201350BA00212013554A00212013581
:100DF30081A002120135B3A002120135BFA0021275
:100E03000135CBA002120135E2A002120135BDA1CA
:100E1300021201351BA20212013550A20212013542
:100E230081A302120135CEA30212013514A40212CA
:100E3300013580A40212013524A502120135DAA579
:100E43000212013539A602120135AAA60212013592
:100E530008A7021201353AA802120135A2A902120B
:100E630001356CAA0212013579AA02120135BBAA17
:100E730002120135CBAA02120135EFAA0212013583
:100E8300F2AA02120135DEAB021201357AAC02126C
:100E9300013513AD02120135AAAD02120135D7ADEA
:100EA3000212013535AE021201357CAE0212013554
:100EB300CCAE021201351CAF021201358EAF021205
:100EC300013529B002120135D4B00212013573B1D4
:100ED30002120135F1B10212013538B202120135A5
:100EE3009CB202120135CBB20212013562B3021277
:100EF300013574B502120135B8B50212013503B6D6
:100F03000212013589B60212013513B702120135F7
:100F13002CB802120135B2B802120135D7B8021249
:100F230001352EB90212013543B9021201358BB9CD
:100F330002120135FEB90212013543BA021201351C
:100F43004CBB02120135FDBB021201355BBC021220
:100F53000135B7BC02120135D0BC02120135949D94
:100F630004120135E89D04120135F49D0412013584
:100F7300BE9E04120135EB9E04120135199F041223
:100F83000135859F04120135BB9F04120135EB9F88
:100F93000412013524A0041201353CA004120135CA
:100FA30091A004120135AAA004120135EFA0041286
:100FB300013502A1041201351CA10412013532A12D
:100FC3000412013550A2041201357BA3041201352A
:100FD30065A40412013556A504120135E87F0012F9
:100FE3000135DDEF0412013560F304120135ADF470
:100FF3000412013558C0031201352BC30312013506
:1010030031C303120135C1C50312013524C80312CC
:1010130001351D8E05120135B48E05120135728F0F
:10102300051201359C8F05120135769105120135A4
:101033007B9205120135956500120135C7650012D3
:101043000135E471001201353573001201353E7428
:1010530000120135BD7500120135A8760012013565
:10106300F77600120135117700120135537700121C
:1010730001355E7700120135A57700120135AE7791
:10108300001201355A780012013533790012013507
:101093007A7900120135E27900120135247A0012BF
:1010A3000135527A001201358F7A00120135FEE6BE
:1010B30002120135C9EA02120135CFEA02120135E3
:1010C30073F102120135C7F502120135B0F90212AC
:1010D3000135829F05120135F89F051201350EA0D7
:1010E300051201359EA005120135DBA0051201355D
:1010F30015A1051201354FA105120135C2A1051233
:10110300013503A2051201350CA20512013518A2FF
:101113000512013537A20512013561A20512013509
:1011230076A2051201359EA20512013500A3051210
:10113300013527A30512013525F90312013538F9C5
:101143000312013552F9031201357FF903120135F8
:10115300C5F903120135F8F90312013536FA031202
:1011630001359BFA03120135B0FA03120135BBFABC
:1011730003120135C8FA03120135DFFA03120135F0
:10118300EDFA03120135FCFA0312013511FB0312C8
:10119300013526FB0312013531FB031201353DFBFB
:1011A300031201354AFB031201355DFB03120135BE
:1011B30068FB031201358DFB0312013531FC031269
:1011C300013541FC0312013556FC031201356BFC5A
:1011D3000312013585FC03120135A2FC031201350C
:1011E300BFFC03120135CAFC0312013576FD03125D
:1011F300013557FE031201357CFE0312013587FECC
:10120300031201359CFE03120135B0FE03120135B2
:1012130011FF0312013517FF031201351DFF0312DE
:10122300013523FF031201353BFF031201356EFF26
:1012330003120135CDEE03120135EFEE0312013532
:10124300B7EF0312013571F20312013587F303126D
:101253000135A8F40312013582F50312013531F685
:1012630003120135D5B2031201356CB303120135F4
:1012730004B403120135F4B4031201352BB5031280
:1012830001353EB503120135ACB50312013547B73D
:10129300031201356EB70312013510B8031201357D
:1012A30045B80312013556B803120135CFB80312FE
:1012B3000135F0B80312013508B90312013560BADC
:1012C3000312013569BC03120135B9BE031201359E
:1012D300BCBF031201350BC00312013539A403123D
:1012E300013536A50312013521A6031201352BA6BC
:1012F3000312013535A60312013557A60312013532
:1013030063A603120135B5A703120135E4A703123F
:10131300013514A90312013556A90312013582AA16
:101323000312013558AB03120135AAAB0312013581
:1013330009AC0312013540AC031201357BAC031237
:10134300013516B0031201352FB003120135B1B0C8
:1013530003120135BFB00312013514B10312013575
:1013630022B1031201358FB10312013501B2031209
:10137300013547B20312013524D90312013546D989
:101383000312013530DB03120135D5DE03120135BB
:1013930018E003120135F2E00312013559C20512B8
:1013A30001357EC205120135EFC20512013510A7C2
:1013B3000412013519A70412013522A704120135BD
:1013C30053A80412013572AA04120135A8AA041203
:1013D3000135E2AA0412013518AB0412013552ABF0
:1013E3000412013586AB04120135B2AB0412013588
:1013F300FBAB0412013535AC041201357DAC04128C
:101403000135D3AC0412013508AD0412013563ADC7
:10141300041201359DAD04120135EEAD0412013500
:1014230024AE041201355EAE041201358CAE0412F3
:101433000135AFAE04120135C2CA05120135EECA39
:101443000512013549CB0512013553CB0512013580
:1014530063CB051201353DAF0412013585AF04128C
:10146300013549B00412013565B004120135E5B008
:101473000412013567B104120135B9B10412013503
:10148300CCB1041201350EB204120135A9B2041213
:10149300013520B3041201359EB404120135B7B4EB
:1014A30004120135EFB5041201355BB604120135A0
:1014B300C9B6041201355CDF0412013583DF04125F
:1014C3000135BCDF0412013531C9051201358F9096
:1014D30001120135C49301120135DB950112013567
:1014E300589601120135119701120135B697011271
:1014F30001355998011201351099011201353F99AF
:1015030001120135EA9901120135469F0112013595
:10151300DA9F0112013516A10112013580A10112D2
:10152300013534A201120135EAA40112013524A5C3
:10153300011201358EA501120135ECA50112013509
:101543004AA601120135A7A60112013596A7011279
:101553000135DCA70112013521A80112013544A888
:1015630001120135A1A901120135BCA901120135EE
:1015730044AB0112013583AB01120135C3AB011238
:10158300013512AC0112013533AC0112013571ACD6
:101593000112013598AE01120135D9AE01120135A0
:1015A30071AF011201351EB001120135BCB0011239
:1015B300013528B10112013569B20112013575D91E
:1015C300041201351BDA041201359ADB04120135CA
:1015D30023DC0412013524DD041201355DDD041220
:1015E3000135D0DD041201353EDE0412013556C744
:1015F3000512013567C70512013541C805120135CA
:1016030009AD05120135D4AF05120135C8FF01122A
:1016130001355AC6051201356AC60512013581C660
:101623000512013545C7051201350EA7051201350F
:10163300B4A705120135F6A90512013583890512F0
:1016430001356B8C05120135458D05120135F8F412
:101653000412013530F8041201350AF90412013578
:10166300F87F00120135B8B705120135DAB9051252
:10167300013546BA0512013502FA02120135FFFBA4
:101683000212013585FC0212013593FD0212013568
:1016930057FE02120135D5FE0212013537FF021241
:1016A30001353AFF0212013548FF0212013565FF89
:1016B300021201358EFF02120135B7FF0212013506
:1016C300C5FF02120135DDFF02120135FBC9051208
:1016D300013574CA0512013593CA05120135B2CA20
:1016E30005120135B3CB05120135C8CB05120135FF
:1016F30018B7041201352DB70412013589B7041246
:101703000135F4B7041201353CB804120135A6B80B
:1017130004120135D0B804120135DEB804120135C4
:1017230040B9041201357EB90412013599B9041286
:10173300013534BA04120135D7BA0412013558BB46
:10174300041201358FBB0412013518BC0412013594
:101753006DBC04120135CABC04120135DCBC041291
:10176300013502BD0412013525BD0412013538BD12
:101773000412013588BE041201357DC005120135FE
:10178300E2C0051201358BC10512013501C20512F4
:1017930001350080051201353380051201357D8145
:1017A30005120135C1810512013582820512013509
:1017B3005A83051201350FC405120135EAC4051217
:1017C300013526B5051201356BB505120135AFB5E7
:1017D3000512013576B70512013551C805120135D9
:1017E3006CC8051201357CC805120135DFC8051226
:1017F300013511AA0512013549AA0512013581AA3D
:1018030005120135CCAA0512013548AB0512013585
:1018130079AB05120135D6AB05120135F2AB0512D2
:101823000135008004120135DC80041201351F816B
:1018330004120135598104120135C781041201359F
:10184300218204120135918204120135628304124C
:101853000135528404120135D6840412013573868E
:1018630004120135FE86041201358F8704120135F7
:101873002A8804120135418804120135768904123D
:101883000135CD8904120135BCBE04120135D9BE20
:10189300041201350EC0041201355CC00412013577
:1018A3007CC004120135E2C0041201355CC104128C
:1018B3000135A0C1041201352AC2041201352CC519
:1018C30004120135A9C504120135B8D2021201353B
:1018D300F3D702120135F6DA021201351FDB0212C9
:1018E300013548DB021201355BDB0212013509DCED
:1018F30002120135ECDD021201354FDF0212013510
:1019030068DF02120135B2E402120135EBE4021280
:1019130001352FE50212013540E6021201351C2F75
:1019230000120135322F00120135FC31001201354E
:10193300263300120135DC33001201358D340012D9
:101943000135E73800120135D83A00120135F63A6D
:1019530000120135943E00120135CC3F00120135CF
:10196300004000120135374000120135BE4000121D
:1019730001352E4D001201351E4E00120135305334
:1019830000120135A753001201352D540012013501
:10199300EE55001201351457001201359757001206
:1019A3000135126400120135DA64001201357665DF
:1019B300001201359DB201120135B3B20112013596
:1019C30065B401120135DFB50112013547B70112C4
:1019D300013595B701120135AEBD011201351ABEAD
:1019E3000112013593BF01120135B5BF0112013553
:1019F300D3BF0112013589C0011201353AC1011269
:101A03000135E7C201120135D7C30112013507C4FD
:101A1300011201353EC40112013561C501120135C0
:101A2300E6C5011201355AC601120135D1C60112AC
:101A3300013519C70112013539D20112013501D31C
:101A4300011201359DD301120135A8CC04120135D1
:101A530035CD0412013552CD0412013531CE0412B5
:101A6300013504CF0412013599CF04120135FDD09D
:101A7300041201350ED3041201356DCB0512013565
:101A8300BC7F00120135F2CB05E066701008A3E0BD
:101A930066700A08A3E066700408A3E06622C3E741
:101AA300960809E7960809E7960809E79622C3E02E
:101AB3009608A3E09608A3E09608A3E09622C00840
:101AC300C3E096F50808A3E096420808A3E096420F
:101AD3000808A3E09645087001D3D0082208080837
:101AE300EAC0E0EBC0E086F0E7A4FA180986F0E765
:101AF300A42AFA180986F0E7A42AFA180986F0E757
:101B0300A42AFA1986F0E7A4FBE5F02AFA19088655
:101B1300F0E7A42BFBE5F03AFA190886F0E7A42BCB
:101B2300FBE5F03AFA18180986F0E7A4C5F02BFB99
:101B3300E43AFA1908E7C5F0C6A426F6E5F03BFB3C
:101B4300E43AFA1886F0E7A4F6E5F00826F6E43B53
:101B530008F6E43A08F6D0E0FBD0E0FA22E4CFC07E
:101B6300E0E4CEC0E0E4CDC0E0E4CCC0E075F0201A
:101B7300E626F608E633F608E633F608E633F61803
:101B83001818EC33FCED33FDEE33FEEF33FFC3ECFB
:101B93009709ED9709EE9709EF97191919400FFF68
:101BA300EC97FC09ED97FD09EE97FE191906D5F0A0
:101BB300BFECF709EDF709EEF709EFF7191919D09B
:101BC300E0FCD0E0FDD0E0FED0E0FF226016080884
:101BD30008C6C313C618C613C618C613C618C61339
:101BE300C6D5E0EA227009080808226016181818FA
:101BF300C6C333C608C633C608C633C608C633C60B
:101C0300D5E0EA22E627F60809E637F60809E637BB
:101C1300F60809E637F622E026F608A3E036F608CA
:101C2300A3E036F608A3E036F622E026F008A3E0A8
:101C330036F008A3E036F008A3E036F022C3E697B7
:101C4300F60809E697F60809E697F60809E697F60F
:101C530022C3E096F008A3E096F008A3E096F0080C
:101C6300A3E096F022E657F60809E657F60809E6D8
:101C730057F60809E657F622E056F608A3E056F6AB
:101C830008A3E056F608A3E056F622E056F008A3B0
:101C9300E056F008A3E056F008A3E056F022E06611
:101CA300F608A3E066F608A3E066F608A3E066F686
:101CB30022E0F608A3E0F608A3E0F608A3E0F62284
:101CC300E6F008A3E6F008A3E6F008A3E6F022E0B6
:101CD300FAA3E0FBA3E0FCA3E0FD22EAF0A3EBF010
:101CE300A3ECF0A3EDF022E0F8A3E0F9A3E0FAA35C
:101CF300E0FB22E8F0A3E9F0A3EAF0A3EBF022CAA9
:101D0300C0E0E6F0A308DAFAD0E0FA22CAC0E0E0C5
:101D1300A3C582CCC582C583CDC583F0A3C582CCC0
:101D2300C582C583CDC583DAE6D0E0CA22C3E49871
:101D3300F8E499F9121D718026C3E49AFAE49BFB37
:101D4300E920E7E9121D71E498F8E499F922C3E464
:101D530098F8E499F9121D71E498F8E499F9C3E449
:101D63009AFAE49BFB22EB20E7CFE920E7E0B900F6
:101D730010BB0008E88AF084F8AAF022E4FBC8FA52
:101D830022EB70227B10C833C8C933C9335007C351
:101D93009AC3DBF280069A50012ADBEAC833F4C8FF
:101DA300C933F4C9FA2275F008E4C833C8C933C982
:101DB30033C99AC99B5004C92AC93BD5F0ECFBC867
:101DC30033F4C8E4C9FA22600D08C6A2E713C618A3
:101DD300C613C6D5E0F322600C08C6C313C618C6E3
:101DE30013C6D5E0F422700422600D18C6C333C6AF
:101DF30008C633C6D5E0F41822251810AF08F51825
:101E0300400C15198008F51840021519D2AF2200AD
:101E1300C0D0251810AF08F518500C05198008F527
:101E23001850020519D2AFD0D0222518F58210AF71
:101E330008F518400C15198008F51840021519D239
:101E4300AF851983222518F582E43519F5832225F8
:101E530018F8E43519F9222518FAE43519FB222577
:101E630018FCE43519FD22E4732518C582C0E0E5AA
:101E73001934FFC583C0E0E518C3958224F810AF79
:101E8300088583198582188008858319858218D26D
:101E9300AFCEF0A3E520F0A37808E608F0A3DEFABE
:101EA300EFF0A3E58124FAF8E608F0A3E608F0A32F
:101EB300E608F0A30808E608F0A3E608F0A31581F6
:101EC3001581D0E0FED0E0F8158115811581E8C0B9
:101ED300E0EEC0E0222518C582C0E0E51934FFC555
:101EE30083C0E0E518C3958224F910AF08858319F0
:101EF3008582188008858319858218D2AFCEF0A316
:101F0300E520F0A37808E608F0A3DEFAEFF0A3E5F6
:101F13008124FBF8E608F0A3E608F0A30808E60826
:101F2300F0A3E608F0A315811581D0E0FED0E0F818
:101F330015811581E8C0E0EEC0E02285198385187C
:101F430082E0A3FEE0A3F5207808E0A3F608DFFA19
:101F5300E0A3FFE0A3C0E0E0A3C0E0E0A3C0E0E0B3
:101F6300A3C0E0E0A3C0E010AF0885821885831901
:101F73008008858218858319D2AFD083D08202016D
:101F830032851983851882E0A3FEE0A3F520780843
:101F9300E0A3F608DFFAE0A3FFE0A3C0E0E0A3C0FC
:101FA300E0E0A3C0E0E0A3C0E010AF08858218859D
:101FB30083198008858218858319D2AFD083D08294
:101FC30022C0D02518C582C0E0E51934FFC583C0FF
:101FD300E0E518C3958224F310AF08858319858241
:101FE300188008858319858218D2AFC8F0A3E9F059
:101FF300A3EAF0A3EBF0A37908E709F0A3D8FAEC7E
:10200300F0A3EDF0A3EEF0A3EFF0A3D0E0F0A3D0A4
:10201300E0F0A3D0E0F0A3E520F0A3E5F0F0A322E5
:10202300851983851882E0C0E0A3E0F9A3E0FAA351
:10203300E0FBA37808E0F608A3DFFAE0FCA3E0FDE9
:10204300A3E0FEA3E0FFA3E0C0E0A3E0C0E0A3E0C1
:10205300F5D0A3E0F520A3E0A3F5F010AF08858346
:10206300198582188008858319858218D2AFD0829A
:10207300D083D0E0F8D0E03274048006740280028A
:102083007401C0E0F404121E2DD0E0121D0222746C
:1020930004800474028000CCC0E0EDC0E0E518C306
:1020A3009CCCAD1950011D10AF068C188D198006FC
:1020B3008C188D19D2AF121D0FD0E0FDD0E0FC2299
:1020C300D083D082C5F0E493A3C5F0C395F0F5F0B7
:1020D300E493A3C395F04005E5F0048001E475F0B3
:1020E30002A42582F582E5F03583F583E493A3C04A
:1020F300E0E493C0E022D083D082E9C0E0E493A37C
:10210300C386F0C5F095F0F908E493A386F0C5F013
:1021130095F0700BE493A3C3994005E9048002A3EF
:10212300E475F002A42582F582E5F03583F583D0CA
:10213300E0F9E493A3C0E0E493C0E022D083D0822B
:10214300ECC0E0EDC0E0E493A3FCE493A3FDED4C0D
:10215300600D12218BEC24FFFCED34FFFD80EFE4D6
:1021630093A3FCE493A3FDED4C600D1221CAEC2470
:10217300FFFCED34FFFD80EFD0E0FDD0E0FCE49305
:10218300A3C0E0E493C0E022C0E0C3E493960874E4
:1021930001939618400FE4936670080874019366E0
:1021A3001870007019A3A3C3E4939608740193965F
:1021B30018A3A3400DD0E0D0E0D0E002217BA3A37D
:1021C300A3A3A3A3D0E022C0E0C0F088F0E4936609
:1021D30070080874019366187000A8F0A3A3700B2D
:1021E300D0F0D0E0D0E0D0E002217BA3A3D0F0D0A8
:0221F300E022E8
:1021F80074F6121ED8EAFEEBFF8C088D09EE243423
:10220800F8E43FF9E8FCE9FD12232AE0FAEE243766
:10221800F582E43FF583E0F88508F0A4C885F00A64
:102228008509F0A4250AF9EA28F8E439F97A257B22
:1022380000121D71EA8C828D83F0FA131313541F58
:10224800F8EE28F8E43FF9E8245DF582E439F583EF
:10225800E0C0E074075AF8D0E0B800028004C31365
:10226800D8FCA2E05003EA8020EE2436F582E43F51
:10227800F583E0F5F0EA84A8F0EE28F8E43FF9E801
:102288002438F582E439F583E0F97F03021F84746A
:10229800F5121ED8EAFEEBFFEE2434F582E43FF592
:1022A80083E0C0E012232AD0E0F08E828F83A3A3BC
:1022B800A3A3A3E0FAA3E0FB8E828F83A3A3A3A327
:1022C800A3A3A3E0C39AF508A3E09BF509EE247F36
:1022D800F8E43FF9880A890B8882F583E064017085
:1022E8002CEE2480F582E43FF583EA2401F8E43BF0
:1022F800F9E0687003A3E06970137CD67D06EEFAF6
:10230800EFFB120EE6850A82850B83E4F0AC08AD7C
:1023180009EEFAEFFB1221F8E9F9122E157F0402F3
:102328001F84EE2435F582E43FF58322C082C08302
:10233800851882851983E0F8A3E0F9C3EA9CEB9D30
:102348005010C3EC98ED99401BC3EA98EB995014D0
:10235800800EC3EA98EB994007C3EC98ED994004C6
:10236800790180027900D083D08222EAC39CFAEBFB
:102378009DFB2274ED121ED890037FE0640860056F
:10238800E06407702C9061C8E060269003ADE0F827
:1023980074FF68601CE875F00DA4C8AAF02AF974E7
:1023A800AF28FE740339FF8E828F83A3A3A3E07046
:1023B80005790002251DEE2468F50EE43FF50F901F
:1023C8006060E0850E82850F83F0751070751107C7
:1023D800750800750900E5D914F50AE5D95403F51F
:1023E8000B601FEE2483F50CE43FF50D7403650BB9
:1023F8006059E50A6017EE2467F582E43FF583E04B
:10240800700B793DEEFAEFFB120F1680A490076B64
:10241800E064016023850C82850D83E060047A0402
:1024280080027A00E50AC39AFA95E0FB120CBE8A8C
:10243800088B09EA450970061212160223B9850CA1
:1024480082850D83E070048A108B117A008014E570
:10245800D9C0E0EAF8E51028F582E43511F583D013
:10246800E0F00AEAC3950A40E6850C82850D83E010
:10247800602874FC250AF50A781012207FAC0AA996
:102488000BEEFAEFFB120FD67402121E12E9700A55
:10249800AA08AB0912178002240A7403650B60545A
:1024A800850A0C750D00780C12207FAC10AD11AAAE
:1024B80008AB09120F9A7402121E12850E82850F3C
:1024C80083E0F87480687005750C7F8002880CE5DD
:1024D8000CF50D780D122083780B122083A90AAC15
:1024E80008AD099003ADE0FA7B00120ADE7402120F
:1024F8001E12801C90037FE06408AC10AD117009B7
:10250800EEFAEFFB1210068007EEFAEFFB1210C08E
:1025180012122279017F0C021F8474F3121ED874E0
:10252800FC121DFCEAFEEBFF8909A2AFE433F508B3
:10253800C2AFEE2463F50AE43FF50B8010AA0AAB9C
:102548000B120F4C1217809006DDE004F0850A820A
:10255800850B83E0F8A3E0F9E849602DE82402FA46
:10256800E439FBEA2402F50CE43BF50D780C122063
:102578007F8A828B83E0FCA3E0F9EEFAEFFB120F6F
:10258800407402121E12E960B49006DDE0604D90BE
:1025980006DEE0F89006DDE0C398500C7402650989
:1025A800703A9006DFE060348E828F83A3A3A3A3E2
:1025B800E08518828519831225F47402121E48E8F2
:1025C8001225F49006DCE028F07402121E62AA18A4
:1025D800AB197901120B3E9006DDE4F0E508A2E0A4
:1025E80092AF7404121E127F06021F84F0A3E4F057
:1025F8009006DDE0F82200008521878522C622C0EA
:10260800E074EB121FC4A2AFE433F508C2AF759BA8
:1026180000906182E0A2E05030E591A2E0502A7576
:1026280091FE74016521702112279A12111A12273E
:1026380088122092122BBF7404121E12E9640170D2
:1026480005790112117412237B906182E0A2E55092
:102658005DE591A2E550577591DF90037FE064072F
:102668006005E06408702F12279A74016521703E96
:1026780012111A122788122092122BBF7404121EEC
:1026880012E96401700579011211747901EEFAEF0B
:10269800FB1225228018E0640D70139003A1E0045A
:1026A800F064287002E4F07A00E0F91212289061D0
:1026B80082E0A2E6400302275DE591A2E64003021C
:1026C800275D7591BF90037FE064057008121102C1
:1026D80012110E8003121108752100121192E9904F
:1026E8000380F07900121174120E087A017B0090B1
:1026F800037EE0F912174A907803E064427056901E
:10270800076FE014F0704EC2AF12271400782AD079
:10271800E0F618D0E0F6E59F5407F87005750DFF50
:102728008003750D7FC4C0E07829E6F50A08E655F0
:102738000DF50B740B780A121DDAD0E0250AF89013
:102748006270E0A2E740F8E8C333906272F09062EA
:1027580070E0D2E0F0906181E0A2E35009E5E9A2DF
:10276800E3500375E9F7A3E0A2E75009E591A2E772
:10277800500375917FE508A2E092AF7F08022023FD
:102788008E828F83E0F8A3E0C82416F582E438F53A
:1027980083229003ADE0F875F00DA4C8AAF02AF9D9
:1027A80074AF28FE740339FF22C0E0C0D0C082C0D5
:1027B80083906183E0A2E05009E5BFA2E050037571
:1027C800BFFEE0A2E15009E5BFA2E1500375BFFDDD
:1027D800E0A2E25009E5BFA2E2500375BFFBE0A208
:1027E800E35009E5BFA2E3500375BFF7E0A2E45048
:1027F80009E5BFA2E4500375BFEFE0A2E55009E583
:10280800BFA2E5500375BFDFE0A2E65009E5BFA20D
:10281800E6500375BFBFD083D082D0D0D0E032C09D
:10282800E074F2121FC4E5A7A2E4500FE5A1A2E4E8
:10283800500953A7EF75A1EF12287BE5A7A2E55031
:102848000CE5A1A2E5500653A7DF75A1DFE5A7A215
:10285800E15009E5A1A2E1500375A1FDE5A7A2E2B7
:10286800500CE5A1A2E2500653A7FB75A1FB7F011E
:1028780002202374F8121ED875210190037FE064AA
:102888000670077A007B001210EAA2AFE433FED28A
:10289800AF900385E0640170187A207B0090037E76
:1028A800E0F91218AC7A207B0090037EE0F9121749
:1028B80050906182E0D2E6F090076CE0602185C616
:1028C800228016900384E064017008E5C654F84439
:1028D80005F5C653BEFC1226007401652160E4EEBE
:1028E800A2E092AF7F01021F840000008E238F2494
:1028F800858228858327851882851983E0CEA3E001
:10290800CF852882852783EBC9EAC8EDCBECCA7549
:10291800F010C3E833C8E933C9EA33CAEB33CBC391
:10292800EA9EF526EB9FF525B35004AB25AA26ECC5
:1029380033CCED33CDD5F0DAAE23AF242274E912CF
:102948001ED874FA121DFCEAFEEBFF8C088D0912E2
:10295800112CEAF8EBF9ECFAEDFB8E828F83121C4E
:10296800F690037FE024F7C3940550067510010222
:102978002A7C1210608A0A8B0BEA450B7003022A24
:10298800791211208A0C8B0D121120EA650C700344
:10299800EB650D60ECEEFCEFFDAA18AB19121126E1
:1029A800850A82850B83A3A3780C121CB4908FF43C
:1029B800780C121C7B8518828519837814121CB434
:1029C800908FF47814121C7B780C7914121AA15089
:1029D8001F780C7914121C40909028780C121AC198
:1029E8004047850C10850D11850E12850F13804503
:1029F800909028851410851511851612851713785F
:102A080010790C121C407810121AC1501C75100055
:102A180075110075120075130178107914121C4095
:102A28007810790C121C07800C751001751100754F
:102A3800120075130074097810121BE8908F8478BF
:102A48000C121CB47810790C121B6090037FE064A0
:102A580008600AE064066005E064057020908F88CD
:102A68007810121AC15016908F8C7810121C1A8088
:102A78000C75100075110075120075130085088219
:102A88008509837810121CC37406121E127F100267
:102A98001F8474F7121ED812113E90076AE0640171
:102AA8007010906245E4F0A3F053F4F343FE0C5326
:102AB80090F31210D8E5C654B84441F5C6E59E54C3
:102AC80047644170F8906185740FF0900768E0F4EE
:102AD8007002A3E0602C750801750900900768E092
:102AE8007808121DE9E508F4FAA3E0600814600A02
:102AF80014600C800DEA52808008EA52908003EA44
:102B080052A079007F02021F8474F7121ED8E9FED2
:102B1800EAFF74016E700C7A807B0090037EE0F906
:102B280012174A902F14E493F46008E493F9120DF5
:102B3800EA800953C6B8E59E544770FA1210DE9031
:102B4800076AE064017003120E20900768E0F470D1
:102B580002A3E0602B750801750900900768E0780A
:102B680008121DE9E508FAA3E0600814600A146079
:102B78000C800DEA42808008EA42908003EA42A075
:102B88001210608A088B09A808A909E8496016E5A7
:102B9800E170FCE82414F582E439F583E0F874FF69
:102BA80068600288E174016F700A7A0190037EE020
:102BB800F91217E6022B0C74F1121ED88A088B0939
:102BC8008C0A8D0B908FF47808121C7B740F121EE0
:102BD80048780C121CB4908FF4780C121C7B78087F
:102BE800790C121AA190902850107808790C121CB0
:102BF800407808121AC14014800E780C7908121C0B
:102C080040780C121AC150047901800279007F08BB
:102C1800021F8474ED121ED88A088B098C0A8D0B4A
:102C2800908FF47808121C7B7413121E48780C12CB
:102C38001CB4908FF4780C121C7B780C7908121A4B
:102C4800A140117808790C121C40AA08AB09AC0AFB
:102C5800AD0B8022751000751100751200751301F7
:102C68007810790C121C4078107908121C07AA10E9
:102C7800AB11AC12AD137F0C021F84908FF478084F
:102C8800121CB48A828B837808121C8E7F04021F60
:102C98008474F5121ED88C828D837808121CB48A2D
:102CA800828B837808121C54122CEDC3E098F0A391
:102CB800E099122CDF401E9090047808121CB48A08
:102CC800828B837808121C2D8E828F83E02420F05B
:102CD800A3E0344EF080A4F08E828F83C3E094206A
:102CE800A3E0944E22EA2404F8E43BF9E8FEE9FF65
:102CF8008C828D83A3A3A3A3E0F8A3E0F98E828F2F
:102D0800832274F5121ED8E9FE9006F8E0FAA3E0D3
:102D1800FBEE29F8E433F974E728F582748E39F567
:102D280083E02AF508A3E03BF509780812207F9094
:102D38008FFC121CD21228F47402121E128A088BFD
:102D4800098C0A8D0B74107808121BCFAA08AB09DE
:102D58007F04021F8474F1121ED88A0C8B0D8C0E0E
:102D68008D0F7411121E481220967411121E48E01D
:102D78002401F508A3E03400F509E4F50AF50B7819
:102D88000C7908121AE0908F987808121CB4780C05
:102D98007908121AE0AA0CAB0DAC0EAD0F1228F48C
:102DA8007402121E128B09EA450960047A01800236
:102DB8007A00EC2AFCE43DFD7413121E48E0F8A3E7
:102DC800E0F9E8FEE9FFECF8EDF97A717B02121DF3
:102DD8007188088909E4F50AF50B8E828F837808D3
:102DE800121CC3ECF8EDF97A717B02121D718A0886
:102DF8008B0974057808121DE98E828F83A3A3A31B
:102E0800A3E508F0A3E509F07F08021F84C082C08B
:102E180083E9906000F0D083D08222C0E074F2127F
:102E28001FC4A2AFE433FED2AFC2C0E5D1A2E450C2
:102E38000675D10F1216C6751A00EEA2E092AF7F82
:102E480001022023C0E0C0D0E8C0E0A2AFE433F81C
:102E5800D2AFC2C7751A00E8A2E092AFD0E0F8D0AE
:102E6800D0D0E032C0E0C0D0E8C0E0E9C0E0EAC0BD
:102E7800E0EBC0E0C082C083A2AFE433F9D2AF90E8
:102E88000FCEE0F8900FCFE068700B539AFB900FCD
:102E9800D07401F0802EC2E9900FCEE0F8740128BA
:102EA800900FCEF0E8FA7B00744E2AF582740F3B3F
:102EB800F583E0F5C1900FCEE0C394804006900FF3
:102EC800CE7400F0E9A2E092AFD083D082D0E0FBCC
:102ED800D0E0FAD0E0F9D0E0F8D0D0D0E032C2AFFC
:102EE80002000022C0E074F2121FC4A2AFE433FE55
:102EF800D2AFE589A2E25003121804758900C2C551
:0A2F0800EEA2E092AF7F0102202349
:102F1400FFFFFFFFFFFFFFFFC082C08312165A129C
:102F24001648790112197ED083D08202013274F7D7
:102F3400121E6CEAFEEBFF8E828F837401F0A37481
:102F440000F0A37400F0A374D4F08E828F83A3A343
:102F5400A3A37401F08E828F83A3A3A3A3A37420DD
:102F6400F0A37400F08E828F83A3A3A3A3A3A3A3CF
:102F74007420F0A37400F08E828F83A3A3A3A3A371
:102F8400A3A3A3A37402F08E828F83A3A3A3A3A3FA
:102F9400A3A3A3A3A374C8F0A37400F0EE240CF5B8
:102FA40082E43FF58374BCF0EE2434F582E43FF50B
:102FB4008374E8F0A37403F0EE2436F582E43FF55D
:102FC4008374A0F0A3740FF0EE2438F582E43FF587
:102FD4008374C8F0A37400F0EE243AF582E43FF55C
:102FE40083740AF0EE243BF582E43FF5837409F020
:102FF400EE243CF582E43FF5837496F0A37400F06C
:10300400750800E508F87900EE28F8EF39F9E824A6
:103014003EF582E439F5837442F00508E508F87951
:1030240000EE28F8EF39F9E8243EF582E439F58317
:10303400744CF00508E508F87900EE28F8EF39F942
:10304400E8243EF582E439F5837445F00508E50883
:10305400F87900EE28F8EF39F9E8243EF582E439EE
:10306400F5837443F00508E508C0E0EE244AF582D0
:10307400E43FF583D0E0F0EE244FF582E43FF5839E
:103084007403F0EE2450F582E43FF5837440F0A31A
:1030940074E2F0A37401F0A37400F0EE244BF58203
:1030A400E43FF5837400F0A37400F0A37400F0A36C
:1030B4007400F0EE2454F582E43FF5837401F07C4F
:1030C400107D007900EE2455FAE43FFB12170EEE52
:1030D4002465F582E43FF5837400F0EE2466F582FE
:1030E400E43FF5837400F07A00EAC39403400302DA
:1030F40031F7750800E508FC7D00EAF87900E87509
:10310400F00CA4C8ABF075F000A42BFB75F00CE92F
:10311400A42BF9EE28F8EF39F9E82CF8E93DF9E8A1
:10312400240DF582E439F5837442F00508E508FCC2
:103134007D00EAF87900E875F00CA4C8ABF075F0EE
:1031440000A42BFB75F00CE9A42BF9EE28F8EF3959
:10315400F9E82CF8E93DF9E8240DF582E439F58322
:10316400744CF00508E508FC7D00EAF87900E87580
:10317400F00CA4C8ABF075F000A42BFB75F00CE9BF
:10318400A42BF9EE28F8EF39F9E82CF8E93DF9E831
:10319400240DF582E439F5837445F00508E508FC4F
:1031A4007D00EAF87900E875F00CA4C8ABF075F07E
:1031B40000A42BFB75F00CE9A42BF9EE28F8EF39E9
:1031C400F9E82CF8E93DF9E8240DF582E439F583B2
:1031D4007450F00508E508C0E0EAF87900EE28F834
:1031E400EF39F9E82431F582E439F583D0E0F00AC7
:1031F4000230ED7F01021F3EC082C0837A927B01C0
:103204001217CE9018A9EAF0A3EBF09018A9E0F8F1
:10321400A3E0C824D0F582C83400F5837400F0908C
:1032240018A9E0F8A3E0C824D1F582C83400F583D6
:103234007400F0A37400F09018A9E0F8A3E0C82487
:10324400D3F582C83400F5837400F09018A9E0F82F
:10325400A3E0C824D4F582C83400F5837400F09048
:1032640018A9E0F8A3E0C824D5F582C83400F58392
:103274007400F09018A9E0F8A3E0C82439F582C8D6
:103284003401F5837400F09018A9E0F8A3E0C82491
:1032940085F582C83401F5837400F09018A9E0F82C
:1032A400A3E0C82486F582C83401F5837400F0A332
:1032B4007400F0A37400F0A37400F09018A9E0F86F
:1032C400A3E0C8248AF582C83401F5837454F0A3BA
:1032D4007419F09018A9E0F8A3E0C8248CF582C80A
:1032E4003401F583746CF0A37419F09018A9E0F814
:1032F400A3E0C8248EF582C83401F5837460F0A37A
:103304007419F09018A9E0F8A3E0C82490F582C8D5
:103314003401F583745AF0A37419F0D083D0820277
:10332400013274F0121E6C8A088B098C0A8D0B7B97
:10333400207D087A007C007900EDCBC39BFB8508D7
:103344000C85090D850A0E850B0FEB780C121BCF2B
:10335400E50CFAEA7005740169701C7901EAC0E0B1
:10336400ECFE7F007410121E48E02EF8A3E03F88A4
:1033740082F583D0E0F00CEBC39D50BDECC0E0744B
:1033840012121E48E0F8A3E0F5838882D0E0F074BE
:1033940012121E48E0F8A3E0F5838882E0703474CA
:1033A40012121E48E0F8A3E0F5838882E0FE7F0055
:1033B4007410121E48E02EF8A3E03F8882F583744F
:1033C40000F07412121E48E0F8A3E0F5838882E04E
:1033D4002401F07F08021F3E74F0121E6C74FC126C
:1033E4001DFC7402121E48EAF0A3EBF085188285D6
:1033F4001983ECF0A3EDF08903851882851983E025
:10340400F8A3E0F58388827400F0A37400F0A37439
:1034140000F0A37400F07A00EAC39B50628518821E
:10342400851983E0F8A3E0F5838882780C121CB434
:103434007408780C121BE8EAF879007402121E482A
:10344400E028FCA3E0398C82F583E0F508E4F50973
:10345400F50AF50B780C7908121C07AC0CAD0DAE0F
:103464000EAF0F851882851983E0F8A3E0F58388F1
:1034740082ECF0A3EDF0A3EEF0A3EFF00A809974D0
:1034840004121E127F08021F3E74F2121E6C74F79F
:10349400121DFC89068A0C8B0D12192A7AAE7B192F
:1034A4001217689018A9E0F8A3E0F5838882E50C68
:1034B400F0A3E50DF09018A9E0F8A3E0F583888265
:1034C400E0F8A3E0C82408F582C83400F58374A8A2
:1034D400F0A37419F09018A9E0F8A3E0F5838882AA
:1034E400E0F8A3E0F5838882A3A3A3A3741EF0A34A
:1034F4007419F0EEC0E09018A9E0F8A3E0C824D352
:10350400F582C83400F583D0E0F09018A9E02402D5
:10351400FCA3E03400FD7A67798112187CE9701C01
:10352400908FC07808121CB49018A9E0F8A3E0F5B5
:10353400838882A3A37808121A8C600F9018A9E0DC
:103544002402FAA3E03400FB1219249018A9E0F82D
:10355400A3E0F5838882A3A3C082C0839018A9E066
:103564002469FCA3E03400FDD083D0827467121D6B
:103574000F7F00EFC39403400302367AEFF879001B
:10358400E875F021A4C8AAF075F000A42AFA75F031
:1035940021E9A42AF99018A9E028F8A3E039F9E868
:1035A40024E1F582E439F5837400F0EFF8790090B2
:1035B40018A9E028F8A3E039F9E82433F582E439BE
:1035C400F583E0F508750900780812207FEFF87993
:1035D40000E875F00CA4C8AAF075F000A42AFA75E6
:1035E400F00CE9A42AF99018A9E028F8A3E039F925
:1035F400E8240FFCE439FDEFF87900E875F021A424
:10360400C8AAF075F000A42AFA75F021E9A42AF9F1
:103614009018A9E028F8A3E039F9E824E9FAE43994
:10362400FB1216F67402121E12EFF879009018A914
:10363400E028F8A3E039F9E82433F582E439F58386
:10364400E0C0E0EFF87900E875F021A4C8AAF075AD
:10365400F000A42AFA75F021E9A42AF99018A9E047
:1036640028F8A3E039F9E824F5F582E439F583D0A4
:10367400E0F00F0235779018A9E0F8A3E0C8243CE5
:10368400F582C83400F583E0C0E07404121E48D00B
:10369400E0F07404121E6279017A047B0412145C53
:1036A400E99018A9E0F8A3E0C82436F582C83400EC
:1036B400F583E0FCA3E0FD7A027B0012060AE990A0
:1036C40018A9E0F8A3E0C82436F582C83400F583CD
:1036D400E0FCA3E0FD7A037B0012060AE99018A936
:1036E400E02440FCA3E03400FD9018A9E0F8A3E036
:1036F400C8244CF582C83400F583E0FA7900120737
:10370400C0E97405121E487400F0A37400F0A37499
:1037140000F0A37400F09018A9E0F8A3E0C82451C5
:10372400F582C83400F583E0640260149018A9E0BF
:10373400F8A3E0C82451F582C83400F583E0700A88
:103744007403121E487402F080087403121E487435
:1037540001F09018A9E0F8A3E0C82451F582C83418
:1037640000F583E0640260169018A9E0F8A3E0C8AD
:103774002451F582C83400F583E06403700A7402AE
:10378400121E487401F080087402121E487400F07E
:103794009018A9E0F8A3E0C82451F582C83400F5D4
:1037A40083E0640260149018A9E0F8A3E0C82451EF
:1037B400F582C83400F583E0700A7401121E48745F
:1037C40000F080087401121E487402F09018A9E0F9
:1037D400F8A3E0C82451F582C83400F583E06402FC
:1037E40060149018A9E0F8A3E0C82451F582C83405
:1037F40000F583E0700B8518828519837400F080CE
:10380400098518828519837401F07405121E627982
:10381400047A087B041214CEE97403121E6279013F
:103824007A007B041214CEE97402121E6279017AC2
:10383400027B041214CEE97401121E6279017A0328
:103844007B041214CEE9AC18AD1979017A067B0415
:103854001214CEE91207EAE9FF9018A9E0F8A3E0F0
:10386400C824D3F582C83400F583E0F91207F09038
:103874009004121CD21207CCE9909004121CD212AC
:1038840009A6E97A017B009018A9E0F8A3E0C8240E
:10389400D3F582C83400F583E0F912174AE97900B8
:1038A400120ABAE99018A9E0F8A3E0C82467F582DF
:1038B400C83400F583E0602114600814600D1460BE
:1038C40012801675C90143C908800E75C90243C91F
:1038D40008800675C90343C9087409121E127F06BD
:1038E400021F3E74F3121E6C890CEAFEEBFFEE54C9
:1038F40000F8EF5480F9E84960409018A9E0F8A373
:10390400E0C824D3F582C83400F583E0F9121732F5
:103914008A0A8B0BA80AA90B88088909E849600F51
:10392400AA08AB09121948AA08AB09121720E9EE34
:103934006400FAEF6480FB023AD3EEA2E0502C90CC
:1039440018A9E0248AFAA3E03401FB121456E9F51D
:10395400089018A9E0248EFAA3E03401FB1214F8AD
:10396400EE6401FAEF6400FB023AD3EE54026038CD
:103974009018A9E0F8A3E0C824D0F582C83400F573
:1039840083E0640170149018A9E02469FCA3E03476
:1039940000FD7A677981121876E9122EE6EE640248
:1039A400FAEF6400FB023AD3EE5404606B9018A95A
:1039B400E0F8A3E0C824D4F582C83400F583740188
:1039C400F07B007A017903121474E99018A9E0F8E5
:1039D400A3E0C82438F582C83400F583E0F508A3D1
:1039E400E0F509E4F50AF50B780812207B7A087BE8
:1039F400009018A9E0F8A3E0C824D3F582C83400E5
:103A0400F583E0F91218A07404121E12E9EE64049E
:103A1400FAEF6400FB023AD3EE5408602712147ADA
:103A2400E99018A9E0F8A3E0C824D1F582C83400CD
:103A3400F5837400F0A37400F0EE6408FAEF6400F8
:103A4400FB023AD3EE5410600D121972EE6410FAB0
:103A5400EF6400FB8079EE5420603D9018A9E0F8F3
:103A6400A3E0C82485F582C83401F583E0601F9083
:103A740018A9E0F8A3E0C82485F582C83401F583C9
:103A84007400F07C007A007B007972121990EE6465
:103A940020FAEF6400FB8037EE5440602E9018A9A2
:103AA400E0F8A3E0F5838882E0F8A3E0C82406F5F3
:103AB40082C83400F583E0F8A3E0F5838882121EFF
:103AC4006AEE6440FAEF6400FB80047A007B007FB6
:103AD40005021F3E74F7121E6CEAFEEBFF8E828F06
:103AE40083E064B07007EEFAEFFB12194E7F010217
:103AF4001F3E74F0121E6C74FB121DFCEAFEEBFFF9
:103B04008518828519837400F0851882851983E0ED
:103B1400C394034003023E76851882851983E0F836
:103B24007900E875F021A4C8AAF075F000A42AFA77
:103B340075F021E9A42AF99018A9E028F8A3E0393E
:103B4400F9E824E1F582E439F583E06403600302D3
:103B54003E69851882851983E0F87900E875F021BB
:103B6400A4C8AAF075F000A42AFA75F021E9A42AE1
:103B7400F99018A9E028F8A3E039F9E824D6F582E9
:103B8400E439F583E0F8A3E0F98E828F83A3A3E000
:103B9400687003A3E0696003023E698E828F83A389
:103BA400A3A3A3E0640B601B8E828F83A3A3A3A3B0
:103BB400E0640170118E828F83A3A3A3A3A3E064A6
:103BC4000A7003023E768E828F83A3A3A3A3E064CC
:103BD4001360218E828F83A3A3A3A3E064016003F7
:103BE400023CBF8E828F83A3A3A3A3A3E0641260CD
:103BF40003023CBF8E828F83A3A3A3A3E06401705E
:103C040042851882851983E0F87900E875F021A4CB
:103C1400C8AAF075F000A42AFA75F021E9A42AF9DB
:103C24009018A9E028F8A3E039F9E824DFF582E444
:103C340039F583E0704D7C01AA18AB197975121916
:103C4400908040851882851983E0F87900E875F042
:103C540021A4C8AAF075F000A42AFA75F021E9A4F9
:103C64002AF99018A9E028F8A3E039F9E824DFF547
:103C740082E439F583E0700B7C01AA18AB197974DE
:103C8400121990851882851983E0F87900E875F097
:103C940021A4C8AAF075F000A42AFA75F021E9A4B9
:103CA4002AF99018A9E028F8A3E039F9E824DFF507
:103CB40082E439F5837401F0023E76851882851911
:103CC40083E0F87900E875F021A4C8AAF075F00043
:103CD400A42AFA75F021E9A42AF99018A9E028F891
:103CE400A3E039F9E824D8F582E439F583E0600AE1
:103CF400EEFAEFFB121978023E768E828F83A3A32D
:103D0400A3A3E0641B6003023E768E828F83A3A389
:103D1400A3A3A3E064287004A3E064006003023E4C
:103D2400767508019018A9E02453F8A3E03401F94A
:103D34007403121E48E8F0A3E9F07403121E48E06D
:103D4400F50AA3E0F50B7403121E48E02401F8A35E
:103D5400E03400F97401121E48E8F0A3E9F074039A
:103D6400121E48E02402F50EA3E03400F50F851876
:103D740082851983E0C0E07401121E48E0F8A3E0D4
:103D8400F5838882D0E0F08E828F83A3A3A3A3A3BC
:103D9400A3A3E0F50C750D00780C12207F8E828FA2
:103DA40083A3A3A3A3A3A3A3A3E0FCA3E0FDAA0E60
:103DB400AB0F1216F67402121E128E828F83A3A307
:103DC400A3A3A3A3A3E0C0E0850A82850B83D0E06C
:103DD400F09018A9E0F8A3E0C82456F582C834008E
:103DE400F583E064017049850A82850B83E06410E1
:103DF4007041780E12207FAC0EAD0F9018A9E0240C
:103E040057FAA3E03400FB120D6C7402121E12E97F
:103E14007021E50E240FF8E4350FF9880A890B8523
:103E24000A82850B83E0C394105008750800800350
:103E3400750800E508701B850A82850B83E0240160
:103E4400FC7401121E48E0FAA3E0FB797612199083
:103E540080207C017401121E48E0FAA3E0FB79770C
:103E6400121990800D851882851983E02401F002CF
:103E74003B0D8E828F83A3A3A3A3E0F9EE2405FA5E
:103E8400E43FFB1209827405121E127F08021F3ED2
:103E940074F7121E6C74FD121DFCEAFEEBFF890818
:103EA4007A00EAC394034003023FC2EAF87900E8C7
:103EB40075F021A4C8ABF075F000A42BFB75F021BC
:103EC400E9A42BF99018A9E028F8A3E039F9E8242B
:103ED400E1F582E439F583E064036003023FBEEA5E
:103EE400F87900E875F021A4C8ABF075F000A42BB4
:103EF400FB75F021E9A42BF99018A9E028F8A3E0B8
:103F040039F9E824D6F582E439F583E06E7003A329
:103F1400E06F6003023FBEEAF87900E875F021A47F
:103F2400C8ABF075F000A42BFB75F021E9A42BF9C4
:103F34009018A9E028F8A3E039F9E824F6F582E41A
:103F440039F583E0F83395E0F9EAFC7D00EC68701C
:103F540002ED696069E508C0E0EAF87900E875F007
:103F640021A4C8ABF075F000A42BFB75F021E9A4E3
:103F74002BF99018A9E028F8A3E039F9E824F6F51C
:103F840082E439F583D0E0F0909041AC18AD197417
:103F940003121D0FEAC0E07401121E48D0E0F0E5E0
:103FA40008F404C0E07402121E48D0E0F07C03AAB6
:103FB40018AB19797812199080040A023EA674038A
:103FC400121E127F01021F3E74F6121E6CEAFEEBF3
:103FD400FF89088C09E508601E740165087014E502
:103FE40009601474086509600EEEFAEFFB1214629E
:103FF400E98004740265087F02021F3E74F5121EF4
:104004006CEAFEEBFF8C088D09890A9018A9E0F888
:10401400A3E0C82452F582C83400F58312209279B3
:1040240000AA08AB091214FE7404121E12E97F03DD
:10403400021F3E74F2121E6C89068C07740E121E47
:1040440048E0F8A3E0F9E8FCE9FD7410121E48E02A
:10405400F8A3E0F9880889097800E8C39F5054E878
:10406400F50C750D00EA250CF582EB350DF583E0B2
:10407400F50A08E50A60E3E8F50C750D00EA250C7D
:10408400F582EB350DF583E0F50B08EE650B701D3D
:10409400E8C0E08C828D83D0E0F074FF250AC0E094
:1040A400850882850983D0E0F079018008E50A2833
:1040B400F880A779007F06021F3E74F0121E6C740C
:1040C400D8121DFC851882851983EAF0A3EBF085CC
:1040D4001882851983E0F8A3E0F5838882A3A3E01E
:1040E40060201470030248CA24FC70030249D814E7
:1040F4007003024C30147003024CAC24FA600B02BF
:104104004D22790112197E024D2285188285198368
:10411400E0F8A3E0F5838882A3A3A3E0600A24FC6B
:1041240070030242CA024D22851882851983E0F881
:10413400A3E0C8240BF582C83400F583E0C0E09006
:1041440018A9E0F8A3E0C82439F582C83401F5833E
:10415400D0E0F09018A9E0F8A3E0C824D1F582C813
:104164003400F583E02401F0A3E03400F074051278
:104174001E5288088909780812207F7406121E527C
:1041840088088909780812207F7404121E48E0F810
:10419400A3E0C8240CF582C83400F583E0FC740461
:1041A400121E48E0F8A3E0C8240DF582C83400F5D7
:1041B40083E0FAA3E0FB79021219667404121E125A
:1041C400E96401605B7405121E5288088909780845
:1041D40012207F7406121E5288088909780812205A
:1041E4007F7404121E48E0F8A3E0C8240CF582C8CA
:1041F4003400F583E0FC7404121E48E0F8A3E0C820
:10420400240DF582C83400F583E0FAA3E0FB7903BA
:104214001219667404121E12E964016003024D222D
:104224007405121E48E0C394025003024D22740424
:10423400121E48E0F87900851882851983E0FAA3F4
:10424400E0CA240DF582CA3400F583E028FAA3E01D
:10425400398A82F583A3E0FA7B007404121E48E0D5
:10426400F87900851882851983E0FCA3E0CC240D3D
:10427400F582CC3400F583E028FCA3E0398C82F588
:1042840083E0F87900E4C8F9EA28F8EB39F974F026
:1042940068700374FF6970169018A9E0F8A3E0C869
:1042A4002439F582C83401F5837400F08015740450
:1042B400121E48E02402F07405121E48E024FEF0A9
:1042C400024224024D229018A9E0F8A3E0C8243940
:1042D400F582C83401F583E07003024D229018A9D9
:1042E400E0F8A3E0C82439F582C83401F583E0F886
:1042F4003395E0F9851882851983E0FAA3E0CA248E
:104304000BF582CA3400F583E0FA3395E0FBE82A22
:10431400F8E93BF97A027B00121D69E8C0E09018C5
:10432400A9E0F8A3E0C82439F582C83401F583D0A4
:10433400E0F09018A9E0F8A3E0C82439F582C83465
:1043440001F583E0F89018A9E0F9A3E0C9240EF57B
:1043540082C93400F583E0C398A2D265D033400308
:10436400024D227406121E52880889097808122008
:104374007F7409121E5288088909780812207F74F4
:1043840004121E48E0F8A3E0C8240CF582C83400E7
:10439400F583E0FC7404121E48E0F8A3E0C8240D81
:1043A400F582C83400F583E0FAA3E0FB7909121919
:1043B400667404121E12E964016003024D2274063D
:1043C400121E48E0C3940D4003024D22750800906C
:1043D4008F20741C121E62740C121D0F7406121EA0
:1043E40048E0F508E508F50A750B00780A12207F05
:1043F4007409121E48E0F879007402121E48E0FAAB
:10440400A3E0CA240DF582CA3400F583E028FCA396
:10441400E039FD741E121E5A1216F67402121E1290
:104424007402121E487400F0750C00908F72740CA4
:10443400121E627406121D0F908F5A7412121E629D
:104444007406121D0F7403121E487400F0750900DF
:104454009018A9E0F8A3E0C82439F582C83401F51E
:1044640083E0C0E07402121E48D0E0F0750A0675BD
:104474000B00780A12207F7402121E48E02405FC07
:10448400A3E03400FD740E121E5A1216F6740212C2
:104494001E12851882851983E0F8A3E0F5838882CB
:1044A400A3A3A3A3E0C0E07403121E48D0E0F07EEF
:1044B400007E007F00EFC394034003024885EFF8B9
:1044C4007900E875F021A4C8AAF075F000A42AFACE
:1044D40075F021E9A42AF99018A9E028F8A3E03995
:1044E400F9E824F5F582E439F583E0650860030210
:1044F4004881E508F50A750B00780A12207FEFF869
:104504007900E875F021A4C8AAF075F000A42AFA8D
:1045140075F021E9A42AF99018A9E028F8A3E03954
:10452400F9E824E9FCE439FD741E121E5A12170836
:104534007402121E12E964016003024881EFF879E3
:1045440000E875F021A4C8AAF075F000A42AFA7551
:10455400F021E9A42AF99018A9E028F8A3E039F990
:10456400E824E1F582E439F583E06003024655EF7F
:10457400F87900E875F021A4C8AAF075F000A42A1F
:10458400FA75F021E9A42AF99018A9E028F8A3E023
:1045940039F9E824E1F582E439F5837401F0750A08
:1045A40006750B00780A12207F740E121E62EFF853
:1045B4007900E875F021A4C8AAF075F000A42AFADD
:1045C40075F021E9A42AF99018A9E028F8A3E039A4
:1045D400F9E824E3FAE439FB1216F67402121E1207
:1045E4007403121E48E0C0E0EFF87900E875F0218A
:1045F400A4C8AAF075F000A42AFA75F021E9A42A47
:10460400F99018A9E028F8A3E039F9E824E2F58242
:10461400E439F583D0E0F07402121E48E0C0E0EF04
:10462400F87900E875F021A4C8AAF075F000A42A6E
:10463400FA75F021E9A42AF99018A9E028F8A3E072
:1046440039F9E824F6F582E439F583D0E0F002483C
:1046540085EFF87900E875F021A4C8AAF075F00098
:10466400A42AFA75F021E9A42AF99018A9E028F8F7
:10467400A3E039F9E824E1F582E439F583E0640143
:104684006003024881EFF87900E875F021A4C8AA14
:10469400F075F000A42AFA75F021E9A42AF990181B
:1046A400A9E028F8A3E039F9E824F6F582E439F51D
:1046B40083E0F87402121E48E0C398A2D265D03396
:1046C4005003024881EFF87900E875F021A4C8AAE4
:1046D400F075F000A42AFA75F021E9A42AF99018DB
:1046E400A9E028F8A3E039F9E824F6F582E439F5DD
:1046F40083E0F50C750A06750B00780A12207FEF2B
:10470400F87900E875F021A4C8AAF075F000A42A8D
:10471400FA75F021E9A42AF99018A9E028F8A3E091
:1047240039F9E824E3FCE439FD7414121E5A121614
:10473400F67402121E12EFF87900E875F021A4C88D
:10474400AAF075F000A42AFA75F021E9A42AF990D8
:1047540018A9E028F8A3E039F9E824E2F582E4395D
:10476400F583E0F509EFF87900E875F021A4C8AA0B
:10477400F075F000A42AFA75F021E9A42AF990183A
:10478400A9E028F8A3E039F9E824E1F582E439F551
:10479400837401F0750A06750B00780A12207F7481
:1047A4000E121E62EFF87900E875F021A4C8AAF091
:1047B40075F000A42AFA75F021E9A42AF99018A941
:1047C400E028F8A3E039F9E824E3FAE439FB121607
:1047D400F67402121E127403121E48E0C0E0EFF8D1
:1047E4007900E875F021A4C8AAF075F000A42AFAAB
:1047F40075F021E9A42AF99018A9E028F8A3E03972
:10480400F9E824E2F582E439F583D0E0F074021289
:104814001E48E0C0E0EFF87900E875F021A4C8AACA
:10482400F075F000A42AFA75F021E9A42AF9901889
:10483400A9E028F8A3E039F9E824F6F582E439F58B
:1048440083D0E0F0E50CC0E07402121E48D0E0F022
:10485400750A06750B00780A12207F7414121E6202
:10486400740E121E5A1216F67402121E12E509C0B4
:10487400E07403121E48D0E0F07E0180040F02446D
:10488400B974016E70030244B59018A9E0F8A3E06E
:10489400C824D1F582C83400F583C082C08390183F
:1048A400A9E0F8A3E0C8243DF582C83400F583E00C
:1048B400F87900D083D082C3E098A3E09940041231
:1048C400147AE9024D229018A9E0F8A3E0C824D490
:1048D400F582C83400F583E064016003024D2212BE
:1048E40018C48A0C8B0D8C0E8D0F9018A9E0F8A3B8
:1048F400E0C824D1F582C83400F583C082C0839017
:1049040018A9E0F8A3E0C8243DF582C83400F58373
:10491400E0F87900D083D082C3E098A3E0994025E1
:104924009018A9E0F8A3E0C824D1F582C83400F5B2
:10493400837400F0A37400F07B007A0179031214ED
:1049440074E9024D229018A9E0F8A3E0C824D1F537
:1049540082C83400F5837400F0A37400F07A087BF5
:10496400009018A9E0F8A3E0C824D3F582C8340065
:10497400F583E0F91218ACE99018A9E0F8A3E0C8AF
:1049840024D4F582C83400F5837400F09018A9E0AB
:10499400F8A3E0C8243AF582C83400F583E0F508AA
:1049A400A3E0F509E4F50AF50B780812207B7A10E8
:1049B4007B009018A9E0F8A3E0C824D3F582C8349A
:1049C40000F583E0F91218A07404121E12E91219FA
:1049D40084024D229018A9E0F8A3E0C824D5F582FA
:1049E400C83400F583E064016003024BFE1218C46E
:1049F4007418121E48121CDE851882851983E0F88B
:104A0400A3E0F5838882A3E06003024BA675080047
:104A1400E508C394034003024BA6E508F87900E8CF
:104A240075F021A4C8AAF075F000A42AFA75F02143
:104A3400E9A42AF99018A9E028F8A3E039F9E824B0
:104A4400D6FEE439FFEE240BF582E43FF583E064FF
:104A5400026003024BA1750A06750B00780A122046
:104A64007F7402121E48E02404FCA3E03400FDEE2F
:104A7400240DFAE43FFB1217087402121E12E964B3
:104A8400016003024BA1EE2420F582E43FF5837418
:104A940000F08E828F83A3A37401F08E828F83A390
:104AA400A3A37400F0A37400F08E828F83A3A3A346
:104AB400A3A37400F0A37400F08E828F83A3A3A336
:104AC400A3A3A3A37400F0A37400F08E828F83A326
:104AD400A3A3A3A3A3A3A3A37401F08E828F83A390
:104AE400A3A3A3A3A3A3A3A3A37401F085188285FE
:104AF4001983E0F8A3E0C8240AF582C83400F583DA
:104B0400E0F8A3E0F98E828F83E8F0A3E9F0EE24C5
:104B14000BF582E43FF5837403F0909068740A12F5
:104B24001E627402121D0F9018A9E0F8A3E0C824B5
:104B3400D3F582C83400F583E0F5087808122083A1
:104B44007902740B121E628E828F83E0FAA3E0FB5B
:104B54001207F67401121E12E9601D851882851968
:104B640083E0F8A3E0C8240AF582C83400F583E0A2
:104B7400FAA3E0FB121462E99018A9E0F8A3E0F5A7
:104B8400838882E0F8A3E0F5838882A3A3E0F8A3F6
:104B9400E0F5838882121E6A1219848005050802D2
:104BA4004A149018A9E0F8A3E0C8243AF582C8345E
:104BB40000F583E0F508A3E0F509E4F50AF50B78C0
:104BC4000812207B7A107B009018A9E0F8A3E0C8B3
:104BD40024D3F582C83400F583E0F91218A07404D4
:104BE400121E12E99018A9E0F8A3E0C824D5F582B2
:104BF400C83400F5837400F0802F851882851983EA
:104C0400E0F8A3E0F5838882A3E0701D851882850F
:104C14001983E0F8A3E0C8240AF582C83400F583B8
:104C2400E0FAA3E0FB121462E9024D227A00EAC31F
:104C340094035072EAF87900E875F021A4C8ABF047
:104C440075F000A42BFB75F021E9A42BF99018A9A9
:104C5400E028F8A3E039F9E824D6F8500109E8FE81
:104C6400E9FF8E828F83E0F8A3E0F9851882851925
:104C740083E0FBA3E0F5838B82A3A3A3E068700326
:104C8400A3E069701EEE240BF582E43FF583740003
:104C9400F08E828F83E0FAA3E0FB121480E91219EC
:104CA40084807B0A8088807690906A7408121E62E1
:104CB4007402121D0F7408121E528808890978089C
:104CC40012207F75080278081220837C297D0074E5
:104CD40003121E48E0F8A3E0F5838882A3A3A3A3EC
:104CE400E0FAA3E0FB9018A9E0F8A3E0C824D3F508
:104CF40082C83400F583E0F9121A567403121E12A6
:104D0400E9601B851882851983E0F8A3E0F58388A0
:104D140082A3A3A3A3E0FAA3E0FB121462E979013E
:104D24007428121E127F08021F3E74F7121E6C7E36
:104D340000EEC394034003024E19EEF87900E875BF
:104D4400F021A4C8AAF075F000A42AFA75F021E9AC
:104D5400A42AF99018A9E028F8A3E039F9E824E195
:104D6400F582E439F583E064016003024E1590187E
:104D7400A9E0F8A3E0C824D5F582C83400F583740B
:104D840001F0EEF87900E875F021A4C8AAF075F0F6
:104D940000A42AFA75F021E9A42AF99018A9E028B8
:104DA400F8A3E039F9E824E1F582E439F5837402E3
:104DB400F0EEF87900E875F021A4C8AAF075F000C7
:104DC400A42AFA75F021E9A42AF99018A9E028F890
:104DD400A3E039F9E824E3FCE439FDEEF87900E8CE
:104DE40075F021A4C8AAF075F000A42AFA75F02180
:104DF400E9A42AF99018A9E028F8A3E039F9E824ED
:104E0400E2F582E439F583E0FB7A00790012146854
:104E1400E90E024D357F01021F3E74F4121E6C74BC
:104E2400EB121DFCEAFEEBFF750800E508C39403D2
:104E34004003025326E508F87900E875F021A4C878
:104E4400AAF075F000A42AFA75F021E9A42AF990D1
:104E540018A9E028F8A3E039F9E824E1F582E43957
:104E6400F583E064036003025321E508F87900E860
:104E740075F021A4C8AAF075F000A42AFA75F021EF
:104E8400E9A42AF99018A9E028F8A3E039F9E8245C
:104E9400D6F582E439F583E0F8A3E0F98E828F83B6
:104EA400A3A3E0687003A3E0696003025321E5084B
:104EB400F87900E875F021A4C8AAF075F000A42AD6
:104EC400FA75F021E9A42AF99018A9E028F8A3E0DA
:104ED40039F9E824D8F582E439F583E06401600304
:104EE40002514B8E828F83A3A3A3A3E064076003C4
:104EF400024FDA8E828F83A3A3A3A3A3E0700302DD
:104F04004FDA8E828F83A3A3A3A3A3A3E0F8A3E025
:104F1400F5838882E0FA7B008E828F83A3A3A3A308
:104F2400A3A3E0F8A3E0F5838882A3E0F87900E482
:104F3400C8F9EA28FAEB39FBE508F87900E875F0D6
:104F440021A4C8ACF075F000A42CFC75F021E9A4F0
:104F54002CF99018A9E028F8A3E039F9E824D9F548
:104F640082E439F583EAF0A3EBF08E828F83A3A366
:104F7400A3A3A3A3E0F8A3E0F5838882A3A3E0FAA4
:104F84007B008E828F83A3A3A3A3A3A3E0F8A3E053
:104F9400F5838882A3A3A3E0F87900E4C8F9EA289A
:104FA400FAEB39FBE508F87900E875F021A4C8AC00
:104FB400F075F000A42CFC75F021E9A42CF99018EC
:104FC400A9E028F8A3E039F9E824DBF582E439F50F
:104FD40083EAF0A3EBF08E828F83A3A3A3A3E06400
:104FE40007700A8E828F83A3E0641A60108E828F0A
:104FF40083A3A3A3A3E064016003025326E508F896
:105004007900E875F021A4C8AAF075F000A42AFA82
:1050140075F021E9A42AF99018A9E028F8A3E03949
:10502400F9E824D9F582E439F583E0F8A3E0F9E856
:10503400497003025326E508F87900E875F021A4C5
:10504400C8AAF075F000A42AFA75F021E9A42AF997
:105054009018A9E028F8A3E039F9E824D8F582E407
:1050640039F5837402F0E508F87900E875F021A4B5
:10507400C8AAF075F000A42AFA75F021E9A42AF967
:105084009018A9E028F8A3E039F9E824D9F582E4D6
:1050940039F583E0F8A3E0F9851882851983E8F0EF
:1050A400A3E9F0E508F87900E875F021A4C8AAF0AE
:1050B40075F000A42AFA75F021E9A42AF99018A938
:1050C400E028F8A3E039F9E824DBF582E439F58334
:1050D400E0F8A3E0F97402121E48E8F0A3E9F074C2
:1050E40004121E487402F07405121E4874F1F07420
:1050F40006121E4874FFF09018A9E0F8A3E0C82433
:10510400D3F582C83400F583E0F9AC18AD19E5088D
:10511400FA7B00EA75F021A4CAA8F075F000A4286F
:10512400F875F021EBA428FB9018A9E02AFAA3E073
:105134003BFBEA24D6F582E43BF583E0FAA3E0FBEB
:105144001207FCE9025326E508F87900E875F02116
:10515400A4C8AAF075F000A42AFA75F021E9A42ADB
:10516400F99018A9E028F8A3E039F9E824D8F582E1
:10517400E439F583E0640260030253268E828F8350
:10518400A3A3A3A3E0640960030252EF8E828F837A
:10519400A3A3A3A3A3E070030252EF8E828F83A381
:1051A400A3A3A3A3A3A3E0F8A3E0F5838882E0FA72
:1051B4007B008E828F83A3A3A3A3A3A3A3E0F8A35E
:1051C400E0F5838882A3E0F87900E4C8F9EA28FAD4
:1051D400EB39FBE508F87900E875F021A4C8ACF0D8
:1051E40075F000A42CFC75F021E9A42CF99018A901
:1051F400E028F8A3E039F9E824DDF582E439F58301
:10520400EAF0A3EBF09018A9E0F8A3E0C82406F5AF
:1052140082C83400F583E0640160030252EF901801
:10522400A9E0F8A3E0C8240CF582C83400F5831281
:1052340020969018A9E0F8A3E0C8240BF582C8349E
:1052440000F583E0F50A750B00780A12207F9018A8
:10525400A9E0F8A3E0C82409F582C83400F5831254
:1052640020969018A9E0F8A3E0C82407F582C83472
:1052740000F583E0FCA3E0FDE508F87900E875F0AB
:1052840021A4C8AAF075F000A42AFA75F021E9A4B3
:105294002AF99018A9E028F8A3E039F9E824D6F50A
:1052A40082E439F583E0FAA3E0FB12146E7406126B
:1052B4001E12E96036E508F87900E875F021A4C803
:1052C400AAF075F000A42AFA75F021E9A42AF9904D
:1052D40018A9E028F8A3E039F9E824D6F582E439DE
:1052E400F583E0FAA3E0FB121462E9E508F879001B
:1052F400E875F021A4C8AAF075F000A42AFA75F0A4
:1053040021E9A42AF99018A9E028F8A3E039F9E8DA
:1053140024D8F582E439F5837400F0800505080289
:105324004E2F7415121E127F04021F3E74F6121EB5
:105334006C74FA121DFC8906851882851983740021
:10534400F0EEC0E07401121E48D0E0F0A818A919CC
:1053540088088909780812207F7404121E488582FF
:1053640008858309780812207F9018A9E0F8A3E043
:10537400C8244DF582C83400F583121CD2121930AA
:105384007404121E12851882851983E02401FC74AA
:1053940001121E5A79701219907406121E127F029D
:1053A400021F3E74F7121E6C74FC121DFC7E017AFF
:1053B40000EAC39403504FEAF87900E875F021A499
:1053C400C8ABF075F000A42BFB75F021E9A42BF910
:1053D4009018A9E028F8A3E039F9E824E1F582E47B
:1053E40039F583E06403701BEAC0E0EEF8790085C8
:1053F4001882851983E58228F582E58339F583D0FF
:10540400E0F00E0A80AB74FF2EC0E0851882851987
:1054140083D0E0F0AC06AA18AB1979711219907414
:1054240004121E127F01021F3E74F0121E6C7A04D5
:105434007B009018A9E0F8A3E0C824D3F582C8340F
:1054440000F583E0F91218ACE97A087B009018A9FA
:10545400E0F8A3E0C824D3F582C83400F583E0F96A
:105464001218ACE97A107B009018A9E0F8A3E0C800
:1054740024D3F582C83400F583E0F91218ACE97E30
:10548400009018A9E0F8A3E0C824D5F582C8340038
:10549400F583E0640170169018A9E0F8A3E0C8242D
:1054A400D5F582C83400F5837400F07E019018A904
:1054B400E0F8A3E0C824D4F582C83400F583E0649E
:1054C40001701A9018A9E0F8A3E0C824D4F582C8A2
:1054D4003400F5837400F012147AE97E017F00EF42
:1054E400C394034003025587EFF87900E875F0216F
:1054F400A4C8AAF075F000A42AFA75F021E9A42A38
:10550400F99018A9E028F8A3E039F9E824E1F58234
:10551400E439F583E064037037EFF87900E875F057
:1055240021A4C8AAF075F000A42AFA75F021E9A410
:105534002AF99018A9E028F8A3E039F9E824D6F567
:1055440082E439F583E0FAA3E0FB121462E97E01F8
:10555400EFF87900E875F021A4C8AAF075F000A46A
:105564002AFA75F021E9A42AF99018A9E028F8A3E9
:10557400E039F9E824E1F582E439F5837400F00FA9
:105584000254E39018A9E0F8A3E0C824D1F582C836
:105594003400F5837400F0A37400F074016E70316C
:1055A4001218C48A0C8B0D8C0E8D0F9018A9E0F87C
:1055B400A3E0C8243EF582C83400F583E0F508A3CF
:1055C400E0F509E4F50AF50B780C7908121C07805C
:1055D4000C750C00750D00750E00750F00AA0CAB50
:1055E4000DAC0EAD0F7F08021F3E74F4121E6C89C1
:1055F40009EAFEEBFF8C0874042508C0E09018A9A2
:10560400E0F8A3E0C8246CF582C83401F583D0E047
:10561400F09018A9E0F8A3E0C8246DF582C834011D
:10562400F5837400F0E509C0E09018A9E0F8A3E060
:10563400C8246EF582C83401F583D0E0F0E508F59E
:105644000A750B00780A12207FEEFCEFFD9018A972
:10565400E0246FFAA3E03401FB1216F67402121E62
:1056640012E508F879009018A9E028F8A3E039F9C0
:10567400E8246FF582E93401F5837400F09018A9E9
:10568400E0F8A3E0C824CFF582C83400F583E060D5
:10569400457A0074022508FBEBC39A4039EAF8798D
:1056A400009018A9E028F8A3E039F9E8246CF58201
:1056B400E93401F583E0FCE508F879009018A9E0E5
:1056C40028F8A3E039F9E8246FF582E93401F58379
:1056D400E02CF00A80C274042508F99018A9E0248B
:1056E4006CFAA3E03401FB9018A9E0F8A3E0F58379
:1056F4008882E0F8A3E0C8240AF582C83400F58360
:10570400E0F8A3E0F5838882121E6A7F04021F3E3C
:1057140074F6121E6C89078A828B83E06F7006EF21
:10572400C394045004790080658A828B83A3E0606B
:10573400047900805974FC2FFE9018A9E0F8A3E0C6
:10574400C824CFF582C83400F583E0603F78007444
:10575400022EFD74032EFC7900EDC3994016E9F581
:1057640008750900EA2508F582EB3509F583E02878
:10577400F80980E5ECF508750900EA2508F582EBDF
:105784003509F583E06860047900800279017F02BD
:10579400021F3E74F0121E6C74E8121DFC74081291
:1057A4001E48EAF0A3EBF0E9C0E0740A121E48D0E8
:1057B400E0F07E00740A121E48E0F97408121E48D4
:1057C400E0FAA3E0FB121996E9640160030263FAAC
:1057D400740A121E48E024FCF50F7408121E48E0F7
:1057E400F8A3E0F5838882A3A3E0603314606C140B
:1057F400607814700302587C147003025888147083
:10580400030260F214700302632A147003026363D8
:105814001470030263B9147003025EE00263FAE5D4
:105824000F703512198A8A088B098C0A8D0B780837
:1058340012207B7A047B009018A9E0F8A3E0C82426
:10584400D3F582C83400F583E0F91218A074041269
:105854001E12E91219847E010263FAE50F70081220
:10586400198A1219847E010263FAE50F700779011F
:1058740012197E7E010263FAE50F70051219847E07
:10588400010263FAE50FC3940350030263FA740838
:10589400121E48E0F8A3E0F5838882A3A3A3E0C026
:1058A400E07405121E48D0E0F07408121E48E0248B
:1058B40004F8A3E03400F97406121E48E8F0A3E9E2
:1058C400F074FF250FF50E7405121E48E06407609E
:1058D4000302596E74FF250EFF7406121E48E0F889
:1058E400A3E0F5838882E0F508EFC3940D4003023A
:1058F4005EB9E508C394034003025EB97406121E40
:1059040048E02401F50CA3E03400F50DEFF50A7529
:105914000B00780A12207FAC0CAD0DE508F8790075
:10592400E875F00CA4C8AAF075F000A42AFA75F082
:105934000CE9A42AF99018A9E028F8A3E039F9E8B9
:105944002476FAE439FB1216F67402121E12EFC022
:10595400E09018A9E0F8A3E0C824B3F582C83400A5
:10596400F583D0E0F07E01025EB97405121E48E0B2
:10597400640E7051E50EC3940D4003025EB9E50E4A
:10598400F508750900780812207F7408121E48E093
:10599400FCA3E0FD9018A9E024A7FAA3E03400FBDF
:1059A4001216F67402121E12E50EC0E09018A9E059
:1059B400F8A3E0C824B3F582C83400F583D0E0F03E
:1059C4007E01025EB97405121E48E06412703874D8
:1059D40010650E6003025EB9E50EF50875090078DE
:1059E4000812207F7408121E48E0FCA3E0FD901802
:1059F400A9E024BEFAA3E03400FB1216F6740212E6
:105A04001E127E01025EB9E50EC394054003025ED8
:105A1400B98518828519837400F0A37400F0A37407
:105A240000F0A37400F0AC18AD19A90E7406121E90
:105A340048E0FAA3E0FB1219367405121E48E0127E
:105A440020C3FF15B95E765A8A5AAC5AF85A2F5BAE
:105A5400665B8E5BC55BB95E005C375CA55CDC5C39
:105A64006E5C135DB95E3B5DB15DE85DB95E345E4D
:105A7400705E9018A9E02469FAA3E03400FB1219BF
:105A8400247E01025EB9851882851983121CEA906E
:105A940018A9E0FCA3E0CC24B4F582CC3400F5834F
:105AA400121CF67E01025EB9908FCC7808121CB4E9
:105AB4008518828519837808121A8C600F851882DC
:105AC400851983121CEAE8494A4B7025851882859A
:105AD40019837808121CB4E508C0E09018A9E0F80E
:105AE400A3E0C8246DF582C83400F583D0E0F07ECD
:105AF40001025EB9851882851983121CEAE8494AB5
:105B04004B60258518828519837808121CB4901877
:105B1400A9E0F8A3E0C8246EF582C83400F583E553
:105B240008F0A3E509F07E01025EB98518828519A3
