:020000040000FA
:0600000002011A02272193
:03002B00022E4B57
:03003B00022E682A
:03004300022D93F8
:03005300022797EA
:03006B00022DBCA7
:03007B00022DF75C
:10008300022577E5C754F84401F5C779012200003A
:100093000080FB120086B90003020104E479217891
:1000A30008B800028004F709D8FCE479297802B87B
:1000B30000028004F709D8FCE490028178A779173D
:1000C3008002F0A3D8FCD9FA781A90014A7A01BACF
:1000D30000028007E493A3F608DAF97A277B1990E4
:1000E300014B78CF79038015E493A3AD82AE838A65
:1000F300828B83F0A3AA82AB838D828E83D8E9D9C6
:10010300E77582627583F4740412012C758291750C
:100113008300740012012C75D00075813F7518811E
:10012300751902759F00020096C09FF59FE473D076
:100133009F22D083D082C09FE493C0E0740193C018
:10014300E0740293F59F22010001020304050607F0
:1001530008090A4150502D5253534908DB05E7055E
:100163001D061706FF0000B40000280028002830F1
:1001730075A000A000A000A00000080008E001F0A6
:10018300001000100010001000100010005000506C
:1001930000500010001000D0070000000000000F06
:1001A3000001000500307507001000010081FF0009
:1001B300000000FFFFFF5B07790761079D07FF0250
:1001C300020208025000A0000000E803027C900134
:1001D30000006D900282900100009E1902A8900118
:1001E3000000CE020282900100009F19026E8F016F
:1001F3000000E402028290010000A0190274900141
:100203000000E602028290010000A1190276900824
:100213000000E702028290010000A219027E900111
:100223000000A319FFFF0100FF20027C90010000E2
:100233006790028290010000081A028A9000000071
:10024300000002709003000017031700FB0FFB0F61
:10025300FB0FFB0FFB0FFB0FFB0FFB0FFB0FFB0F4B
:10026300FB0FFB0FFB0F5F127D125912A313B51384
:100273009D13020202020202020202010D000000AB
:100283001001027C90010000649002829001000042
:10029300511A029C90010000660D02829001000039
:1002A300521A029A90010000458F028290010000C9
:1002B300531A029890010000378F028290010000C8
:1002C300541A029690010000A78E0282900100004A
:1002D300551A029490010000958E0282900100004D
:1002E300561A029290010000CB8E02829001000008
:1002F300571A029090010000B98E0282900100000B
:10030300581A028E90010000298F0282900100008A
:10031300591A028C900100005A1A01E8030577105C
:10032300020A0A8315000000010000020000030016
:100333000004000005000006000007000010000094
:100343001100001200001300001400001500001635
:100353000000170000000000010002000300040079
:10036300050006000700100011001200130014001E
:100373001500160017FFFF000169176F17000075BE
:100383001700001904013075030201060000000084
:10039300000000000000000000000000000000005A
:1003A3000000000000000000FFFF0600800CE803CF
:1003B3000A53657276657220546F20436C69656ECB
:1003C30074000010436C69656E7420546F2053658C
:1003D300727665720000027C900100006A900282CE
:1003E300900100008F1B02A290030000F918027213
:1003F30090010000901B028290010000A21B02A04A
:10040300900000000F19027090030000251902727A
:1004130090010000A31B120135DCD3041201352F18
:10042300D60412013549D60412013573D6041201DC
:1004330035C3D604120135E1D6041201352FD70492
:10044300120135987D00120135AB7D00120135CCC8
:100453007D00120135377E00120135787E001201CE
:1004630035997E00120135DA7E00120135727F0064
:10047300120135BA7F00120135A3CC04120135B63F
:10048300CC04120135E7CC0412013521CD0412014D
:10049300357ACD04120135C1CD0412013509CE04DC
:1004A30012013538CE0412013567CE041201359E90
:1004B300CE04120135E5CE04120135FECE0412013D
:1004C3003553CF041201356CCF04120135BACF0472
:1004D300120135F4CF041201357DAF0312013580CB
:1004E300B003120135ADB003120135FEB0031201A2
:1004F3003521B10312013533B10312013536B1038E
:1005030012013574B103120135E8B10312013554F8
:10051300B2031201351CB30312013538B3031201C0
:10052300356FB303120135A9B30312013540B40388
:1005330012013592B403120135C3B403120135F429
:10054300B40312013501B5031201356BB503120172
:10055300356EB5031201357BB5031201357EB50344
:10056300120135D5B503120135D8B5031201351182
:10057300B60312013514B60312013548B60312014E
:10058300354BB6031201359FB603120135E8B603A6
:10059300120135F8B6031201352BB70312013538B2
:1005A300B7031201353BB703120135A3B703120199
:1005B30035A5B80312013549B903120135B2B903A0
:1005C300120135F0B90312013520CE03120135189B
:1005D300CF031201354CCF03120135E2CF031201D1
:1005E300352DD00312013591D0031201351BD103F0
:1005F300120135D4D103120135F6D4031201357338
:10060300D60312013596D6031201359FBC0412019D
:100613003544BE0412013564BE0412013585BF049E
:10062300120135D8BF04120135E5C0041201350D9E
:10063300C1041201353AC10412013572C104120119
:1006430035D0C1041201351CC20412013583C20422
:10065300120135C3C20412013500C3041201352E41
:10066300C304120135D8C304120135E2C3041201D5
:1006730035EFC30412013522C4041201352EC4041C
:1006830012013546C40412013550C4041201350E5B
:10069300FF031201351CFF0312013534FF0312015E
:1006A300354CFF0312013563FF03120135B3CE024C
:1006B3001201355DCF0212013570D002120135EC03
:1006C300D0021201350AD20212013546D2021201BA
:1006D30035E1D202120135C5D30212013588D402A5
:1006E30012013500D5021201358ED602120135FFF3
:1006F300D602120135B9D702120135ABD802120165
:1007030035EBD8021201359FD902120135D1D90236
:10071300120135C7DB021201350EDC021201352C42
:10072300DC0212013592DC0212013561DD02120195
:100733003525DE0212013544E0021201354EE00296
:1007430012013555F1031201353FF203120135EA67
:10075300F2031201353BF303120135EBF3031201EC
:10076300355CF40312013541F50312013575F503C8
:100773001201356EF603120135ABF603120135870C
:10078300F703120135C6F703120135E2F70312012D
:1007930035AAE1041201352EE20412013559E204AF
:1007A30012013573E304120135DEC404120135F47A
:1007B300C40412013512C50412013523C604120103
:1007C300352DC60412013558C7041201354FC8042C
:1007D300120135BCC804120135C6C8041201350024
:1007E3008004120135368104120135B081041201EF
:1007F30035E08104120135F381041201354A820484
:100803001201355F8404120135008002120135B1F3
:100813008002120135CD8002120135968102120148
:1008230035B08102120135BB81021201359182027A
:100833001201356E8302120135FE8302120135B5B2
:100843008402120135C38702120135B289021201F3
:1008530035648A021201352D8B02120135728E0224
:100863001201351C8F021201354590021201350128
:100873009202120135A19202120135EF9202120186
:10088300352E93021201350194021201353594027B
:10089300120135C294021201351FBC02120135AB9D
:1008A300BC021201350FBE021201351BBE0212013A
:1008B3003556BE02120135C5BE02120135CEBF0246
:1008C300120135D7C0021201359EC102120135FB58
:1008D300C20212013519C30212013536C3021201D5
:1008E30035E3C30212013560C40212013588C40224
:1008F30012013552C70212013557C7021201357072
:10090300C902120135BEC9021201352ECA021201F3
:10091300356CCA0212013548CB0212013508CC02EC
:1009230012013554CC0212013557CC021201359B0A
:10093300CC02120135E3CC0212013522CD021201A1
:100943003544CD0212013578CD02120135DBCD02DB
:10095300120135AAA004120135B3A004120135C156
:10096300A00412013514A10412013533A1041201AC
:100973003578A104120135BCA20412013557A30432
:100983001201359BA304120135C5A30412013534AA
:10099300A4041201357AA404120135F1A40412014E
:1009A30035A2A504120135E02E00120135F02E0008
:1009B300120135912F00120135ED2F00120135AAD6
:1009C3003000120135C63100120135F83100120131
:1009D30035273200120135D433001201354B36006E
:1009E300120135BB3800120135AD3900120135A6AD
:1009F3003A00120135AD3C00120135A13F0012014E
:100A030035D04000120135D44200120135E44300D1
:100A1300120135734500120135644600120135B2E7
:100A230046001201352147001201354547001201E6
:100A330035964700120135374C00120135384D0009
:100A4300120135994D00120135C44D001201358A4A
:100A53004E00120135268604120135308604120138
:100A63003575860412013589860412013519870408
:100A73001201355287041201358D8704120135B6F0
:100A83008704120135048804120135198804120100
:100A9300352E8804120135438804120135868804F3
:100AA3001201359B88041201350689041201351A97
:100AB30089041201352E8904120135438904120178
:100AC300357D8904120135A18904120135CD8904CC
:100AD300120135048A04120135668A04120135D8DD
:100AE3008A04120135038B04120135468B0412016B
:100AF30035708B041201359B8B04120135C8ED044C
:100B03001201357C8C031201355F8D03120135DA36
:100B13008D03120135158E03120135668F03120101
:100B230035EF8F03120135079203120135999403B0
:100B33001201354B9503120135579603120135CA3D
:100B430097031201352398031201356C96041201A1
:100B530035AF960412013533970412013506980414
:100B6300120135DD9A0412013510DD04120135BD81
:100B7300DD04120135CADE0412013509DF04120156
:100B83003563DF04120135A2E30412013505E404E1
:100B9300120135A2E404120135D7E404120135072A
:100BA300E50412013528E50412013563E504120159
:100BB3003583E504120135B4A50412013540A604BA
:100BC300120135FFA60412013517A80412013531AD
:100BD300AA04120135CC9803120135F198031201CE
:100BE30035BE9903120135929A03120135FF9A0318
:100BF300120135559B03120135F19B031201352573
:100C03009D03120135009E031201355F9E031201FD
:100C130035EB9E03120135599F03120135E59F03FE
:100C2300120135E89F0312013532A003120135A4E6
:100C3300A00312013536A103120135D7A103120116
:100C430035F7A1031201353FA20312013588A20330
:100C5300120135A4A203120135CAA20312013544BD
:100C6300A30312013552A303120135E1A3031201B9
:100C7300354AA403120135FFAE0412013584AF04D3
:100C8300120135C6AF04120135AAB004120135179B
:100C9300B1041201355BB1041201359FB104120195
:100CA30035CCB104120135F4B1041201352CB20470
:100CB3001201356AB20412013591B2041201350BE7
:100CC300B30412013555B304120135F64E00120177
:100CD30035EF5000120135DB53001201352F54005C
:100CE3001201355A5400120135345500120135737F
:100CF3005500120135BA5500120135CD55001201C8
:100D0300350E56001201353B560012013589560047
:100D1300120135C85600120135F35600120135464B
:100D23005700120135D55700120135B35A0012018D
:100D330035CE5C001201350C5D00120135815E0079
:100D4300120135C65E00120135BA5F00120135D3B8
:100D5300610012013535620012013586620012010D
:100D630035A16700120135F06700120135366800BE
:100D73001201351E6A00120135EC6B00120135F1C8
:100D83006B00120135CB6C00120135F66C001201B9
:100D9300356B6D001201359C6D00120135CC6E0070
:100DA300120135DE6E001201356ADA04120135DCF8
:100DB300DA0412013532DB0412013576DB04120149
:100DC3003596DB04120135E3DB041201352BDC0419
:100DD3001201357EDC04120135CFDC041201356EBD
:100DE300C403120135EDC403120135E6CA0312012F
:100DF30035ECCB031201355FCD03120135F6CD037C
:100E0300120135F0AD0112013539AE01120135661B
:100E1300AE0112013598AE01120135A4AE011201E3
:100E230035B0AE01120135C7AE01120135A2AF01D3
:100E330012013500B00112013535B00112013566DA
:100E4300B101120135B3B101120135F9B10112013A
:100E53003565B20112013509B301120135BFB30182
:100E63001201351EB4011201358FB401120135EDA3
:100E7300B4011201351FB60112013587B701120102
:100E83003551B8011201355EB801120135A0B80120
:100E9300120135B0B801120135D4B801120135D7AA
:100EA300B801120135C3B9011201355FBA0112014C
:100EB30035F8BA011201358FBB01120135BCBB01F4
:100EC3001201351ABC0112013561BC01120135B1A1
:100ED300BC0112013501BD0112013573BD011201BF
:100EE300350EBE01120135B9BE0112013558BF01DD
:100EF300120135D6BF011201351DC0011201358122
:100F0300C001120135B0C00112013547C101120100
:100F13003559C3011201359DC301120135E8C301DF
:100F23001201356EC401120135F8C40112013511E5
:100F3300C60112013597C601120135BCC601120163
:100F43003513C70112013528C70112013570C701D6
:100F5300120135E3C70112013528C80112013531E9
:100F6300C901120135E2C90112013540CA0112015A
:100F7300359CCA01120135B5CA01120135B9D7032F
:100F83001201350DD80312013519D803120135E3C7
:100F9300D80312013510D9031201353ED9031201CA
:100FA30035AAD903120135E0D90312013510DA034A
:100FB30012013549DA0312013561DA03120135B63C
:100FC300DA03120135CFDA0312013514DB03120100
:100FD3003527DB0312013541DB0312013557DB03F0
:100FE30012013575DC03120135A0DD031201358AC8
:100FF300DE031201357BDF03120135E57F001201A9
:10100300358F9B04120135129F041201355FA00432
:10101300120135008003120135D38203120135D941
:101023008203120135698503120135CC870312014E
:101033003568AA04120135FFAA04120135BDAB04B9
:10104300120135E7AB04120135C1AD04120135C6F7
:10105300AE04120135EDE1011201351FE201120167
:10106300353CEE011201358DEF0112013596F00189
:1010730012013515F20112013500F3011201354F4A
:10108300F30112013569F301120135ABF3011201CA
:1010930035B6F301120135FDF30112013506F401F2
:1010A300120135B2F4011201358BF501120135D26B
:1010B300F5011201353AF6011201357CF6011201F0
:1010C30035AAF601120135E7F6011201351BA90213
:1010D300120135E6AC02120135ECAC021201359077
:1010E300B302120135E4B702120135CDBB0212017E
:1010F30035D0C80412013546C9041201355CC90450
:10110300120135ECC90412013529CA0412013563F1
:10111300CA041201359DCA0412013510CB04120111
:101123003551CB041201355ACB0412013566CB0479
:1011330012013585CB04120135AFCB04120135C43E
:10114300CB04120135ECCB041201354ECC04120151
:101153003575CC0412013543F80312013556F803F3
:1011630012013570F8031201359DF803120135E3BE
:10117300F80312013516F90312013554F90312016C
:1011830035B9F903120135CEF903120135D9F90343
:10119300120135E6F903120135FDF9031201350B8E
:1011A300FA031201351AFA031201352FFA03120159
:1011B3003544FA031201354FFA031201355BFA0382
:1011C30012013568FA031201357BFA0312013586E1
:1011D300FA03120135ABFA031201354FFB03120177
:1011E300355FFB0312013574FB0312013589FB03E1
:1011F300120135A3FB03120135C0FB03120135DDD8
:10120300FB03120135E8FB0312013594FC031201C1
:101213003575FD031201359AFD03120135A5FD0352
:10122300120135BAFD03120135CEFD031201352F2C
:10123300FE0312013535FE031201353BFE03120195
:101243003541FE0312013559FE031201358CFE03AD
:1012530012013516BA0312013538BA0312013500EB
:10126300BB03120135BABD03120135D0BE0312010F
:1012730035F1BF03120135CBC0031201357AC10327
:1012830012013509EE02120135A0EE0212013538C2
:10129300EF0212013528F0021201355FF00212014C
:1012A3003572F002120135E0F0021201357BF202D1
:1012B300120135A2F20212013544F302120135790B
:1012C300F3021201358AF30212013503F40212010B
:1012D3003524F4021201353CF40212013594F5026F
:1012E3001201359DF702120135EDF902120135F0B5
:1012F300FA021201353FFB02120135016F001201A0
:1013030035FE6F00120135E97000120135F37000EC
:10131300120135FD70001201351F71001201352BCA
:1013230071001201357D7200120135AC7200120199
:1013330035DC73001201351E74001201354A750045
:10134300120135207600120135727600120135D173
:101353007600120135087700120135437700120138
:1013630035DE7A00120135F77A00120135797B00F8
:10137300120135877B00120135DC7B00120135EA4F
:101383007B00120135577C00120135C97C00120124
:10139300350F7D001201356DA4031201358FA403AF
:1013A30012013579A6031201351EAA031201356114
:1013B300AB031201353BAC031201353FE9041201C3
:1013C3003564E904120135D5E90412013535E10329
:1013D3001201353EE10312013547E103120135786D
:1013E300E20312013597E403120135CDE403120140
:1013F3003507E5031201353DE50312013577E503B2
:10140300120135ABE503120135D7E503120135208F
:10141300E6031201355AE603120135A2E60312016F
:1014230035F8E6031201352DE70312013588E7038A
:10143300120135C2E70312013513E80312013549DE
:10144300E80312013583E803120135B1E803120101
:1014530035D4E80312013588F104120135B4F104DF
:101463001201350FF20412013519F2041201352964
:10147300F2041201354291041201358091041201E4
:10148300350792041201351C92041201356B920444
:101493001201359F9204120135DE9204120135EDDB
:1014A30092041201354693041201359593041201F7
:1014B30035E79304120135059504120135F79504B8
:1014C3001201353496041201354CD70412013573D9
:1014D300D7041201359ED704120135EDF30412012E
:1014E30035E5CA011201354ECD01120135EDCE01AC
:1014F3001201354ACF01120135E6CF01120135C37E
:10150300D0011201353ED101120135C0D1011201C2
:1015130035E5D10112013548D201120135A7D501B4
:101523001201350BD601120135F8D6011201352E01
:10153300D70112013571D70112013502D901120108
:10154300352ED90112013570D901120135B9D901EE
:1015530012013525DA0112013553DA011201356D15
:10156300DA0112013594DB01120135ABDB01120103
:101573003586DD01120135A4DD01120135DADD0105
:1015830012013566DF01120135E3DF01120135591E
:10159300E00112013597E001120135BBE1011201AF
:1015A3003595B304120135F3B3041201354AB5047A
:1015B300120135ACB5041201356DB6041201358C38
:1015C300B604120135DCB6041201351AB704120150
:1015D30035B5F404120135F4F404120135ABF50406
:1015E30012013533F20412013543F204120135526C
:1015F300F204120135CEF204120135DCEE041201BD
:101603003560EF04120135C6EF0412013568F304A7
:10161300120135DBF204120135F87F001201357136
:10162300E704120135DBE8041201353CE904120139
:101633003580EC0412013517ED041201355AED041F
:1016430012013569ED04120135C5ED04120135446B
:10165300F50412013556F504120135C38B0412014A
:1016630035CD8B041201350D8C04120135568C04D3
:101673001201358E8C04120135E88C0412013505F4
:101683008D041201350F8D04120135568D0412019C
:10169300357B8D04120135908D04120135018E04C2
:1016A3001201359A8E04120135E58E0412013512AA
:1016B3008F04120135968F04120135D18F04120164
:1016C3003504900412013516900412013535900447
:1016D3001201354E90041201355D90041201351646
:1016E3009104120135F5EA041201354AEB041201A3
:1016F30035B8EB041201352CEC041201355CD0042F
:1017030012013584D00412013579D1041201359EBA
:10171300D10412013540D204120135C1D2041201A1
:1017230035DFEF04120135AEDF04120135E4DF04C7
:1017330012013517E00412013570E104120135D8A6
:10174300F004120135EEF004120135F8F004120131
:10175300354CF1041201357DF10412013591E50494
:10176300120135B5E504120135D6E5041201350C35
:10177300E60412013580E604120135AEE6041201D7
:101783003562E9031201352BEA0312013566EA03D8
:1017930012013597EA03120135F7EA0312013541C5
:1017A300EB031201358FEB031201351AEC0312011F
:1017B3003513ED03120135B7EE0312013537EF038D
:1017C300120135A2EF03120135B5EF031201359C67
:1017D300F003120135E6F00312013520B8041201BB
:1017E3003536B804120135D7B80412013516B904D9
:1017F30012013533B90412013564B904120135B14C
:10180300B904120135E4B9041201351FBA041201F7
:10181300352ABC0412013592BC0412013558E0028A
:10182300120135FBE3021201358AE502120135E1AB
:10183300E50212013500E60212013509E602120142
:101843003587E6021201351CE802120135EFE80282
:1018530012013586EC021201356EED021201351BC1
:10186300F8011201353EF801120135C0F8011201E9
:101873003542F901120135D4F901120135EBF901B1
:1018830012013555FA01120135B0FA011201353B47
:10189300FB0112013567FB01120135EBFB0112015C
:1018A300355AFC0112013582FC0112013598FC0105
:1018B300120135ACFC01120135BBFC01120135CA22
:1018C300FC01120135F9FC0112013527FD0112015A
:1018D3003570FD01120135C2FD0112013500FE0113
:1018E30012013540FE011201355BFE01120135671D
:1018F300FE01120135E8FE0112013561FF011201FB
:101903003598FF01120135AD9001120135BA9001EE
:1019130012013566920112013516930112013551F8
:101923009301120135B99601120135D397011201C2
:1019330035EA9701120135239901120135509901B6
:101943001201356F9901120135929901120135EB9C
:101953009901120135B3A00112013514A10112013D
:10196300353DA30112013530A401120135B3A401A1
:10197300120135A0AD01120135D4AD01120135B804
:101983009502120135C59502120135039702120122
:1019930035AF9702120135969802120135B99802B4
:1019A300120135A29D02120135BC9D021201359E22
:1019B3009E02120135BD9E02120135CF9E02120115
:1019C30035E29F0212013540A0021201355FA002E9
:1019D30012013597A002120135EBA0021201352541
:1019E300A102120135D0A802120135FFA80212018B
:1019F300358CFB02120135F1FB021201350EFC029C
:101A0300120135CEFC021201356BFD02120135B015
:101A1300FD021201357AFE02120135CCFF021201DA
:101A230035FEF4041201357FF504120135D7FF01A9
:101A3300E066701008A3E066700A08A3E06670040D
:101A430008A3E06622C3E7960809E7960809E79624
:101A53000809E79622C3E09608A3E09608A3E09658
:101A630008A3E09622C008C3E096F50808A3E09611
:101A7300420808A3E096420808A3E09645087001CF
:101A8300D3D00822080808EAC0E0EBC0E086F0E7FC
:101A9300A4FA180986F0E7A42AFA180986F0E7A43D
:101AA3002AFA180986F0E7A42AFA1986F0E7A4FBB4
:101AB300E5F02AFA190886F0E7A42BFBE5F03AFAD9
:101AC300190886F0E7A42BFBE5F03AFA1818098603
:101AD300F0E7A4C5F02BFBE43AFA1908E7C5F0C612
:101AE300A426F6E5F03BFBE43AFA1886F0E7A4F601
:101AF300E5F00826F6E43B08F6E43A08F6D0E0FB06
:101B0300D0E0FA22E4CFC0E0E4CEC0E0E4CDC0E010
:101B1300E4CCC0E075F020E626F608E633F608E6E6
:101B230033F608E633F6181818EC33FCED33FDEE04
:101B330033FEEF33FFC3EC9709ED9709EE9709EFF7
:101B430097191919400FFFEC97FC09ED97FD09EE62
:101B530097FE191906D5F0BFECF709EDF709EEF773
:101B630009EFF7191919D0E0FCD0E0FDD0E0FED061
:101B7300E0FF226016080808C6C313C618C613C6BA
:101B830018C613C618C613C6D5E0EA22700908089A
:101B930008226016181818C6C333C608C633C60809
:101BA300C633C608C633C6D5E0EA22E627F60809D7
:101BB300E637F60809E637F60809E637F622E0269F
:101BC300F608A3E036F608A3E036F608A3E036F6F7
:101BD30022E026F008A3E036F008A3E036F008A3DD
:101BE300E036F022C3E697F60809E697F60809E619
:101BF30097F60809E697F622C3E096F008A3E09665
:101C0300F008A3E096F008A3E096F022E657F60862
:101C130009E657F60809E657F60809E657F622E0FB
:101C230056F608A3E056F608A3E056F608A3E056D6
:101C3300F622E056F008A3E056F008A3E056F008B9
:101C4300A3E056F022E066F608A3E066F608A3E0F8
:101C530066F608A3E066F622E0F608A3E0F608A31A
:101C6300E0F608A3E0F622E6F008A3E6F008A3E610
:101C7300F008A3E6F022E0FAA3E0FBA3E0FCA3E074
:101C8300FD22EAF0A3EBF0A3ECF0A3EDF022E0F8E1
:101C9300A3E0F9A3E0FAA3E0FB22E8F0A3E9F0A3B1
:101CA300EAF0A3EBF022CAC0E0E6F0A308DAFAD028
:101CB300E0FA22CAC0E0E0A3C582CCC582C583CDC9
:101CC300C583F0A3C582CCC582C583CDC583DAE6BF
:101CD300D0E0CA22C3E498F8E499F9121D188026CB
:101CE300C3E49AFAE49BFBE920E7E9121D18E498A0
:101CF300F8E499F922C3E498F8E499F9121D18E479
:101D030098F8E499F9C3E49AFAE49BFB22EB20E701
:101D1300CFE920E7E0B90010BB0008E88AF084F8B7
:101D2300AAF022E4FBC8FA22EB70227B10C833C866
:101D3300C933C9335007C39AC3DBF280069A5001F3
:101D43002ADBEAC833F4C8C933F4C9FA2275F008A8
:101D5300E4C833C8C933C933C99AC99B5004C92AD3
:101D6300C93BD5F0ECFBC833F4C8E4C9FA22600DD3
:101D730008C6A2E713C618C613C6D5E0F322600C43
:101D830008C6C313C618C613C6D5E0F422700422CE
:101D9300600D18C6C333C608C633C6D5E0F418228F
:101DA300251810AF08F518400C15198008F51840D0
:101DB300021519D2AF2200C0D0251810AF08F518AC
:101DC300500C05198008F51850020519D2AFD0D070
:101DD300222518F58210AF08F518400C1519800854
:101DE300F51840021519D2AF851983222518F582FB
:101DF300E43519F583222518F8E43519F922251855
:101E0300FAE43519FB222518FCE43519FD22E473A5
:101E13002518C582C0E0E51934FFC583C0E0E51885
:101E2300C3958224F810AF0885831985821880082A
:101E3300858319858218D2AFCEF0A3E520F0A3786D
:101E430008E608F0A3DEFAEFF0A3E58124FAF8E64A
:101E530008F0A3E608F0A3E608F0A30808E608F0F4
:101E6300A3E608F0A315811581D0E0FED0E0F815B4
:101E73008115811581E8C0E0EEC0E0222518C582F6
:101E8300C0E0E51934FFC583C0E0E518C39582249B
:101E9300F910AF0885831985821880088583198511
:101EA3008218D2AFCEF0A3E520F0A37808E608F0BD
:101EB300A3DEFAEFF0A3E58124FBF8E608F0A3E63E
:101EC30008F0A30808E608F0A3E608F0A3158115B7
:101ED30081D0E0FED0E0F815811581E8C0E0EEC0C6
:101EE300E022851983851882E0A3FEE0A3F520781C
:101EF30008E0A3F608DFFAE0A3FFE0A3C0E0E0A355
:101F0300C0E0E0A3C0E0E0A3C0E0E0A3C0E010AF06
:101F1300088582188583198008858218858319D2DC
:101F2300AFD083D082020132851983851882E0A362
:101F3300FEE0A3F5207808E0A3F608DFFAE0A3FFAC
:101F4300E0A3C0E0E0A3C0E0E0A3C0E0E0A3C0E002
:101F530010AF0885821885831980088582188583C8
:101F630019D2AFD083D08222C0D02518C582C0E059
:101F7300E51934FFC583C0E0E518C3958224F31047
:101F8300AF0885831985821880088583198582188F
:101F9300D2AFC8F0A3E9F0A3EAF0A3EBF0A379086A
:101FA300E709F0A3D8FAECF0A3EDF0A3EEF0A3EF6A
:101FB300F0A3D0E0F0A3D0E0F0A3D0E0F0A3E520BD
:101FC300F0A3E5F0F0A322851983851882E0C0E031
:101FD300A3E0F9A3E0FAA3E0FBA37808E0F608A3E3
:101FE300DFFAE0FCA3E0FDA3E0FEA3E0FFA3E0C073
:101FF300E0A3E0C0E0A3E0F5D0A3E0F520A3E0A3D5
:10200300F5F010AF08858319858218800885831938
:10201300858218D2AFD082D083D0E0F8D0E032747A
:10202300048006740280027401C0E0F404121DD41B
:10203300D0E0121CA9227404800474028000CCC076
:10204300E0EDC0E0E518C39CCCAD1950011D10AF05
:10205300068C188D1980068C188D19D2AF121CB6F8
:10206300D0E0FDD0E0FC22D083D082E9C0E0E4934D
:10207300A3C386F0C5F095F0F908E493A386F0C5F1
:10208300F095F0700BE493A3C3994005E904800233
:10209300A3E475F002A42582F582E5F03583F58388
:1020A300D0E0F9E493A3C0E0E493C0E022D083D06E
:1020B30082ECC0E0EDC0E0E493A3FCE493A3FDED68
:1020C3004C600D1220FCEC24FFFCED34FFFD80EF8F
:1020D300E493A3FCE493A3FDED4C600D12213BECD0
:1020E30024FFFCED34FFFD80EFD0E0FDD0E0FCE405
:1020F30093A3C0E0E493C0E022C0E0C3E493960856
:102103007401939618400FE4936670080874019362
:10211300661870007019A3A3C3E49396087401931F
:102123009618A3A3400DD0E0D0E0D0E00220ECA3AA
:10213300A3A3A3A3A3D0E022C0E0C0F088F0E4935C
:102143006670080874019366187000A8F0A3A37062
:102153000BD0F0D0E0D0E0D0E00220ECA3A3D0F08D
:03216300D0E022A7
:1021680074F6121E7FEAFEEBFF8C088D09EE24340C
:10217800F8E43FF9E8FCE9FD12229AE0FAEE243788
:10218800F582E43FF583E0F88508F0A4C885F00AF5
:102198008509F0A4250AF9EA28F8E439F97A257BB3
:1021A80000121D18EA8C828D83F0FA131313541F42
:1021B800F8EE28F8E43FF9E8245DF582E439F58380
:1021C800E0C0E074075AF8D0E0B800028004C313F6
:1021D800D8FCA2E05003EA8020EE2436F582E43FE2
:1021E800F583E0F5F0EA84A8F0EE28F8E43FF9E892
:1021F8002438F582E439F583E0F97F03021F2B7454
:10220800F5121E7FEAFEEBFFEE2434F582E43FF57B
:1022180083E0C0E012229AD0E0F08E828F83A3A3DD
:10222800A3A3A3E0FAA3E0FB8E828F83A3A3A3A3B7
:10223800A3A3A3E0C39AF508A3E09BF509EE247FC6
:10224800F8E43FF9880A890B8882F583E064017015
:102258002CEE2480F582E43FF583EA2401F8E43B80
:10226800F9E0687003A3E06970137CDE7D06EEFA7E
:10227800EFFB120F05850A82850B83E4F0AC08ADED
:1022880009EEFAEFFB122168E9F9122D857F0402A5
:102298001F2BEE2435F582E43FF58322C082C083EC
:1022A800851882851983E0F8A3E0F9C3EA9CEB9DC1
:1022B8005010C3EC98ED99401BC3EA98EB99501461
:1022C800800EC3EA98EB994007C3EC98ED99400457
:1022D800790180027900D083D08222EAC39CFAEB8C
:1022E8009DFB2274ED121E7F900387E06408600551
:1022F800E06407702C9061C8E060269003B5E0F8B0
:1023080074FF68601CE875F00DA4C8AAF02AF97477
:10231800B728FE740339FF8E828F83A3A3A3E070CE
:1023280005790002248DEE2468F50EE43FF50F9040
:102338006060E0850E82850F83F07510787511074F
:10234800750800750900E5D914F50AE5D95403F5AF
:102358000B601FEE2483F50CE43FF50D7403650B49
:102368006059E50A6017EE2467F582E43FF583E0DB
:10237800700B793DEEFAEFFB120F3580A4900773CE
:10238800E064016023850C82850D83E060047A0493
:1023980080027A00E50AC39AFA95E0FB120CDD8AFE
:1023A800088B09EA45097006121235022329850CA3
:1023B80082850D83E070048A108B117A008014E501
:1023C800D9C0E0EAF8E51028F582E43511F583D0A4
:1023D800E0F00AEAC3950A40E6850C82850D83E0A1
:1023E800602874FC250AF50A7810122026AC0AA980
:1023F8000BEEFAEFFB120FF57402121DB9E9700A21
:10240800AA08AB091216EB02237A7403650B605411
:10241800850A0C750D00780C122026AC10AD11AA97
:1024280008AB09120FB97402121DB9850E82850F07
:1024380083E0F87480687005750C7F8002880CE56D
:102448000CF50D780D12202A780B12202AA90AAC57
:1024580008AD099003B5E0FA7B00120AFD74021278
:102468001DB9801C900387E06408AC10AD11700999
:10247800EEFAEFFB1210258007EEFAEFFB1210DFE1
:1024880012124179017F0C021F2B74F3121E7F7404
:10249800FC121DA3EAFEEBFF8909A2AFE433F5089D
:1024A800C2AFEE2463F50AE43FF50B8010AA0AAB2D
:1024B8000B120F6B1216EB9006E5E004F0850A820A
:1024C800850B83E0F8A3E0F9E849602DE82402FAD7
:1024D800E439FBEA2402F50CE43BF50D780C1220F4
:1024E800268A828B83E0FCA3E0F9EEFAEFFB120F59
:1024F8005F7402121DB9E960B49006E5E0604D9082
:1025080006E6E0F89006E5E0C398500C7402650909
:10251800703A9006E7E060348E828F83A3A3A3A36A
:10252800E08518828519831225647402121DEFE86C
:102538001225649006E4E028F07402121E09AA1815
:10254800AB197901120B5D9006E5E4F0E508A2E00D
:1025580092AF7404121DB97F06021F2BF0A3E4F09A
:102568009006E5E0F82200008521878522C622C072
:10257800E074EB121F6BA2AFE433F508C2AF759B92
:1025880000906182E0A2E05030E591A2E0502A7507
:1025980091FE74016521702112270A121139122641
:1025A800F8122039122B2F7404121DB9E964017036
:1025B8000579011211931222EB906182E0A2E55095
:1025C8005DE591A2E550577591DF900387E06407B8
:1025D8006005E06408702F12270A74016521703EB7
:1025E8001211391226F8122039122B2F7404121DD9
:1025F800B9E96401700579011211937901EEFAEFD6
:10260800FB1224928018E0640D70139003A9E00473
:10261800F064287002E4F07A00E0F9121247906141
:1026280082E0A2E640030226CDE591A2E64003023D
:1026380026CD7591BF900387E064057008121121BB
:1026480012112D80031211277521001211B1E99082
:102658000388F07900121193120E277A017B0090FB
:102668000386E0F91216B5907803E064427056903C
:102678000777E014F0704EC2AF12268400782AD093
:10268800E0F618D0E0F6E59F5407F87005750DFFE1
:102698008003750D7FC4C0E07829E6F50A08E65581
:1026A8000DF50B740B780A121D81D0E0250AF890FD
:1026B8006270E0A2E740F8E8C333906272F090627B
:1026C80070E0D2E0F0906181E0A2E35009E5E9A270
:1026D800E3500375E9F7A3E0A2E75009E591A2E703
:1026E800500375917FE508A2E092AF7F08021FCAE8
:1026F8008E828F83E0F8A3E0C82416F582E438F5CB
:1027080083229003B5E0F875F00DA4C8AAF02AF961
:1027180074B728FE740339FF22C0E0C0D0C082C05D
:1027280083906183E0A2E05009E5BFA2E050037501
:10273800BFFEE0A2E15009E5BFA2E1500375BFFD6D
:10274800E0A2E25009E5BFA2E2500375BFFBE0A298
:10275800E35009E5BFA2E3500375BFF7E0A2E450D8
:1027680009E5BFA2E4500375BFEFE0A2E55009E513
:10277800BFA2E5500375BFDFE0A2E65009E5BFA29E
:10278800E6500375BFBFD083D082D0D0D0E032C02E
:10279800E074F2121F6BE5A7A2E4500FE5A1A2E4D2
:1027A800500953A7EF75A1EF1227EBE5A7A2E55053
:1027B8000CE5A1A2E5500653A7DF75A1DFE5A7A2A6
:1027C800E15009E5A1A2E1500375A1FDE5A7A2E248
:1027D800500CE5A1A2E2500653A7FB75A1FB7F01AF
:1027E800021FCA74F8121E7F752101900387E064E6
:1027F8000670077A007B00121109A2AFE433FED2FB
:10280800AF90038DE0640170187A207B00900386F6
:10281800E0F91217FF7A207B00900386E0F9121680
:10282800BB906182E0D2E6F0900774E0602185C633
:1028380022801690038CE064017008E5C654F844C1
:1028480005F5C653BEFC1225707401652160E4EEDF
:10285800A2E092AF7F01021F2B0000008E238F247D
:10286800858228858327851882851983E0CEA3E091
:10287800CF852882852783EBC9EAC8EDCBECCA75DA
:10288800F010C3E833C8E933C9EA33CAEB33CBC322
:10289800EA9EF526EB9FF525B35004AB25AA26EC56
:1028A80033CCED33CDD5F0DAAE23AF242274E91260
:1028B8001E7F74FA121DA3EAFEEBFF8C088D091225
:1028C800114BEAF8EBF9ECFAEDFB8E828F83121CC0
:1028D8009D900387E024F7C3940550067510010204
:1028E80029EC12107F8A0A8B0BEA450B7003022928
:1028F800E912113F8A0C8B0D12113FEA650C700327
:10290800EB650D60ECEEFCEFFDAA18AB1912114552
:10291800850A82850B83A3A3780C121C5B909028F0
:10292800780C121C228518828519837814121C5B76
:102938009090287814121C22780C7914121A485096
:102948001F780C7914121BE7908FB0780C121A6854
:102958004047850C10850D11850E12850F13804593
:10296800908FB08514108515118516128517137868
:1029780010790C121BE77810121A68501C75100099
:1029880075110075120075130178107914121BE780
:102998007810790C121BAE800C751001751100753A
:1029A800120075130074097810121B8F908FB47879
:1029B8000C121C5B7810790C121B07900387E064DB
:1029C80008600AE064066005E064057020908FB82E
:1029D8007810121A685016908FBC7810121BC1809C
:1029E8000C751000751100751200751300850882AA
:1029F8008509837810121C6A7406121DB97F1002AB
:102A08001F2B74F7121E7F12115D900772E064018C
:102A18007010906245E4F0A3F053F4F343FE0C53B6
:102A280090F31210F7E5C654B84441F5C6E59E5434
:102A380047644170F8906185740FF0900770E0F476
:102A48007002A3E0602C750801750900900770E01A
:102A58007808121D90E508F4FAA3E0600814600AEB
:102A680014600C800DEA52808008EA52908003EAD4
:102A780052A079007F02021F2B74F7121E7FE9FE15
:102A8800EAFF74016E700C7A807B00900386E0F98F
:102A98001216B5902ED8E493F46008E493F9120E58
:102AA80009800953C6B8E59E544770FA1210FD9084
:102AB8000772E064017003120E3F900770E0F47033
:102AC80002A3E0602B750801750900900770E07893
:102AD80008121D90E508FAA3E0600814600A146063
:102AE8000C800DEA42808008EA42908003EA42A006
:102AF80012107F8A088B09A808A909E8496016E519
:102B0800E170FCE82414F582E439F583E0F874FFF9
:102B180068600288E174016F700A7A01900386E0A8
:102B2800F912174B022A7C74F1121E7F8A088B094E
:102B38008C0A8D0B9090287808121C22740F121D95
:102B4800EF780C121C5B909028780C121C227808E5
:102B5800790C121A48908FB050107808790C121B13
:102B6800E77808121A684014800E780C7908121B4E
:102B7800E7780C121A6850047901800279007F08FE
:102B8800021F2B74ED121E7F8A088B098C0A8D0B8D
:102B98009090287808121C227413121DEF780C12DA
:102BA8001C5B909028780C121C22780C7908121A59
:102BB8004840117808790C121BE7AA08AB09AC0A3F
:102BC800AD0B802275100075110075120075130188
:102BD8007810790C121BE778107908121BAEAA102E
:102BE800AB11AC12AD137F0C021F2B909028780804
:102BF800121C5B8A828B837808121C357F04021FA3
:102C08002B74F5121E7F8C828D837808121C5B8AC8
:102C1800828B837808121BFB122C5DC3E098F0A30B
:102C2800E099122C4F401E90903C7808121C5B8A49
:102C3800828B837808121BD48E828F83E02420F045
:102C4800A3E0344EF080A4F08E828F83C3E09420FA
:102C5800A3E0944E22EA2404F8E43BF9E8FEE9FFF5
:102C68008C828D83A3A3A3A3E0F8A3E0F98E828FBF
:102C7800832274F5121E7FE9FE900700E0FAA3E0B4
:102C8800FBEE29F8E433F974DD28F582748E39F502
:102C980083E02AF508A3E03BF5097808122026907E
:102CA800902C121C791228647402121DB98A088BA0
:102CB800098C0A8D0B74107808121B76AA08AB09C8
:102CC8007F04021F2B74F1121E7F8A0C8B0D8C0E51
:102CD8008D0F7411121DEF12203D7411121DEFE0BB
:102CE8002401F508A3E03400F509E4F50AF50B78AA
:102CF8000C7908121A87908FC87808121C5B780C18
:102D08007908121A87AA0CAB0DAC0EAD0F12286405
:102D18007402121DB98B09EA450960047A01800220
:102D28007A00EC2AFCE43DFD7413121DEFE0F8A3D1
:102D3800E0F9E8FEE9FFECF8EDF97A717B02121D83
:102D48001888088909E4F50AF50B8E828F837808BC
:102D5800121C6AECF8EDF97A717B02121D188A08C8
:102D68008B0974057808121D908E828F83A3A3A304
:102D7800A3E508F0A3E509F07F08021F2BC082C075
:102D880083E9906000F0D083D08222C0E074F21210
:102D98001F6BA2AFE433FED2AFC2C0E5D1A2E450AC
:102DA8000675D10F121649751A00EEA2E092AF7F90
:102DB80001021FCAC0E074F2121F6BA2AFE433F520
:102DC80008D2AF7F007E01E5895E6008122E296077
:102DD80003121E110FEEC333FEEFC3940840E875CB
:102DE8008900C2C5E508A2E092AF7F01021FCAC0F0
:102DF800E074F2121F6BA2AFE433F508D2AF7F0084
:102E08007E01E58A5E6008122E296003121E110FEA
:102E1800EEC333FEEFC3940840E8758A00C2EB8026
:102E2800C3EFFA7B0075F003A4F8A9F0740528F540
:102E380082741B39F583E0F8A3E08882F583E58284
:102E4800458322C0E0C0D0E8C0E0A8A8D2AFC2C77E
:102E5800751A00E8A2E792AFD0E0F8D0D0D0E032FF
:102E6800C0E0C0D0E8C0E0E9C0E0EAC0E0EBC0E004
:102E7800C082C083A2AFE433F9D2AF900FD5E0F897
:102E8800A3E0687008539AFBA374018022C2E990FA
:102E98000FD5E0F8740128F0745528F582E4340F52
:102EA800F583E0F5C1900FD5E0C394804002E4F0CB
:102EB800E9A2E092AFD083D082D0E0FBD0E0FAD094
:102EC800E0F9D0E0F8D0D0D0E032C2AF0200002262
:102ED800FFFFFFFFFFFFFFFFC082C083E9901A07D3
:102EE800F0D083D08202013274F6121E13E99002E8
:102EF800F9F0900359E0F508750900740278081292
:102F08001D90AA08AB091217339002FA1238A39041
:102F180002FA123C90606F900359E075F003A4FA2E
:102F2800ABF01217339003171238A3900317123C13
:102F380090700B9002FA123C611217398048900386
:102F480017124BF57AFF7BFF1215A17A0080198AB8
:102F58000875090074027808121D9012469D74FFC6
:102F68001230A3E4F0A3F00A900359E0F8EAC398FA
:102F780040DD79051209BF9002F9E0F91208A57A37
:102F8800497B0A120C7D02474074F4121E138A080A
:102F98008B09EB548060479002F9E0F912169D8A7C
:102FA8000A8B0BAE0AAF0BEE4F602A8E828F83E03E
:102FB80064B0701A1209D1E960148E828F83A3A3BA
:102FC800A3A3E0F9EE2405FAE43FFB1209A1EEFA07
:102FD800EFFB12168BAA08E5096480FB80047A00CF
:102FE8007B000231F374F2121E1374FB121DA3EA64
:102FF800FEEBFFEE4F60457403121DEFEEF0A3EFFA
:10300800F0851882851983ECF0A3EDF07402121D87
:10301800EFE9F0AA18AB1912089FE9F50870757462
:1030280013121DEFE0F50AA3E0F50BE50A450B6066
:10303800638E828F8312362CEE4F700575080280DE
:10304800537A067B001217338A0C8B0DA80CA90D36
:10305800E8497005750813803B88828983E412303B
:10306800A3EEF0A3EF1231BFE50AF0A3E50BF09051
:1030780002FD1231B89002FD6017E0FCA3E0800366
:10308800EAFCEBFD8C828D831231B870F38C828D53
:10309800831242B8A9087405024E75F0A3124BD7E3
:1030A800A32274F2121E138908890C750D0074038B
:1030B800780C121D90850C0A850D0B9002FCF0907F
:1030C80002FA1240C31231B6602E12173979008005
:1030D8001D890C750D007402780C121D909002FA6F
:1030E80012455C8882F583A3A3E4F0A3F00990035A
:1030F80059E0F8E9C39840D9900359E0FA850AF0F5
:10310800A4CAA8F0850BF0A428FB1217338A0C8BED
:103118000DAE0CAF0DEE4F70030231AC900359E0C9
:10312800FC850AF0A4CCA8F0850BF0A428FD790052
:103138001216797C0080318D0C750D007403780CA3
:10314800121D908A828B831231B188828983E4F0C0
:103158001231BEA3A3F0A3F00DEDC3950840D8EE3D
:10316800250AFEEF350BFF0C900359E0F8ECC398E5
:1031780050288C0C750D007402780C121D9090026A
:10318800FA1231B1E82402500109FAE9FB8A828B6C
:1031980083EEF0A3EFF07D0080BFE5089002FCF01D
:1031A800790080027913024E78124560F922A3A3B0
:1031B800123C65EA4B22A3124BD7A3A3A32274F4B3
:1031C800121E137900EAA2E0501F75088E75098F48
:1031D800780812202679107C047D007A097B1A125F
:1031E80009B97402121DB9E9F980007F04021EE5CD
:1031F800C082C0839002FD123C90601C8882898343
:10320800A3A3E06A7003A3E06B8882898370E8A3B4
:10321800A3A3A3123C6180047A007B00022EE97408
:10322800F2121E1374FD121DA3EAFEEBFF8518822D
:10323800851983E4F0A3F07402121DEF7401F012F3
:103248003C8D7014120BB11217339003001238A37F
:10325800123C8D70030233B91239A3EE2404F50A27
:10326800E43FF50B850A82F583E024FE603C24FCEC
:10327800607424FE607E24FE700302330924FE700D
:103288000302331624FE700302332324FE70030264
:10329800333024FE700302333D24FC700302335E96
:1032A80024FE70030233760233B2120BB19003028C
:1032B800EAF0A3EB1233C5120485E960030233B2C6
:1032C80090030212203D8E828F83A3A3A3A3A3128F
:1032D8004BF5850882850983123C611209897402BD
:1032E800121DB90233B2AC18AD19EEFAEFFB120990
:1032F800D7023381AC18AD19EEFAEFFB1209DD8065
:1033080078AC18AD19EEFAEFFB1209E3806BAC1834
:10331800AD19EEFAEFFB1209E9805EAC18AD19EEB3
:10332800FAEFFB1209EF8051AC18AD19EEFAEFFB7A
:103338001209F580447402121DF9880C890D780C65
:103348001220267402121E09EEFAEFFB1209FB7412
:1033580002121DB98023AC18AD19EEFAEFFB120A60
:1033680001E9F870167402121DEFE4F0803CAC1805
:10337800AD19EEFAEFFB120A07E9F8E8602C8E8225
:103388008F83A3E064146022850A82850B83E09012
:103398000302F0851882851983123C619003031299
:1033A80038A3E8A31233C512047FEEFAEFFB120923
:1033B8005F7402121DEFE0F97403024E75F07C028F
:1033C8007D03850882850983123C652274E8121EF4
:1033D8001374FA121DA37404121DEFECF0A3EDF0A0
:1033E8008A128B13EA2405F50EE43513F50FEA2447
:1033F80002F510E43513F511851082F583123C614E
:103408001205C38A0A8B0B7508007C037D007900BE
:103418007A027B03121679E50E2402F516E4350FBD
:10342800F5177402121DF9880C890D780C122026E4
:10343800850E82850F83A3A3A3A3E0F50C750D0069
:10344800780C122026E50E2405F50CE4350FF50D51
:10345800780C122026851682851783123F68120879
:10346800BD7406121DB98A0C8B0DE50C450D700351
:103478000235F58020851882851983E08882898342
:10348800F00508851882851983A3E0C0E012363656
:10349800D0E0F00508E50A24FBFAE50B34FFFBC38E
:1034A800E5089AE49B40030235F57E007F0085120B
:1034B80082851383A3A3A3A3E0F509780912202A20
:1034C800E4F514F51578141220267514FF75150205
:1034D800781412202690030012203D7409121DEF63
:1034E80012203DE50A24F9F9AC0CAD0D8510828552
:1034F8001183123C61120A317409121DB9E9600383
:10350800023596850E82850F83A3A3A3A3A3A3A345
:10351800E0F89002FFE0687075E0F5148E157814F5
:10352800122026124BF2850E82850F83A3A3A3A334
:10353800A3A3A3A3123C611216737402121DB9E966
:10354800604C900303123C90703BE4F5147814121D
:1035580020267CFF7DFF7907851082851183123C28
:103568006112099B7402121DB9123C967017850EE0
:1035780082850F83124D8F7404121DEF124650126C
:103588003F99023629850C82850D8312362CA8189E
:10359800A9198814891578141220267404121DEFAD
:1035A80012203D8516828517831238991208C9742E
:1035B80004121DB98A0C8B0DEE4F7003023472127F
:1035C8003636EE123641123F4FEF123641F8A3E07D
:1035D8003400F9E50C450D600302347D8882898347
:1035E80074FFF0050812363674FFF00508E5086028
:1035F8001A1313543F1238A9120491E96009900371
:1036080003123C611216EB79008016850E82850F35
:1036180083124D8F7404121DEF1246501242B8796E
:103628000A023F22A3A3A3A3E0FEA3E0FF22A80867
:10363800900303E028123F4F22F005080890030387
:10364800E0282274E8121E1374FA121DA3740212E1
:103658001DEF1238A37404121DEFECF0A3EDF07403
:1036680002121DEFE02405123F38E0F50CA3E0F547
:103678000D7402121DEFE02402F510A3E03400F5EA
:1036880011851082F583123C611205C37508007517
:103698000900EA24FCFEEB34FFFF8008050CE50C6A
:1036A8007002050DA808C3EE98EF94005003023885
:1036B80055A818A919880E890F780E122026851486
:1036C80082851583A3A3A3A3124BF9122026E51420
:1036D8002405F50EE43515F50F780E12202685140D
:1036E800828515831238971208BD7406121DB98A8F
:1036F8000E8B0FEA450F7003023855EA2404F516BD
:10370800E4350FF517851682F583E0F50CA3E0F58F
:103718000D851882851983124BF58A828B83A3A3A2
:10372800A3E0F9851082851183123C611208ABE988
:10373800F50960030238557402121DEF123F5FF558
:1037480009780912202AE4F512F5137812122026B6
:103758007512FF75130278121220269003001220AA
:103768003D7407121DEF12203DEEF9AC0EAD0F852A
:103778001082851183123C61120A317409121DB935
:10378800E9F5096003023855E508703FE4F50EF5E0
:103798000F780E1220267CFF7DFF7909851082851F
:1037A8001183123C6112099B7402121DB9123F85E4
:1037B800700D7404121DEF12388C7911023889903B
:1037C80002FFE02402900303F08014900303E0FA60
:1037D8009002FFE0790024025001096A497072A83A
:1037E800089002FFE0FAE82AFAE43400FBEE9AEFC8
:1037F8009B405A851682851783E0C0E09003041227
:10380800363BD0E0F00508851682851783A3E0C013
:10381800E00890030412363BD0E0F005089002FF60
:10382800124BF9122026124BF2A808123F2C12163E
:10383800617402121DB99002FFE02508F50874FFB3
:10384800650C700474FF650D60030236A4E508601A
:103858001F900303E0F5F0E508841238A9120497D5
:10386800E96009900304123C611216EB790080119B
:10387800E509700375090A7404121DEF12388CA942
:1038880009023F221240C7E50CF0A3E50DF022A380
:10389800A3124E84AA0CAB0D22A3A3EAF0A3EBF06B
:1038A80022900302F07C027D038510828511831229
:1038B8003C652274EC121E1374FC121DA31243C83B
:1038C8007402121E09123C5B1208C38A0C8B0DEAA3
:1038D800450D70030239931239A3A818A919881045
:1038E800891178101220267CFF7DFF790B850882CC
:1038F800850983123C6112099B7402121DB9123AA0
:1039080099700C850A82850B83123F960239A08E26
:10391800828F83A3A3A3A3E0F512781212202AE4CE
:10392800F512F51378121220267512027513037812
:103938001212202678101220267409121DEF122068
:103948003D7409121DEFE0F9AC0CAD0D85088285B8
:103958000983123C61120A317409121DB9E9FE701B
:10396800157C027D03850882850983123C61120457
:103978009DE97009802074166E70027E0090030322
:10398800123C611216EBEE7004800B7E01850A82F0
:10399800850B831242B5EEF90242CAEE2402F508FD
:1039A800E43FF5092274EC121E1374FC121DA3EAFD
:1039B800FEEBFF8C0E8D0FEE2405F508E43FF509AC
:1039C8007402121E09850882850983123C61120857
:1039D800C38A0C8B0DEA450D7003023A89EE240266
:1039E800F50AE43FF50BA818A91988108911781071
:1039F8001220267CFF7DFF790D123C5B12099B7417
:103A080002121DB9123A99700B8508828509831232
:103A18003F96807A8E828F83A3A3A3A3E0F51278C2
:103A28001212202A850882850983A3A312203D75D6
:103A380012027513037812122026781012202674A9
:103A480009121DEF12203D7409121DEFE0F9123C16
:103A580057120A317409121DB9E9FE700F7C027DF4
:103A680003123C5B1204A3E97009802074166E707F
:103A7800027E00900303123C611216EBEE70048084
:103A88000B7E018508828509831242B5EEF9024250
:103A9800CA123CA0F510A3E0F511EA45112274E81A
:103AA800121E1374FE121DA38A168B178C148D1503
:103AB800EA2405F50CE43517F50DEA2402F50EE4C1
:103AC8003517F50F850E82F583123C611205C38AFE
:103AD800088B09750B007C037D0079007A027B0353
:103AE800121679750A00E50814F5100424FFF50884
:103AF800E50934FFF5098054900302E0FA9002FFCB
:103B0800E0F8EA28F8E43400F9E50898E50999505E
:103B18000D900302E0F8E510C3989002FFF0E0F57D
:103B2800127513007812122026124BF2900303E04C
:103B38002AFAA3E03400FB1216617402121DB99030
:103B480002FFE0F8900302E028F0050A850C828560
:103B58000D83A3A312456C4003023C3C900302E092
:103B6800C39508E495094003023C3CAE0AEE2EFEDC
:103B7800E433FF123C7BAC18AD19124C0DE439FB51
:103B88001208C38A128B13AC12AD13EC4D701B755F
:103B98000B01123C6B1242B99003031231B8600357
:103BA8001216EBA90B7402023F248516828517832F
:103BB800A3A3A3A3E0F50B780B12202AE4F512F5D2
:103BC8001378121220267512FF751302781212202C
:103BD8002690030012203D7407121DEF12203DA904
:103BE80010850E82850F83123C61120A3174091206
:103BF8001DB9E9F50B709B900303123C906003021A
:103C08003B00E4F512F51378121220267CFF7DFFA5
:103C1800790F850E82850F83123C6112099B74020D
:103C2800121DB9123C966003023B00123C6B123F16
:103C38009A023BAD7C027D03850E82850F83123C80
:103C4800611204A9E96003023BA07900023BADAC14
:103C58000CAD0D850A82850B83123C6522E0FAA320
:103C6800E0FB22123C7BE0FAA3E0F9EA85148285A6
:103C7800158322850C82850D83E02EF8A3E03FF999
:103C88008882898322900300124D93E84922123CCE
:103C9800A0F8A3E0F9E84922900303EAF0A3EBF0C7
:103CA800900303E02274E8121E1374FA121DA37421
:103CB80004121DEF1238A38C168D177404121DEF11
:103CC800E02405F50EA3E03400F50F7404121DEF8F
:103CD800E02402123F38123C611205C38A0A8B0B9A
:103CE8007F007E00A818A919880889097808122079
:103CF80026850E82850F83A3A3A3A3E0F5088E096A
:103D08007808122026E50E2405F508E4350FF50994
:103D18007808122026850E82850F83A3A3123F6898
:103D28001208BD7406121DB98A0C8B0D8029123F2A
:103D380059F00F123F59F00F9002FF1242A41220BF
:103D480026124BF2EFF8123F2C1216617402121D64
:103D5800B99002FFE02FFFE50C450D7003023DE826
:103D68008518828519831243DAA3A3A3E0F9851481
:103D780082851583123C611208ABE9FEE50C240428
:103D8800F510E4350DF511EE70507404121DEF12A4
:103D98003F5FF508780812202AE4F508F509780845
:103DA8001220267508FF750902780812202690034C
:103DB8000012203D7407121DEF12203DE50A24FA77
:103DC800F9AC0CAD0D851482851583123C61120A7D
:103DD800317409121DB9E9FE6039123F751242B8F3
:103DE800EF7003023F0F900303E0F5F0EF849003B8
:103DF80002F07C027D03851482851583123C6112D2
:103E080004AFE96009900304123C611216EB7900D3
:103E1800023F228F08EF703BE4F512F51378121277
:103E280020267CFF7DFF7911851482851583123C3D
:103E38006112099B7402121DB9123F857009123F65
:103E480075123F99023F229002FFE0240490030379
:103E5800F080359002FFE0F8900303E0FAE82404CC
:103E6800FCE43400FDEC6A4D6003023DEEE50A24F3
:103E7800FAFAE50B34FFFBE50828F8E43400F9EA20
:103E880098EB995003023DEE851082851183E0C0BE
:103E9800E0900304E02FF8A3E034008882F583D093
:103EA800E0F00F851082851183A3E0C0E0123F4641
:103EB800D0E0F00F7402121DF988088909780812F9
:103EC80020267402121DEF12203D850E82850F8375
:103ED8001238971208C97404121DB98A0C8B0DEA9E
:103EE800450D7003023D367402121DEFE0C0E0126A
:103EF8003F46D0E0F00F7402121DEFA3E0C0E012BD
:103F08003F46D0E0023D3EEE70027E0A850E828575
:103F18000F83123F7B1242B8EEF97406121DB97F67
:103F280010021EE5900304E028FAA3E03400FB2207
:103F3800F514A3E03400F515851482F58322123FA9
:103F48004A22900304E02FFAA3E034008A82F58322
:103F580022123F4A74FF221240C7A3A3A3A3E02260
:103F6800124E84850E82850F83123C65228510824D
:103F7800851183124D938516828517832290030439
:103F8800EAF0A3EBF0900304124D93E849221242A1
:103F9800BEE8F0A3E9F079112274EA121E1374FE48
:103FA800121DA38A088B098C128D13EA2405FEE4DE
:103FB8003509FFAC18AD198E828F83123C61120847
:103FC800C38A0C8B0DEE2406F50EE43FF50FEA4587
:103FD8000D7003024099E5082402F50AE43509F555
:103FE8000B8A828B83A3A3A3E0A2E55028851882BD
:103FF800851983123C61120A258A108B11EA451132
:1040080060207912123C57851082851183121E1187
:10401800E9F50C707F850E82850F83E0600979527F
:104028008011750C0E806D850882850983A3A3A372
:10403800A3E0F9E4F508F50978081220268E828FA6
:1040480083A3A3E0F50878081220268E828F83A325
:10405800A3A312203D8E828F83124BF5123C5B1274
:104068000A377406121DB9E9F50C7011850E8285A0
:104078000F83E0702D123C5B1204B5802574166521
:104088000C7011750C007418121DEF1240C3E480F7
:1040980010750C01124D8B851282851383E8F0A3ED
:1040A800E9F0850E82850F83E0600479008002A91B
:1040B8000C7402121DB97F0E021EE51240C722E0E1
:1040C800F8A3E0F58388822274EC121E1374F712A9
:1040D8001DA38A0A8B0B8C108D11EA2405FEE4358A
:1040E8000BFF750C00AC18AD198E828F83123C61E2
:1040F8001208C38A088B09EA4509700302428FE552
:104108000A2402F50A5002050B8A828B83A3A3A313
:10411800E0A2E5502F851882851983123C61120AA6
:10412800258A0C8B0DEA450D604F7912AC08AD0954
:10413800123C5B850C82850D83121E11E9F50C601B
:1041480003024292850A82850B83E0F508A3E0F515
:1041580009AA08FB120A19EA4B70197AFF7BFF12A9
:104168000A19EA4B70030242858A828B83E508F0BC
:10417800A3E509F07508008008750C0E0242920547
:10418800089002FCE0F8E508C398400302428585E0
:10419800080E750F007403780E121D908A828B83A7
:1041A800A3A3E0250EF8A3E0350F12465970D08E70
:1041B800828F831242AD1238A38E828F83A3A312FB
:1041C80042AD1238A1EE2404F508E43FF50985084C
:1041D80082F583E088828983A3A3A3A3F0A3E4F0F4
:1041E800EE2405F50EE43FF50F850E82F5831242A5
:1041F800ADA3A3A3A31238A17512077513007812F3
:10420800122026EEFCEFFD7404121E0112166174D2
:1042180002121DB9E4F5127812122026850882854B
:104228000983E0FC7D007917123C5B12099B74023C
:10423800121DB97407121DEF1238A37407121DEF6F
:10424800E0FA4B603D8508828509831242A412205A
:1042580026850E82850F83124BF5121661740212A1
:104268001DB97402121E09123C5B1204BBE96026D8
:104278007407121DEF123C611216EB8019750C09B8
:104288008008750C118003750C01124D8B85108206
:104298008511831242B8A90C74098028E0F50875C5
:1042A8000900780822123C6588828983221242BE5E
:1042B800E8F0A3E9F022E0F8A3E0F9850E82850F83
:1042C80083227404121DB97F0C021EE574EC121EC1
:1042D800131243C8751000EE2402F50CE43FF50DE7
:1042E800850C82F583123C61120A198A088B09EA47
:1042F800450970030243AC850A82850B83E064019B
:1043080060030243A1AC08AD09AA0AAB0B120A0D5F
:10431800E9606E85088285098312362EEE2406F53B
:104328000AE43FF50B8E828F83A3A312203D8E8271
:104338008F83A3A3A3A312203D850A82850B831232
:10434800203D79188E828F831243DA123C61120A5B
:10435800377406121DB9E9F8741668700B850A825D
:10436800850B83E4F0A38014E860128E828F831299
:104378003C61850E82850F83EAF0A3EBF0881080FC
:1043880018780E122026AC08AD09EEFAEFFB120AD7
:10439800137402121DB9E9F510AA08AB09120A1F15
:1043A800E510700E850C82850D83123C611204C1E4
:1043B8008009741665107003751000A9100242CFA9
:1043C800EAFEEBFF8C0E8D0FEE2405F50AE43FF5AF
:1043D8000B22124E84850C82850D832274EA121EEC
:1043E800137508007509007E007F00750A00EC242B
:1043F80002F510E43DF5118035EC65087003ED65B4
:1044080009600302449988828983A3A3E06A700340
:10441800A3E06B707C88828983A3A3A3A3124D8F2A
:10442800EE28FEEF39FFEA28FAEB39FB050A1245B8
:1044380069503A850A0C750D007403780C121D90AA
:1044480085108285118312455C124659601FE50864
:10445800450970A58C088D098882898312362C88B5
:10446800828983A3A3E02EFAA3E03F80BEE50AC3B6
:1044780094025003024557750800750900EE4F6015
:1044880010EEFAEFFB1216E58A0E8B0FEA450F7055
:10449800057900024559750B0002452C850B0C75F2
:1044A8000D007403780C121D90851082851183E02D
:1044B800250CF50CA3E0350DF50DE50C2406F514D7
:1044C800E4350DF515851482F58312465E6042E5E4
:1044D8000C2404F512E4350DF513851282F58312C8
:1044E800203DE50E2508FAE50F3509FB1216617423
:1044F80002121DB9851282851383E02508F508A3E9
:10450800E03509F509851482851583123C61121678
:10451800EBE50B600D7C087D007900AA0CAB0D1251
:104528001679050BE50BC3950A50030244A48510C0
:1045380082851183124D8F88828983A3A3A3A3A3A5
:10454800A3E50EF0A3E50F1231BFEEF0A3EFF0796B
:10455800010240BE12456022E0250CF8A3E0350DAB
:10456800229002FCE0F8E50AC3982274F0121E13A8
:104578008A0E8B0F8C0A8D0B750D00750C00805000
:104588007916EE2406F508E43FF5098E828F83A399
:10459800A312203D8E828F83A3A3A3A312203D855F
:1045A800088285098312203D850E82850F83A3A387
:1045B800123C61120A377406121DB9E9F50D74161A
:1045C800650D706C850882850983E4F0A3F0050CFD
:1045D8009002FCE0F8E50CC3985066AA0C8A0875AE
:1045E800090074037808121D90850A82850B83A33D
:1045F800A31246A8E8FEE9FF8E828F8312465E600A
:1046080040EA2401F508E43400F5099002FCE0656D
:10461800087002E509601488828983A3A3A3A3A371
:10462800A3A3A3123C906003024588791802458A27
:10463800E9609B124D8B7410121DEF124650124206
:10464800B8A90D7F08021EE5E0FAA3E0F5838A8287
:1046580022F988828983124E84EC4D2274F6121E48
:10466800137C0080010C900359E0F8ECC398501EAD
:104678008C0875090074027808121D9012469DE096
:104688006A7003A3E06B70DDE8FAE9FB80047A0046
:104698007B000247409002FA1246A888828983224A
:1046A800E02508F8A3E03509F92274F2121E138AEE
:1046B800088B09750A0080278E828F83A3A3A3A382
:1046C8001231B660031216EB7C087D007900EEFA11
:1046D800EFFB1216798E828F83E4F0A3F0050A129D
:1046E80045695027850A0C750D007403780C121D56
:1046F80090850882850983A3A3E0250CFEA3E035F5
:104708000DFF8E828F83123C9070AD8508828509DB
:104718008374FFF0A3F0024E7874F6121E13120988
:10472800CB8A828B83E582458370067A007B008082
:1047380007A3A3A3A3123C617F02021EE574F4122F
:104748001E1389088C828D83E06402703C124D2E02
:10475800FEA3E0F9EEF87402687003742969702901
:10476800750A02750B00780A1220267410121DEFC4
:1047780012203D7410121DEF12203DA9081215B326
:104788007406121DB9E9F9800279010231F374E85F
:10479800121E1374FB121DA3E9851882851983F074
:1047A8008A168B17ECFEEDFF7510008E828F83A39F
:1047B800A3A3E0A2E4502D741D121DEF123C611258
:1047C8000A258A828B83E58245837003024BCD7963
:1047D8000AEEFCEFFDAA16AB17121E11E9F51060E0
:1047E80003024BD0741F121DEFE0F508A3E0F50992
:1047F8007421121DEFE0F50AA3E0F50B7423121DD6
:10480800EFE0F50EA3E0F50F8E828F83E06402607F
:1048180003024B6EA3124D8F850882850983A385F9
:104828008212858313EE2406F50CE43FF50D888289
:104838008983124C0DF514E439F51578141220B05B
:10484800010000280128704807000228354903287C
:10485800A3480029644A01298F4A0229304A0329BA
:10486800644A0429084B6E4BE50E450F6003024B62
:1048780069850C82850D83124D8FE8FAE9FB8A82DF
:104888008B83E0850A82850B83124C181220268AB6
:10489800828B83A3E0FCA3E0024AF2E50E450F6099
:1048A80003024B69850A82850B837401F0124C025E
:1048B800850882850983F07C007D008E828F83A322
:1048C800A3A3A3E02401FAA3E03400FB1208C3EA7F
:1048D8004B60408A828B83E02402F8850A82850B2C
:1048E80083E028F0EA2404F8E43BF988828983E02D
:1048F800851282851383124C26124C181220268AA0
:10490800828B83A3124BF5E5082403FAE43509FBEF
:10491800024AF7850A82850B83E02404F07C047D33
:10492800007900AA12AB13121679024BD0E50E4596
:104938000F6003024B69124C02FEA3E0FF850A8256
:10494800850B837404F0EE850882850983F0EF8572
:104958001282851383F07403121E09EEFAEFFB121C
:1049680008C38A0C8B0DEA450D7003024A138A822C
:104978008B83A3A312362C7401121DF9880E890F9C
:10498800780E1220267405121DEF12203D7CFF7D43
:10499800FF1208C97404121DB98B0FEA450F703352
:1049A800850C82850D83124BF9122026850C828591
:1049B8000D83A312203D7C027D007A7A7B9012053C
:1049C800B17404121DB9E9700A7401121DEF74FF65
:1049D800F0A3F08E828F83E064027039750C027543
:1049E8000D00780C1220268E828F83A3124BF5E5DA
:1049F800082404FAE43509FB1216617402121DB981
:104A0800850A82850B83E0240280097401121DEF58
:104A1800EEF0A3EFF07401121DEF124BE7740112D0
:104A28001DEF124BDE024B63E50E450F6003024B90
:104A380069850C82850D83124E7DAA16AB17121557
:104A4800B9850A82850B837402F0850882850983FB
:104A5800EAF0851282851383EB024B66E50E450F5B
:104A68006003024B69124C02F8A3E0F9850A8285BB
:104A78000B837402F0E8850882850983F0E98512C2
:104A880082851383024B66850C82850D83123C61F7
:104A980012165BEAFAF8C3950EE4950F405CE865D8
:104AA8000E450F70047A008021851882851983E0ED
:104AB800FCE50E2CFCE4350FFDC3EC98ED9400509A
:104AC80003E08005E50ECAC39AFAEA850A82850BD7
:104AD80083F08A0A750B00780A122026850C8285D5
:104AE8000D83E0250EFCA3E0350FFDAA08AB0912E3
:104AF80016617402121DB9024BD0751007024BD013
:104B0800E50E450F705B850C82850D83124D8F85F0
:104B18000A82850B837407F088828983124BDF121F
:104B28004BD7E0851282851383F0E82402FAE43932
:104B3800FB8A828B83124BE78A828B83124BDEA31C
:104B4800A31231BE124BECF0E82405F85001098895
:104B5800828983124BECA3124C26A3A3A3A3F08053
:104B68006775100B8062741D121DEF123C611209EB
:104B7800CB8A828B83E5824583604A124D8F880CED
:104B8800890DE8450D603E7425121DEFE0F510789B
:104B98001012202A780E122026780A122026780869
:104BA8001220267407121DEFE0F9EEFCEFFDAA169D
:104BB800AB17850C82850D83121E117407121DB95F
:104BC800E9F510800375100EA9107405023F24F052
:104BD80088828983A322A3E085088285098322121B
:104BE8004C2DF022124C2DA3A322900300124E84C8
:104BF80022E0F50E750F00780E22850C82850D8354
:104C08001240C7E022E0FAA3E0F8E4C8F9EA282253
:104C1800F08A828B83E0F50A750B00780A22124B22
:104C2800D7124C2D22E0850882850983A3A322741C
:104C3800EE121E1374FE121DA38A088B09ECFEEDFA
:104C4800FF890AAC18AD19EEFAEFFB1208C38A0CFB
:104C58008B0DEA450D7003024D1F85188285198357
:104C6800123C611209CB8A828B83E58245837003EB
:104C7800024D1AA3A3124D8F880E890FE8450F70B5
:104C880003024D1A7414121DEFE0F510A3E0F5119C
:104C9800E50AF50B780B12202A7419121DEF122061
:104CA8003D7810122026741B121DEFE0F9AC0CADF4
:104CB8000DAA08AB09850E82850F83121E11740593
:104CC800121DB9E9F50B705274FE650A604C850C2B
:104CD80082850D83E064027041124D2EFAA3E0F93B
:104CE800EAF87402687003742969702E8510828549
:104CF8001183124C0DF50CE439F50D780C122026B1
:104D0800EEFCEFFDAA08AB09120A4F7402121DB996
:104D18008008750B0E8003750B01A90B7402121D18
:104D2800B97F0A021EE5A3124D9388828983E02287
:104D380074F6121E1374FE121DA3740C121DEF12CA
:104D48004D8FE8851882851983F07401121DEFE9EB
:104D5800F0E4F508F50978081220267508027808A5
:104D68001220267404121DF988088909780812206F
:104D78002679FE120A377406121DB97402121DB97B
:104D88000247408E828F83124D9322E0F8A3E0F908
:104D98002274F7121E13EAFEEBFF8908900317121C
:104DA8004BF51215B9EA5402600BA908EEFAEFFBAD
:104DB8001208B7800279017F01021EE574F2121E03
:104DC8001374FE121DA3EAFEEBFF890A7401650A3B
:104DD80060147402650A6003024E737901120C9B19
:104DE800E96003024E73EEFAEFFB120A19EA4B6010
:104DF80003120A1FA818A919880889097808122017
:104E0800267508027509007808122026750870753D
:104E1800099078081220267CFF7DFF7A017B00121A
:104E280008BD7406121DB98038850882850983A3D8
:104E3800A3A3A3A3A3124E7DEEFAEFFB1215A1E4E0
:104E4800F50CF50D780C1220267402121DEF1220B5
:104E58003D7CFF7DFFAA08AB091208C97404121D26
:104E6800B98A088B09E508450970BE7402121DB994
:104E78007F06021EE51240C7124E8422E0FCA3E022
:104E8800FD2274F4121E138A088B09ECFEEDFF90C4
:104E98001A07E0F4604B7A097B00121685EA4B602A
:104EA800408A828B8374B1F0A3E4124EECF08A82BC
:104EB8008B83A3A3E508F0A3E509124EECA3EEF05B
:104EC800A3EFF0740C121DEF124D8F8A828B83A30F
:104ED800A3A3A3A3A3A31242B8901A07E0F912163A
:104EE800910231F3F08A828B83A3A3A3A32274F4E3
:104EF800121E13E9900386F0121157907800E0C44F
:104F0800540F540764037004793F8002797F750851
:104F18000675090078081220267C747D037AEA7BDE
:104F2800071215FB7402121DB9900374E0F470495E
:104F3800A3E0F47044A3E0F4703FA3E0F4703AA354
:104F4800E0F47035A3E0F4703090780EE0900374CC
:104F5800F090780FE0900375F0907810E090037669
:104F6800F0907811E0900377F0907812E090037851
:104F7800F0907813E0900379F090037A1250DD12E4
:104F88006D349003A47406F0A3740D125AAD7442E4
:104F9800F0A37401F09006ED1250DD9006ECE4F0F9
:104FA8009006FAF0A374A0125AAD7403F0A3740724
:104FB800125AAD7428125AAD04F0A3E4F0900723F6
:104FC800F09007491250DD900748E4F090074F042D
:104FD800125AAD1250CBE4F0A304F0A3125AAD124A
:104FE8005AABF09007601250DD90075FE4F090072D
:104FF8006604F0A3E41250CB125AABF0A37405F088
:1050080090077074FFF0A3E4F0900772F0900774B3
:1050180004F09007757490F0A37401F0120E391221
:105028000CE31210F179017A777B07120F89900748
:1050380077E075F01484E5F004F0790C7A987B0732
:10504800120F89120FAD7A00900386E0F912174B00
:10505800907803E064427056900777E014F0704E41
:10506800C2AF12506D00782AD0E0F618D0E0F6E50D
:105078009F5407F870057509FF800375097FC4C040
:10508800E07829E6F50808E65509F509740B78086B
:10509800121D81D0E02508F8906270E0A2E740F880
:1050A800E8C333906272F0906270E0D2E0F090034F
:1050B800B1E4F0A3F07A80FB900386E0F91216B50C
:1050C8000256841250D41250D4F0A322F0A3748054
:1050D800F0A37402221250E4F0A3F02274FFF0A3AC
:1050E800F0A3F0A3F0A32274F4121E13EAFEEBFF60
:1050F800EEA2E05040900388E0C39480E0500F2572
:10510800E0F8E433F9742B28F582741A800EF4253C
:10511800E0F8E433F9743928F582741A39F5831202
:1051280061AC121E117A00900386E0F912174BEE5B
:10513800640102537C5408605690076E1253C3757D
:105148000800780812202A12539C121D8178081230
:1051580020261253953BF58312203D1253AD1220A1
:1051680026125388122026EA240CF582EB126EA22E
:10517800FD7C008A828B83A3A3A3A3E0FA7B00793A
:1051880000120B277409121DB9EE640802537CEE55
:1051980054106037750800780812202AE4F5097859
:1051A8000812202678081220267808122026780867
:1051B8001220267D007C007A007B007902120B27E2
:1051C8007409121DB9EE641002537CEE5402603764
:1051D800750800780812202AE4F5097808122026B4
:1051E8007808122026780812202678081220267DB2
:1051F800007C017A007B00793C120B277409121D90
:10520800B9EE640202537CEE5404605E9003B5125A
:1052180053C3EA242A1256EBF508780812202A12FA
:10522800539C121D817808122026EA2420F582E476
:105238003BF58312203D1253AD12202612538812DB
:105248002026EA240CF582EB126EA2FD7C018A82EC
:105258008B83A3A3A3A3E0FA7B007900120B277426
:1052680009121DB9EE640402537CEE544060377590
:105278000800780812202AE4F50978081220267810
:1052880008122026780812202678081220267D0089
:105298007C017A007B00793B120B277409121DB937
:1052A800EE644002537CEE54806030900775125AC9
:1052B800A549602179001217459007751261B478E5
:1052C800081220227A007B01900386E0F91217F376
:1052D8007404121DB9EE648002537CEF5401600D12
:1052E8007901121745EEFAEF640102537EEF54027A
:1052F800600AC2AF75C9AB75C95B80FEEF54046024
:105308000A122ED2EEFAEF6404806B90038DE064EB
:10531800017066EE54206061900387E014601514F4
:10532800601214600F14600C14601524FE602714BA
:105338006024803D7900120D377901120D378031D4
:10534800900757E0FA7900120D49900757E0FA796B
:1053580001120D49801B793F9003B5E0FA75F00DF5
:10536800A4CAA8F028FB74B72AFA74033BFB120FEF
:1053780035EE6420FAEFFB80047A007B0002568445
:10538800EA2406F508EB3401F509780822EA243006
:10539800F582E422EA2432F582E43BF58312672E93
:1053A8007404780822EA242E1256EBF508A3E0C309
:1053B80013F509E50813F508780822E0F875F00DEB
:1053C800A4C8AAF01253D0222AF974B728FA740391
:1053D80039FB2274F6121E13EA540F600478018018
:1053E800027800E8F98A088B0974047808121D818C
:1053F800E50829F50875090074047808121D90E578
:10540800082408FAE43509FB1216E58A088B09A86E
:1054180008A909E8496009E82404FAE439FB80048A
:105428007A007B00025D0774F6121E13EA2405FA5F
:1054380050010B1216E58A088B09A808A909E84942
:105448006009E82405FAE439FB80047A007B00024D
:105458005D07C082C083C2AF121127E5E170FC75F9
:10546800E101120E0F75E1F112116F120E037907A7
:10547800121217790112121D79021211991211CF05
:105488001211FF7900121211790112121190904431
:10549800121C791211819006FAE4F0A3F0A3F0909F
:1054A80006FE7407F09006FD7403F0900703E4F01D
:1054B800900702F0900723F0900750F0900767F0EC
:1054C800120F17121055120F41790012122390066D
:1054D800DE1250E4741FF0906012E4F0A3F09060C4
:1054E80063F0752100900387F09006E3F09006E4DE
:1054F800740CF09006E5E4F09006E604F09006E7F8
:10550800E4F09006E804F09006E9E4F0900389F0EE
:10551800A3F090038CF090038D04F09003A3740320
:10552800F0900773E4F0D2AFF902682FC082C0830D
:105538009003741256C2125FB48A828B83A3125FDF
:10554800AE8A828B83A3A3125FA88A828B83A3A3CC
:10555800A3125FA28A828B83A3A3A3A3F0900379EB
:105568001256C2A3A3A3A3A302682CC082C0838A35
:10557800828B83E090037A1255A9E090037B125541
:10558800A9A3E090037C1255A9A3A3E090037D1280
:1055980055B0E090037E1255B0A3E090037F0268F7
:1055A8002CF08A828B83A322F08A828B83A3A3A305
:1055B800A322C082C083120E45E9F970051211CFEB
:1055C800790002682F74F7121E13EAFEEBFF8908B0
:1055D800120E45E9F9702CE508600A740165086047
:1055E8000A7912801E7C00790080047C007901EE23
:1055F800FAEFFB1211D5E9F8740368700479078093
:10560800027900025E7C74F6121E13EA4B600EECFF
:105618004D600A740A121DEF126D2370047912800E
:105628000F7808122026120FA17402121DB97900F2
:10563800025D0774F4121E13EAFEEBFF890890035B
:1056480087E064096014E0640A600FE0640B600A94
:10565800E0640C6005E0640D7004790C801E121083
:105668007F8B0BEA450B700BA908EEFAEFFB120FC4
:10567800898009900389E04440F0790D7F04021E77
:10568800E574F6121E13EAFEEBFF8909EE4F60037C
:10569800E9700479128016750800120F831256B843
:1056A800E9F00508E508C3950940EF7900025D07B0
:1056B800A808EE126B7D3FF58322E08A828B832255
:1056C800C082C083E9F8740168700B900773740195
:1056D800F0790002682FE87006900773E480F1798A
:1056E8001280F0F582E43BF583E02274F6121E1373
:1056F800EAFEEBFF8C088D09900387E0640C7005C7
:1057080090618E8014120D67E9F9702F126BB874CE
:105718001F2EF58274043FF583E0F8748068700AE0
:10572800850882850983747F800E90038BE0F9E8F1
:10573800C399850882850983F07900025D0774F7AB
:10574800121E13EAFEEBFF890874056508602874C9
:10575800136508602274146508601C741565086078
:1057680016741A6508601074296508600A743B6528
:105778000860047912803D120D67E9F970361262EB
:1057880081241DF8E43BF9EA24F7FCE43BFDEA2414
:10579800691257BF7016EA246A1256EB6402700445
:1057A800793A80101257C5120EFF80061257C5129B
:1057B8000EF37900025E7C1256EB6401228C828D16
:1057C80083E508125CC8E4F0A3F079022274E812B9
:1057D8001E1374FF121DA3E9851882851983F08AA8
:1057E800088B098C0A8D0BEC450B6016E0C3941CE2
:1057F80050107419121DEFE0F50C600B7401650C64
:1058080060057912025A9B120D67E9F96003025A82
:105818009BA808E875F00DA4C8AAF02AFA75F00D3F
:10582800E509A42AF974B728FE740339FF9006E441
:10583800E070057907025A9BE50A24FEF50AE50B94
:1058480034FFF50B851882851983E0850A82850B5C
:1058580083F0E50C7004740280027401A3F0E50A79
:1058680024FEFCE50B34FFFDEE2463FAE43FFB1253
:105878000F65A9A8C2AF9006E4E014F0E9A2E7E436
:1058880033F8E9A2E792AF900387E064086008E084
:1058980064076003025A999003B5E06508450960FA
:1058A80003025A997900EEFAEFFB1224929061D024
:1058B800E07003025A999006E8E064016003025A16
:1058C80099EE241DF582E43FF583125AA549700329
:1058D800025A99A2AFE433851882851983F0C2AFC2
:1058E80012113F8A088B0912113FEA65087003EB11
:1058F80065097003025A8D12107F8A148B151211D4
:10590800398A0C8B0D8C0E8D0FE5142402F516E4E4
:105918003515F5178A088B098C0A8D0B908FFC7842
:1059280008121BC178081220228516828517831257
:105938001C79122B2F7404121DB9E964016003024B
:105948005A8DEE242EF508E43FF509850882F58383
:10595800E024061269E7780C7910121BAE780C1255
:105968002022851682851783121C79122B2F740426
:10597800121DB9E964016003025A8DE5142408F583
:105988000AE43515F50B850A82F583122039AA0C2D
:10599800AB0DAC0EAD0F122B8B7404121DB985081C
:1059A8008285098312203D1228647402121DB98A67
:1059B8000C8B0D8C0E8D0F7410780C121B768D11BC
:1059C8008E828F83A3A3A3A3A3A3A3A3A3125C85FF
:1059D8008E828F83A3A3A3A3A312679BE82CF8E965
:1059E8003511F98E828F83A3A3A3A3A3A3A3126760
:1059F8009B850882850983E0F50CA3E0F50DE48515
:105A08000A82850B838C088D09F50AF50B780879CD
:105A18000C121A877808121BC19090287808121C5B
:105A2800228516828517837808121C6A7808790CF3
:105A3800121BAE9090247808121BC1909028780809
:105A4800121C22E51424161269CB7808121C6A85E8
:105A58001482851583A3A3A3A3A3A3E4F0A3F0EE64
:105A68002435F582E43FF583E0C0E0EE2434F58286
:105A7800E43FF583D0E0F0EEFAEFFB122207AA1418
:105A8800AB15121061851882851983E0F8A2E0929F
:105A9800AF79007401121DB97F10021EE51261CEA4
:105AA800F9E8227425F0A3E4F0A32274EE121E1381
:105AB800EAFEEBFF89087413121DEFE0F509741470
:105AC800121DEF125C85E508604B740165086015CE
:105AD8007403650860297402650860237404650806
:105AE8006003025B6FE849607EE509600674016542
:105AF80009707474036508600674026508702AEEFC
:105B08002460FAEF125C7A505EEC2460FAED125CC5
:105B18007A40168052EE24E0FAEF125C6F5048EC9F
