:020000040000FA
:0600000002011A0227951F
:03002B00022F564B
:03003B00022F761B
:03004300022E0783
:0300530002280B75
:03006B00022E3032
:03007B00022EC38F
:100083000225EBE5C754F84401F5C77901220000C6
:100093000080FB120086B90003020104E479217891
:1000A30008B800028004F709D8FCE479297802B87B
:1000B30000028004F709D8FCE4900281787379196F
:1000C3008002F0A3D8FCD9FA781A90014A7A01BACF
:1000D30000028007E493A3F608DAF97AF37B1A9017
:1000E300014B78BB79038015E493A3AD82AE838A79
:1000F300828B83F0A3AA82AB838D828E83D8E9D9C6
:10010300E77582537583CA740512012C7582917544
:100113008300740012012C75D00075813F7518811E
:10012300751902759F00020096C09FF59FE473D076
:100133009F22D083D082C09FE493C0E0740193C018
:10014300E0740293F59F2201C705D3050906030650
:10015300FF0000B4000028002800283075A000A08C
:1001630000A000A00000080008E001F0001000104B
:10017300001000100010001000500050005000103C
:10018300001000D0070000000000000F0001000570
:1001930000307507001000010081FF00000000FF20
:1001A300FFFF470765074D078907FF0202020802A1
:1001B3005000A0000000E80302689001000057907F
:1001C300026290010000561B024E8F010000F402F0
:1001D300026290010000571B025A900100000A03BB
:1001E300026290010000581B0298900100000C036A
:1001F300026290010000591B025C900800000D038D
:100203000262900100005A1B0260900100005B1B18
:10021300FFFF0100FF20026890010000519002627D
:1002230090010000C01B0278900000000000025EF5
:10023300900300003D031700E70FE70FE70FE70FF9
:10024300E70FE70FE70FE70FE70FE70FE70FE70FFB
:10025300E70F4B12691245128F13A1138913020280
:1002630002020202020202010D00000010010268F4
:10027300900100004E90026290010000091C028A66
:10028300900100008C0D0262900100000A1C02889C
:1002930090010000318F0262900100000B1C028666
:1002A30090010000F98E0262900100000C1C028490
:1002B30090010000A58E0262900100000D1C0282D5
:1002C30090010000938E0262900100000E1C0280D8
:1002D30090010000B78E0262900100000F1C027EA5
:1002E30090010000818E026290010000101C027CCC
:1002F30090010000238F026290010000111C027A1A
:1003030090010000121C01E803057710020A0AB1EC
:1003130015000000010000020000030000040000BB
:100323000500000600000700001000001100001285
:100333000000130000140000150000160000170051
:100343000000000001000200030004000500060095
:10035300070010001100120013001400150016000E
:1003630017FFFF0001F717FD170000031800000B2C
:1003730004013075030201060000000000000000C4
:10038300000000000000000000000000000000006A
:1003930000000000FFFF0600800CE8030A536572AB
:1003A30076657220546F20436C69656E740000108B
:1003B300436C69656E7420546F2053657276657261
:1003C3000000026890010000549002629001000056
:1003D300471D029690030000C51A026E90010000AB
:1003E300481D0262900100005A1D02909000000017
:1003F300DB1A025E90030000F11A026E9001000006
:100403005B1D12013555B9051201355CB9051201A1
:100413003588B905120135A3B905120135C5B905EA
:1004230012013502BB051201351DBB05120135084A
:10043300B7051201351BB7051201353CB70512018B
:1004430035A7B705120135E8B70512013509B80517
:100453001201354AB805120135E2B8051201352AF1
:10046300B905120135B4A205120135C7A20512015F
:1004730035F8A20512013532A3051201358BA30508
:10048300120135D2A3051201351AA405120135490B
:10049300A40512013578A405120135AFA405120194
:1004A30035F6A4051201350FA50512013564A5051E
:1004B3001201357DA505120135CBA50512013505C0
:1004C300A605120135CDDF03120135D0E003120179
:1004D30035FDE0031201354EE10312013571E103ED
:1004E30012013583E10312013586E103120135C49C
:1004F300E10312013538E203120135A4E2031201CC
:10050300356CE30312013588E303120135BFE303BE
:10051300120135F9E30312013590E403120135E2C8
:10052300E40312013513E50312013544E503120117
:100533003551E503120135BBE503120135BEE50371
:10054300120135CBE503120135CEE5031201352542
:10055300E60312013528E60312013561E6031201B1
:100563003564E60312013598E6031201359BE60371
:10057300120135EFE60312013538E703120135485E
:10058300E7031201357BE70312013588E703120104
:10059300358BE703120135F3E703120135F5E80361
:1005A30012013599E90312013502EA0312013540BC
:1005B300EA03120135B28904120135AA8A04120131
:1005C30035DE8A04120135748B04120135BF8B04A6
:1005D300120135238C04120135AD8C0412013566EA
:1005E3008D0412013588900412013505920412011D
:1005F30035289204120135B0920512013555940540
:10060300120135759405120135969505120135E9E8
:100613009505120135F696051201351E970512014F
:10062300354B9705120135839705120135E197057F
:100633001201352D9805120135949805120135D410
:1006430098051201351199051201353F99051201DB
:1006530035E99905120135F39905120135009A051B
:10066300120135339A051201353F9A0512013557A8
:100673009A05120135619A05120135DDC70512018C
:1006830035EBC70512013503C8051201351BC80533
:1006930012013532C8051201359492031201353E19
:1006A3009303120135519403120135CD94031201C2
:1006B30035EB9503120135279603120135C29603D4
:1006C300120135A69703120135699803120135E12A
:1006D30098031201356F9A03120135E09A03120150
:1006E300359A9B031201358C9C03120135CC9C0374
:1006F300120135809D03120135B29D03120135A805
:100703009F03120135EF9F031201350DA003120160
:100713003573A00312013542A10312013506A2036A
:1007230012013525A4031201352FA4031201353A12
:10073300BC0412013524BD04120135CFBD041201DE
:100743003520BE04120135D0BE0412013541BF0469
:1007530012013526C0041201355AC0041201355363
:10076300C10412013590C1041201356CC204120197
:1007730035ABC204120135C7C2041201356ABB0589
:10078300120135EEBB0512013519BC0512013533D3
:10079300BD05120135EF9A05120135059B051201BE
:1007A30035239B05120135349C051201353E9C050A
:1007B300120135699D05120135609E05120135CD83
:1007C3009E05120135D79E051201354BD004120147
:1007D3003581D104120135FBD1041201352BD2042A
:1007E3001201353ED20412013595D204120135AA05
:1007F300D40412013568B30212013519B40212018F
:100803003535B402120135FEB40212013518B502B2
:1008130012013523B502120135F9B502120135D69D
:10082300B60212013566B7021201351DB802120174
:10083300352BBB021201351ABD02120135CCBD02A4
:1008430012013595BE02120135DAC1021201358457
:10085300C202120135ADC30212013569C50212018C
:100863003509C60212013557C60212013596C60272
:1008730012013569C7021201359DC7021201352ADB
:10088300C8021201350080031201358C8003120166
:1008930035F08103120135FC8103120135378203E0
:1008A300120135A68203120135AF8303120135B855
:1008B30084031201357F8503120135DC860312019F
:1008C30035FA8603120135178703120135C48703EE
:1008D300120135418803120135698803120135334A
:1008E3008B03120135388B03120135518D0312012D
:1008F300359F8D031201350F8E031201354D8E0383
:10090300120135298F03120135E98F0312013535A1
:1009130090031201353890031201357C90031201C4
:1009230035C4900312013503910312013525910358
:10093300120135599103120135BC9103120135DDC2
:10094300F704120135E6F704120135F4F704120136
:100953003547F80412013566F804120135ABF80483
:10096300120135EFF9041201358AFA04120135CE6A
:10097300FA04120135F8FA0412013567FB04120177
:1009830035ADFB0412013524FC04120135D5FC04FA
:10099300120135AAB201120135BAB2011201355B57
:1009A300B301120135B7B30112013574B401120159
:1009B3003590B501120135C2B501120135F1B5010A
:1009C3001201359EB70112013515BA0112013585A1
:1009D300BC0112013577BD0112013570BE01120150
:1009E3003577C0011201356BC3011201359AC40179
:1009F3001201359EC601120135AEC7011201353D04
:100A0300C9011201352ECA011201357CCA01120136
:100A130035EBCA011201350FCB0112013560CB0151
:100A230012013501D00112013502D10112013563E2
:100A3300D1011201358ED10112013554D2011201B7
:100A43003502E8041201350CE80412013551E804BB
:100A530012013565E804120135F5E8041201352E5B
:100A6300E90412013569E90412013592E90412011E
:100A730035E0E904120135F5E9041201350AEA0407
:100A83001201351FEA0412013562EA0412013577B7
:100A9300EA04120135E2EA04120135F6EA0412010E
:100AA300350AEB041201351FEB0412013559EB042F
:100AB3001201357DEB04120135A9EB04120135E077
:100AC300EB0412013542EC04120135B4EC041201BB
:100AD30035DFEC0412013522ED041201354CED042F
:100AE30012013577ED04120135C9C605120135C16E
:100AF300B103120135A4B2031201351FB30312016E
:100B0300355AB303120135ABB40312013534B503BF
:100B13001201354CB703120135DEB90312013590CA
:100B2300BA031201359CBB031201350FBD03120139
:100B33003568BD031201359FED04120135E2ED0462
:100B430012013566EE0412013539EF041201351036
:100B5300F20412013553AF0512013500B00512013D
:100B6300350DB1051201354CB105120135A6B1059C
:100B730012013562BD05120135C5BD05120135628D
:100B8300BE0512013597BE05120135C7BE05120118
:100B930035E8BE0512013523BF0512013543BF05F4
:100BA300120135CF84051201355B85051201351A13
:100BB30086051201353287051201354C890512016C
:100BC3003511BE0312013536BE0312013503BF03CF
:100BD300120135D7BF0312013544C0031201359A00
:100BE300C00312013536C1031201356AC203120173
:100BF3003545C303120135A4C30312013530C403C1
:100C03001201359EC4031201352AC5031201352D85
:100C1300C50312013577C503120135E9C503120176
:100C2300357BC6031201351CC7031201353CC703CC
:100C330012013584C703120135CDC703120135E90B
:100C4300C7031201350FC80312013589C803120106
:100C53003597C80312013526C9031201358FC9031D
:100C63001201351A8E051201359F8E05120135E1E9
:100C73008E05120135C58F0512013532900512011B
:100C830035769005120135BA9005120135E79005C6
:100C93001201350F91051201354791051201358572
:100CA3009105120135AC9105120135269205120109
:100CB30035709205120135C0D201120135B9D40144
:100CC300120135A5D701120135F9D70112013524D7
:100CD300D801120135FED8011201353DD9011201A7
:100CE3003584D90112013597D901120135D8D901BB
:100CF30012013505DA0112013553DA011201359279
:100D0300DA01120135BDDA0112013510DB011201DE
:100D1300359FDB011201357DDE0112013598E001BB
:100D2300120135D6E0011201354BE2011201359073
:100D3300E20112013584E3011201359DE50112013F
:100D430035FFE50112013550E6011201356BEB0168
:100D5300120135BAEB0112013500EC01120135E83D
:100D6300ED01120135B6EF01120135BBEF0112019E
:100D73003595F001120135C0F00112013535F1014D
:100D830012013566F10112013596F201120135A8FF
:100D9300F201120135ADAC051201351FAD0512018B
:100DA3003575AD05120135B9AD05120135D9AD055E
:100DB30012013526AE051201356EAE05120135C19D
:100DC300AE0512013512AF05120135008004120180
:100DD300357F80041201357886041201357E87043D
:100DE300120135F18804120135888904120135EFA7
:100DF3006200120135386300120135656300120188
:100E030035976300120135A36300120135AF630008
:100E1300120135C66300120135A16400120135FFCA
:100E23006400120135346500120135656600120154
:100E330035B26600120135F86600120135646700A9
:100E4300120135086800120135BE68001201351D14
:100E530069001201358E6900120135EC6900120137
:100E6300351E6B00120135866C00120135506D0082
:100E73001201355D6D001201359F6D00120135AF12
:100E83006D00120135D36D00120135D66D001201CC
:100E930035C26E001201355E6F00120135F76F0027
:100EA3001201358E7000120135BB70001201351925
:100EB3007100120135607100120135B07100120129
:100EC300350072001201357272001201350D730084
:100ED300120135B87300120135577400120135D56C
:100EE30074001201351C7500120135807500120162
:100EF30035AF75001201354676001201355878007A
:100F03001201359C7800120135E778001201356D26
:100F13007900120135F77900120135107B001201B7
:100F230035967B00120135BB7B00120135127C0024
:100F3300120135277C001201356F7C00120135E266
:100F43007C00120135277D00120135307E0012012D
:100F530035E17E001201353F7F001201359B7F0092
:100F6300120135B47F001201354B93041201359FF2
:100F73009304120135AB93041201357594041201E5
:100F830035A29404120135D094041201353C950422
:100F9300120135729504120135A29504120135DB55
:100FA3009504120135F39504120135489604120194
:100FB30035619604120135A69604120135B99604DB
:100FC300120135D39604120135E99604120135074F
:100FD30098041201353299041201351C9A04120146
:100FE300350D9B04120135E47F00120135C2F20472
:100FF30012013545F60412013592F704120135CB7F
:10100300F2011201359EF501120135A4F501120119
:101013003534F80112013597FA0112013583890538
:101023001201351A8A05120135D88A0512013502D3
:101033008B05120135DC8C05120135E18D0512019A
:10104300353A9D021201356C9D0212013589A902C0
:10105300120135DAAA02120135E3AB02120135623D
:10106300AD021201354DAE021201359CAE021201E2
:1010730035B6AE02120135F8AE0212013503AF02E6
:101083001201354AAF0212013553AF02120135FF87
:10109300AF02120135D8B0021201351FB10212019D
:1010A3003587B102120135C9B102120135F7B10218
:1010B30012013534B20212013566DD0212013531F7
:1010C300E10212013537E102120135DBE7021201B9
:1010D300352FEC0212013518F002120135E19E059D
:1010E300120135579F051201356D9F05120135FD1C
:1010F3009F051201353AA00512013574A0051201AE
:1011030035AEA00512013521A10512013562A105F5
:101113001201356BA10512013577A1051201359630
:10112300A105120135C0A105120135D5A105120192
:1011330035FDA1051201355FA20512013586A20511
:1011430012013528C3041201353BC304120135557E
:10115300C30412013582C304120135C8C30412014A
:1011630035FBC30412013539C4041201359EC4048E
:10117300120135B3C404120135BEC404120135CBC8
:10118300C404120135E2C404120135F0C40412018F
:1011930035FFC40412013514C50412013529C504F1
:1011A30012013534C50412013540C5041201354D11
:1011B300C50412013560C5041201356BC504120163
:1011C3003590C50412013534C60412013544C604F2
:1011D30012013559C6041201356EC6041201358851
:1011E300C604120135A5C604120135C2C604120194
:1011F30035CDC60412013579C7041201355AC80426
:101203001201357FC8041201358AC8041201359FC3
:10121300C804120135B3C80412013514C9041201FC
:10122300351AC90412013520C90412013526C9042F
:101233001201353EC90412013571C9041201356624
:10124300EA0312013588EA0312013550EB03120158
:10125300350AEE0312013520EF0312013541F00385
:101263001201351BF103120135CAF1031201353E98
:10127300A403120135D5A4031201356DA503120190
:10128300355DA60312013594A603120135A7A60303
:1012930012013515A703120135B0A803120135D782
:1012A300A80312013579A903120135AEA90312016E
:1012B30035BFA90312013538AA0312013559AA0310
:1012C30012013571AA03120135C9AB03120135D2DC
:1012D300AD0312013522B00312013525B10312010A
:1012E3003574B1031201356AF00212013567F10258
:1012F30012013552F2021201355CF2021201356617
:10130300F20212013588F20212013594F20212013F
:1013130035E6F30212013515F40212013545F502E3
:1013230012013587F502120135B3F6021201358930
:10133300F702120135DBF7021201353AF802120106
:101343003571F802120135ACF80212013547FC027F
:1013530012013560FC02120135E2FC02120135F084
:10136300FC0212013545FD0212013553FD02120143
:1013730035C0FD0212013532FE0212013578FE023C
:10138300120135B2C903120135D4C903120135BEA6
:10139300CB0312013563CF03120135A6D00312012B
:1013A3003580D1031201352DC10512013552C10516
:1013B300120135C3C1051201356BA5041201357441
:1013C300A5041201357DA504120135AEA604120150
:1013D30035CDA80412013503A9041201353DA90432
:1013E30012013573A904120135ADA904120135E1C7
:1013F300A9041201350DAA0412013556AA041201DB
:101403003590AA04120135D8AA041201352EAB0473
:1014130012013563AB04120135BEAB04120135F87A
:10142300AB0412013549AC041201357FAC0412013F
:1014330035B9AC04120135E7AC041201350AAD0429
:1014430012013547FF0112013573FF01120135CE39
:10145300FF01120135D8FF01120135E8FF01120126
:1014630035C79C041201350F9D04120135D39D0429
:101473001201359C9E04120135B89E0412013538C1
:101483009F04120135BA9F041201350CA004120106
:10149300351FA00412013561A004120135FCA0041C
:1014A30012013573A104120135F1A2041201350AA8
:1014B300A30412013542A404120135AEA40412019F
:1014C300351CA50412013541E20412013568E2041A
:1014D300120135A1E204120135C2C8051201359C7F
:1014E3009001120135D19301120135E895011201E2
:1014F300356596011201351E9701120135C3970117
:101503001201356698011201351D99011201354CFE
:101513009901120135F79901120135539F01120107
:1015230035E79F0112013523A1011201358DA10178
:1015330012013541A201120135F7A401120135311F
:10154300A5011201359BA501120135F9A50112016F
:101553003557A601120135B4A601120135A3A7011F
:10156300120135E9A7011201352EA80112013551E7
:10157300A801120135AEA901120135C9A901120151
:101583003551AB0112013590AB01120135D0AB01DE
:101593001201351FAC0112013540AC011201357E39
:1015A300AC01120135A5AE01120135E6AE011201FF
:1015B300357EAF011201352BB001120135C9B001DF
:1015C30012013535B10112013576B2011201355AD6
:1015D300DC0412013500DD041201357FDE04120143
:1015E3003508DF0412013509E00412013542E00435
:1015F300120135B5E00412013523E104120135D49B
:10160300A9051201359FAC0512013559CB0512010D
:101613003501FF0212013511FF0212013525FF02C8
:10162300120135E9FF02120135E7FC041201358D81
:10163300FD04120135CFFF04120135E3C205120187
:101643003541C405120135F87F0012013583B40515
:1016530012013599B60512013505B7051201357129
:10166300D6041201356ED804120135F4D8041201E0
:101673003502DA04120135C6DA0412013544DB04FB
:10168300120135A6DB04120135A9DB04120135B7BB
:10169300DB04120135D4DB04120135FDDB04120136
:1016A3003526DC0412013534DC041201354CDC042C
:1016B3001201358CC90512013505CA0512013524FD
:1016C300CA0512013543CA05120135EECA051201D6
:1016D3003503CB0512013598AD04120135ADAD04C8
:1016E30012013509AE0412013574AE04120135BC82
:1016F300AE0412013526AF0412013550AF041201B6
:10170300355EAF04120135C0AF04120135FEAF04DC
:1017130012013519B004120135B4B0041201355762
:10172300B104120135D8B1041201350FB20412010C
:101733003598B204120135EDB2041201354AB304EF
:101743001201355CB30412013582B304120135A5CD
:10175300B304120135B8B30412013508B5041201FC
:101763003551BF05120135B6BF051201355FC005FE
:10177300120135D5C005120135008005120135333C
:1017830080051201357D8105120135C181051201E4
:10179300358282051201355A830512013592C5053A
:1017A3001201356DC605120135F1B1051201353649
:1017B300B2051201357AB20512013541B4051201A1
:1017C3003507FF0312013522FF0312013532FF03F0
:1017D30012013595FF03120135E5FF031201356D43
:1017E300A605120135A5A605120135DDA6051201D0
:1017F3003500A70512013558A705120135B1A70514
:101803001201353BA8051201357EA805120135BE2C
:10181300F4031201359AF503120135DDF5031201C4
:101823003517F60312013585F603120135DFF6038A
:101833001201354FF70312013520F8031201351059
:10184300F90312013594F90312013531FB03120137
:1018530035BCFB031201354DFC03120135E8FC03D3
:10186300120135FFFC0312013534FE031201358BDF
:10187300FE031201353CB50412013559B5041201BA
:10188300358EB604120135DCB604120135FCB604FC
:1018930012013562B704120135DCB7041201352099
:1018A300B804120135AAB804120135ACBB04120105
:1018B3003529BC0412013520C9021201355BCE0261
:1018C3001201355ED10212013587D102120135B002
:1018D300D102120135C3D10212013571D2021201B4
:1018E3003554D402120135B7D502120135D0D502D1
:1018F3001201351ADB0212013553DB02120135974F
:10190300DB02120135A8DC02120135C2D403120135
:1019130035EBD403120135A4D5031201359ED6034A
:101923001201354FD70312013502D80312013526B0
:10193300D803120135A1D8031201355ED903120170
:1019430035A2D90312013536DA031201352BDB0335
:1019530012013568DB0312013583DB03120135A065
:10196300DB03120135DFDB03120135F5DB03120163
:1019730035A5DC0312013509DD0312013578DD03DA
:1019830012013507DE0312013554DE0312013565FA
:10199300DE0312013500300012013503300012015D
:1019A30035273200120135AB3300120135EB380015
:1019B300120135E63A00120135043B001201357776
:1019C3003D00120135353E00120135703E00120113
:1019D30035AE3E00120135D93F00120135F54D00F9
:1019E300120135F34E001201353752001201357ED4
:1019F3005400120135A85500120135D062001201BE
:101A030035008002120135038002120135C48102C0
:101A1300120135F682021201354B8302120135CBD6
:101A23008802120135238902120135138B02120138
:101A330035358B02120135538B02120135BE8E02EE
:101A4300120135388F021201356F8F02120135AD45
:101A53008F021201355D9002120135589102120175
:101A6300351B9D02120135F3C90412013580CA04E6
:101A73001201359DCA041201357ACB041201354D8A
:101A8300CC0412013595CC04120135F9CD041201B1
:101A9300350AD004120135A8CA051201352DCB052C
:101AA30012013578CB05E066701008A3E066700A72
:101AB30008A3E066700408A3E06622C3E79608095A
:101AC300E7960809E7960809E79622C3E09608A374
:101AD300E09608A3E09608A3E09622C008C3E09628
:101AE300F50808A3E096420808A3E096420808A375
:101AF300E09645087001D3D00822080808EAC0E040
:101B0300EBC0E086F0E7A4FA180986F0E7A42AFA06
:101B1300180986F0E7A42AFA180986F0E7A42AFA36
:101B23001986F0E7A4FBE5F02AFA190886F0E7A482
:101B33002BFBE5F03AFA190886F0E7A42BFBE5F056
:101B43003AFA18180986F0E7A4C5F02BFBE43AFA31
:101B53001908E7C5F0C6A426F6E5F03BFBE43AFA1C
:101B63001886F0E7A4F6E5F00826F6E43B08F6E469
:101B73003A08F6D0E0FBD0E0FA22E4CFC0E0E4CEAE
:101B8300C0E0E4CDC0E0E4CCC0E075F020E626F68A
:101B930008E633F608E633F608E633F6181818ECC9
:101BA30033FCED33FDEE33FEEF33FFC3EC9709ED6A
:101BB3009709EE9709EF97191919400FFFEC97FC56
:101BC30009ED97FD09EE97FE191906D5F0BFECF75D
:101BD30009EDF709EEF709EFF7191919D0E0FCD071
:101BE300E0FDD0E0FED0E0FF226016080808C6C37F
:101BF30013C618C613C618C613C618C613C6D5E02F
:101C0300EA227009080808226016181818C6C33398
:101C1300C608C633C608C633C608C633C6D5E0EA07
:101C230022E627F60809E637F60809E637F6080933
:101C3300E637F622E026F608A3E036F608A3E036F8
:101C4300F608A3E036F622E026F008A3E036F00813
:101C5300A3E036F008A3E036F022C3E697F60809BE
:101C6300E697F60809E697F60809E697F622C3E031
:101C730096F008A3E096F008A3E096F008A3E09698
:101C8300F022E657F60809E657F60809E657F6087C
:101C930009E657F622E056F608A3E056F608A3E055
:101CA30056F608A3E056F622E056F008A3E056F0F5
:101CB30008A3E056F008A3E056F022E066F608A376
:101CC300E066F608A3E066F608A3E066F622E0F60F
:101CD30008A3E0F608A3E0F608A3E0F622E6F0087E
:101CE300A3E6F008A3E6F008A3E6F022E0FAA3E0F7
:101CF300FBA3E0FCA3E0FD22EAF0A3EBF0A3ECF0EE
:101D0300A3EDF022E0F8A3E0F9A3E0FAA3E0FB22BD
:101D1300E8F0A3E9F0A3EAF0A3EBF022CAC0E0E6FF
:101D2300F0A308DAFAD0E0FA22CAC0E0E0A3C58241
:101D3300CCC582C583CDC583F0A3C582CCC582C57E
:101D430083CDC583DAE6D0E0CA22C3E498F8E499E8
:101D5300F9121D8E8026C3E49AFAE49BFBE920E77F
:101D6300E9121D8EE498F8E499F922C3E498F8E4A3
:101D730099F9121D8EE498F8E499F9C3E49AFAE408
:101D83009BFB22EB20E7CFE920E7E0B90010BB0083
:101D930008E88AF084F8AAF022E4FBC8FA22EB7080
:101DA300227B10C833C8C933C9335007C39AC3DB76
:101DB300F280069A50012ADBEAC833F4C8C933F427
:101DC300C9FA2275F008E4C833C8C933C933C99ABC
:101DD300C99B5004C92AC93BD5F0ECFBC833F4C8EE
:101DE300E4C9FA22600D08C6A2E713C618C613C6D3
:101DF300D5E0F322600C08C6C313C618C613C6D5B4
:101E0300E0F422700422600D18C6C333C608C6333B
:101E1300C6D5E0F41822251810AF08F518400C15A4
:101E2300198008F51840021519D2AF2200C0D02539
:101E33001810AF08F518500C05198008F518500252
:101E43000519D2AFD0D0222518F58210AF08F518A6
:101E5300400C15198008F51840021519D2AF8519E1
:101E630083222518F582E43519F583222518F8E431
:101E73003519F9222518FAE43519FB222518FCE453
:101E83003519FD22E4732518C582C0E0E51934FF36
:101E9300C583C0E0E518C3958224F810AF08858395
:101EA300198582188008858319858218D2AFCEF0F0
:101EB300A3E520F0A37808E608F0A3DEFAEFF0A389
:101EC300E58124FAF8E608F0A3E608F0A3E608F0B3
:101ED300A30808E608F0A3E608F0A315811581D04E
:101EE300E0FED0E0F8158115811581E8C0E0EEC071
:101EF300E0222518C582C0E0E51934FFC583C0E0A0
:101F0300E518C3958224F910AF08858319858218D3
:101F13008008858319858218D2AFCEF0A3E520F01F
:101F2300A37808E608F0A3DEFAEFF0A3E58124FB2B
:101F3300F8E608F0A3E608F0A30808E608F0A3E62D
:101F430008F0A315811581D0E0FED0E0F8158115C6
:101F530081E8C0E0EEC0E022851983851882E0A302
:101F6300FEE0A3F5207808E0A3F608DFFAE0A3FF7C
:101F7300E0A3C0E0E0A3C0E0E0A3C0E0E0A3C0E0D2
:101F8300E0A3C0E010AF0885821885831980088517
:101F93008218858319D2AFD083D08202013285198A
:101FA30083851882E0A3FEE0A3F5207808E0A3F67A
:101FB30008DFFAE0A3FFE0A3C0E0E0A3C0E0E0A3F2
:101FC300C0E0E0A3C0E010AF0885821885831980C4
:101FD30008858218858319D2AFD083D08222C0D0DE
:101FE3002518C582C0E0E51934FFC583C0E0E518B4
:101FF300C3958224F310AF0885831985821880085E
:10200300858319858218D2AFC8F0A3E9F0A3EAF05B
:10201300A3EBF0A37908E709F0A3D8FAECF0A3ED5A
:10202300F0A3EEF0A3EFF0A3D0E0F0A3D0E0F0A391
:10203300D0E0F0A3E520F0A3E5F0F0A32285198317
:10204300851882E0C0E0A3E0F9A3E0FAA3E0FBA3D4
:102053007808E0F608A3DFFAE0FCA3E0FDA3E0FEC6
:10206300A3E0FFA3E0C0E0A3E0C0E0A3E0F5D0A3BA
:10207300E0F520A3E0A3F5F010AF0885831985826E
:10208300188008858319858218D2AFD082D083D077
:10209300E0F8D0E03274048006740280027401C058
:1020A300E0F404121E4AD0E0121D1F2274048004BF
:1020B30074028000CCC0E0EDC0E0E518C39CCCAD59
:1020C3001950011D10AF068C188D1980068C188DC0
:1020D30019D2AF121D2CD0E0FDD0E0FC22D083D06A
:1020E30082E9C0E0E493A3C386F0C5F095F0F90854
:1020F300E493A386F0C5F095F0700BE493A3C39922
:102103004005E9048002A3E475F002A42582F58268
:10211300E5F03583F583D0E0F9E493A3C0E0E493DD
:10212300C0E022D083D082ECC0E0EDC0E0E493A312
:10213300FCE493A3FDED4C600D122172EC24FFFC33
:10214300ED34FFFD80EFE493A3FCE493A3FDED4C9A
:10215300600D1221B1EC24FFFCED34FFFD80EFD0C4
:10216300E0FDD0E0FCE493A3C0E0E493C0E022C030
:10217300E0C3E49396087401939618400FE49366C2
:10218300700808740193661870007019A3A3C3E460
:102193009396087401939618A3A3400DD0E0D0E062
:1021A300D0E0022162A3A3A3A3A3A3D0E022C0E0B3
:1021B300C0F088F0E49366700808740193661870A1
:1021C30000A8F0A3A3700BD0F0D0E0D0E0D0E002E1
:1021D3002162A3A3D0F0D0E02274F6121EF5EAFE2A
:1021E300EBFF8C088D09EE2434F8E43FF9E8FCE9B1
:1021F300FD12230EE0FAEE2437F582E43FF583E087
:10220300F88508F0A4C885F00A8509F0A4250AF921
:10221300EA28F8E439F97A257B00121D8EEA8C82CC
:102223008D83F0FA131313541FF8EE28F8E43FF9E3
:10223300E8245DF582E439F583E0C0E074075AF8D9
:10224300D0E0B800028004C313D8FCA2E05003EA34
:102253008020EE2436F582E43FF583E0F5F0EA844E
:10226300A8F0EE28F8E43FF9E82438F582E439F5DC
:1022730083E0F97F03021FA174F5121EF5EAFEEB5A
:10228300FFEE2434F582E43FF583E0C0E012230E31
:10229300D0E0F08E828F83A3A3A3A3A3E0FAA3E0ED
:1022A300FB8E828F83A3A3A3A3A3A3A3E0C39AF567
:1022B30008A3E09BF509EE247FF8E43FF9880A8937
:1022C3000B8882F583E06401702CEE2480F582E4B0
:1022D3003FF583EA2401F8E43BF9E0687003A3E0E7
:1022E3006970137C047D07EEFAEFFB120EF1850A89
:1022F30082850B83E4F0AC08AD09EEFAEFFB122103
:10230300DCE9F9122DF97F04021FA1EE2435F582D1
:10231300E43FF58322C082C083851882851983E058
:10232300F8A3E0F9C3EA9CEB9D5010C3EC98ED9938
:10233300401BC3EA98EB995014800EC3EA98EB99BB
:102343004007C3EC98ED994004790180027900D0ED
:1023530083D08222EAC39CFAEB9DFB2274ED121E0A
:10236300F59003ADE064086005E06407702C9061AC
:10237300C8E060269003DBE0F874FF68601CE87532
:10238300F00DA4C8AAF02AF974DD28FE740339FFFE
:102393008E828F83A3A3A3E070057900022501EE4B
:1023A3002468F50EE43FF50F906060E0850E8285AA
:1023B3000F83F075109E751107750800750900E508
:1023C300D914F50AE5D95403F50B601FEE2483F500
:1023D3000CE43FF50D7403650B6059E50A6017EED5
:1023E3002467F582E43FF583E0700B793DEEFAEF65
:1023F300FB120F2180A4900799E064016023850CF0
:1024030082850D83E060047A0480027A00E50AC3C2
:102413009AFA95E0FB120CC98A088B09EA45097000
:102423000612122102239D850C82850D83E0700420
:102433008A108B117A008014E5D9C0E0EAF8E51020
:1024430028F582E43511F583D0E0F00AEAC3950A52
:1024530040E6850C82850D83E0602874FC250AF52F
:102463000A781012209CAC0AA90BEEFAEFFB120FAC
:10247300E17402121E2FE9700AAA08AB091217674A
:102483000223EE7403650B6054850A0C750D007806
:102493000C12209CAC10AD11AA08AB09120FA57445
:1024A30002121E2F850E82850F83E0F874806870F8
:1024B30005750C7F8002880CE50CF50D780D122054
:1024C300A0780B1220A0A90AAC08AD099003DBE0A9
:1024D300FA7B00120AE97402121E2F801C9003ADCE
:1024E300E06408AC10AD117009EEFAEFFB121011A5
:1024F3008007EEFAEFFB1210CB12122D79017F0C3D
:10250300021FA174F3121EF574FC121E19EAFEEBEE
:10251300FF8909A2AFE433F508C2AFEE2463F50ADD
:10252300E43FF50B8010AA0AAB0B120F5712176783
:1025330090070BE004F0850A82850B83E0F8A3E0A3
:10254300F9E849602DE82402FAE439FBEA2402F5AC
:102553000CE43BF50D780C12209C8A828B83E0FC03
:10256300A3E0F9EEFAEFFB120F4B7402121E2FE9F0
:1025730060B490070BE0604D90070CE0F890070BF8
:10258300E0C398500C74026509703A90070DE0603F
:10259300348E828F83A3A3A3A3E085188285198336
:1025A3001225D87402121E65E81225D890070AE096
:1025B30028F07402121E7FAA18AB197901120B4975
:1025C30090070BE4F0E508A2E092AF7404121E2F0B
:1025D3007F06021FA1F0A3E4F090070BE0F82200AE
:1025E300008521878522C622C0E074EB121FE1A279
:1025F300AFE433F508C2AF759B00906182E0A2E0BF
:102603005030E591A2E0502A7591FE740165217066
:102613002112277E12112512276C1220AF122BA331
:102623007404121E2FE964017005790112117F12DF
:10263300235F906182E0A2E5505DE591A2E55057EA
:102643007591DF9003ADE064076005E06408702FC7
:1026530012277E74016521703E12112512276C1218
:1026630020AF122BA37404121E2FE96401700579A5
:102673000112117F7901EEFAEFFB1225068018E0B3
:10268300640D70139003CFE004F064287002E4F04B
:102693007A00E0F9121233906182E0A2E64003026D
:1026A3002741E591A2E640030227417591BF9003BC
:1026B300ADE06405700812110D1211198003121197
:1026C3001375210012119DE99003AEF079001211E8
:1026D3007F120E137A017B009003ACE0F9121731DD
:1026E300907803E06442705690079DE014F0704EBA
:1026F300C2AF1226F800782AD0E0F618D0E0F6E54B
:102703009F5407F87005750DFF8003750D7FC4C0D6
:10271300E07829E6F50A08E6550DF50B740B780AFF
:10272300121DF7D0E0250AF8906270E0A2E740F8A6
:10273300E8C333906272F0906270E0D2E0F090618F
:1027430081E0A2E35009E5E9A2E3500375E9F7A3A9
:10275300E0A2E75009E591A2E7500375917FE508F0
:10276300A2E092AF7F080220408E828F83E0F8A31D
:10277300E0C82416F582E438F583229003DBE0F801
:1027830075F00DA4C8AAF02AF974DD28FE74033984
:10279300FF22C0E0C0D0C082C083906183E0A2E08A
:1027A3005009E5BFA2E0500375BFFEE0A2E1500966
:1027B300E5BFA2E1500375BFFDE0A2E25009E5BF0A
:1027C300A2E2500375BFFBE0A2E35009E5BFA2E319
:1027D300500375BFF7E0A2E45009E5BFA2E450033C
:1027E30075BFEFE0A2E55009E5BFA2E5500375BF51
:1027F300DFE0A2E65009E5BFA2E6500375BFBFD0F4
:1028030083D082D0D0D0E032C0E074F2121FE1E571
:10281300A7A2E4500FE5A1A2E4500953A7EF75A1C5
:10282300EF12285FE5A7A2E5500CE5A1A2E550064B
:1028330053A7DF75A1DFE5A7A2E15009E5A1A2E156
:10284300500375A1FDE5A7A2E2500CE5A1A2E25059
:102853000653A7FB75A1FB7F0102204074F8121EEB
:10286300F57521019003ADE0640670077A007B00E3
:102873001210F5A2AFE433FED2AF9003B3E06401CC
:1028830070187A207B009003ACE0F91218997A2033
:102893007B009003ACE0F9121737906182E0D2E637
:1028A300F090079AE0602185C62280169003B2E07B
:1028B30064017008E5C654F84405F5C653BEFC121E
:1028C30025E47401652160E4EEA2E092AF7F01028A
:1028D3001FA10000008E238F2485822885832785EE
:1028E3001882851983E0CEA3E0CF852882852783CC
:1028F300EBC9EAC8EDCBECCA75F010C3E833C8E9FD
:1029030033C9EA33CAEB33CBC3EA9EF526EB9FF513
:1029130025B35004AB25AA26EC33CCED33CDD5F04B
:10292300DAAE23AF242274E9121EF574FA121E19CB
:10293300EAFEEBFF8C088D09121137EAF8EBF9EC8C
:10294300FAEDFB8E828F83121D139003ADE024F703
:10295300C394055006751001022A6012106B8A0A8F
:102963008B0BEA450B7003022A5D12112B8A0C8B29
:102973000D12112BEA650C7003EB650D60ECEEFC98
:10298300EFFDAA18AB19121131850A82850B83A3B7
:10299300A3780C121CD1908FFA780C121C9885180E
:1029A300828519837814121CD1908FFA7814121C23
:1029B30098780C7914121ABE501F780C7914121CD3
:1029C3005D908F8E780C121ADE4047850C10850DB2
:1029D30011850E12850F138045908F8E85141085F7
:1029E30015118516128517137810790C121C5D7852
:1029F30010121ADE501C7510007511007512007547
:102A0300130178107914121C5D7810790C121C24B0
:102A1300800C75100175110075120075130074098F
:102A23007810121C05908F92780C121CD1781079B3
:102A33000C121B7D9003ADE06408600AE06406603D
:102A430005E064057020908F967810121ADE5016F8
:102A5300908F9A7810121C37800C75100075110036
:102A63007512007513008508828509837810121C7E
:102A7300E07406121E2F7F10021FA174F7121EF5B9
:102A8300121149900798E064017010906245E4F0D8
:102A9300A3F053F4F343FE0C5390F31210E3E5C693
:102AA30054B84441F5C6E59E5447644170F89061BB
:102AB30085740FF0900796E0F47002A3E0602C7524
:102AC3000801750900900796E07808121E06E508CC
:102AD300F4FAA3E0600814600A14600C800DEA5253
:102AE300808008EA52908003EA52A079007F0202B4
:102AF3001FA174F7121EF5E9FEEAFF74016E700C54
:102B03007A807B009003ACE0F9121731902FF8E440
:102B130093F46008E493F9120DF5800953C6B8E500
:102B23009E544770FA1210E9900798E0640170030D
:102B3300120E2B900796E0F47002A3E0602B750849
:102B430001750900900796E07808121E06E508FA59
:102B5300A3E0600814600A14600C800DEA428080D0
:102B630008EA42908003EA42A012106B8A088B099C
:102B7300A808A909E8496016E5E170FCE82414F502
:102B830082E439F583E0F874FF68600288E1740138
:102B93006F700A7A019003ACE0F91217CD022AF0A4
:102BA30074F1121EF58A088B098C0A8D0B908FFA2B
:102BB3007808121C98740F121E65780C121CD190A1
:102BC3008FFA780C121C987808790C121ABE908F21
:102BD3008E50107808790C121C5D7808121ADE40AA
:102BE30014800E780C7908121C5D780C121ADE50D2
:102BF300047901800279007F08021FA174ED121E7F
:102C0300F58A088B098C0A8D0B908FFA7808121CB1
:102C1300987413121E65780C121CD1908FFA780CDD
:102C2300121C98780C7908121ABE40117808790C96
:102C3300121C5DAA08AB09AC0AAD0B80227510000B
:102C43007511007512007513017810790C121C5D53
:102C530078107908121C24AA10AB11AC12AD137FA3
:102C63000C021FA1908FFA7808121CD18A828B83E1
:102C73007808121CAB7F04021FA174F5121EF58C99
:102C8300828D837808121CD18A828B837808121C68
:102C930071122CD1C3E098F0A3E099122CC3401E0B
:102CA3009090267808121CD18A828B837808121C94
:102CB3004A8E828F83E02420F0A3E0344EF080A478
:102CC300F08E828F83C3E09420A3E0944E22EA2403
:102CD30004F8E43BF9E8FEE9FF8C828D83A3A3A308
:102CE300A3E0F8A3E0F98E828F832274F5121EF518
:102CF300E9FE900726E0FAA3E0FBEE29F8E433F9B6
:102D030074E928F582748E39F583E02AF508A3E087
:102D13003BF509780812209C90900A121CEF1228A8
:102D2300D87402121E2F8A088B098C0A8D0B74101B
:102D33007808121BECAA08AB097F04021FA174F1E7
:102D4300121EF58A0C8B0D8C0E8D0F7411121E65DD
:102D53001220B37411121E65E02401F508A3E034B8
:102D630000F509E4F50AF50B780C7908121AFD90C1
:102D73008FA67808121CD1780C7908121AFDAA0CB8
:102D8300AB0DAC0EAD0F1228D87402121E2F8B0997
:102D9300EA450960047A0180027A00EC2AFCE43DEA
:102DA300FD7413121E65E0F8A3E0F9E8FEE9FFECF9
:102DB300F8EDF97A717B02121D8E88088909E4F512
:102DC3000AF50B8E828F837808121CE0ECF8EDF97C
:102DD3007A717B02121D8E8A088B0974057808129A
:102DE3001E068E828F83A3A3A3A3E508F0A3E509A0
:102DF300F07F08021FA1C082C083E9906000F0D079
:102E030083D08222C0E074F2121FE1A2AFE433FE4A
:102E1300D2AFC2C0E5D1A2E4500675D10F1216ADF0
:102E2300751A00EEA2E092AF7F01022040C0E07469
:102E3300F2121FE1A2AFE433F508D2AF7F007E01A7
:102E4300EFC39408506AE5895E605EEFF87900E8A5
:102E530075F003A4C8AAF075F000A42AFA75F0036C
:102E6300E9A42AF974BD28F582741C39F583E0F8C6
:102E7300A3E0F9E8496032EFFA7B00EFF87900E864
:102E830075F003A4C8ACF075F000A42CFC75F00336
:102E9300E9A42CF974BD28F582741C39F583E0F894
:102EA300A3E0F5838882121E870FEEC333FE809062
:102EB300758900C2C5E508A2E092AF7F01022040F8
:102EC300C0E074F2121FE1A2AFE433F508D2AF7F82
:102ED300007E01EFC39408506AE58A5E605EEFF8F6
:102EE3007900E875F003A4C8AAF075F000A42AFAE3
:102EF30075F003E9A42AF974BD28F582741C39F529
:102F030083E0F8A3E0F9E8496032EFFA7B00EFF8D9
:102F13007900E875F003A4C8ACF075F000A42CFCAC
:102F230075F003E9A42CF974BD28F582741C39F5F6
:102F330083E0F8A3E0F5838882121E870FEEC33384
:102F4300FE8090758A00C2EBE508A2E092AF7F0194
:102F5300022040C0E0C0D0E8C0E0A2AFE433F8D222
:102F6300AFC2C7751A00E8A2E092AFD0E0F8D0D0A4
:102F7300D0E032C0E0C0D0E8C0E0E9C0E0EAC0E0A1
:102F8300EBC0E0C082C083A2AFE433F9D2AF900FAD
:102F9300FBE0F8900FFCE068700B539AFB900FFD79
:102FA3007401F0802EC2E9900FFBE0F874012890C1
:102FB3000FFBF0E8FA7B00747B2AF582740F3BF574
:102FC30083E0F5C1900FFBE0C394804006900FFBB4
:102FD3007400F0E9A2E092AFD083D082D0E0FBD0BE
:102FE300E0FAD0E0F9D0E0F8D0D0D0E032C2AF02BE
:032FF300000022B9
:102FF800FFFFFFFFFFFFFFFF02013274F4121E897B
:1030080074F5121E19EAFEEBFF8E828F837401F0AD
:10301800A37400F0A37400F0A374D4F08E828F839D
:10302800A3A3A3A37401F08E828F83A3A3A3A3A356
:103038007420F0A37400F08E828F83A3A3A3A3A3AC
:10304800A3A37420F0A37400F08E828F83A3A3A39C
:10305800A3A3A3A3A3A37402F0A37400F0EE240B0C
:10306800F582E43FF58374C8F0A37400F0EE240DF4
:10307800F582E43FF58374BCF0EE246EF582E43FFC
:10308800F58374E8F0A37403F0EE2470F582E43F4E
:10309800F58374A0F0A3740FF0EE2472F582E43F78
:1030A800F58374C8F0A37400F0EE2474F582E43F4D
:1030B800F583740AF0EE2475F582E43FF58374090C
:1030C800F0EE2476F582E43FF5837496F0A374005D
:1030D800F0908F807406121E7F7405121D2CEE244A
:1030E8008CF582E43FF5837404F0EE248CF582E4D9
:1030F8003FF583E0F508750900780812209C7408EC
:10310800121E7FEE2478FAE43FFB1216DD740212D9
:103118001E2FEE249EF582E43FF5837403F0EE241F
:103128009FF582E43FF5837440F0A374E2F0A37442
:1031380001F0A37400F0EE249DF582E43FF583745A
:1031480000F0EE24A3F582E43FF5837400F07C10D0
:103158007D007900EE24A4FAE43FFB1216F5EE2474
:10316800B4F582E43FF5837400F0EE24B5F582E40B
:103178003FF5837400F0909070AC18AD197402128A
:103188001D2C750800E508C39403400302321DE5B1
:1031980008F87900EE28F8EF39F9E8246BF582E4AD
:1031A80039F5837400F09090167402121E7F74042F
:1031B800121D2CA818A9197403121E65E8F0A3E9BA
:1031C800F0E508F87900EE28F8EF39F9E8246BF50E
:1031D8000AE439F50B780A12209CE508F87900E82A
:1031E80075F01FA4C8AAF075F000A42AFA75F01F9C
:1031F800E9A42AF9EE28F8EF39F9E8240EFCE439B5
:10320800FD79017404121E7712198F7402121E2F91
:10321800050802318D740B121E2F7F04021F5B7488
:10322800F7121E897A187B031217B5901ABFEAF0B5
:10323800A3EBF0901ABFE0F8A3E0C8246EF582C8AB
:103248003401F5837400F0901ABFE0F8A3E0C824B5
:103258006FF582C83401F5837400F0A37400F09010
:103268001ABFE0F8A3E0C82471F582C83401F583D9
:103278007400F0901ABFE0F8A3E0C82472F582C881
:103288003401F5837400F0901ABFE0F8A3E0C82475
:1032980073F582C83401F5837400F0901ABFE0F822
:1032A800A3E0C8240FF582C83403F5837400F07CCA
:1032B800067D007900901ABFE02409FAA3E03403E0
:1032C800FB1216F5901ABFE0F8A3E0C82410F582A7
:1032D800C83403F58374BFF0A37419F0901ABFE0E3
:1032E800F8A3E0C82412F582C83403F58374D7F034
:1032F800A37419F07A00EAC39403505DEAF87900E0
:10330800E875F086A4C8ABF075F000A42BFB75F047
:1033180086E9A42BF9901ABFE028F8A3E039F9E868
:103328002474F8E93401F9E8FEE9FFEAC0E0EE2484
:1033380085F582E43FF583D0E0F08E828F83A3A3E6
:10334800A3A3A3A3A3A3A3A37400F08E828F837463
:10335800FFF0A374FFF00A809D7C037D0079009044
:103368001ABFE02406FAA3E03403FB1216F5901AFC
:10337800BFE0F8A3E0C82414F582C83403F58374C9
:10338800CBF0A37419F0901ABFE0F8A3E0C8241694
:10339800F582C83403F58374C5F0A37419F07F016E
:1033A800021F5B74F3121E8974E9121E19890CEA54
:1033B800FEEBFF1219A17AFB7B1912174F901ABF67
:1033C800E0F8A3E0F5838882EEF0A3EFF0901ABF4F
:1033D800E0F8A3E0F5838882E0F8A3E0C82408F5C4
:1033E80082C83400F5837429F0A37419F0901ABFC9
:1033F800E0F8A3E0F5838882E0F8A3E0F58388820B
:10340800A3A3A3A37495F0A37419F0E50CC0E090EE
:103418001ABFE0F8A3E0C82471F582C83401F58327
:10342800D0E0F0901ABFE02402FCA3E03400FD7A5B
:10343800B67981121869E9701C908FDE7808121C21
:10344800D1901ABFE0F8A3E0F5838882A3A3780897
:10345800121AA9600F901ABFE02402FAA3E0340000
:10346800FB12199B901ABFE0F8A3E0F5838882A3AA
:10347800A3C082C083901ABFE024B8FCA3E0340044
:10348800FDD083D08274B6121D2C750800E508C3E0
:1034980094034003023572E508F87900901ABFE0FA
:1034A80028F8A3E039F9E8246DF582E439F583E0DA
:1034B800F50A750B00780A12209CE508F87900E8EF
:1034C80075F01FA4C8AAF075F000A42AFA75F01FB9
:1034D800E9A42AF9901ABFE028F8A3E039F9E8240A
:1034E80010FCE439FDE508F87900E875F086A4C811
:1034F800AAF075F000A42AFA75F086E9A42AF990D2
:103508001ABFE028F8A3E039F9E82486FAE934017B
:10351800FB1216DD7402121E2FE508F87900901AC6
:10352800BFE028F8A3E039F9E8246DF582E439F51D
:1035380083E0C0E0E508F87900E875F086A4C8AA39
:10354800F075F000A42AFA75F086E9A42AF9901A11
:10355800BFE028F8A3E039F9E824A5F582E93401A9
:10356800F583D0E0F00508023495908F15740912A0
:103578001E7F740E121D2C901ABFE0248FF8A3E052
:103588003400F9740A121E65E8F0A3E9F0901ABF36
:10359800E0F8A3E0C8249FF582C83400F583E0C0B2
:1035A800E0740C121E65D0E0F0901ABFE0F8A3E0BA
:1035B800C824B7F582C83400F583E0C0E0740D1262
:1035C8001E65D0E0F0901ABFE0F8A3E0C824A5F586
:1035D80082C83400F583E0C0E0740E121E65D0E0A6
:1035E800F0901ABFE024A6F8A3E03400F9740F1293
:1035F8001E65E8F0A3E9F08E828F83A3A3A3A3A39B
:10360800A3A3A3A3A3E0F8A3E0F97411121E65E82D
:10361800F0A3E9F07409121E7712190B901ABFE093
:10362800F8A3E0C82476F582C83400F583E0C0E04A
:103638007404121E65D0E0F07404121E7F79017ABA
:10364800047B04121467E9FA790312195FE9901AE6
:10365800BFE0F8A3E0C82470F582C83400F583E021
:10366800FCA3E0FD7A027B00120615E9FA79031241
:10367800195FE9901ABFE0F8A3E0C82470F582C882
:103688003400F583E0FCA3E0FD7A037B0012061505
:10369800E9FA790312195FE9901ABFE0247AFCA3CA
:1036A800E03400FD901ABFE0F8A3E0C8248EF5824C
:1036B800C83400F583E0FA79001207CBE9FA7903F8
:1036C80012195FE97405121E657400F0A37400F006
:1036D800A37400F0A37400F0901ABFE0F8A3E0C848
:1036E80024A0F582C83400F583E064026014901ABF
:1036F800BFE0F8A3E0C824A0F582C83400F583E051
:10370800700A7403121E657402F080087403121E96
:10371800657401F0901ABFE0F8A3E0C824A0F58210
:10372800C83400F583E064026016901ABFE0F8A37D
:10373800E0C824A0F582C83400F583E06403700A69
:103748007402121E657401F080087402121E6574FA
:1037580000F0901ABFE0F8A3E0C824A0F582C834AE
:1037680000F583E064026014901ABFE0F8A3E0C893
:1037780024A0F582C83400F583E0700A7401121E93
:10378800657400F080087401121E657402F0901AC6
:10379800BFE0F8A3E0C824A0F582C83400F583E0B0
:1037A80064026014901ABFE0F8A3E0C824A0F58270
:1037B800C83400F583E0700B85188285198374007E
:1037C800F080098518828519837401F07405121E2A
:1037D8007F79047A087B041214DFE9FA7903121955
:1037E8005FE97403121E7F79017A007B041214DFEB
:1037F800E9FA790312195FE97402121E7F79017AD6
:10380800027B041214DFE9FA790312195FE97401E3
:10381800121E7F79017A037B041214DFE9FA790317
:1038280012195FE9AC18AD1979017A067B041214F4
:10383800DFE9FA790312195FE91207F5E9901ABF6F
:10384800E0F8A3E0C82471F582C83401F583E0F9F3
:103858001207FB909026121CEF1207D7E9FA79039A
:1038680012195FE9909026121CEF1209B1E9FA7952
:103878000312195FE97A017B00901ABFE0F8A3E010
:10388800C82471F582C83401F583E0F9121731E9CB
:10389800FA790212195FE97900120AC5E9FA790082
:1038A80012195FE9901ABFE0F8A3E0C824B6F582C0
:1038B800C83400F583E0602114600814600D1460BA
:1038C80012801675C90143C908800E75C90243C91B
:1038D80008800675C90343C9087417121E2F7F058F
:1038E800021F5B74F3121E89890CEAFEEBFFEE548B
:1038F80000F8EF5480F9E8496040901ABFE0F8A357
:10390800E0C82471F582C83401F583E0F91217196B
:103918008A0A8B0BA80AA90B88088909E849600F4D
:10392800AA08AB091219B3AA08AB09121707E9EEDE
:103938006400FAEF6480FB023AE1EEA2E0503190B5
:103948001ABFE02410FAA3E03403FB121461E9FA69
:10395800790312195FE9901ABFE02414FAA3E0343E
:1039680003FB121509EE6401FAEF6400FB023AE169
:10397800EE540260177A407B00A90C1219AD122F81
:10398800F0EE6402FAEF6400FB023AE1EE544060A4
:1039980050901ABFE0F8A3E0C8246EF582C834013D
:1039A800F583E06401702F901ABFE024B8FCA3E00F
:1039B8003400FD7AB67981121863E9FA790212198E
:1039C8005FE9901ABFE0F8A3E0C8246EF582C83416
:1039D80001F5837400F0EE6440FAEF6400FB023AEC
:1039E800E1EE54046078901ABFE0F8A3E0C82472AE
:1039F800F582C83401F5837401F07B007A017903FC
:103A0800121485E9FA790312195FE9901ABFE0F8F0
:103A1800A3E0C82472F582C83400F583E0F508A352
:103A2800E0F509E4F50AF50B78081220987A087B86
:103A380000901ABFE0F8A3E0C82471F582C83401E9
:103A4800F583E0F912188D7404121E2FE9FA790231
:103A580012195FE9EE6404FAEF6400FB807BEE5410
:103A680008602D12148BE9FA790312195FE9901A8C
:103A7800BFE0F8A3E0C8246FF582C83401F5837469
:103A880000F0A37400F0EE6408FAEF6400FB8049CC
:103A9800EE5410600D1219DDEE6410FAEF6400FBAD
:103AA8008037EE5420602E901ABFE0F8A3E0F5832B
:103AB8008882E0F8A3E0C82406F582C83400F583BC
:103AC800E0F8A3E0F5838882121E87EE6420FAEFFF
:103AD8006400FB80047A007B007F05021F5B74F79B
:103AE800121E89EAFEEBFF8E828F83E064B07007B6
:103AF800EEFAEFFB1219B97F01021F5B74F2121E76
:103B08008974FD121E19EAFEEBFF7508007509009D
:103B18007508007509007A007B03EAC39B5075EAB3
:103B2800F87900E875F086A4C8ACF075F000A42C0C
:103B3800FC75F086E9A42CF9901ABFE028F8A3E0F8
:103B480039F9E82474F582E93401F583E0F8A3E053
:103B5800F98E828F83A3A3E0687003A3E0697031B4
:103B6800EAF87900E875F086A4C8AAF075F000A410
:103B78002AFA75F086E9A42AF9901ABFE028F8A372
:103B8800E039F9E82474F8E93401F98808890980EA
:103B9800030A8086E50845097003023D598E828F25
:103BA80083A3A3A3A3E0640B601B8E828F83A3A3CC
:103BB800A3A3E0640170358E828F83A3A3A3A3A37C
:103BC800E0640A70278E828F83A3A3A3A3E0640115
:103BD8006003023D598E828F83A3A3A3A3A3A3A34B
:103BE800A3E0FA790112195FE9023D598E828F83A9
:103BF800A3A3A3A3E0641360218E828F83A3A3A34E
:103C0800A3E064016003023CF68E828F83A3A3A322
:103C1800A3A3E064126003023CF685088285098349
:103C2800A3A3A3A3A3A3A3A3A3E06003023D598E68
:103C3800828F83A3A3A3A3E064016005750A0180B2
:103C480003750A00E50A60047A00800E8E828F836D
:103C5800A3A3A3A3A3A3A3A3E0FA790112195FE97D
:103C6800E50A60047A0180027A00E5082485F58275
:103C7800E43509F583E0F912194D85088285098331
:103C8800A3A3A3A3A3A3A3A3A37401F0A818A9198A
:103C9800880C890D780C12209C7403121E7FE5088D
:103CA8002432FAE43509FB1219177402121E2FE99F
:103CB8007003023D59851882851983E0FC7401124E
:103CC8001E65E0FAA3E0FB850882850983E0F8A376
:103CD800E0F9E8F91219EFE970777A00850882852A
:103CE8000983E0F8A3E0F9E8F912194D809E8508E8
:103CF80082850983A3A3E06009EEFAEFFB1219E3BA
:103D0800804F8E828F83A3A3A3A3E0641B70428E8F
:103D1800828F83A3A3A3A3A3E064287004A3E06411
:103D280000702E8E828F83A3A3A3A3A3A3A3E0FC7A
:103D38008E828F83A3A3A3A3A3A3A3A3E0FAA3E0E4
:103D4800FBE5082485F582E43509F583E0F91219C5
:103D5800478E828F83A3A3A3A3E0F9EE2405FAE498
:103D68003FFB12098D7403121E2F7F06021F5B741E
:103D7800F5121E8974FF121E198A088B09890A7E9A
:103D8800007F007A007B03EAC39B506CEAF8790055
:103D9800E875F086A4C8ACF075F000A42CFC75F0AA
:103DA80086E9A42CF9901ABFE028F8A3E039F9E8CD
:103DB8002474F582E93401F583E065087004A3E012
:103DC80065097031EAF87900E875F086A4C8AAF0A8
:103DD80075F000A42AFA75F086E9A42AF9901ABFAA
:103DE800E028F8A3E039F9E82474F8E93401F9E89F
:103DF800FEE9FF80030A808FEE4F602775F0FFE52C
:103E08000AA4C0E0851882851983D0E0F07B01AC54
:103E180018AD19EE2485F582E43FF583E0FA7900C0
:103E280012196B7401121E2F7F03021F5B74F612A6
:103E38001E89EAFEEBFF89088C09E50860257401F4
:103E48006508701BE509601B740865096015EEFAC2
:103E5800EFFB121473E9FA790312195FE98004740D
:103E68000265087F02021F5B74F5121E89EAFEEBE9
:103E7800FF8C088D09890A901ABFE0F8A3E0C824CE
:103E8800A1F582C83400F5831220AF7900AA08ABE7
:103E98000912150F7404121E2FE9FA790312195F1B
:103EA800E97F03021F5B74F0121E8974FB121E194E
:103EB8007403121E65EAF0A3EBF0E9C0E074021285
:103EC8001E65D0E0F0851882851983ECF0A3EDF02B
:103ED8007415121E65E0F50F7508007F007E00E579
:103EE80008C3950F4003023FCDE508F8790085180F
:103EF80082851983E028FAA3E0398A82F583E024D1
:103F0800FFF50C0508E508F87900851882851983FE
:103F1800E028FAA3E0398A82F583E0F50E05087FE8
:103F2800007E007402121E65E0F8EFC39840030299
:103F38003FBDEFF879007403121E65E028FAA3E08C
:103F4800398A82F583E024FFF5090FEFF8790074C8
:103F580003121E65E028FAA3E0398A82F583E0F5AA
:103F68000D0FE50D650E7046E50C6509703CE50919
:103F7800F50A750B00780A12209CE508F879007498
:103F880002121E65E028FCA3E039FDEFF879007401
:103F980005121E65E028FAA3E039FB1216EF740239
:103FA800121E2FE960047E01800B7E008007E50960
:103FB8002FFF023F2BEE70047900800BE50C2508DB
:103FC800F508023EE779017405121E2F7F08021FCB
:103FD8005B74F0121E8974C6121E198A088B098533
:103FE8000882850983A3A3E060201470030248B304
:103FF80024FC7003024A48147003024CA114700395
:10400800024D9024FA6024024DE9901ABFE0240979
:10401800FCA3E03403FD7A037B0412146DE9FA79FA
:104028000312195FE9121959024DE98508828509B9
:1040380083A3A3A3E0600A24FC700302417D024D20
:10404800E9901ABFE0F8A3E0C8246FF582C83401EC
:10405800F583E02401F0A3E03400F07E007F0075D2
:104068000C03EFC3950C5051750A06750B00780ABE
:1040780012209CE5082405FCE43509FDEFF87900D9
:10408800E875F086A4C8AAF075F000A42AFA75F0BD
:1040980086E9A42AF9901ABFE028F8A3E039F9E8DC
:1040A8002480FAE93401FB1216EF7402121E2FE97C
:1040B80060047E0180030F80A9EE6003024DE99041
:1040C80090727407121E7F7402121D2C90900E7449
:1040D8000D121E7F7404121D2C7407121E6F740EAD
:1040E800121E65E8F0A3E9F07402121E657400F070
:1040F8007402121E6F880A890B780A12209C7419A0
:10410800121E7F7901740F121E7712198F74021212
:104118001E2F7402121E65E0F50A780A1220A07498
:1041280018121E7FE508240CF582E43509F583E0B2
:10413800F9E508240DF582E43509F583E0FAA3E0F2
:10414800FB1219D17401121E2FE9600EE508240B29
:10415800F582E43509F583E080027400C0E0901A26
:10416800BFE0F8A3E0C8240FF582C83403F583D074
:10417800E0F0024DE9901ABFE0F8A3E0C8240FF57B
:1041880082C83403F583E07003024DE9901ABFE05A
:10419800F8A3E0C8240FF582C83403F583E0F833A8
:1041A80095E0F9E508240BF582E43509F583E0FA92
:1041B8003395E0FBE82AF8E93BF97A027B00121D07
:1041C80086E8C0E0901ABFE0F8A3E0C8240FF582A3
:1041D800C83403F583D0E0F0901ABFE0F8A3E0C834
:1041E800240FF582C83403F583E0F8901ABFE0F98C
:1041F800A3E0C9240FF582C93400F583E0C398A26F
:10420800D265D0334003024DE9901ABFE0F8A3E02D
:10421800C8240FF582C83403F583E0FF850882853A
:104228000983A3A3A3A3E0C0E07401121E65D0E034
:10423800F0901ABFE0F8A3E0C8240FF582C8340351
:10424800F583E0FF750A06750B00780A12209CE5D5
:10425800082405FCE43509FD7413121E771216DDD7
:104268007402121E2F850882850983A3A3A3A3E0E5
:10427800C0E07401121E65D0E0F0E508240CF58258
:10428800E43509F583E0F50A750B00780A12209CDD
:10429800E508240DF582E43509F583E0FCA3E0FD8B
:1042A800741D121E771216DD7402121E2FE50824E3
:1042B8000CF582E43509F583E0C0E085188285199C
:1042C80083D0E0F0750C00750C007E00EEC39403FB
:1042D8004003024866851882851983E0F50A780A42
:1042E8001220A0741C121E7FEEF87900E875F08683
:1042F800A4C8AAF075F000A42AFA75F086E9A42AE1
:10430800F9901ABFE028F8A3E039F9E824A5F58266
:10431800E93401F583E0F9EEFA7B00EA75F086A44A
:10432800CAA8F075F000A428F875F086EBA428FB5D
:10433800901ABFE02AFAA3E03BFBEA2486FAEB34A2
:1043480001FB1219D17401121E2FE9700302486291
:10435800EEF87900E875F086A4C8AAF075F000A414
:104368002AFA75F086E9A42AF9901ABFE028F8A37A
:10437800E039F9E8247EF582E93401F583E0600349
:104388000244EEEEF87900E875F086A4C8AAF07544
:10439800F000A42AFA75F086E9A42AF9901ABFE079
:1043A80028F8A3E039F9E8247EF582E93401F58399
:1043B8007401F0750A06750B00780A12209C7413B4
:1043C800121E7FEEF87900E875F086A4C8AAF07589
:1043D800F000A42AFA75F086E9A42AF9901ABFE039
:1043E80028F8A3E039F9E82480FAE93401FB121629
:1043F800DD7402121E2F851882851983E0F50A756F
:104408000B00780A12209C741D121E7FEEF87900AA
:10441800E875F086A4C8AAF075F000A42AFA75F029
:1044280086E9A42AF9901ABFE028F8A3E039F9E848
:104438002486FAE93401FB1216DD7402121E2F8558
:104448001882851983E0C0E0EEF87900E875F086F7
:10445800A4C8AAF075F000A42AFA75F086E9A42A7F
:10446800F9901ABFE028F8A3E039F9E824A5F58205
:10447800E93401F583D0E0F07401121E65E0C0E074
:10448800EEF87900E875F086A4C8AAF075F000A4E3
:104498002AFA75F086E9A42AF9901ABFE028F8A349
:1044A800E039F9E8247FF582E93401F583D0E0F0BA
:1044B800EFC0E0EEF87900E875F086A4C8AAF075B8
:1044C800F000A42AFA75F086E9A42AF9901ABFE048
:1044D80028F8A3E039F9E824F8F582E93401F583EE
:1044E800D0E0F0024866EEF87900E875F086A4C8D6
:1044F800AAF075F000A42AFA75F086E9A42AF990C2
:104508001ABFE028F8A3E039F9E8247EF582E934F7
:1045180001F583E064016003024862EEF87900E87F
:1045280075F086A4C8AAF075F000A42AFA75F0867A
:10453800E9A42AF9901ABFE028F8A3E039F9E82499
:10454800F8F582E93401F583E0F8EFC398A2D26563
:10455800D0335003024862EEFA7B00EA75F086A475
:10456800CAACF075F000A42CFC75F086EBA42CFB0B
:10457800901ABFE02AFAA3E03BFBEA24F8F582EBA5
:104588003401F583E0FA3395E0FBEAF8EBF9EFC084
:10459800E0EEFA7B00EA75F086A4CAACF075F0008C
:1045A800A42CFC75F086EBA42CFB901ABFE02AFA29
:1045B800A3E03BFBEA24F8F582EB3401F583D0E075
:1045C800F0E8FFEEF87900E875F086A4C8ABF0755E
:1045D800F000A42BFB75F086E9A42BF9901ABFE034
:1045E80028F8A3E039F9E8247FF582E93401F58356
:1045F800E0FA7401121E65E0C0E0EEF87900E87593
:10460800F086A4C8ABF075F000A42BFB75F086E922
:10461800A42BF9901ABFE028F8A3E039F9E8247F21
:10462800F582E93401F583D0E0F0EAC0E0740112C4
:104638001E65D0E0F07A007B06EBC39A5003024671
:10464800F9EAFC7D00EEF87900E875F086A4C885E3
:10465800F00B75F000A4250BF50B75F086E9A42581
:104668000BF9901ABFE028F8A3E039F9E82CF8E92B
:104678003DF9E82480F582E93401F583E0F50AEA9A
:10468800F879007411121E65E58228F582E58339F0
:10469800F583E0C0E0EAFC7D00EEF87900E875F00B
:1046A80086A4C885F00B75F000A4250BF50B75F0F2
:1046B80086E9A4250BF9901ABFE028F8A3E039F998
:1046C800E82CF8E93DF9E82480F582E93401F5831E
:1046D800D0E0F0E50AC0E0EAF879007411121E652E
:1046E800E58228F582E58339F583D0E0F00A0246B1
:1046F800417800EEFA7B00EA75F086A4CAACF07542
:10470800F000A42CFC75F086EBA42CFB901ABFE0FB
:104718002AFAA3E03BFBEA24A5F582EB3401F583F2
:10472800E0C398500E851882851983E0C39850031A
:104738000247E9E8FC7D00EEFA7B00EA75F086A402
:10474800CA85F00A75F000A4250AF50A75F086EB0B
:10475800A4250AFB901ABFE02AFAA3E03BFBEA2C47
:10476800FAEB3DFBEA2486F582EB3401F583E0F9A8
:10477800E8FA7B00741B121E65E5822AF582E58340
:104788003BF583E0C0E0E8FC7D00EEFA7B00EA75CB
:10479800F086A4CA85F00A75F000A4250AF50A7502
:1047A800F086EBA4250AFB901ABFE02AFAA3E03BA7
:1047B800FBEA2CFAEB3DFBEA2486F582EB3401F5A3
:1047C80083D0E0F0E9C0E0E8FA7B00741B121E65B4
:1047D800E5822AF582E5833BF583D0E0F0080246BE
:1047E800FBEEFA7B00EA75F086A4CAACF075F0001F
:1047F800A42CFC75F086EBA42CFB901ABFE02AFAD7
:10480800A3E03BFBEA24A5F582EB3401F583E0F84D
:10481800851882851983E0C0E0EEFA7B00EA75F01E
:1048280086A4CAACF075F000A42CFC75F086EBA445
:104838002CFB901ABFE02AFAA3E03BFBEA24A5F57B
:1048480082EB3401F583D0E0F0E8C0E0851882857A
:104858001983D0E0F0750C0180040E0242D4740173
:10486800650C70030242CF901ABFE0F8A3E0C82499
:104878006FF582C83401F583C082C083901ABFE007
:10488800F8A3E0C82477F582C83400F583E0F87906
:1048980000D083D082C3E098A3E099400B12148B18
:1048A800E9FA790312195FE9024DE9901ABFE0F8B5
:1048B800A3E0C82472F582C83401F583E06401607E
:1048C80003024DE91218B1EAF8EBF9ECFAEDFB74C2
:1048D80009121E65121D13901ABFE0F8A3E0C82440
:1048E8006FF582C83401F583C082C083901ABFE097
:1048F800F8A3E0C82477F582C83400F583E0F87996
:1049080000D083D082C3E098A3E099402C901ABFCE
:10491800E0F8A3E0C8246FF582C83401F583740079
:10492800F0A37400F07B007A017903121485E9FA88
:10493800790312195FE9024DE9901ABFE0F8A3E084
:10494800C8246FF582C83401F5837400F0A374009D
:10495800F07A087B00901ABFE0F8A3E0C82471F54C
:1049680082C83401F583E0F912189FEA4B4C4D6078
:10497800227A087B00901ABFE0F8A3E0C82471F5FA
:1049880082C83401F583E0F9121899E9FA7902121C
:10499800195FE9901ABFE0F8A3E0C82472F582C84D
:1049A8003401F5837400F07E007A00EAC394035062
:1049B80036EAF87900E875F086A4C8ABF075F0001F
:1049C800A42BFB75F086E9A42BF9901ABFE028F810
:1049D800A3E039F9E8247EF582E93401F583E0643F
:1049E8000170010E0A80C4EE700A7A157903121953
:1049F8005FE98049901ABFE0F8A3E0C82474F58203
:104A0800C83400F583E0F50CA3E0F50DE4F50EF5E8
:104A18000F780C1220987A107B00901ABFE0F8A348
:104A2800E0C82471F582C83401F583E0F912188DC5
:104A38007404121E2FE9FA790212195FE9024DE98E
:104A4800901ABFE0F8A3E0C82473F582C83401F5D2
:104A580083E064016003024C741218B17409121ED9
:104A680065121CFB850882850983A3E06003024C5C
:104A780015750A00E50AC394034003024C15E50ABC
:104A8800F87900E875F086A4C8AAF075F000A42AA1
:104A9800FA75F086E9A42AF9901ABFE028F8A3E08D
:104AA80039F9E82474F8E93401F9E8FEE9FF8E825F
:104AB8008F83A3A3A3A3A3A3A3A3A3A3E0640260D8
:104AC80003024C10750C06750D00780C12209CE53D
:104AD800082404FCE43509FDEE240CFAE43FFB123B
:104AE80016EF7402121E2FE964016003024C108E47
:104AF800828F83A3A37401F08E828F83A3A3A374F0
:104B080000F0A37400F08E828F83A3A3A3A3A374E1
:104B180000F0A37400F08E828F83A3A3A3A3A3A3A2
:104B2800A37400F0A37400F08E828F83A3A3A3A3C1
:104B3800A3A3A3A3A37401F0EE2483F582E43FF5B5
:104B4800837400F0850882850983A3A3A3A3A3A384
:104B5800A3A3A3A3E0F8A3E0F98E828F83E8F0A3D0
:104B6800E9F08E828F83A3A3A3A3A3A3A3A3A3A3E4
:104B78007403F09090747405121E7F7402121D2C39
:104B8800901ABFE0F8A3E0C82471F582C83401F593
:104B980083E0F50B780B1220A079027406121E7FB1
:104BA8008E828F83E0FAA3E0FB1208017401121EC3
:104BB8002FE9FA790312195FE9901ABFE0F8A3E028
:104BC800F5838882E0F8A3E0F5838882A3A3E0F860
:104BD800A3E0F5838882121E87E50AF87900901A07
:104BE800BFE028F8A3E039F9E82406F582E93403A0
:104BF800F5837401F07903901ABFE02406FAA3E064
:104C08003403FB1219538005050A024A7C901ABF27
:104C1800E0F8A3E0C82474F582C83400F583E0F511
:104C28000CA3E0F50DE4F50EF50F780C1220987A38
:104C3800107B00901ABFE0F8A3E0C82471F582C881
:104C48003401F583E0F912188D7404121E2FE9FA65
:104C5800790212195FE9901ABFE0F8A3E0C824733B
:104C6800F582C83401F5837400F0802A85088285AE
:104C78000983A3E07020850882850983A3A3A3A3E1
:104C8800A3A3A3A3A3A3E0FAA3E0FB121473E9FA76
:104C9800790312195FE9024DE97E007F007A007BF3
:104CA80003EAC39B5078EAF87900E875F086A4C84F
:104CB800ACF075F000A42CFC75F086E9A42CF990F2
:104CC8001ABFE028F8A3E039F9E82474F582E9343A
:104CD80001F583E0F8A3E0F9850882850983A3A399
:104CE800A3E0687003A3E0697031EAF87900E87519
:104CF800F086A4C8AAF075F000A42AFA75F086E92F
:104D0800A42AF9901ABFE028F8A3E039F9E8247436
:104D1800F8E93401F9E8FEE9FF80030A8083EE4FE1
:104D280060648E828F83A3A3A3A3A3A3A3A3A3A337
:104D38007400F08E828F8374FFF0A374FFF0EE246A
:104D480085F582E43FF583E0F87900901ABFE02802
:104D5800F8A3E039F9E82406F582E93403F5837409
:104D680000F0850882850983A3A3A3A3A3E0FA79A9
:104D78000412195FE97903901ABFE02406FAA3E048
:104D88003403FB12195380599090767403121E7FD6
:104D98007402121D2C750A02780A1220A0740412DB
:104DA8001E6F880A890B780A12209C7C297D008551
:104DB8000882850983A3A3A3A3E0FAA3E0FB901AC2
:104DC800BFE0F8A3E0C82471F582C83401F583E098
:104DD800F9121A737403121E2FE9FA790312195F74
:104DE800E97901743A121E2F7F08021F5BC082C046
:104DF800837A00EAC394034003024EECEAF8790090
:104E0800E875F086A4C8ABF075F000A42BFB75F02C
:104E180086E9A42BF9901ABFE028F8A3E039F9E84D
:104E2800247EF582E93401F583E064016003024ED3
:104E3800E8901ABFE0F8A3E0C82473F582C83401EB
:104E4800F5837401F0EAF87900E875F086A4C8AB38
:104E5800F075F000A42BFB75F086E9A42BF9901AE5
:104E6800BFE028F8A3E039F9E8247EF582E93401A7
:104E7800F5837402F0EAF87900E875F086A4C8AB07
:104E8800F075F000A42BFB75F086E9A42BF9901AB5
:104E9800BFE028F8A3E039F9E82480FCE93401FDF3
:104EA800EAF87900E875F086A4C8AAF075F000A4BD
:104EB8002AFA75F086E9A42AF9901ABFE028F8A31F
:104EC800E039F9E8247FF582E93401F583E0FB7ADB
:104ED800007900121479E9FA790312195FE980045C
:104EE8000A024DFBD083D08202013274F6121E8969
:104EF80074EB121E198A088B097E007F007A007BEA
:104F080003EAC39B5077EAF87900E875F086A4C8ED
:104F1800ACF075F000A42CFC75F086E9A42CF9908F
:104F28001ABFE028F8A3E039F9E82474F582E934D7
:104F380001F583E0F8A3E0F9850882850983A3A336
:104F4800E0687003A3E0697031EAF87900E875F069
:104F580086A4C8AAF075F000A42AFA75F086E9A418
:104F68002AF9901ABFE028F8A3E039F9E82474F880
:104F7800E93401F9E8FEE9FF80030A8084EE4F7006
:104F88000302522D8E828F83A3A3E0640160030283
:104F9800510D850882850983A3A3A3A3E064076054
:104FA8000302504F850882850983A3A3A3A3A3E026
:104FB800700302504F850882850983A3A3A3A3A386
:104FC800A3E0F8A3E0F5838882E0FA7B00850882F5
:104FD800850983A3A3A3A3A3A3E0F8A3E0F583888B
:104FE80082A3E0F87900E4C8F9EA28F8EB39F98EE9
:104FF800828F83A3A3A3E8F0A3E9F085088285093B
:1050080083A3A3A3A3A3A3E0F8A3E0F5838882A3C3
:10501800A3E0FA7B00850882850983A3A3A3A3A341
:10502800A3E0F8A3E0F5838882A3A3A3E0F87900BE
:10503800E4C8F9EA28F8EB39F98E828F83A3A3A391
:10504800A3A3E8F0A3E9F0850882850983A3A3A3B5
:10505800A3E06407700C850882850983A3E0641ABD
:105068006012850882850983A3A3A3A3E064016075
:105078000302522D8E828F83A3A3A3E0F8A3E0F945
:10508800E849700302522D8E828F83A3A37402F025
:105098008E828F83A3A3A3E0F8A3E0F98518828505
:1050A8001983E8F0A3E9F08E828F83A3A3A3A3A3B7
:1050B800E0F8A3E0F97402121E65E8F0A3E9F074C1
:1050C80004121E657402F07405121E6574F1F07402
:1050D80006121E6574FFF0901ABFE0F8A3E0C8241A
:1050E80071F582C83401F583E0F9AC18AD198E82E8
:1050F8008F83E0FAA3E0FB120807E9FA7903121993
:105108005FE902522D8E828F83A3A3E064026003BD
:1051180002522D850882850983A3A3A3A3E064090D
:105128006003025224850882850983A3A3A3A3A34D
:10513800E07003025224850882850983A3A3A3A3F0
:10514800A3A3A3E0F8A3E0F5838882E0FA7B0085B7
:105158000882850983A3A3A3A3A3A3A3E0F8A3E0DC
:10516800F5838882A3E0F87900E4C8F9EA28F8EB27
:1051780039F98E828F83A3A3A3A3A3A3A3E8F0A3E3
:10518800E9F0901ABFE0F8A3E0C82406F582C83415
:1051980000F583E064016003025224901ABFE0F82E
:1051A800A3E0C8240DF582C83400F5831220B3901B
:1051B8001ABFE0F8A3E0C8240BF582C83400F583D1
:1051C8001220B3901ABFE0F8A3E0C82409F582C8FA
:1051D8003400F5831220B3901ABFE0F8A3E0C82486
:1051E80007F582C83400F583E0FCA3E0FD8E828FCA
:1051F80083E0FAA3E0FB12147F7406121E2FE9FA6B
:10520800790312195FE960148E828F83E0FAA3E0B4
:10521800FB121473E9FA790312195FE98E828F83FE
:10522800A3A37400F07415121E2F7F02021F5B7473
:10523800F0121E897A047B00901ABFE0F8A3E0C838
:105248002471F582C83401F583E0F912189FEA4BFE
:105258004C4D60227A047B00901ABFE0F8A3E0C8A6
:105268002471F582C83401F583E0F9121899E9FA36
:10527800790212195FE97A087B00901ABFE0F8A357
:10528800E0C82471F582C83401F583E0F912189F4B
:10529800EA4B4C4D60227A087B00901ABFE0F8A3D5
:1052A800E0C82471F582C83401F583E0F912189931
:1052B800E9FA790212195FE97A107B00901ABFE0C7
:1052C800F8A3E0C82471F582C83401F583E0F91227
:1052D800189FEA4B4C4D60227A107B00901ABFE071
:1052E800F8A3E0C82471F582C83401F583E0F91207
:1052F8001899E9FA790212195FE97E00901ABFE05D
:10530800F8A3E0C82473F582C83401F583E064018A
:105318007016901ABFE0F8A3E0C82473F582C83469
:1053280001F5837400F07E01901ABFE0F8A3E0C88D
:105338002472F582C83401F583E064017021901A63
:10534800BFE0F8A3E0C82472F582C83401F583747D
:1053580000F012148BE9FA790312195FE97E017FD4
:1053680000EFC394034003025417EFF87900E8757F
:10537800F086A4C8AAF075F000A42AFA75F086E9A8
:10538800A42AF9901ABFE028F8A3E039F9E8247EA6
:10539800F582E93401F583E06403703FEFF87900A2
:1053A800E875F086A4C8AAF075F000A42AFA75F08A
:1053B80086E9A42AF9901ABFE028F8A3E039F9E8A9
:1053C8002474F582E93401F583E0FAA3E0FB1214B2
:1053D80073E9FA790312195FE97E01EFF87900E8B9
:1053E80075F086A4C8AAF075F000A42AFA75F086AC
:1053F800E9A42AF9901ABFE028F8A3E039F9E824CB
:105408007EF582E93401F5837400F00F0253699048
:105418001ABFE0F8A3E0C8246FF582C83401F58309
:105428007400F0A37400F074016E70311218B18A20
:105438000C8B0D8C0E8D0F901ABFE0F8A3E0C824DA
:1054480078F582C83400F583E0F508A3E0F509E4AF
:10545800F50AF50B780C7908121C24800C750C00E1
:10546800750D00750E00750F00AA0CAB0DAC0EADD6
:105478000F7F08021F5B74F3121E89E9FF8A0A8BEB
:105488000BECFEEFC3940340030255A1EEC3941541
:1054980040030255A1EFF87900E875F086A4C8AA80
:1054A800F075F000A42AFA75F086E9A42AF9901A92
:1054B800BFE028F8A3E039F9E8247EF582E9340151
:1054C800F583E0640360030255A1EFF87900E875FD
:1054D800F086A4C8AAF075F000A42AFA75F086E947
:1054E800A42AF9901ABFE028F8A3E039F9E824744F
:1054F800F508E93401F509850882850983A3A3A382
:10550800A3A3A3A3A3A3E06069EEF50C780C122073
:10551800A0780A12209C850882850983A3A3A3A3E7
:10552800A3A3A3E0FCA3E0FD850882850983E0FA34
:10553800A3E0FB901ABFE0F8A3E0C82471F582C885
:105548003401F583E0F9121A737403121E2FE9FA75
:10555800790312195FE97016850882850983A3A368
:10556800A3A3A3A3A3A3A37400F07901802D7900BA
:105578008029EEF9AC0AAD0BE5082432FAE43509C6
:10558800FB121911E9640170047901800E7A13790C
:105598000312195FE97900800279007F05021F5B19
:1055A80074F2121E8974F2121E198A0C8B0DE9FF0F
:1055B8007E0075080178081220A07403121E6F88F7
:1055C800088909780812209C740B121E6F880889B4
:1055D80009780812209C7411121E6F8808890978AE
:1055E8000812209C7414121E7FEFF9AA0CAB0D123E
:1055F80019237407121E2FE9640160030262B6744E
:105608000C121E65E0603914700302569B14700377
:105618000256C11470030256E714700302571B1494
:10562800700302611414700302618E147003026126
:10563800E814700302625F147003025F800262B6AE
:105648007C017402121E65E0F97408121E65E0FA06
:10565800A3E0FB121989E960377E0174016E70308E
:105668001219E98A088B098C0A8D0B780812209880
:105678007A047B00901ABFE0F8A3E0C82471F58291
:10568800C83401F583E0F912188D7404121E2FE94D
:105698000262B67C017402121E65E0F97408121EDB
:1056A80065E0FAA3E0FB121989E9600A7E0174013A
:1056B8006E70031219E90262B67C017402121E654B
:1056C800E0F97408121E65E0FAA3E0FB121989E9F3
:1056D800600A7E0174016E70031219590262B67C69
:1056E800017402121E65E0F97408121E65E0FAA33F
:1056F800E0FB121989E960187E0174016E70117956
:1057080003901ABFE02406FAA3E03403FB121953EE
:105718000262B675080178081220A07401121E6F83
:1057280088088909780812209C740D121E6F880851
:105738008909780812209C7406121E6F8808890946
:10574800780812209C740A121E7F7409121E65E0E4
:10575800F9740F121E65E0FAA3E0FB12197D7407B5
:10576800121E2FE9700302581D7403121E65E064AF
:1057780007600302581D851882851983E0C39420A9
:10578800400302581D7401121E65E0C394034003D0
:1057980002581D7E0174016E707B851882851983FD
:1057A800E0F508750900780812209C740C121E6533
:1057B800E0FCA3E0FD7403121E65E0F87900E875CB
:1057C800F01FA4C8AAF075F000A42AFA75F01FE922
:1057D800A42AF9901ABFE028F8A3E039F9E824C60A
:1057E800FAE439FB1216DD7402121E2F8518828521
:1057F8001983E0C0E07401121E65E0F87900901A80
:10580800BFE028F8A3E039F9E82423F582E9340158
:10581800F583D0E0F0EE6003025988750801780836
:105828001220A07401121E6F8808890978081220B6
:105838009C740D121E6F88088909780812209C74C0
:1058480008121E7F7407121E65E0F9740D121E659A
:10585800E0FAA3E0FB1219777405121E2FE9700312
:105868000259887403121E65E0700302592924F254
:10587800600724FC606E025988851882851983E0C8
:10588800C39415505C851882851983E060537E01A6
:1058980074016E704C851882851983E0F5087509C6
:1058A80000780812209C740C121E65E0FCA3E0FD31
:1058B800901ABFE02430FAA3E03401FB1216DD741D
:1058C80002121E2F851882851983E0C0E0901ABF46
:1058D800E0F8A3E0C82444F582C83401F583D0E099
:1058E800F0025988851882851983E0641070307E2B
:1058F8000174016E70297508107509007808122066
:105908009C740C121E65E0FCA3E0FD901ABFE02415
:105918005CFAA3E03401FB1216DD7402121E2F801C
:105928005F851882851983E0C3941150537E0174F2
:10593800016E704C851882851983E0F50875090099
:10594800780812209C740C121E65E0FCA3E0FD9000
:105958001ABFE02445FAA3E03401FB1216DD7402F5
:10596800121E2F851882851983E0C0E0901ABFE0C7
:10597800F8A3E0C82455F582C83401F583D0E0F0D7
:10598800EE6003025F1775080178081220A07405FD
:10599800121E6F88088909780812209C7406121E46
:1059A8007F7405121E65E0F9740B121E65E0FAA3F8
:1059B800E0FB1219717403121E2FE97003025F17BE
:1059C8007403121E65E0147003025A571470030220
:1059D8005AA5147003025AF3147003025B41147041
:1059E80003025B81147003025BCF24FE7003025C28
:1059F80013147003025C61147003025CFD147003DD
:105A0800025D4B147003025CAF147003025D9924AD
:105A1800FE7003025DC5147003025E051470030274
:105A28005E3F24FE7003025E8D147003025ECC2478
:105A3800156003025F177E0174016E700F901ABF24
:105A4800E024B8FAA3E03400FB12199B025F177434
:105A580004121E65121D07E8494A4B601490901AFB
:105A68007808121CD17404121E657808121AA970DD
:105A7800297E0174016E70227404121E6578081262
:105A88001CD1E508C0E0901ABFE0F8A3E0C824BC28
:105A9800F582C83400F583D0E0F0025F1774041271
:105AA8001E65121D07E8494A4B603D908FDA780859
:105AB800121CD17404121E657808121ACE50297E61
:105AC8000174016E70227404121E657808121CD1CC
:105AD800901ABFE0F8A3E0C824BDF582C83400F5E9
:105AE80083E508F0A3E509F0025F177404121E6548
:105AF800121D07E8494A4B603D908FDA7808121C5E
:105B0800D17404121E657808121ACE50297E0174C9
:105B1800016E70227404121E657808121CD1901A46
