:020000040000FA
:0600000002011A0227258F
:03002B00022E4F53
:03003B00022E6C26
:03004300022D97F4
:0300530002279BE6
:03006B00022DC0A3
:03007B00022DFB58
:1000830002257BE5C754F84401F5C7790122000036
:100093000080FB120086B90003020104E479217891
:1000A30008B800028004F709D8FCE479297802B87B
:1000B30000028004F709D8FCE4900281787379196F
:1000C3008002F0A3D8FCD9FA781A90014A7A01BACF
:1000D30000028007E493A3F608DAF97AF37B1A9017
:1000E300014B78BB79038015E493A3AD82AE838A79
:1000F300828B83F0A3AA82AB838D828E83D8E9D9C6
:10010300E775821B7583F9740412012C758291754E
:100113008300740012012C75D00075813F7518811E
:10012300751902759F00020096C09FF59FE473D076
:100133009F22D083D082C09FE493C0E0740193C018
:10014300E0740293F59F2201C105CD050306FD0569
:10015300FF0000B4000028002800283075A000A08C
:1001630000A000A00000080008E001F0001000104B
:10017300001000100010001000500050005000103C
:10018300001000D0070000000000000F0001000570
:1001930000307507001000010081FF00000000FF20
:1001A300FFFF41075F0747078307FF0202020802B9
:1001B3005000A0000000E803026490010000539087
:1001C300025E90010000561B029490010000F402AD
:1001D300025E90010000571B024E8F0100000A03CC
:1001E300025E90010000581B0258900100000C03AE
:1001F300025E90010000591B025A900800000D0393
:10020300025E900100005A1B0260900100005B1B1C
:10021300FFFF0100FF200264900100004A90025E8C
:1002230090010000C01B0272900000000000025603
:10023300900300003D031700E10FE10FE10FE10F11
:10024300E10FE10FE10FE10FE10FE10FE10FE10F2B
:10025300E10F451263123F1289139B1383130202AA
:1002630002020202020202010D00000010010264F8
:10027300900100004D90025E90010000091C02866F
:10028300900100008C0D025E900100000A1C0284A4
:1002930090010000318F025E900100000B1C02826E
:1002A30090010000F98E025E900100000C1C028098
:1002B30090010000A58E025E900100000D1C027EDD
:1002C30090010000938E025E900100000E1C027CE0
:1002D30090010000B78E025E900100000F1C027AAD
:1002E30090010000818E025E90010000101C0278D4
:1002F30090010000238F025E90010000111C027622
:1003030090010000121C01E803057710020A0A6F2E
:1003130015000000010000020000030000040000BB
:100323000500000600000700001000001100001285
:100333000000130000140000150000160000170051
:100343000000000001000200030004000500060095
:10035300070010001100120013001400150016000E
:1003630017FFFF0001A317A9170000AF170000052F
:1003730004013075030201060000000000000000C4
:10038300000000000000000000000000000000006A
:1003930000000000FFFF0600800CE8030A536572AB
:1003A30076657220546F20436C69656E740000108B
:1003B300436C69656E7420546F2053657276657261
:1003C30000000264900100005090025E9001000062
:1003D300471D029290030000C51A025C90010000C1
:1003E300481D025E900100005A1D028C900000001F
:1003F300DB1A025690030000F11A025C9001000020
:100403005B1D120135BFEF04120135CEEF0412015B
:1004130035E7EF04120135FDEF04120135C1F00495
:10042300120135D6F0041201359C7D00120135AF5F
:100433007D00120135D07D001201353B7E00120193
:10044300357C7E001201359D7E00120135DE7E0073
:10045300120135767F00120135BE7F00120135127D
:10046300D30412013525D30412013556D3041201E6
:100473003590D304120135E9D30412013530D40485
:1004830012013578D404120135A7D404120135D6EC
:10049300D4041201350DD50412013554D5041201CB
:1004A300356DD504120135C2D504120135DBD504EF
:1004B30012013529D60412013563D6041201357DA4
:1004C300AF0312013580B003120135ADB003120141
:1004D30035FEB00312013521B10312013533B103E7
:1004E30012013536B10312013574B103120135E837
:1004F300B10312013554B2031201351CB3031201C7
:100503003538B3031201356FB303120135A9B303B1
:1005130012013540B40312013592B403120135C3FD
:10052300B403120135F4B40312013501B50312010A
:10053300356BB5031201356EB5031201357BB50377
:100543001201357EB503120135D5B503120135D835
:10055300B50312013511B60312013514B6031201A6
:100563003548B6031201354BB6031201359FB60366
:10057300120135E8B603120135F8B6031201352B23
:10058300B70312013538B7031201353BB703120124
:1005930035A3B703120135A5B80312013549B903D1
:1005A300120135B2B903120135F0B9031201352036
:1005B300CE0312013518CF031201354CCF031201BC
:1005C30035E2CF031201352DD00312013591D0034B
:1005D3001201351BD103120135D4D103120135F6B3
:1005E300D40312013573D60312013596D6031201D3
:1005F300350EC304120135B3C404120135D3C40448
:10060300120135F4C50412013547C60412013554ED
:10061300C7041201357CC704120135A9C7041201AE
:1006230035E1C7041201353FC8041201358BC804F4
:10063300120135F2C80412013532C9041201356FB3
:10064300C9041201359DC90412013547CA041201B8
:100653003551CA041201355ECA0412013591CA0428
:100663001201359DCA04120135B5CA04120135BF02
:10067300CA041201351CF4041201352AF4041201D0
:100683003542F4041201355AF40412013571F404AD
:100693001201357ACF0212013524D0021201353707
:1006A300D102120135B3D102120135D1D2021201A6
:1006B300350DD302120135A8D3021201358CD402B1
:1006C3001201354FD502120135C7D5021201355536
:1006D300D702120135C6D70212013580D8021201A2
:1006E3003572D902120135B2D90212013566DA0226
:1006F30012013598DA021201358EDC02120135D56A
:10070300DC02120135F3DC0212013559DD0212015C
:100713003528DE02120135ECDE021201350BE1024F
:1007230012013515E102120135008004120135EA88
:100733008004120135958104120135E6810412010A
:1007430035968204120135078304120135EC8304C4
:10075300120135208404120135198504120135561E
:1007630085041201353286041201357186041201A3
:10077300358D8604120135C9E6041201354DE704AF
:1007830012013578E70412013592E8041201354D60
:10079300CB0412013563CB0412013581CB04120162
:1007A3003592CC041201359CCC04120135C7CD041B
:1007B300120135BECE041201352BCF04120135359B
:1007C300CF04120135EE8604120135248804120188
:1007D300359E8804120135CE8804120135E1880460
:1007E3001201353889041201354D8B04120135008D
:1007F3008002120135B18002120135CD800212014F
:1008030035968102120135B08102120135BB810296
:100813001201359182021201356E8302120135FEF7
:100823008302120135B58402120135C38702120116
:1008330035B28902120135648A021201352D8B0209
:10084300120135728E021201351C8F0212013545D9
:100853009002120135019202120135A19202120196
:1008630035EF92021201352E9302120135019402E3
:10087300120135359402120135C29402120135E694
:10088300BC0212013572BD02120135D6BE0212013D
:1008930035E2BE021201351DBF021201358CBF02C3
:1008A30012013595C0021201359EC1021201356550
:1008B300C202120135C2C302120135E0C3021201A2
:1008C30035FDC302120135AAC40212013527C50240
:1008D3001201354FC50212013519C8021201351E26
:1008E300C80212013537CA0212013585CA02120144
:1008F30035F5CA0212013533CB021201350FCC0292
:10090300120135CFCC021201351BCD021201351E67
:10091300CD0212013562CD02120135AACD021201B8
:1009230035E9CD021201350BCE021201353FCE025D
:10093300120135A2CE0212013597A204120135A08D
:10094300A204120135AEA20412013501A30412015F
:100953003520A30412013565A304120135A9A404AB
:1009630012013544A50412013588A504120135B2DC
:10097300A50412013521A60412013567A60412014C
:1009830035DEA6041201358FA704120135E42E00CB
:10099300120135F42E00120135952F00120135F1A5
:1009A3002F00120135AE3000120135CA3100120199
:1009B30035FC31001201352B3200120135D83300DA
:1009C3001201354F3600120135BF3800120135B11F
:1009D3003900120135AA3A00120135B13C00120167
:1009E30035A53F00120135D44000120135D842002D
:1009F300120135E8430012013577450012013568CD
:100A03004600120135B64600120135254700120192
:100A1300354947001201359A47001201353B4C0016
:100A23001201353C4D001201359D4D00120135C8B0
:100A33004D001201358E4E00120135BC9204120195
:100A430035C692041201350B93041201351F93042A
:100A5300120135AF9304120135E8930412013523D3
:100A630094041201354C94041201359A9404120132
:100A730035AF9404120135C49404120135D994049A
:100A83001201351C95041201353195041201359C70
:100A93009504120135B09504120135C49504120171
:100AA30035D995041201351396041201353796048E
:100AB3001201356396041201359A9604120135FC2E
:100AC30096041201356E97041201359997041201A9
:100AD30035DC970412013506980412013531980468
:100AE3001201350CF1041201357C8C031201355FC0
:100AF3008D03120135DA8D03120135158E031201B0
:100B030035668F03120135EF8F0312013507920308
:100B13001201359994031201354B95031201355790
:100B23009603120135CA9703120135239803120164
:100B3300355998041201359C980412013520990403
:100B4300120135F39904120135CA9C04120135B719
:100B5300DF0412013564E00412013571E10412016E
:100B630035B0E1041201350AE204120135C1E8048B
:100B730012013524E904120135C1E904120135F6E5
:100B8300E90412013526EA0412013547EA04120189
:100B93003582EA04120135A2EA04120135A1A70441
:100BA3001201352DA804120135ECA80412013504F5
:100BB300AA041201351EAC04120135CC98031201AC
:100BC30035F19803120135BE9903120135929A0348
:100BD300120135FF9A03120135559B03120135F1BA
:100BE3009B03120135259D03120135009E0312015B
:100BF300355F9E03120135EB9E03120135599F03A6
:100C0300120135E59F03120135E89F0312013532C6
:100C1300A003120135A4A00312013536A10312016A
:100C230035D7A103120135F7A1031201353FA20302
:100C330012013588A203120135A4A203120135CA99
:100C4300A20312013544A30312013552A303120177
:100C530035E1A3031201354AA403120135ECB004B4
:100C630012013571B104120135B3B1041201359784
:100C7300B20412013504B30412013548B30412015E
:100C8300358CB304120135B9B304120135E1B30451
:100C930012013519B40412013557B4041201357E1B
:100CA300B404120135F8B40412013542B50412013B
:100CB30035FA4E00120135F35000120135DF5300AF
:100CC3001201353354001201355E540012013538D8
:100CD3005500120135775500120135BE550012013A
:100CE30035D155001201351256001201353F560019
:100CF3001201358D5600120135CC5600120135F71D
:100D030056001201354A5700120135D95700120116
:100D130035B75A00120135D25C00120135105D005F
:100D2300120135855E00120135CA5E00120135BE1F
:100D33005F00120135D761001201353962001201DB
:100D4300358A6200120135A56700120135F4670088
:100D53001201353A6800120135226A00120135F09A
:100D63006B00120135F56B00120135CF6C001201D7
:100D730035FA6C001201356F6D00120135A06D005C
:100D8300120135D06E00120135E26E0012013511E9
:100D9300DD0412013583DD04120135D9DD041201AE
:100DA300351DDE041201353DDE041201358ADE04F1
:100DB300120135D2DE0412013525DF041201357626
:100DC300DF041201356EC403120135EDC4031201B1
:100DD30035E6CA03120135ECCB031201355FCD03AF
:100DE300120135F6CD0312013540B00112013589E8
:100DF300B001120135B6B001120135E8B00112019C
:100E030035F4B00112013500B10112013517B101FA
:100E1300120135F2B10112013550B20112013585CB
:100E2300B201120135B6B30112013503B401120147
:100E33003549B401120135B5B40112013559B50173
:100E43001201350FB6011201356EB601120135DFFD
:100E5300B6011201353DB7011201356FB801120118
:100E630035D7B901120135A1BA01120135AEBA0164
:100E7300120135F0BA0112013500BB01120135240C
:100E8300BB0112013527BB0112013513BC0112014D
:100E930035AFBC0112013548BD01120135DFBD017B
:100EA3001201350CBE011201356ABE01120135B1C2
:100EB300BE0112013501BF0112013551BF011201FB
:100EC30035C3BF011201355EC00112013509C101ED
:100ED300120135A8C10112013526C2011201356D77
:100EE300C201120135D1C20112013500C301120141
:100EF3003597C301120135A9C501120135EDC501AD
:100F030012013538C601120135BEC601120135483A
:100F1300C70112013561C801120135E7C801120189
:100F2300350CC90112013563C90112013578C901B4
:100F3300120135C0C90112013533CA0112013578D6
:100F4300CA0112013581CB0112013532CC011201E4
:100F53003590CC01120135ECCC0112013505CD01E0
:100F6300120135B9D7031201350DD8031201351912
:100F7300D803120135E3D80312013510D903120146
:100F8300353ED903120135AAD903120135E0D9033D
:100F930012013510DA0312013549DA031201356102
:100FA300DA03120135B6DA03120135CFDA0312017F
:100FB3003514DB0312013527DB0312013541DB0353
:100FC30012013557DB0312013575DC03120135A01D
:100FD300DD031201358ADE031201357BDF031201C3
:100FE30035E97F001201357C9D04120135FFA00411
:100FF3001201354CA204120135008003120135D3CE
:101003008203120135D98203120135698503120166
:1010130035CC870312013555AC04120135ECAC0411
:10102300120135AAAD04120135D4AD04120135AE57
:10103300AF04120135B3B0041201353DE4011201CE
:10104300356FE4011201358CF001120135DDF10138
:10105300120135E6F20112013565F4011201355032
:10106300F5011201359FF501120135B9F5011201A0
:1010730035FBF50112013506F6011201354DF60176
:1010830012013556F60112013502F701120135DB63
:10109300F70112013522F8011201358AF801120114
:1010A30035CCF801120135FAF80112013537F9018F
:1010B300120135E2A902120135ADAD02120135B3B9
:1010C300AD0212013557B402120135ABB802120159
:1010D3003594BC021201353FCF04120135B5CF045C
:1010E300120135CBCF041201355BD00412013598C0
:1010F300D004120135D2D0041201350CD1041201EF
:10110300357FD104120135C0D104120135C9D10490
:10111300120135D5D104120135F4D1041201351E63
:10112300D20412013533D2041201355BD204120109
:1011330035BDD204120135E4D20412013513F9038B
:1011430012013526F90312013540F9031201356DF9
:10115300F903120135B3F903120135E6F90312015C
:101163003524FA0312013589FA031201359EFA0375
:10117300120135A9FA03120135B6FA03120135CD6E
:10118300FA03120135DBFA03120135EAFA031201FD
:1011930035FFFA0312013514FB031201351FFB035C
:1011A3001201352BFB0312013538FB031201354BBA
:1011B300FB0312013556FB031201357BFB031201BE
:1011C300351FFC031201352FFC0312013544FC03C8
:1011D30012013559FC0312013573FC0312013590DA
:1011E300FC03120135ADFC03120135B8FC031201F7
:1011F3003564FD0312013545FE031201356AFE0312
:1012030012013575FE031201358AFE031201359E64
:10121300FE03120135FFFE0312013505FF03120120
:10122300350BFF0312013511FF0312013529FF03AB
:101233001201355CFF0312013516BA03120135386A
:10124300BA0312013500BB03120135BABD03120103
:1012530035D0BE03120135F1BF03120135CBC003F4
:101263001201357AC103120135D0EE02120135673E
:10127300EF02120135FFEF02120135EFF002120106
:101283003526F10212013539F102120135A7F102B7
:1012930012013542F30212013569F3021201350BD3
:1012A300F40212013540F40212013551F402120125
:1012B30035CAF402120135EBF40212013503F502CB
:1012C3001201355BF60212013564F802120135B4DE
:1012D300FA02120135B7FB0212013506FC021201B4
:1012E30035056F00120135027000120135ED7000F3
:1012F300120135F770001201350171001201352317
:1013030071001201352F7100120135817200120133
:1013130035B07200120135E07300120135227400FA
:101323001201354E7500120135247600120135760F
:101333007600120135D576001201350C77001201C3
:1013430035477700120135E27A00120135FB7A0046
:101353001201357D7B001201358B7B00120135E0D4
:101363007B00120135EE7B001201355B7C0012011C
:1013730035CD7C00120135137D001201356DA403B8
:101383001201358FA40312013579A6031201351E0C
:10139300AA0312013561AB031201353BAC03120101
:1013A300357EEC04120135A3EC0412013514ED046F
:1013B30012013535E1031201353EE10312013547D0
:1013C300E10312013578E20312013597E4031201B8
:1013D30035CDE40312013507E5031201353DE5037D
:1013E30012013577E503120135ABE503120135D759
:1013F300E50312013520E6031201355AE603120113
:1014030035A2E603120135F8E6031201352DE70391
:1014130012013588E703120135C2E70312013513C0
:10142300E80312013549E80312013583E803120189
:1014330035B1E803120135D4E803120135B1F504DF
:10144300120135DDF50412013538F6041201354277
:10145300F60412013552F604120135148D041201FB
:1014630035528D04120135D98D04120135578E047E
:101473001201356C8E04120135BB8E04120135EF57
:101483008E041201352E8F041201353D8F04120193
:1014930035968F04120135E58F0412013537900418
:1014A3001201355591041201354792041201358416
:1014B3009204120135F3D9041201351ADA04120128
:1014C3003545DA04120135A6F80412013535CD018C
:1014D3001201359ECF011201353DD1011201359A1A
:1014E300D10112013536D20112013513D301120194
:1014F300358ED30112013510D40112013535D401D3
:1015030012013598D401120135F7D7011201355B69
:10151300D80112013548D9011201357ED9011201D2
:1015230035C1D90112013552DB011201357EDB01D0
:10153300120135C0DB0112013509DC0112013575D9
:10154300DC01120135A3DC01120135BDDC011201FE
:1015530035E4DD01120135FBDD01120135D6DF0172
:10156300120135F4DF011201352AE001120135B60B
:10157300E10112013533E201120135A9E201120141
:1015830035E7E2011201350BE40112013582B5049E
:10159300120135E0B50412013537B704120135994C
:1015A300B7041201355AB80412013579B80412018F
:1015B30035C9B80412013507B9041201356EF904AF
:1015C300120135ADF904120135EAFF011201355C50
:1015D300F6041201356CF6041201357BF604120190
:1015E30035F7F60412013520F204120135A4F20492
:1015F3001201350AF30412013521F804120135945E
:10160300F704120135F87F00120135B0EA04120124
:10161300351AEC041201357BEC04120135CBD604E8
:101623001201355BD704120135D9D7041201356A8B
:10163300D804120135FBD8041201353ED904120136
:101643003548D90412013557D9041201356DD9042F
:1016530012013580D904120135DCD904120135F0A9
:10166300D90412013504F7041201356EF70412018F
:101673003579F70412013589F704120135FDF904B0
:101683001201350FFA041201356BFA011201357597
:10169300FA01120135B5FA01120135FEFA01120100
:1016A3003536FB0112013590FB01120135ADFB010B
:1016B300120135B7FB01120135FEFB01120135237F
:1016C300FC0112013538FC01120135A9FC0112019C
:1016D3003542FD011201358DFD01120135BAFD01BF
:1016E3001201353EFE0112013579FE01120135ACBE
:1016F300FE01120135BEFE01120135DDFE011201AC
:1017030035F6FE0112013505FF01120135BEFF0159
:1017130012013534EE0412013589EE04120135F756
:10172300EE041201356BEF0412013553FC02120172
:10173300357BFC0212013570FD0212013595FD0265
:1017430012013537FE02120135B8FE0212013523AC
:10175300F304120135CDE40412013503E50412014B
:101763003536E5041201358FE60412013501F5041F
:1017730012013517F50412013521F50412013575EF
:10178300F504120135A6F50412013555E2041201E0
:101793003579E2041201359AE204120135B5E20407
:1017A300120135F1E2041201352EE304120135A1D1
:1017B300E304120135E1E30412013562E903120186
:1017C300352BEA0312013566EA0312013597EA0362
:1017D300120135F7EA0312013541EB031201358F8C
:1017E300EB031201351AEC0312013513ED03120159
:1017F30035B7EE0312013537EF03120135A2EF03BC
:10180300120135B5EF031201359CF003120135E6E1
:10181300F0031201358FBE04120135A5BE04120177
:101823003546BF0412013585BF04120135A2BF043A
:10183300120135D3BF0412013520C0041201355300
:10184300C0041201358EC00412013599C20412017D
:101853003501C3041201351FE102120135C2E4024E
:1018630012013551E602120135A8E602120135C70D
:10187300E602120135D0E6021201354EE7021201EB
:1018830035E3E802120135B6E9021201354DED02E6
:1018930012013535EE0212013555F1031201357887
:1018A300F103120135F3F103120135BAF203120108
:1018B300353EF303120135A9F303120135B4F303E3
:1018C3001201350FF4031201359AF403120135C0E6
:1018D300F40312013535F503120135B9F50312018D
:1018E30035E4F503120135FDF50312013511F60355
:1018F3001201353FF6031201354EF603120135C4CA
:10190300F603120135FAF60312013543F703120108
:1019130035ADF703120135FDF70312013535F80331
:101923001201359890011201359B90011201355334
:1019330092011201351993011201355396011201D7
:1019430035949701120135A797011201352B99019F
:101953001201357D99011201359E9901120135CC91
:1019630099011201356D9A01120135F9A101120194
:101973003567A201120135BAA401120135A8A501E8
:101983001201357EA60112013524B001120135B8CA
:101993009502120135BB95021201353297021201ED
:1019A30035BA9702120135E397021201356D9B0296
:1019B3001201359A9B02120135D69C02120135F0B1
:1019C3009C02120135079D021201351C9F02120170
:1019D30035869F02120135AC9F02120135D69F0254
:1019E3001201356FA00212013519A102120135C689
:1019F300A9021201350DBA0412013572BA0412019B
:101A0300358FBA041201355FBB04120135FCBB04E8
:101A130012013541BC041201350BBD041201355DC1
:101A2300BE04120135B7F904120135D3FF021201C6
:101A330035DEFF03E066701008A3E066700A08A3B2
:101A4300E066700408A3E06622C3E7960809E796F8
:101A53000809E7960809E79622C3E09608A3E096EB
:101A630008A3E09608A3E09622C008C3E096F50811
:101A730008A3E096420808A3E096420808A3E0966C
:101A830045087001D3D00822080808EAC0E0EBC07B
:101A9300E086F0E7A4FA180986F0E7A42AFA180901
:101AA30086F0E7A42AFA180986F0E7A42AFA198629
:101AB300F0E7A4FBE5F02AFA190886F0E7A42BFB6C
:101AC300E5F03AFA190886F0E7A42BFBE5F03AFAB9
:101AD30018180986F0E7A4C5F02BFBE43AFA1908B5
:101AE300E7C5F0C6A426F6E5F03BFBE43AFA188610
:101AF300F0E7A4F6E5F00826F6E43B08F6E43A0836
:101B0300F6D0E0FBD0E0FA22E4CFC0E0E4CEC0E0C0
:101B1300E4CDC0E0E4CCC0E075F020E626F608E6AC
:101B230033F608E633F608E633F6181818EC33FCF8
:101B3300ED33FDEE33FEEF33FFC3EC9709ED970969
:101B4300EE9709EF97191919400FFFEC97FC09ED70
:101B530097FD09EE97FE191906D5F0BFECF709EDCD
:101B6300F709EEF709EFF7191919D0E0FCD0E0FDFA
:101B7300D0E0FED0E0FF226016080808C6C313C6F3
:101B830018C613C618C613C618C613C6D5E0EA226C
:101B93007009080808226016181818C6C333C60847
:101BA300C633C608C633C608C633C6D5E0EA22E63E
:101BB30027F60809E637F60809E637F60809E6378F
:101BC300F622E026F608A3E036F608A3E036F60888
:101BD300A3E036F622E026F008A3E036F008A3E0FF
:101BE30036F008A3E036F022C3E697F60809E69735
:101BF300F60809E697F60809E697F622C3E096F099
:101C030008A3E096F008A3E096F008A3E096F0227C
:101C1300E657F60809E657F60809E657F60809E60F
:101C230057F622E056F608A3E056F608A3E056F668
:101C330008A3E056F622E056F008A3E056F008A306
:101C4300E056F008A3E056F022E066F608A3E0664B
:101C5300F608A3E066F608A3E066F622E0F608A31A
:101C6300E0F608A3E0F608A3E0F622E6F008A3E610
:101C7300F008A3E6F008A3E6F022E0FAA3E0FBA352
:101C8300E0FCA3E0FD22EAF0A3EBF0A3ECF0A3ED6C
:101C9300F022E0F8A3E0F9A3E0FAA3E0FB22E8F0E6
:101CA300A3E9F0A3EAF0A3EBF022CAC0E0E6F0A3B5
:101CB30008DAFAD0E0FA22CAC0E0E0A3C582CCC5B4
:101CC30082C583CDC583F0A3C582CCC582C583CD30
:101CD300C583DAE6D0E0CA22C3E498F8E499F9129E
:101CE3001D1C8026C3E49AFAE49BFBE920E7E91272
:101CF3001D1CE498F8E499F922C3E498F8E499F9EF
:101D0300121D1CE498F8E499F9C3E49AFAE49BFBE6
:101D130022EB20E7CFE920E7E0B90010BB0008E899
:101D23008AF084F8AAF022E4FBC8FA22EB70227B43
:101D330010C833C8C933C9335007C39AC3DBF28011
:101D4300069A50012ADBEAC833F4C8C933F4C9FA46
:101D53002275F008E4C833C8C933C933C99AC99B8B
:101D63005004C92AC93BD5F0ECFBC833F4C8E4C915
:101D7300FA22600D08C6A2E713C618C613C6D5E03B
:101D8300F322600C08C6C313C618C613C6D5E0F405
:101D930022700422600D18C6C333C608C633C6D5E5
:101DA300E0F41822251810AF08F518400C15198017
:101DB30008F51840021519D2AF2200C0D02518101B
:101DC300AF08F518500C05198008F51850020519CD
:101DD300D2AFD0D0222518F58210AF08F518400CE9
:101DE30015198008F51840021519D2AF85198322F9
:101DF3002518F582E43519F583222518F8E43519F9
:101E0300F9222518FAE43519FB222518FCE43519C3
:101E1300FD22E4732518C582C0E0E51934FFC583AC
:101E2300C0E0E518C3958224F810AF0885831985AF
:101E330082188008858319858218D2AFCEF0A3E576
:101E430020F0A37808E608F0A3DEFAEFF0A3E5811B
:101E530024FAF8E608F0A3E608F0A3E608F0A308DE
:101E630008E608F0A3E608F0A315811581D0E0FE8B
:101E7300D0E0F8158115811581E8C0E0EEC0E022BD
:101E83002518C582C0E0E51934FFC583C0E0E51815
:101E9300C3958224F910AF088583198582188008B9
:101EA300858319858218D2AFCEF0A3E520F0A378FD
:101EB30008E608F0A3DEFAEFF0A3E58124FBF8E6D9
:101EC30008F0A3E608F0A30808E608F0A3E608F084
:101ED300A315811581D0E0FED0E0F815811581E8C6
:101EE300C0E0EEC0E022851983851882E0A3FEE0FE
:101EF300A3F5207808E0A3F608DFFAE0A3FFE0A348
:101F0300C0E0E0A3C0E0E0A3C0E0E0A3C0E0E0A342
:101F1300C0E010AF08858218858319800885821870
:101F2300858319D2AFD083D082020132851983858C
:101F33001882E0A3FEE0A3F5207808E0A3F608DF0B
:101F4300FAE0A3FFE0A3C0E0E0A3C0E0E0A3C0E0A9
:101F5300E0A3C0E010AF0885821885831980088547
:101F63008218858319D2AFD083D08222C0D025189E
:101F7300C582C0E0E51934FFC583C0E0E518C39509
:101F83008224F310AF08858319858218800885831E
:101F930019858218D2AFC8F0A3E9F0A3EAF0A3EB46
:101FA300F0A37908E709F0A3D8FAECF0A3EDF0A3C6
:101FB300EEF0A3EFF0A3D0E0F0A3D0E0F0A3D0E0E5
:101FC300F0A3E520F0A3E5F0F0A32285198385189B
:101FD30082E0C0E0A3E0F9A3E0FAA3E0FBA3780862
:101FE300E0F608A3DFFAE0FCA3E0FDA3E0FEA3E034
:101FF300FFA3E0C0E0A3E0C0E0A3E0F5D0A3E0F5D9
:1020030020A3E0A3F5F010AF08858319858218801B
:1020130008858319858218D2AFD082D083D0E0F8A7
:10202300D0E03274048006740280027401C0E0F4CC
:1020330004121DD8D0E0121CAD2274048004740273
:102043008000CCC0E0EDC0E0E518C39CCCAD1950D6
:10205300011D10AF068C188D1980068C188D19D2AE
:10206300AF121CBAD0E0FDD0E0FC22D083D082E9CD
:10207300C0E0E493A3C386F0C5F095F0F908E493B8
:10208300A386F0C5F095F0700BE493A3C3994005C4
:10209300E9048002A3E475F002A42582F582E5F049
:1020A3003583F583D0E0F9E493A3C0E0E493C0E083
:1020B30022D083D082ECC0E0EDC0E0E493A3FCE443
:1020C30093A3FDED4C600D122100EC24FFFCED34D5
:1020D300FFFD80EFE493A3FCE493A3FDED4C600DBF
:1020E30012213FEC24FFFCED34FFFD80EFD0E0FD37
:1020F300D0E0FCE493A3C0E0E493C0E022C0E0C3DB
:10210300E49396087401939618400FE4936670085D
:1021130008740193661870007019A3A3C3E493961F
:10212300087401939618A3A3400DD0E0D0E0D0E04B
:102133000220F0A3A3A3A3A3A3D0E022C0E0C0F096
:1021430088F0E4936670080874019366187000A819
:10215300F0A3A3700BD0F0D0E0D0E0D0E00220F0E9
:07216300A3A3D0F0D0E0229D
:10216C0074F6121E83EAFEEBFF8C088D09EE243404
:10217C00F8E43FF9E8FCE9FD12229EE0FAEE243780
:10218C00F582E43FF583E0F88508F0A4C885F00AF1
:10219C008509F0A4250AF9EA28F8E439F97A257BAF
:1021AC0000121D1CEA8C828D83F0FA131313541F3A
:1021BC00F8EE28F8E43FF9E8245DF582E439F5837C
:1021CC00E0C0E074075AF8D0E0B800028004C313F2
:1021DC00D8FCA2E05003EA8020EE2436F582E43FDE
:1021EC00F583E0F5F0EA84A8F0EE28F8E43FF9E88E
:1021FC002438F582E439F583E0F97F03021F2F744C
:10220C00F5121E83EAFEEBFFEE2434F582E43FF573
:10221C0083E0C0E012229ED0E0F08E828F83A3A3D5
:10222C00A3A3A3E0FAA3E0FB8E828F83A3A3A3A3B3
:10223C00A3A3A3E0C39AF508A3E09BF509EE247FC2
:10224C00F8E43FF9880A890B8882F583E064017011
:10225C002CEE2480F582E43FF583EA2401F8E43B7C
:10226C00F9E0687003A3E06970137C047D07EEFA53
:10227C00EFFB120EEB850A82850B83E4F0AC08AD04
:10228C0009EEFAEFFB12216CE9F9122D897F040299
:10229C001F2FEE2435F582E43FF58322C082C083E4
:1022AC00851882851983E0F8A3E0F9C3EA9CEB9DBD
:1022BC005010C3EC98ED99401BC3EA98EB9950145D
:1022CC00800EC3EA98EB994007C3EC98ED99400453
:1022DC00790180027900D083D08222EAC39CFAEB88
:1022EC009DFB2274ED121E839003ADE06408600523
:1022FC00E06407702C9061C8E060269003DBE0F886
:10230C0074FF68601CE875F00DA4C8AAF02AF97473
:10231C00DD28FE740339FF8E828F83A3A3A3E070A4
:10232C00057900022491EE2468F50EE43FF50F9038
:10233C006060E0850E82850F83F075109E75110725
:10234C00750800750900E5D914F50AE5D95403F5AB
:10235C000B601FEE2483F50CE43FF50D7403650B45
:10236C006059E50A6017EE2467F582E43FF583E0D7
:10237C00700B793DEEFAEFFB120F1B80A4900799BE
:10238C00E064016023850C82850D83E060047A048F
:10239C0080027A00E50AC39AFA95E0FB120CC38A14
:1023AC00088B09EA4509700612121B02232D850CB5
:1023BC0082850D83E070048A108B117A008014E5FD
:1023CC00D9C0E0EAF8E51028F582E43511F583D0A0
:1023DC00E0F00AEAC3950A40E6850C82850D83E09D
:1023EC00602874FC250AF50A781012202AAC0AA978
:1023FC000BEEFAEFFB120FDB7402121DBDE9700A33
:10240C00AA08AB0912171902237E7403650B6054DA
:10241C00850A0C750D00780C12202AAC10AD11AA8F
:10242C0008AB09120F9F7402121DBD850E82850F19
:10243C0083E0F87480687005750C7F8002880CE569
:10244C000CF50D780D12202E780B12202EA90AAC4B
:10245C0008AD099003DBE0FA7B00120AE374021268
:10246C001DBD801C9003ADE06408AC10AD1170096B
:10247C00EEFAEFFB12100B8007EEFAEFFB1210C511
:10248C0012122779017F0C021F2F74F3121E837412
:10249C00FC121DA7EAFEEBFF8909A2AFE433F50895
:1024AC00C2AFEE2463F50AE43FF50B8010AA0AAB29
:1024BC000B120F5112171990070BE004F0850A82CA
:1024CC00850B83E0F8A3E0F9E849602DE82402FAD3
:1024DC00E439FBEA2402F50CE43BF50D780C1220F0
:1024EC002A8A828B83E0FCA3E0F9EEFAEFFB120F51
:1024FC00457402121DBDE960B490070BE0604D906D
:10250C00070CE0F890070BE0C398500C74026509B7
:10251C00703A90070DE060348E828F83A3A3A3A33F
:10252C00E08518828519831225687402121DF3E860
:10253C0012256890070AE028F07402121E0DAA18E2
:10254C00AB197901120B4390070BE4F0E508A2E0FC
:10255C0092AF7404121DBD7F06021F2FF0A3E4F08E
:10256C0090070BE0F82200008521878522C622C047
:10257C00E074EB121F6FA2AFE433F508C2AF759B8A
:10258C0000906182E0A2E05030E591A2E0502A7503
:10259C0091FE74016521702112270E12111F122653
:1025AC00FC12203D122B337404121DBDE964017022
:1025BC000579011211791222EF906182E0A2E550A7
:1025CC005DE591A2E550577591DF9003ADE064078E
:1025DC006005E06408702F12270E74016521703EAF
:1025EC0012111F1226FC12203D122B337404121DE3
:1025FC00BDE96401700579011211797901EEFAEFE8
:10260C00FB1224968018E0640D70139003CFE00445
:10261C00F064287002E4F07A00E0F912122D906157
:10262C0082E0A2E640030226D1E591A2E640030235
:10263C0026D17591BF9003ADE064057008121107A7
:10264C00121113800312110D752100121197E990CC
:10265C0003AEF07900121179120E0D7A017B009005
:10266C0003ACE0F91216E3907803E06442705690E4
:10267C00079DE014F0704EC2AF12268800782AD065
:10268C00E0F618D0E0F6E59F5407F87005750DFFDD
:10269C008003750D7FC4C0E07829E6F50A08E6557D
:1026AC000DF50B740B780A121D85D0E0250AF890F5
:1026BC006270E0A2E740F8E8C333906272F0906277
:1026CC0070E0D2E0F0906181E0A2E35009E5E9A26C
:1026DC00E3500375E9F7A3E0A2E75009E591A2E7FF
:1026EC00500375917FE508A2E092AF7F08021FCEE0
:1026FC008E828F83E0F8A3E0C82416F582E438F5C7
:10270C0083229003DBE0F875F00DA4C8AAF02AF937
:10271C0074DD28FE740339FF22C0E0C0D0C082C033
:10272C0083906183E0A2E05009E5BFA2E0500375FD
:10273C00BFFEE0A2E15009E5BFA2E1500375BFFD69
:10274C00E0A2E25009E5BFA2E2500375BFFBE0A294
:10275C00E35009E5BFA2E3500375BFF7E0A2E450D4
:10276C0009E5BFA2E4500375BFEFE0A2E55009E50F
:10277C00BFA2E5500375BFDFE0A2E65009E5BFA29A
:10278C00E6500375BFBFD083D082D0D0D0E032C02A
:10279C00E074F2121F6FE5A7A2E4500FE5A1A2E4CA
:1027AC00500953A7EF75A1EF1227EFE5A7A2E5504B
:1027BC000CE5A1A2E5500653A7DF75A1DFE5A7A2A2
:1027CC00E15009E5A1A2E1500375A1FDE5A7A2E244
:1027DC00500CE5A1A2E2500653A7FB75A1FB7F01AB
:1027EC00021FCE74F8121E837521019003ADE064B4
:1027FC000670077A007B001210EFA2AFE433FED212
:10280C00AF9003B3E0640170187A207B009003ACA6
:10281C00E0F91218397A207B009003ACE0F912161B
:10282C00E9906182E0D2E6F090079AE0602185C6DB
:10283C002280169003B2E064017008E5C654F84497
:10284C0005F5C653BEFC1225747401652160E4EED7
:10285C00A2E092AF7F01021F2F0000008E238F2475
:10286C00858228858327851882851983E0CEA3E08D
:10287C00CF852882852783EBC9EAC8EDCBECCA75D6
:10288C00F010C3E833C8E933C9EA33CAEB33CBC31E
:10289C00EA9EF526EB9FF525B35004AB25AA26EC52
:1028AC0033CCED33CDD5F0DAAE23AF242274E9125C
:1028BC001E8374FA121DA7EAFEEBFF8C088D091219
:1028CC001131EAF8EBF9ECFAEDFB8E828F83121CD6
:1028DC00A19003ADE024F7C39405500675100102D6
:1028EC0029F01210658A0A8B0BEA450B700302293A
:1028FC00ED1211258A0C8B0D121125EA650C700353
:10290C00EB650D60ECEEFCEFFDAA18AB1912112B68
:10291C00850A82850B83A3A3780C121C5F908FFE13
:10292C00780C121C268518828519837814121C5F6A
:10293C00908FFE7814121C26780C7914121A4C50B5
:10294C001F780C7914121BEB908F92780C121A6C66
:10295C004047850C10850D11850E12850F1380458F
:10296C00908F928514108515118516128517137882
:10297C0010790C121BEB7810121A6C501C7510008D
:10298C0075110075120075130178107914121BEB78
:10299C007810790C121BB2800C7510017511007532
:1029AC00120075130074097810121B93908F96788F
:1029BC000C121C5F7810790C121B0B9003ADE064A9
:1029CC0008600AE064066005E064057020908F9A48
:1029DC007810121A6C5016908FBA7810121BC58092
:1029EC000C751000751100751200751300850882A6
:1029FC008509837810121C6E7406121DBD7F10029F
:102A0C001F2F74F7121E83121143900798E0640174
:102A1C007010906245E4F0A3F053F4F343FE0C53B2
:102A2C0090F31210DDE5C654B84441F5C6E59E544A
:102A3C0047644170F8906185740FF0900796E0F44C
:102A4C007002A3E0602C750801750900900796E0F0
:102A5C007808121D94E508F4FAA3E0600814600AE3
:102A6C0014600C800DEA52808008EA52908003EAD0
:102A7C0052A079007F02021F2F74F7121E83E9FE09
:102A8C00EAFF74016E700C7A807B009003ACE0F965
:102A9C001216E3902EDCE493F46008E493F9120D23
:102AAC00EF800953C6B8E59E544770FA1210E390B4
:102ABC000798E064017003120E25900796E0F470FD
:102ACC0002A3E0602B750801750900900796E07869
:102ADC0008121D94E508FAA3E0600814600A14605B
:102AEC000C800DEA42808008EA42908003EA42A002
:102AFC001210658A088B09A808A909E8496016E52F
:102B0C00E170FCE82414F582E439F583E0F874FFF5
:102B1C0068600288E174016F700A7A019003ACE07E
:102B2C00F9121779022A8074F1121E838A088B0914
:102B3C008C0A8D0B908FFE7808121C26740F121DB8
:102B4C00F3780C121C5F908FFE780C121C26780800
:102B5C00790C121A4C908F9250107808790C121B29
:102B6C00EB7808121A6C4014800E780C7908121B42
:102B7C00EB780C121A6C50047901800279007F08F2
:102B8C00021F2F74ED121E838A088B098C0A8D0B81
:102B9C00908FFE7808121C267413121DF3780C12F9
:102BAC001C5F908FFE780C121C26780C7908121A78
:102BBC004C40117808790C121BEBAA08AB09AC0A33
:102BCC00AD0B802275100075110075120075130184
:102BDC007810790C121BEB78107908121BB2AA1022
:102BEC00AB11AC12AD137F0C021F2F908FFE780827
:102BFC00121C5F8A828B837808121C397F04021F97
:102C0C002F74F5121E838C828D837808121C5F8AB8
:102C1C00828B837808121BFF122C61C3E098F0A3FF
:102C2C00E099122C53401E9090267808121C5F8A53
:102C3C00828B837808121BD88E828F83E02420F03D
:102C4C00A3E0344EF080A4F08E828F83C3E09420F6
:102C5C00A3E0944E22EA2404F8E43BF9E8FEE9FFF1
:102C6C008C828D83A3A3A3A3E0F8A3E0F98E828FBB
:102C7C00832274F5121E83E9FE900726E0FAA3E086
:102C8C00FBEE29F8E433F974E928F582748E39F5F2
:102C9C0083E02AF508A3E03BF509780812202A9076
:102CAC00900E121C7D1228687402121DBD8A088BAE
:102CBC00098C0A8D0B74107808121B7AAA08AB09C0
:102CCC007F04021F2F74F1121E838A0C8B0D8C0E45
:102CDC008D0F7411121DF31220417411121DF3E0AB
:102CEC002401F508A3E03400F509E4F50AF50B78A6
:102CFC000C7908121A8B908FAA7808121C5F780C2A
:102D0C007908121A8BAA0CAB0DAC0EAD0F122868F9
:102D1C007402121DBD8B09EA450960047A01800218
:102D2C007A00EC2AFCE43DFD7413121DF3E0F8A3C9
:102D3C00E0F9E8FEE9FFECF8EDF97A717B02121D7F
:102D4C001C88088909E4F50AF50B8E828F837808B4
:102D5C00121C6EECF8EDF97A717B02121D1C8A08BC
:102D6C008B0974057808121D948E828F83A3A3A3FC
:102D7C00A3E508F0A3E509F07F08021F2FC082C06D
:102D8C0083E9906000F0D083D08222C0E074F2120C
:102D9C001F6FA2AFE433FED2AFC2C0E5D1A2E450A4
:102DAC000675D10F12165F751A00EEA2E092AF7F76
:102DBC0001021FCEC0E074F2121F6FA2AFE433F514
:102DCC0008D2AF7F007E01E5895E6008122E2D606F
:102DDC0003121E150FEEC333FEEFC3940840E875C3
:102DEC008900C2C5E508A2E092AF7F01021FCEC0E8
:102DFC00E074F2121F6FA2AFE433F508D2AF7F007C
:102E0C007E01E58A5E6008122E2D6003121E150FDE
:102E1C00EEC333FEEFC3940840E8758A00C2EB8022
:102E2C00C3EFFA7B0075F003A4F8A9F074BD28F584
:102E3C0082741C39F583E0F8A3E08882F583E5827F
:102E4C00458322C0E0C0D0E8C0E0A8A8D2AFC2C77A
:102E5C00751A00E8A2E792AFD0E0F8D0D0D0E032FB
:102E6C00C0E0C0D0E8C0E0E9C0E0EAC0E0EBC0E000
:102E7C00C082C083A2AFE433F9D2AF900FFBE0F86D
:102E8C00A3E0687008539AFBA374018022C2E990F6
:102E9C000FFBE0F8740128F0747B28F582E4340F02
:102EAC00F583E0F5C1900FFBE0C394804002E4F0A1
:102EBC00E9A2E092AFD083D082D0E0FBD0E0FAD090
:102ECC00E0F9D0E0F8D0D0D0E032C2AF020000225E
:102EDC00FFFFFFFFFFFFFFFFC082C083E9901BBF16
:102EEC00F0D083D08202013274F6121E17E99003DF
:102EFC001FF090037FE0F508750900740278081242
:102F0C001D94AA08AB091217619003201238A790E0
:102F1C000320123C94606F90037FE075F003A4FAD9
:102F2C00ABF012176190033D1238A790033D123C91
:102F3C0094700B900320123C651217678048900325
:102F4C003D124BF97AFF7BFF12158D7A0080198A9E
:102F5C000875090074027808121D941246A174FFBA
:102F6C001230A7E4F0A3F00A90037FE0F8EAC398CC
:102F7C0040DD79051209A590031FE0F912088B7A40
:102F8C002F7B0A120C6302474474F4121E178A0832
:102F9C008B09EB5480604790031FE0F91216CB8A23
:102FAC000A8B0BAE0AAF0BEE4F602A8E828F83E03A
:102FBC0064B0701A1209B7E960148E828F83A3A3D0
:102FCC00A3A3E0F9EE2405FAE43FFB120987EEFA1D
:102FDC00EFFB1216B9AA08E5096480FB80047A009D
:102FEC007B000231F774F2121E1774FB121DA7EA54
:102FFC00FEEBFFEE4F60457403121DF3EEF0A3EFF2
:10300C00F0851882851983ECF0A3EDF07402121D83
:10301C00F3E9F0AA18AB19120885E9F50870757474
:10302C0013121DF3E0F50AA3E0F50BE50A450B605E
:10303C00638E828F83123630EE4F700575080280D6
:10304C00537A067B001217618A0C8B0DA80CA90D04
:10305C00E8497005750813803B88828983E4123037
:10306C00A7EEF0A3EF1231C3E50AF0A3E50BF09045
:10307C0003231231BC9003236017E0FCA3E0800310
:10308C00EAFCEBFD8C828D831231BC70F38C828D4B
:10309C00831242BCA9087405024E79F0A3124BDBD3
:1030AC00A32274F2121E178908890C750D00740383
:1030BC00780C121D94850C0A850D0B900322F09050
:1030CC0003201240C71231BA602E121767790080A4
:1030DC001D890C750D007402780C121D9490032040
:1030EC001245608882F583A3A3E4F0A3F009900352
:1030FC007FE0F8E9C39840D990037FE0FA850AF0A5
:10310C00A4CAA8F0850BF0A428FB1217618A0C8BBB
:10311C000DAE0CAF0DEE4F70030231B090037FE09B
:10312C00FC850AF0A4CCA8F0850BF0A428FD79004E
:10313C001216A77C0080318D0C750D007403780C71
:10314C00121D948A828B831231B588828983E4F0B4
:10315C001231C2A3A3F0A3F00DEDC3950840D8EE35
:10316C00250AFEEF350BFF0C90037FE0F8ECC398BB
:10317C0050288C0C750D007402780C121D94900361
:10318C00201231B5E82402500109FAE9FB8A828B3E
:10319C0083EEF0A3EFF07D0080BFE508900322F0F2
:1031AC00790080027913024E7C124564F922A3A3A4
:1031BC00123C69EA4B22A3124BDBA3A3A32274F4A7
:1031CC00121E177900EAA2E0501F75086275098F6C
:1031DC00780812202A79107C047D007AC17B1B129E
:1031EC00099F7402121DBDE9F980007F04021EE9DB
:1031FC00C082C083900323123C94601C8882898314
:10320C00A3A3E06A7003A3E06B8882898370E8A3B0
:10321C00A3A3A3123C6580047A007B00022EED74FC
:10322C00F2121E1774FD121DA7EAFEEBFF85188221
:10323C00851983E4F0A3F07402121DF37401F012EB
:10324C003C917014120B971217619003261238A739
:10325C00123C9170030233BD1239A7EE2404F50A17
:10326C00E43FF50B850A82F583E024FE603C24FCE8
:10327C00607424FE607E24FE700302330D24FE7005
:10328C000302331A24FE700302332724FE70030258
:10329C00333424FE700302334124FC700302336286
:1032AC0024FE700302337A0233B6120B9790032874
:1032BC00EAF0A3EB1233C912046BE960030233B6D4
:1032CC009003281220418E828F83A3A3A3A3A31261
:1032DC004BF9850882850983123C6512096F7402CB
:1032EC00121DBD0233B6AC18AD19EEFAEFFB120984
:1032FC00BD023385AC18AD19EEFAEFFB1209C38091
:10330C0078AC18AD19EEFAEFFB1209C9806BAC184A
:10331C00AD19EEFAEFFB1209CF805EAC18AD19EEC9
:10332C00FAEFFB1209D58051AC18AD19EEFAEFFB90
:10333C001209DB80447402121DFD880C890D780C77
:10334C0012202A7402121E0DEEFAEFFB1209E17420
:10335C0002121DBD8023AC18AD19EEFAEFFB120959
:10336C00E7E9F870167402121DF3E4F0803CAC1817
:10337C00AD19EEFAEFFB1209EDE9F8E8602C8E823C
:10338C008F83A3E064146022850A82850B83E0900E
:10339C000328F0851882851983123C659003291245
:1033AC0038A7E8A31233C9120465EEFAEFFB120931
:1033BC00457402121DF3E0F97403024E79F07C2877
:1033CC007D03850882850983123C692274E8121EEC
:1033DC001774FA121DA77404121DF3ECF0A3EDF090
:1033EC008A128B13EA2405F50EE43513F50FEA2443
:1033FC0002F510E43513F511851082F583123C6546
:10340C001205A98A0A8B0B7508007C037D007900D4
:10341C007A287B031216A7E50E2402F516E4350F65
:10342C00F5177402121DFD880C890D780C12202AD8
:10343C00850E82850F83A3A3A3A3E0F50C750D0065
:10344C00780C12202AE50E2405F50CE4350FF50D49
:10345C00780C12202A851682851783123F6C12086D
:10346C00A37406121DBD8A0C8B0DE50C450D700363
:10347C000235F98020851882851983E0888289833A
:10348C00F00508851882851983A3E0C0E012363A4E
:10349C00D0E0F00508E50A24FBFAE50B34FFFBC38A
:1034AC00E5089AE49B40030235F97E007F00851203
:1034BC0082851383A3A3A3A3E0F509780912202E18
:1034CC00E4F514F515781412202A751425751503D6
:1034DC00781412202A9003261220417409121DF32D
:1034EC00122041E50A24F9F9AC0CAD0D851082854A
:1034FC001183123C65120A177409121DBDE9600391
:10350C0002359A850E82850F83A3A3A3A3A3A3A33D
:10351C00E0F8900325E0687075E0F5148E157814CA
:10352C0012202A124BF6850E82850F83A3A3A3A328
:10353C00A3A3A3A3123C651216A17402121DBDE92C
:10354C00604C900329123C94703BE4F514781412EF
:10355C00202A7CFF7DFF7907851082851183123C20
:10356C00651209817402121DBD123C9A7017850EEA
:10357C0082850F83124D937404121DF3124654125C
:10358C003F9D02362D850C82850D83123630A8188E
:10359C00A91988148915781412202A7404121DF3A1
:1035AC0012204185168285178312389D1208AF743C
:1035BC0004121DBD8A0C8B0DEE4F70030234761273
:1035CC00363AEE123645123F53EF123645F8A3E069
:1035DC003400F9E50C450D6003023481888289833F
:1035EC0074FFF0050812363A74FFF00508E5086020
:1035FC001A1313543F1238AD120477E96009900383
:10360C0029123C6512171979008016850E82850FD8
:10361C0083124D937404121DF31246541242BC795A
:10362C000A023F26A3A3A3A3E0FEA3E0FF22A8085F
:10363C00900329E028123F5322F005080890032933
:10364C00E0282274E8121E1774FA121DA7740212D5
:10365C001DF31238A77404121DF3ECF0A3EDF074F3
:10366C0002121DF3E02405123F3CE0F50CA3E0F53B
:10367C000D7402121DF3E02402F510A3E03400F5E2
:10368C0011851082F583123C651205A97508007529
:10369C000900EA24FCFEEB34FFFF8008050CE50C66
:1036AC007002050DA808C3EE98EF94005003023881
:1036BC0059A818A919880E890F780E12202A85147A
:1036CC0082851583A3A3A3A3124BFD12202AE51414
:1036DC002405F50EE43515F50F780E12202A851405
:1036EC008285158312389B1208A37406121DBD8A9D
:1036FC000E8B0FEA450F7003023859EA2404F516B5
:10370C00E4350FF517851682F583E0F50CA3E0F58B
:10371C000D851882851983124BF98A828B83A3A39A
:10372C00A3E0F9851082851183123C65120891E99A
:10373C00F50960030238597402121DF3123F63F548
:10374C0009780912202EE4F512F513781212202AAA
:10375C00751225751303781212202A900326122055
:10376C00417407121DF3122041EEF9AC0EAD0F851A
:10377C001082851183123C65120A177409121DBD43
:10378C00E9F5096003023859E508703FE4F50EF5D8
:10379C000F780E12202A7CFF7DFF79098510828517
:1037AC001183123C651209817402121DBD123F89EE
:1037BC00700D7404121DF3123890791102388D902B
:1037CC000325E02402900329F08014900329E0FAE9
:1037DC00900325E0790024025001096A497072A80F
:1037EC0008900325E0FAE82AFAE43400FBEE9AEF9D
:1037FC009B405A851682851783E0C0E090032A12FD
:10380C00363FD0E0F00508851682851783A3E0C00B
:10381C00E00890032A12363FD0E0F005089003250B
:10382C00124BFD12202A124BF6A808123F3012162A
:10383C008F7402121DBD900325E02508F50874FF56
:10384C00650C700474FF650D60030236A8E5086012
:10385C001F900329E0F5F0E508841238AD12047DC1
:10386C00E9600990032A123C65121719790080113E
:10387C00E509700375090A7404121DF3123890A936
:10388C0009023F261240CBE50CF0A3E50DF022A374
:10389C00A3124E88AA0CAB0D22A3A3EAF0A3EBF063
:1038AC0022900328F07C287D0385108285118312D9
:1038BC003C692274EC121E1774FC121DA71243CC27
:1038CC007402121E0D123C5F1208A98A0C8B0DEAB1
:1038DC00450D70030239971239A7A818A919881039
:1038EC008911781012202A7CFF7DFF790B850882C4
:1038FC00850983123C651209817402121DBD123AAE
:10390C009D700C850A82850B83123F9A0239A48E16
:10391C00828F83A3A3A3A3E0F512781212202EE4C6
:10392C00F512F513781212202A75122875130378E4
:10393C001212202A781012202A7409121DF3122058
:10394C00417409121DF3E0F9AC0CAD0D85088285AC
:10395C000983123C65120A177409121DBDE9FE7029
:10396C00157C287D03850882850983123C65120429
:10397C0083E97009802074166E70027E0090032912
:10398C00123C65121719EE7004800B7E01850A82B9
:10399C00850B831242B9EEF90242CEEE2402F508F1
:1039AC00E43FF5092274EC121E1774FC121DA7EAF1
:1039BC00FEEBFF8C0E8D0FEE2405F508E43FF509A8
:1039CC007402121E0D850882850983123C6512084B
:1039DC00A98A0C8B0DEA450D7003023A8DEE240278
:1039EC00F50AE43FF50BA818A9198810891178106D
:1039FC0012202A7CFF7DFF790D123C5F1209817425
:103A0C0002121DBD123A9D700B8508828509831226
:103A1C003F9A807A8E828F83A3A3A3A3E0F51278BA
:103A2C001212202E850882850983A3A312204175CA
:103A3C001228751303781212202A781012202A7477
:103A4C0009121DF31220417409121DF3E0F9123C06
:103A5C005B120A177409121DBDE9FE700F7C287DDC
:103A6C0003123C5F120489E97009802074166E7091
:103A7C00027E00900329123C65121719EE70048027
:103A8C000B7E018508828509831242B9EEF9024248
:103A9C00CE123CA4F510A3E0F511EA45112274E80E
:103AAC00121E1774FE121DA78A168B178C148D15F7
:103ABC00EA2405F50CE43517F50DEA2402F50EE4BD
:103ACC003517F50F850E82F583123C651205A98A10
:103ADC00088B09750B007C037D0079007A287B0329
:103AEC001216A7750A00E50814F5100424FFF50852
:103AFC00E50934FFF5098054900328E0FA9003257A
:103B0C00E0F8EA28F8E43400F9E50898E50999505A
:103B1C000D900328E0F8E510C398900325F0E0F52C
:103B2C0012751300781212202A124BF6900329E01A
:103B3C002AFAA3E03400FB12168F7402121DBD90FA
:103B4C000325E0F8900328E028F0050A850C82850F
:103B5C000D83A3A31245704003023C40900328E060
:103B6C00C39508E495094003023C40AE0AEE2EFED4
:103B7C00E433FF123C7FAC18AD19124C11E439FB45
:103B8C001208A98A128B13AC12AD13EC4D701B7575
:103B9C000B01123C6F1242BD9003291231BC600321
:103BAC00121719A90B7402023F28851682851783F8
:103BBC00A3A3A3A3E0F50B780B12202EE4F512F5CA
:103BCC0013781212202A75122575130378121220FD
:103BDC002A9003261220417407121DF3122041A9CA
:103BEC0010850E82850F83123C65120A1774091218
:103BFC001DBDE9F50B709B900329123C94600302E8
:103C0C003B04E4F512F513781212202A7CFF7DFF99
:103C1C00790F850E82850F83123C6512098174021F
:103C2C00121DBD123C9A6003023B04123C6F123F02
:103C3C009E023BB17C287D03850E82850F83123C4E
:103C4C006512048FE96003023BA47900023BB1AC1E
:103C5C000CAD0D850A82850B83123C6922E0FAA318
:103C6C00E0FB22123C7FE0FAA3E0F9EA851482859E
:103C7C00158322850C82850D83E02EF8A3E03FF995
:103C8C008882898322900326124D97E84922123CA0
:103C9C00A4F8A3E0F9E84922900329EAF0A3EBF099
:103CAC00900329E02274E8121E1774FA121DA774EF
:103CBC0004121DF31238A78C168D177404121DF301
:103CCC00E02405F50EA3E03400F50F7404121DF387
:103CDC00E02402123F3C123C651205A98A0A8B0BA8
:103CEC007F007E00A818A919880889097808122075
:103CFC002A850E82850F83A3A3A3A3E0F5088E0962
:103D0C00780812202AE50E2405F508E4350FF5098C
:103D1C00780812202A850E82850F83A3A3123F6C8C
:103D2C001208A37406121DBD8A0C8B0D8029123F3C
:103D3C005DF00F123F5DF00F9003251242A8122088
:103D4C002A124BF6EFF8123F3012168F7402121D26
:103D5C00BD900325E02FFFE50C450D7003023DECF3
:103D6C008518828519831243DEA3A3A3E0F9851479
:103D7C0082851583123C65120891E9FEE50C24043A
:103D8C00F510E4350DF511EE70507404121DF3129C
:103D9C003F63F508780812202EE4F508F509780839
:103DAC0012202A750825750903780812202A900319
:103DBC00261220417407121DF3122041E50A24FA41
:103DCC00F9AC0CAD0D851482851583123C65120A75
:103DDC00177409121DBDE9FE6039123F791242BCFD
:103DEC00EF7003023F13900329E0F5F0EF8490038A
:103DFC0028F07C287D03851482851583123C65127E
:103E0C000495E9600990032A123C65121719790090
:103E1C00023F268F08EF703BE4F512F5137812126F
:103E2C00202A7CFF7DFF7911851482851583123C35
:103E3C00651209817402121DBD123F897009123F6F
:103E4C0079123F9D023F26900325E024049003291C
:103E5C00F08035900325E0F8900329E0FAE824047B
:103E6C00FCE43400FDEC6A4D6003023DF2E50A24EB
:103E7C00FAFAE50B34FFFBE50828F8E43400F9EA1C
:103E8C0098EB995003023DF2851082851183E0C0B6
:103E9C00E090032AE02FF8A3E034008882F583D069
:103EAC00E0F00F851082851183A3E0C0E0123F4A39
:103EBC00D0E0F00F7402121DFD88088909780812F1
:103ECC00202A7402121DF3122041850E82850F8365
:103EDC0012389B1208AF7404121DBD8A0C8B0DEAAC
:103EEC00450D7003023D3A7402121DF3E0C0E0125E
:103EFC003F4AD0E0F00F7402121DF3A3E0C0E012B1
:103F0C003F4AD0E0023D42EE70027E0A850E828569
:103F1C000F83123F7F1242BCEEF97406121DBD7F57
:103F2C0010021EE990032AE028FAA3E03400FB22D9
:103F3C00F514A3E03400F515851482F58322123FA5
:103F4C004E2290032AE02FFAA3E034008A82F583F4
:103F5C0022123F4E74FF221240CBA3A3A3A3E02254
:103F6C00124E88850E82850F83123C692285108241
:103F7C00851183124D978516828517832290032A0B
:103F8C00EAF0A3EBF090032A124D97E84922124273
:103F9C00C2E8F0A3E9F079112274EA121E1774FE3C
:103FAC00121DA78A088B098C128D13EA2405FEE4D6
:103FBC003509FFAC18AD198E828F83123C6512083F
:103FCC00A98A0C8B0DEE2406F50EE43FF50FEA459D
:103FDC000D700302409DE5082402F50AE43509F54D
:103FEC000B8A828B83A3A3A3E0A2E55028851882B9
:103FFC00851983123C65120A0B8A108B11EA451144
:10400C0060207912123C5B851082851183121E157B
:10401C00E9F50C707F850E82850F83E0600979527B
:10402C008011750C0E806D850882850983A3A3A36E
:10403C00A3E0F9E4F508F509780812202A8E828F9E
:10404C0083A3A3E0F508780812202A8E828F83A31D
:10405C00A3A31220418E828F83124BF9123C5F1264
:10406C000A1D7406121DBDE9F50C7011850E8285B2
:10407C000F83E0702D123C5F12049B802574166533
:10408C000C7011750C007418121DF31240C7E480EB
:10409C0010750C01124D8F851282851383E8F0A3E5
:1040AC00E9F0850E82850F83E0600479008002A917
:1040BC000C7402121DBD7F0E021EE91240CB22E0D1
:1040CC00F8A3E0F58388822274EC121E1774F712A1
:1040DC001DA78A0A8B0B8C108D11EA2405FEE43582
:1040EC000BFF750C00AC18AD198E828F83123C65DA
:1040FC001208A98A088B09EA45097003024293E564
:10410C000A2402F50A5002050B8A828B83A3A3A30F
:10411C00E0A2E5502F851882851983123C65120A9E
:10412C000B8A0C8B0DEA450D604F7912AC08AD096A
:10413C00123C5F850C82850D83121E15E9F50C600F
:10414C0003024296850A82850B83E0F508A3E0F50D
:10415C0009AA08FB1209FFEA4B70197AFF7BFF12C0
:10416C0009FFEA4B70030242898A828B83E508F0CF
:10417C00A3E509F07508008008750C0E024296053F
:10418C0008900322E0F8E508C398400302428985B1
:10419C00080E750F007403780E121D948A828B839F
:1041AC00A3A3E0250EF8A3E0350F12465D70D08E68
:1041BC00828F831242B11238A78E828F83A3A312EF
:1041CC0042B11238A5EE2404F508E43FF509850840
:1041DC0082F583E088828983A3A3A3A3F0A3E4F0F0
:1041EC00EE2405F50EE43FF50F850E82F5831242A1
:1041FC00B1A3A3A3A31238A57512077513007812E7
:10420C0012202AEEFCEFFD7404121E0512168F7498
:10421C0002121DBDE4F512781212202A850882853F
:10422C000983E0FC7D007917123C5F12098174024E
:10423C00121DBD7407121DF31238A77407121DF35B
:10424C00E0FA4B603D8508828509831242A8122052
:10425C002A850E82850F83124BF912168F74021267
:10426C001DBD7402121E0D123C5F1204A1E96026E2
:10427C007407121DF3123C651217198019750C097D
:10428C008008750C118003750C01124D8F851082FE
:10429C008511831242BCA90C74098028E0F50875BD
:1042AC000900780822123C6988828983221242C252
:1042BC00E8F0A3E9F022E0F8A3E0F9850E82850F7F
:1042CC0083227404121DBD7F0C021EE974EC121EB5
:1042DC00171243CC751000EE2402F50CE43FF50DDB
:1042EC00850C82F583123C651209FF8A088B09EA5A
:1042FC00450970030243B0850A82850B83E0640193
:10430C0060030243A5AC08AD09AA0AAB0B1209F372
:10431C00E9606E850882850983123632EE2406F533
:10432C000AE43FF50B8E828F83A3A31220418E8269
:10433C008F83A3A3A3A3122041850A82850B83122A
:10434C00204179188E828F831243DE123C65120A4B
:10435C001D7406121DBDE9F8741668700B850A826F
:10436C00850B83E4F0A38014E860128E828F831295
:10437C003C65850E82850F83EAF0A3EBF0881080F4
:10438C0018780E12202AAC08AD09EEFAEFFB1209D0
:10439C00F97402121DBDE9F510AA08AB09120A0541
:1043AC00E510700E850C82850D83123C651204A7F6
:1043BC008009741665107003751000A9100242D3A1
:1043CC00EAFEEBFF8C0E8D0FEE2405F50AE43FF5AB
:1043DC000B22124E88850C82850D832274EA121EE4
:1043EC00177508007509007E007F00750A00EC2423
:1043FC0002F510E43DF5118035EC65087003ED65B0
:10440C0009600302449D88828983A3A3E06A700338
:10441C00A3E06B707C88828983A3A3A3A3124D9322
:10442C00EE28FEEF39FFEA28FAEB39FB050A1245B4
:10443C006D503A850A0C750D007403780C121D949E
:10444C0085108285118312456012465D601FE50858
:10445C00450970A58C088D098882898312363088AD
:10446C00828983A3A3E02EFAA3E03F80BEE50AC3B2
:10447C009402500302455B750800750900EE4F600D
:10448C0010EEFAEFFB1217138A0E8B0FEA450F7022
:10449C0005790002455D750B00024530850B0C75E6
:1044AC000D007403780C121D94851082851183E025
:1044BC00250CF50CA3E0350DF50DE50C2406F514D3
:1044CC00E4350DF515851482F5831246626042E5DC
:1044DC000C2404F512E4350DF513851282F58312C4
:1044EC002041E50E2508FAE50F3509FB12168F74ED
:1044FC0002121DBD851282851383E02508F508A3E1
:10450C00E03509F509851482851583123C6512176F
:10451C0019E50B600D7C087D007900AA0CAB0D121F
:10452C0016A7050BE50BC3950A50030244A885108A
:10453C0082851183124D9388828983A3A3A3A3A39D
:10454C00A3E50EF0A3E50F1231C3EEF0A3EFF07963
:10455C00010240C212456422E0250CF8A3E0350D9F
:10456C0022900322E0F8E50AC3982274F0121E1779
:10457C008A0E8B0F8C0A8D0B750D00750C008050FC
:10458C007916EE2406F508E43FF5098E828F83A395
:10459C00A31220418E828F83A3A3A3A31220418553
:1045AC000882850983122041850E82850F83A3A37F
:1045BC00123C65120A1D7406121DBDE9F50D741628
:1045CC00650D706C850882850983E4F0A3F0050CF9
:1045DC00900322E0F8E50CC3985066AA0C8A087583
:1045EC00090074037808121D94850A82850B83A335
:1045FC00A31246ACE8FEE9FF8E828F8312466260FE
:10460C0040EA2401F508E43400F509900322E06542
:10461C00087002E509601488828983A3A3A3A3A36D
:10462C00A3A3A3123C94600302458C791802458E17
:10463C00E9609B124D8F7410121DF31246541242F6
:10464C00BCA90D7F08021EE9E0FAA3E0F5838A827B
:10465C0022F988828983124E88EC4D2274F6121E40
:10466C00177C0080010C90037FE0F8ECC398501E7F
:10467C008C0875090074027808121D941246A1E08A
:10468C006A7003A3E06B70DDE8FAE9FB80047A0042
:10469C007B000247449003201246AC888289832217
:1046AC00E02508F8A3E03509F92274F2121E178AE6
:1046BC00088B09750A0080278E828F83A3A3A3A37E
:1046CC001231BA60031217197C087D007900EEFADA
:1046DC00EFFB1216A78E828F83E4F0A3F0050A126B
:1046EC00456D5027850A0C750D007403780C121D4E
:1046FC0094850882850983A3A3E0250CFEA3E035ED
:10470C000DFF8E828F83123C9470AD8508828509D3
:10471C008374FFF0A3F0024E7C74F6121E1712097C
:10472C00B18A828B83E582458370067A007B008098
:10473C0007A3A3A3A3123C657F02021EE974F41223
:10474C001E1789088C828D83E06402703C124D32F6
:10475C00FEA3E0F9EEF874026870037429697029FD
:10476C00750A02750B00780A12202A7410121DF3B8
:10477C001220417410121DF3122041A90812159F2A
:10478C007406121DBDE9F9800279010231F774E853
:10479C00121E1774FB121DA7E9851882851983F068
:1047AC008A168B17ECFEEDFF7510008E828F83A39B
:1047BC00A3A3E0A2E4502D741D121DF3123C65124C
:1047CC000A0B8A828B83E58245837003024BD17975
:1047DC000AEEFCEFFDAA16AB17121E15E9F51060D8
:1047EC0003024BD4741F121DF3E0F508A3E0F50986
:1047FC007421121DF3E0F50AA3E0F50B7423121DCE
:10480C00F3E0F50EA3E0F50F8E828F83E064026077
:10481C0003024B72A3124D93850882850983A385ED
:10482C008212858313EE2406F50CE43FF50D888285
:10483C008983124C11F514E439F51578141220B44F
:10484C000100002801287448070002283949032870
:10485C00A7480029684A0129934A0229344A0329A6
:10486C00684A04290C4B724BE50E450F6003024B52
:10487C006D850C82850D83124D93E8FAE9FB8A82D3
:10488C008B83E0850A82850B83124C1C12202A8AAA
:10489C00828B83A3E0FCA3E0024AF6E50E450F6091
:1048AC0003024B6D850A82850B837401F0124C0652
:1048BC00850882850983F07C007D008E828F83A31E
:1048CC00A3A3A3E02401FAA3E03400FB1208A9EA95
:1048DC004B60408A828B83E02402F8850A82850B28
:1048EC0083E028F0EA2404F8E43BF988828983E029
:1048FC00851282851383124C2A124C1C12202A8A90
:10490C00828B83A3124BF9E5082403FAE43509FBE7
:10491C00024AFB850A82850B83E02404F07C047D2B
:10492C00007900AA12AB131216A7024BD4E50E4560
:10493C000F6003024B6D124C06FEA3E0FF850A824A
:10494C00850B837404F0EE850882850983F0EF856E
:10495C001282851383F07403121E0DEEFAEFFB1214
:10496C0008A98A0C8B0DEA450D7003024A178A823E
:10497C008B83A3A31236307401121DFD880E890F90
:10498C00780E12202A7405121DF31220417CFF7D33
:10499C00FF1208AF7404121DBD8B0FEA450F703364
:1049AC00850C82850D83124BFD12202A850C828585
:1049BC000D83A31220417C027D007A627B9012054C
:1049CC00977404121DBDE9700A7401121DF374FF73
:1049DC00F0A3F08E828F83E064027039750C02753F
:1049EC000D00780C12202A8E828F83A3124BF9E5CE
:1049FC00082404FAE43509FB12168F7402121DBD4B
:104A0C00850A82850B83E0240280097401121DF350
:104A1C00EEF0A3EFF07401121DF3124BEB740112C4
:104A2C001DF3124BE2024B67E50E450F6003024B80
:104A3C006D850C82850D83124E81AA16AB1712154B
:104A4C00A5850A82850B837402F08508828509830B
:104A5C00EAF0851282851383EB024B6AE50E450F53
:104A6C006003024B6D124C06F8A3E0F9850A8285AF
:104A7C000B837402F0E8850882850983F0E98512BE
:104A8C0082851383024B6A850C82850D83123C65EB
:104A9C00121689EAFAF8C3950EE4950F405CE865A6
:104AAC000E450F70047A008021851882851983E0E9
:104ABC00FCE50E2CFCE4350FFDC3EC98ED94005096
:104ACC0003E08005E50ECAC39AFAEA850A82850BD3
:104ADC0083F08A0A750B00780A12202A850C8285CD
:104AEC000D83E0250EFCA3E0350FFDAA08AB0912DF
:104AFC00168F7402121DBD024BD4751007024BD4D5
:104B0C00E50E450F705B850C82850D83124D9385E8
:104B1C000A82850B837407F088828983124BE31217
:104B2C004BDBE0851282851383F0E82402FAE4392A
:104B3C00FB8A828B83124BEB8A828B83124BE2A310
:104B4C00A31231C2124BF0F0E82405F85001098889
:104B5C00828983124BF0A3124C2AA3A3A3A3F08047
:104B6C006775100B8062741D121DF3123C651209DF
:104B7C00B18A828B83E5824583604A124D93880CFF
:104B8C00890DE8450D603E7425121DF3E0F5107893
:104B9C001012202E780E12202A780A12202A780859
:104BAC0012202A7407121DF3E0F9EEFCEFFDAA1691
:104BBC00AB17850C82850D83121E157407121DBD53
:104BCC00E9F510800375100EA9107405023F28F04A
:104BDC0088828983A322A3E0850882850983221217
:104BEC004C31F022124C31A3A322900326124E8892
:104BFC0022E0F50E750F00780E22850C82850D8350
:104C0C001240CBE022E0FAA3E0F8E4C8F9EA28224B
:104C1C00F08A828B83E0F50A750B00780A22124B1E
:104C2C00DB124C3122E0850882850983A3A3227410
:104C3C00EE121E1774FE121DA78A088B09ECFEEDEE
:104C4C00FF890AAC18AD19EEFAEFFB1208A98A0C11
:104C5C008B0DEA450D7003024D238518828519834F
:104C6C00123C651209B18A828B83E58245837003FD
:104C7C00024D1EA3A3124D93880E890FE8450F70A9
:104C8C0003024D1E7414121DF3E0F510A3E0F51190
:104C9C00E50AF50B780B12202E7419121DF3122055
:104CAC0041781012202A741B121DF3E0F9AC0CADE4
:104CBC000DAA08AB09850E82850F83121E1574058B
:104CCC00121DBDE9F50B705274FE650A604C850C23
:104CDC0082850D83E064027041124D32FAA3E0F933
:104CEC00EAF87402687003742969702E8510828545
:104CFC001183124C11F50CE439F50D780C12202AA5
:104D0C00EEFCEFFDAA08AB09120A357402121DBDA8
:104D1C008008750B0E8003750B01A90B7402121D14
:104D2C00BD7F0A021EE9A3124D9788828983E02277
:104D3C0074F6121E1774FE121DA7740C121DF312BA
:104D4C004D93E8851882851983F07401121DF3E9DF
:104D5C00F0E4F508F509780812202A75080278089D
:104D6C0012202A7404121DFD880889097808122063
:104D7C002A79FE120A1D7406121DBD7402121DBD85
:104D8C000247448E828F83124D9722E0F8A3E0F9FC
:104D9C002274F7121E17EAFEEBFF890890033D12EE
:104DAC004BF91215A5EA5402600BA908EEFAEFFBB9
:104DBC0012089D800279017F01021EE974F2121E15
:104DCC001774FE121DA7EAFEEBFF890A7401650A2F
:104DDC0060147402650A6003024E777901120C812B
:104DEC00E96003024E77EEFAEFFB1209FFEA4B6023
:104DFC0003120A05A818A91988088909780812202D
:104E0C002A750802750900780812202A750856754B
:104E1C000990780812202A7CFF7DFF7A017B001212
:104E2C0008A37406121DBD8038850882850983A3EA
:104E3C00A3A3A3A3A3124E81EEFAEFFB12158DE4EC
:104E4C00F50CF50D780C12202A7402121DF31220A9
:104E5C00417CFF7DFFAA08AB091208AF7404121D38
:104E6C00BD8A088B09E508450970BE7402121DBD88
:104E7C007F06021EE91240CB124E8822E0FCA3E012
:104E8C00FD2274F4121E178A088B09ECFEEDFF90BC
:104E9C001BBFE0F4604B7A097B001216B3EA4B603F
:104EAC00408A828B8374B1F0A3E4124EF0F08A82B4
:104EBC008B83A3A3E508F0A3E509124EF0A3EEF053
:104ECC00A3EFF0740C121DF3124D938A828B83A303
:104EDC00A3A3A3A3A3A31242BC901BBFE0F9121679
:104EEC00BF0231F7F08A828B83A3A3A3A32274F4AD
:104EFC00121E17E99003ACF012113D907800E0C43B
:104F0C00540F540764037004793F8002797F75084D
:104F1C0006750900780812202A7C9A7D037AEA7BB0
:104F2C00071215E77402121DBD90039AE0F4704944
:104F3C00A3E0F47044A3E0F4703FA3E0F4703AA350
:104F4C00E0F47035A3E0F4703090780EE090039AA2
:104F5C00F090780FE090039BF0907810E090039C19
:104F6C00F0907811E090039DF0907812E090039E01
:104F7C00F0907813E090039FF09003A01250E11290
:104F8C006D389003CA7406F0A3740D125AB17442B2
:104F9C00F0A37401F09007131250E1900712E4F0A3
:104FAC00900720F0A374A0125AB17403F0A37407F5
:104FBC00125AB17428125AB104F0A3E4F0900749C4
:104FCC00F090076F1250E190076EE4F090077504B3
:104FDC00125AB11250CFE4F0A304F0A3125AB1123A
:104FEC005AAFF09007861250E1900785E4F09007D5
:104FFC008C04F0A3E41250CF125AAFF0A37405F056
:10500C0090079674FFF0A3E4F0900798F090079A3D
:10501C0004F090079B7490F0A37401F0120E1F1211
:10502C000CC91210D779017A9D7B07120F6F90076C
:10503C009DE075F01484E5F004F0790C7ABE7B07E2
:10504C00120F6F120F937A009003ACE0F9121779DC
:10505C00907803E06442705690079DE014F0704E17
:10506C00C2AF12507100782AD0E0F618D0E0F6E505
:10507C009F5407F870057509FF800375097FC4C03C
:10508C00E07829E6F50808E65509F509740B780867
:10509C00121D85D0E02508F8906270E0A2E740F878
:1050AC00E8C333906272F0906270E0D2E0F090034B
:1050BC00D7E4F0A3F07A80FB9003ACE0F91216E38E
:1050CC000256881250D81250D8F0A322F0A3748044
:1050DC00F0A37402221250E8F0A3F02274FFF0A3A4
:1050EC00F0A3F0A3F0A32274F4121E17EAFEEBFF58
:1050FC00EEA2E050409003AEE0C39480E0500F2548
:10510C00E0F8E433F974E328F582741B800EF4257F
:10511C00E0F8E433F974F128F582741B39F5831245
:10512C0061B0121E157A009003ACE0F9121779EEFB
:10513C006401025380540860569007941253C7754B
:10514C000800780812202E1253A0121D8578081220
:10515C00202A1253993BF5831220411253B112208D
:10516C002A12538C12202AEA240CF582EB126EA61A
:10517C00FD7C008A828B83A3A3A3A3E0FA7B007936
:10518C0000120B0D7409121DBDEE6408025380EE63
:10519C0054106037750800780812202EE4F5097851
:1051AC000812202A780812202A780812202A780857
:1051BC0012202A7D007C007A007B007902120B0DF4
:1051CC007409121DBDEE6410025380EE5402603758
:1051DC00750800780812202EE4F509780812202AA8
:1051EC00780812202A780812202A780812202A7DA2
:1051FC00007C017A007B00793C120B0D7409121DA6
:10520C00BDEE6402025380EE5404605E9003DB1228
:10521C0053C7EA242A1256EFF508780812202E12EA
:10522C0053A0121D85780812202AEA2420F582E466
:10523C003BF5831220411253B112202A12538C12C7
:10524C00202AEA240CF582EB126EA6FD7C018A82E0
:10525C008B83A3A3A3A3E0FA7B007900120B0D743C
:10526C0009121DBDEE6404025380EE544060377584
:10527C000800780812202EE4F509780812202A7804
:10528C000812202A780812202A780812202A7D0079
:10529C007C017A007B00793B120B0D7409121DBD49
:1052AC00EE6440025380EE5480603090079B125A9B
:1052BC00A9496021790012177390079B1261B87885
:1052CC00081220267A007B019003ACE0F912182D0D
:1052DC007404121DBDEE6480025380EF5401600D06
:1052EC007901121773EEFAEF6401025382EF540244
:1052FC00600AC2AF75C9AB75C95B80FEEF54046020
:10530C000A122ED6EEFAEF6404806B9003B3E064BD
:10531C00017066EE542060619003ADE014601514CA
:10532C00601214600F14600C14601524FE602714B6
:10533C006024803D7900120D1D7901120D1D803104
:10534C0090077DE0FA7900120D2F90077DE0FA7935
:10535C0001120D2F801B793F9003DBE0FA75F00DE5
:10536C00A4CAA8F028FB74DD2AFA74033BFB120FC5
:10537C001BEE6420FAEFFB80047A007B0002568857
:10538C00EA2406F508EB3401F509780822EA243002
:10539C00F582E422EA2432F582E43BF5831267328B
:1053AC007404780822EA242E1256EFF508A3E0C301
:1053BC0013F509E50813F508780822E0F875F00DE7
:1053CC00A4C8AAF01253D4222AF974DD28FA740363
:1053DC0039FB2274F6121E17EA540F600478018010
:1053EC00027800E8F98A088B0974047808121D8584
:1053FC00E50829F50875090074047808121D94E570
:10540C00082408FAE43509FB1217138A088B09A83B
:10541C0008A909E8496009E82404FAE439FB800486
:10542C007A007B00025D0B74F6121E17EA2405FA53
:10543C0050010B1217138A088B09A808A909E8490F
:10544C006009E82405FAE439FB80047A007B000249
:10545C005D0BC082C083C2AF12110DE5E170FC750B
:10546C00E101120DF575E1F1121155120DE97907F3
:10547C001211FD7901121203790212117F1211B56A
:10548C001211E579001211F779011211F7909002BF
:10549C00121C7D121167900720E4F0A3F0A3F0908A
:1054AC0007247407F09007237403F0900729E4F0A5
:1054BC00900728F0900749F0900776F090078DF050
:1054CC00120EFD12103B120F2779001212099007D1
:1054DC00041250E8741FF0906012E4F0A3F0906096
:1054EC0063F07521009003ADF0900709F090070A66
:1054FC00740CF090070BE4F090070C04F090070D7F
:10550C00E4F090070E04F090070FE4F09003AFF076
:10551C00A3F09003B2F09003B304F09003C97403AA
:10552C00F0900799E4F0D2AFF9026833C082C083DF
:10553C0090039A1256C6125FB88A828B83A3125FAD
:10554C00B28A828B83A3A3125FAC8A828B83A3A3C0
:10555C00A3125FA68A828B83A3A3A3A3F090039FBD
:10556C001256C6A3A3A3A3A3026830C082C0838A29
:10557C00828B83E09003A01255ADE09003A11255ED
:10558C00ADA3E09003A21255ADA3A3E09003A31228
:10559C0055B4E09003A41255B4A3E09003A502689F
:1055AC0030F08A828B83A322F08A828B83A3A3A3FD
:1055BC00A322C082C083120E2BE9F970051211B51B
:1055CC00790002683374F7121E17EAFEEBFF8908A4
:1055DC00120E2BE9F9702CE508600A74016508605D
:1055EC000A7912801E7C00790080047C007901EE1F
:1055FC00FAEFFB1211BBE9F87403687004790780A9
:10560C00027900025E8074F6121E17EA4B600EECF3
:10561C004D600A740A121DF3126D27700479128002
:10562C000F780812202A120F877402121DBD790000
:10563C00025D0B74F4121E17EAFEEBFF890890034F
:10564C00ADE064096014E0640A600FE0640B600A6A
:10565C00E0640C6005E0640D7004790C801E12107F
:10566C00658B0BEA450B700BA908EEFAEFFB120FDA
:10567C006F80099003AFE04440F0790D7F04021E67
:10568C00E974F6121E17EAFEEBFF8909EE4F600370
:10569C00E9700479128016750800120F691256BC55
:1056AC00E9F00508E508C3950940EF7900025D0BA8
:1056BC00A808EE126B813FF58322E08A828B83224D
:1056CC00C082C083E9F8740168700B90079974016B
:1056DC00F07900026833E87006900799E480F1795C
:1056EC001280F0F582E43BF583E02274F6121E176B
:1056FC00EAFEEBFF8C088D099003ADE0640C70059D
:10570C0090618E8014120D4DE9F9702F126BBC74E0
:10571C00452EF58274043FF583E0F8748068700AB6
:10572C00850882850983747F800E9003B1E0F9E8C7
:10573C00C399850882850983F07900025D0B74F7A3
:10574C00121E17EAFEEBFF890874056508602874C1
:10575C00136508602274146508601C741565086074
:10576C0016741A6508601074296508600A743B6524
:10577C000860047912803D120D4DE9F97036126201
:10578C0085241DF8E43BF9EA24F7FCE43BFDEA240C
:10579C00691257C37016EA246A1256EF6402700439
:1057AC00793A80101257C9120EE580061257C912A9
:1057BC000ED97900025E801256EF6401228C828D24
:1057CC0083E508125CCCE4F0A3F079022274E812B1
:1057DC001E1774FF121DA7E9851882851983F08A9C
:1057EC00088B098C0A8D0BEC450B6016E0C3941CDE
:1057FC0050107419121DF3E0F50C600B7401650C5C
:10580C0060057912025A9F120D4DE9F96003025A94
:10581C009FA808E875F00DA4C8AAF02AFA75F00D37
:10582C00E509A42AF974DD28FE740339FF90070AF0
:10583C00E070057907025A9FE50A24FEF50AE50B8C
:10584C0034FFF50B851882851983E0850A82850B58
:10585C0083F0E50C7004740280027401A3F0E50A75
:10586C0024FEFCE50B34FFFDEE2463FAE43FFB124F
:10587C000F4BA9A8C2AF90070AE014F0E9A2E7E425
:10588C0033F8E9A2E792AF9003ADE064086008E05A
:10589C0064076003025A9D9003DBE06508450960CC
:1058AC0003025A9D7900EEFAEFFB1224969061D018
:1058BC00E07003025A9D90070EE064016003025AE7
:1058CC009DEE241DF582E43FF583125AA94970031D
:1058DC00025A9DA2AFE433851882851983F0C2AFBA
:1058EC001211258A088B09121125EA65087003EB41
:1058FC0065097003025A911210658A148B151211E6
:10590C001F8A0C8B0D8C0E8D0FE5142402F516E4FA
:10591C003515F5178A088B098C0A8D0B908FE27858
:10592C0008121BC57808122026851682851783124B
:10593C001C7D122B337404121DBDE964016003023B
:10594C005A91EE242EF508E43FF509850882F5837B
:10595C00E024061269EB780C7910121BB2780C1249
:10596C002026851682851783121C7D122B33740416
:10597C00121DBDE964016003025A91E5142408F577
:10598C000AE43515F50B850A82F58312203DAA0C25
:10599C00AB0DAC0EAD0F122B8F7404121DBD850810
:1059AC00828509831220411228687402121DBD8A57
:1059BC000C8B0D8C0E8D0F7410780C121B7A8D11B4
:1059CC008E828F83A3A3A3A3A3A3A3A3A3125C89F7
:1059DC008E828F83A3A3A3A3A312679FE82CF8E95D
:1059EC003511F98E828F83A3A3A3A3A3A3A312675C
:1059FC009F850882850983E0F50CA3E0F50DE4850D
:105A0C000A82850B838C088D09F50AF50B780879C9
:105A1C000C121A8B7808121BC5908FFE7808121C7A
:105A2C00268516828517837808121C6E7808790CE7
:105A3C00121BB2908FFA7808121BC5908FFE780853
:105A4C00121C26E51424161269CF7808121C6E85D8
:105A5C001482851583A3A3A3A3A3A3E4F0A3F0EE60
:105A6C002435F582E43FF583E0C0E0EE2434F58282
:105A7C00E43FF583D0E0F0EEFAEFFB12220BAA1410
:105A8C00AB15121047851882851983E0F8A2E092B5
:105A9C00AF79007401121DBD7F10021EE91261D294
:105AAC00F9E8227425F0A3E4F0A32274EE121E1779
:105ABC00EAFEEBFF89087413121DF3E0F509741468
:105ACC00121DF3125C89E508604B740165086015C2
:105ADC007403650860297402650860237404650802
:105AEC006003025B73E849607EE50960067401653A
:105AFC0009707474036508600674026508702AEEF8
:105B0C002460FAEF125C7E505EEC2460FAED125CBD
:105B1C007E40168052EE24E0FAEF125C735048EC93
