:020000040000FA
:0600000002011A0227793B
:03002B00022F3A67
:03003B00022F5A37
:03004300022DEBA0
:030053000227EF92
:03006B00022E144E
:03007B00022EA7AB
:100083000225CFE5C754F84401F5C77901220000E2
:100093000080FB120086B90003020104E479217891
:1000A30008B800028004F709D8FCE479297802B87B
:1000B30000028004F709D8FCE49002817871791971
:1000C3008002F0A3D8FCD9FA781A90014A7A01BACF
:1000D30000028007E493A3F608DAF97AF17B1A9019
:1000E300014B78BB79038015E493A3AD82AE838A79
:1000F300828B83F0A3AA82AB838D828E83D8E9D9C6
:10010300E775829E7583C4740512012C75829175FF
:100113008300740012012C75D00075813F7518811E
:10012300751902759F00020096C09FF59FE473D076
:100133009F22D083D082C09FE493C0E0740193C018
:10014300E0740293F59F2201C105CD050306FD0569
:10015300FF0000B4000028002800283075A000A08C
:1001630000A000A00000080008E001F0001000104B
:10017300001000100010001000500050005000103C
:10018300001000D0070000000000000F0001000570
:1001930000307507001000010081FF00000000FF20
:1001A300FFFF41075F0747078307FF0202020802B9
:1001B3005000A0000000E80302689001000057907F
:1001C300026290010000541B024E8F010000F402F2
:1001D300026290010000551B025A900100000A03BD
:1001E300026290010000561B0298900100000C036C
:1001F300026290010000571B025C900800000D038F
:10020300026290010000581B026090010000591B1C
:10021300FFFF0100FF20026890010000519002627D
:1002230090010000BE1B0278900000000000025EF7
:10023300900300003D031700D50FD50FD50FD50F41
:10024300D50FD50FD50FD50FD50FD50FD50FD50F8B
:10025300D50F3912571233127D138F1377130202FE
:1002630002020202020202010D00000010010268F4
:10027300900100004E90026290010000071C028A68
:10028300900100008C0D026290010000081C02889E
:1002930090010000318F026290010000091C028668
:1002A30090010000F98E0262900100000A1C028492
:1002B30090010000A58E0262900100000B1C0282D7
:1002C30090010000938E0262900100000C1C0280DA
:1002D30090010000B78E0262900100000D1C027EA7
:1002E30090010000818E0262900100000E1C027CCE
:1002F30090010000238F0262900100000F1C027A1C
:1003030090010000101C01E803057710020A0A9906
:1003130015000000010000020000030000040000BB
:100323000500000600000700001000001100001285
:100333000000130000140000150000160000170051
:100343000000000001000200030004000500060095
:10035300070010001100120013001400150016000E
:1003630017FFFF0001DF17E5170000EB1700000B75
:1003730004013075030201060000000000000000C4
:10038300000000000000000000000000000000006A
:1003930000000000FFFF0600800CE80308536572AD
:1003A30076657220546F20436C69656E740000108B
:1003B300436C69656E7420546F2053657276657261
:1003C3000000026890010000549002629001000056
:1003D300451D029690030000C51A026E90010000AD
:1003E300461D026290010000581D0290900000001B
:1003F300DA1A025E90030000EF1A026E9001000009
:10040300591D120135CAFD02120135D1FD02120137
:1004130035FDFD0212013518FE021201353AFE02C6
:1004230012013577FF0212013592FF02120135D214
:10043300B205120135E5B20512013506B305120105
:100443003571B305120135B2B305120135D3B305C6
:1004530012013514B405120135ACB405120135F49B
:10046300B405120135009E05120135139E051201D4
:1004730035449E051201357E9E05120135D79E0532
:100483001201351E9F05120135669F051201359530
:100493009F05120135C49F05120135FB9F0512010B
:1004A3003542A0051201355BA005120135B0A00548
:1004B300120135C9A00512013517A10512013551E5
:1004C300A1051201356EF40312013571F503120112
:1004D300359EF503120135EFF50312013512F603CC
:1004E30012013524F60312013527F603120135658F
:1004F300F603120135D9F60312013545F70312014C
:10050300350DF80312013529F80312013560F8039C
:100513001201359AF80312013531F90312013583BB
:10052300F903120135B4F903120135C1F9031201BC
:10053300352BFA031201352EFA031201353BFA0368
:100543001201353EFA0312013595FA03120135986B
:10055300FA03120135D1FA03120135D4FA03120159
:1005630035E0FA03120135E3FA0312013537FB03D1
:1005730012013580FB0312013590FB03120135C3D1
:10058300FB03120135D0FB03120135D3FB03120128
:10059300353BFC031201353DFD03120135E1FD033B
:1005A3001201354AFE0312013588FE03120135B2EA
:1005B3008904120135AA8A04120135DE8A04120164
:1005C30035748B04120135BF8B04120135238C045F
:1005D300120135AD8C04120135668D041201358884
:1005E3009004120135059204120135289204120178
:1005F30035FC8D05120135A18F05120135C18F051B
:10060300120135E29005120135359105120135428B
:1006130092051201356A920512013597920512016E
:1006230035CF92051201352D9305120135799305C6
:10063300120135E093051201352094051201355D51
:1006430094051201358B9405120135359505120178
:10065300353F95051201354C95051201357F9505FA
:100663001201358B9505120135A39505120135ADA0
:10067300950512013528C20512013536C20512014E
:10068300354EC20512013566C2051201357DC2051C
:100693001201359492031201353E93031201355131
:1006A3009403120135CD9403120135EB9503120126
:1006B30035279603120135C29603120135A6970317
:1006C300120135699803120135E198031201356F60
:1006D3009A03120135E09A031201359A9B03120122
:1006E300358C9C03120135CC9C03120135809D038C
:1006F300120135B29D03120135A89F03120135EF94
:100703009F031201350DA00312013573A0031201DB
:100713003542A10312013506A20312013525A403B4
:100723001201352FA403120135B8BB04120135A2FF
:10073300BC041201354DBD041201359EBD041201E6
:10074300354EBE04120135BFBE04120135A4BF04E9
:10075300120135D8BF04120135D1C0041201350E80
:10076300C104120135EAC10412013529C204120180
:100773003545C2041201351FB505120135A3B50570
:10078300120135CEB505120135E8B6051201353B28
:1007930096051201355196051201356F9605120122
:1007A300358097051201358A9705120135B59805ED
:1007B300120135AC9905120135199A051201352339
:1007C3009A0512013571C904120135A7CA04120131
:1007D3003521CB0412013551CB0412013564CB040E
:1007E300120135BBCB04120135D0CD0412013523E0
:1007F300B302120135D4B302120135F0B302120170
:1008030035B6B402120135C1B4021201359FB502E7
:100813001201352FB602120135E6B602120135F484
:10082300B902120135E3BB0212013595BC02120174
:10083300355EBD02120135A3C0021201354DC1025E
:1008430012013576C20212013532C402120135D2C9
:10085300C40212013520C5021201355FC50212011F
:100863003532C60212013566C602120135F3C602DD
:100873001201350080031201358C8003120135F01B
:100883008103120135FC8103120135378203120102
:1008930035A68203120135AF8303120135B88403F1
:1008A3001201357F8503120135DC8603120135FA07
:1008B3008603120135178703120135C4870312011A
:1008C30035418803120135698803120135338B03DF
:1008D300120135388B03120135518D031201359FF7
:1008E3008D031201350F8E031201354D8E03120154
:1008F30035298F03120135E98F0312013535900332
:100903001201353890031201357C9003120135C46E
:10091300900312013503910312013525910312014E
:1009230035599103120135BC91031201352FF60499
:1009330012013538F60412013546F60412013599D1
:10094300F604120135B8F604120135FDF60412015E
:100953003541F804120135DCF80412013520F9049D
:100963001201354AF904120135B9F904120135FFB0
:10097300F90412013576FA0412013527FB0412013A
:1009830035AAB201120135BAB2011201355BB301C6
:10099300120135B7B30112013574B4011201359058
:1009A300B501120135C2B501120135F1B5011201CC
:1009B300359EB70112013515BA0112013585BC0107
:1009C30012013577BD0112013570BE011201357771
:1009D300C0011201356BC3011201359AC401120122
:1009E300359EC601120135AEC7011201353DC9015D
:1009F3001201352ECA011201357CCA01120135EBF1
:100A0300CA011201350FCB0112013560CB0112016E
:100A13003501D00112013502D10112013563D10133
:100A23001201358ED10112013554D201120135283C
:100A3300E10412013532E10412013577E1041201B8
:100A4300358BE1041201351BE20412013554E20433
:100A53001201358FE204120135B8E20412013506A2
:100A6300E3041201351BE30412013530E3041201E0
:100A73003545E30412013588E3041201359DE3048F
:100A830012013508E4041201351CE4041201353067
:100A9300E40412013545E4041201357FE404120134
:100AA30035A3E404120135CFE40412013506E5044D
:100AB30012013568E504120135DAE5041201350542
:100AC300E60412013548E60412013572E604120108
:100AD300359DE6041201352DBF05120135C1B10361
:100AE300120135A4B2031201351FB3031201355AA3
:100AF300B303120135ABB40312013534B50312014C
:100B0300354CB703120135DEB90312013590BA0330
:100B13001201359CBB031201350FBD031201356869
:100B2300BD03120135F1EB0412013534EC0412015B
:100B330035B8EC041201358BED0412013562F00473
:100B4300120135A2AD051201354FAE051201355C18
:100B5300AF051201359BAF05120135F5AF05120143
:100B63003517B7051201357AB70512013517B805E0
:100B73001201354CB8051201357CB8051201359DBB
:100B8300B805120135D8B805120135F8B8051201B8
:100B93003539FB04120135C5FB0412013584FC040D
:100BA3001201359CFD04120135B6FF041201351103
:100BB300BE0312013536BE0312013503BF03120112
:100BC30035D7BF0312013544C0031201359AC00360
:100BD30012013536C1031201356AC20312013545CC
:100BE300C303120135A4C30312013530C403120138
:100BF300359EC4031201352AC5031201352DC503E1
:100C030012013577C503120135E9C5031201357B9E
:100C1300C6031201351CC7031201353CC703120179
:100C23003584C703120135CDC703120135E9C70364
:100C33001201350FC80312013589C8031201359714
:100C4300C80312013526C9031201358FC9031201E6
:100C530035668905120135EB89051201352D8A05A3
:100C6300120135118B051201357E8B05120135C238
:100C73008B05120135068C05120135338C051201E3
:100C8300355B8C05120135938C05120135D18C052A
:100C9300120135F88C05120135728D05120135BC30
:100CA3008D05120135C0D201120135B9D4011201EB
:100CB30035A5D701120135F9D70112013524D80121
:100CC300120135FED8011201353DD90112013584D7
:100CD300D90112013597D901120135D8D901120171
:100CE3003505DA0112013553DA0112013592DA01C1
:100CF300120135BDDA0112013510DB011201359FF6
:100D0300DB011201357DDE0112013598E00112018C
:100D130035D6E0011201354BE20112013590E201B3
:100D230012013584E3011201359DE501120135FFFE
:100D3300E50112013550E6011201356BEB01120199
:100D430035BAEB0112013500EC01120135E8ED0172
:100D5300120135B6EF01120135BBEF0112013595D2
:100D6300F001120135C0F00112013535F101120114
:100D73003566F10112013596F201120135A8F2012F
:100D8300120135FCAA051201356EAB05120135C4FB
:100D9300AB0512013508AC0512013528AC0512016B
:100DA3003575AC05120135BDAC0512013510AD0525
:100DB30012013561AD051201350080041201357F42
:100DC30080041201357886041201357E87041201EE
:100DD30035F1880412013588890412013500800237
:100DE300120135498002120135768002120135A8BD
:100DF3008002120135B48002120135C08002120153
:100E030035D78002120135B28102120135108202F8
:100E1300120135458202120135768302120135C370
:100E2300830212013509840212013575840212010D
:100E330035198502120135CF85021201352E86023E
:100E43001201359F8602120135FD86021201352FEC
:100E53008802120135978902120135618A02120153
:100E6300356E8A02120135B08A02120135C08A0238
:100E7300120135E48A02120135E78A02120135D3E1
:100E83008B021201356F8C02120135088D0212019B
:100E9300359F8D02120135CC8D021201352A8E0247
:100EA300120135718E02120135C18E021201351104
:100EB3008F02120135838F021201351E9002120137
:100EC30035C99002120135689102120135E691028B
:100ED3001201352D9202120135919202120135C091
:100EE30092021201355793021201356995021201DC
:100EF30035AD9502120135F895021201357E960241
:100F0300120135089702120135219802120135A703
:100F13009802120135CC980212013523990212016D
:100F230035389902120135809902120135F399027D
:100F3300120135389A02120135419B02120135F232
:100F43009B02120135509C02120135AC9C02120126
:100F530035C59C021201354B93041201359F93044E
:100F6300120135AB9304120135759404120135A2B5
:100F73009404120135D094041201353C95041201F6
:100F830035729504120135A29504120135DB9504DF
:100F9300120135F3950412013548960412013561A7
:100FA3009604120135A69604120135B9960412016E
:100FB30035D39604120135E99604120135079804D6
:100FC3001201353299041201351C9A041201350DB0
:100FD3009B04120135F17F0012013514F104120153
:100FE3003597F404120135E4F504120135CBF2010F
:100FF3001201359EF501120135A4F50112013534B4
:10100300F80112013597FA01120135CF8405120157
:10101300356685051201352486051201354E860590
:101023001201352888051201352D8905120135F580
:101033009C02120135279D0212013544A9021201B7
:101043003595AA021201359EAB021201351DAD0280
:1010530012013508AE0212013557AE021201357185
:10106300AE02120135B3AE02120135BEAE02120159
:101073003505AF021201350EAF02120135BAAF02C8
:1010830012013593B002120135DAB0021201354272
:10109300B10212013584B102120135B2B10212015B
:1010A30035EFB1021201352FDC02120135FADF02EE
:1010B30012013500E002120135A4E602120135F8EF
:1010C300EA02120135E1EE021201352D9A051201F1
:1010D30035A39A05120135B99A05120135499B05C5
:1010E300120135869B05120135C09B05120135FAA5
:1010F3009B051201356D9C05120135AE9C0512014D
:1011030035B79C05120135C39C05120135E29C05D8
:101113001201350C9D05120135219D05120135493A
:101123009D05120135AB9D05120135D29D051201B6
:1011330035A6C204120135B9C204120135D3C20463
:1011430012013500C30412013546C3041201357977
:10115300C304120135B7C3041201351CC4041201C0
:101163003531C4041201353CC40412013549C404A9
:1011730012013560C4041201356EC4041201357DB9
:10118300C40412013592C404120135A7C404120128
:1011930035B2C404120135BEC404120135CBC404F4
:1011A300120135DEC404120135E9C4041201350EFF
:1011B300C504120135B2C504120135C2C5041201BA
:1011C30035D7C504120135ECC50412013506C60432
:1011D30012013523C60412013540C6041201354BF2
:1011E300C604120135F7C604120135D8C70412012B
:1011F30035FDC70412013508C8041201351DC804A2
:1012030012013531C80412013592C8041201359810
:10121300C8041201359EC804120135A4C804120182
:1012230035BCC804120135EFC804120135CDDF0304
:10123300120135EFDF03120135B7E00312013571F7
:10124300E30312013587E403120135A8E503120114
:101253003582E60312013531E7031201353EA4035B
:10126300120135D5A4031201356DA5031201355DB5
:10127300A60312013594A603120135A7A603120192
:101283003515A703120135B0A803120135D7A803FA
:1012930012013579A903120135AEA903120135BF35
:1012A300A90312013538AA0312013559AA03120101
:1012B3003571AA03120135C9AB03120135D2AD034F
:1012C30012013522B00312013525B1031201357421
:1012D300B10312013533EF0212013530F00212016E
:1012E300351BF10212013525F1021201352FF102EE
:1012F30012013551F1021201355DF102120135AFD0
:10130300F202120135DEF2021201350EF40212016D
:101313003550F4021201357CF50212013552F60202
:10132300120135A4F60212013503F7021201353A10
:10133300F70212013575F70212013510FB02120193
:101343003529FB02120135ABFB02120135B9FB0251
:101353001201350EFC021201351CFC021201358903
:10136300FC02120135FBFC0212013541FD021201A0
:1013730035B2C903120135D4C903120135BECB03FB
:1013830012013563CF03120135A6D0031201358054
:10139300D103120135E2BA0512013507BB0512016B
:1013A3003578BB05120135C79C04120135D09C0466
:1013B300120135D99C041201350A9E041201352904
:1013C300A0041201355FA00412013599A004120193
:1013D30035CFA00412013509A1041201353DA10442
:1013E30012013569A104120135B2A104120135ECD1
:1013F300A10412013534A2041201358AA204120198
:1014030035BFA2041201351AA30412013554A304F3
:10141300120135A5A304120135DBA304120135150E
:10142300A40412013543A40412013566A404120175
:101433003547FF0112013573FF01120135CEFF015C
:10144300120135D8FF01120135E8FF01120135F40D
:10145300A4041201353CA50412013500A6041201AF
:1014630035C9A604120135E5A60412013565A704A2
:10147300120135B7A704120135CAA7041201350CAE
:10148300A804120135A7A8041201351EA9041201EC
:10149300359CAA04120135B5AA04120135EDAB043B
:1014A30012013559AC04120135C7AC04120135677A
:1014B300DB041201358EDB04120135C7DB04120194
:1014C300350DC3051201359C9001120135D19301ED
:1014D300120135E895011201356596011201351E99
:1014E3009701120135C39701120135669801120164
:1014F300351D99011201354C9901120135F79901F6
:10150300120135539F01120135E79F011201352363
:10151300A1011201358DA10112013541A201120170
:1015230035F7A40112013531A5011201359BA5013F
:10153300120135F9A50112013557A601120135B47F
:10154300A601120135A3A701120135E9A701120172
:10155300352EA80112013551A801120135AEA9019A
:10156300120135C9A90112013551AB0112013590A0
:10157300AB01120135D0AB011201351FAC011201D1
:101583003540AC011201357EAC01120135A5AE0127
:10159300120135E6AE011201357EAF011201352B82
:1015A300B001120135C9B00112013535B101120183
:1015B3003576B20112013580D50412013526D604E1
:1015C300120135A5D7041201352ED8041201352F87
:1015D300D90412013568D904120135DBD90412018B
:1015E3003549DA0412013523A805120135EEAA059F
:1015F300120135DFFF0212013541C00512013551D9
:10160300C00512013565C00512013529C105120156
:101613003520A505120135C6A50512013508A80513
:1016230012013598BC05120135AEFE03120135F8DF
:101633007F001201356C7D00120135827F0012019B
:1016430035EE7F0012013597CF0412013594D10492
:101653001201351AD20412013528D304120135ECD4
:10166300D3041201356AD404120135CCD404120117
:1016730035CFD404120135DDD404120135FAD40474
:1016830012013523D5041201354CD5041201355A04
:10169300D50412013572D504120135D7C3051201E1
:1016A3003550C4051201356FC4051201358EC405CA
:1016B30012013539C5051201354EC505120135161E
:1016C300AD041201352BAD0412013587AD041201AF
:1016D30035F2AD041201353AAE04120135A4AE045D
:1016E300120135CEAE04120135DCAE041201353ED3
:1016F300AF041201357CAF0412013597AF04120118
:101703003532B004120135D5B00412013556B10497
:101713001201358DB10412013516B2041201356B75
:10172300B204120135C8B204120135DAB20412014F
:101733003500B30412013523B30412013536B30463
:1017430012013586B40412013506B9051201356B51
:10175300B90512013514BA051201358ABA05120109
:10176300350080051201353380051201357D810571
:10177300120135C181051201358282051201355AE4
:101783008305120135F6BD05120135D1BE051201DF
:101793003540B00512013585B005120135C9B005D4
:1017A30012013590B2051201353AC10512013555C2
:1017B300C10512013565C105120135C8C105120104
:1017C3003518C205120135B9A105120135F1A1057C
:1017D30012013529A2051201354CA205120135A4C7
:1017E300A205120135FDA20512013587A3051201D9
:1017F30035CAA30512013525EA0312013501EB03AE
:1018030012013544EB031201357EEB03120135EC73
:10181300EB0312013546EC03120135B6EC0312015A
:101823003587ED0312013577EE03120135FBEE0325
:1018330012013598F00312013523F103120135B477
:10184300F1031201354FF20312013566F20312015F
:10185300359BF303120135F2F303120135BAB404D5
:10186300120135D7B4041201350CB6041201355AEE
:10187300B6041201357AB604120135E0B60412013A
:10188300355AB7041201359EB70412013528B8043E
:101893001201352ABB04120135A7BB04120135E935
:1018A300C70212013524CD0212013527D0021201DD
:1018B3003550D00212013579D0021201358CD00295
:1018C3001201353AD1021201351DD30212013580BE
:1018D300D40212013599D402120135E3D90212015F
:1018E300351CDA0212013560DA0212013571DB02AE
:1018F300120135C2D403120135EBD403120135A40E
:10190300D5031201359ED6031201354FD7031201B9
:101913003502D80312013526D803120135A1D803A5
:101923001201355ED903120135A2D90312013536EE
:10193300DA031201352BDB0312013568DB031201D5
:101943003583DB03120135A0DB03120135DFDB0333
:10195300120135F5DB03120135A5DC03120135094C
:10196300DD0312013578DD0312013507DE031201B1
:101973003554DE0312013565DE03120135E42F0011
:10198300120135E72F001201350B32001201358A9F
:101993003300120135CA3800120135E83A0012014A
:1019A30035063B001201355D3D001201351B3E003B
:1019B300120135563E00120135943E00120135BF27
:1019C3003F00120135DC4D00120135DA4E001201E1
:1019D30035035100120135175200120135E95F003A
:1019E3001201350860001201350B6000120135CC7D
:1019F3006100120135EA62001201353F63001201F2
:101A030035BF6800120135176900120135F36A000A
:101A1300120135156B00120135336B001201356B62
:101A23006E00120135E56E001201351C6F001201C4
:101A3300355A6F00120135137000120135297100F8
:101A43001201354D7D00120135C5E60412013552F0
:101A5300E7041201356FE70412013507E8041201A8
:101A63003532E8041201353FE904120135D3EA04A3
:101A730012013514EB04120135F3C4051201357854
:101A8300C505120135A4C505E066701008A3E0661C
:101A9300700A08A3E066700408A3E06622C3E79611
:101AA3000809E7960809E7960809E79622C3E0962E
:101AB30008A3E09608A3E09608A3E09622C008C313
:101AC300E096F50808A3E096420808A3E0964208CA
:101AD30008A3E09645087001D3D00822080808EA55
:101AE300C0E0EBC0E086F0E7A4FA180986F0E7A4AB
:101AF3002AFA180986F0E7A42AFA180986F0E7A457
:101B03002AFA1986F0E7A4FBE5F02AFA190886F009
:101B1300E7A42BFBE5F03AFA190886F0E7A42BFBC0
:101B2300E5F03AFA18180986F0E7A4C5F02BFBE4B0
:101B33003AFA1908E7C5F0C6A426F6E5F03BFBE43C
:101B43003AFA1886F0E7A4F6E5F00826F6E43B082F
:101B5300F6E43A08F6D0E0FBD0E0FA22E4CFC0E0A6
:101B6300E4CEC0E0E4CDC0E0E4CCC0E075F020E614
:101B730026F608E633F608E633F608E633F61818D1
:101B830018EC33FCED33FDEE33FEEF33FFC3EC977C
:101B930009ED9709EE9709EF97191919400FFFEC13
:101BA30097FC09ED97FD09EE97FE191906D5F0BFCD
:101BB300ECF709EDF709EEF709EFF7191919D0E07A
:101BC300FCD0E0FDD0E0FED0E0FF2260160808085C
:101BD300C6C313C618C613C618C613C618C613C67B
:101BE300D5E0EA227009080808226016181818C6FA
:101BF300C333C608C633C608C633C608C633C6D5FC
:101C0300E0EA22E627F60809E637F60809E637F69A
:101C13000809E637F622E026F608A3E036F608A31D
:101C2300E036F608A3E036F622E026F008A3E03615
:101C3300F008A3E036F008A3E036F022C3E697F6F7
:101C43000809E697F60809E697F60809E697F622E3
:101C5300C3E096F008A3E096F008A3E096F008A38B
:101C6300E096F022E657F60809E657F60809E65724
:101C7300F60809E657F622E056F608A3E056F608FA
:101C8300A3E056F608A3E056F622E056F008A3E0D8
:101C930056F008A3E056F008A3E056F022E066F6FB
:101CA30008A3E066F608A3E066F608A3E066F6225A
:101CB300E0F608A3E0F608A3E0F608A3E0F622E6C0
:101CC300F008A3E6F008A3E6F008A3E6F022E0FAA2
:101CD300A3E0FBA3E0FCA3E0FD22EAF0A3EBF0A367
:101CE300ECF0A3EDF022E0F8A3E0F9A3E0FAA3E01F
:101CF300FB22E8F0A3E9F0A3EAF0A3EBF022CAC0C9
:101D0300E0E6F0A308DAFAD0E0FA22CAC0E0E0A3E2
:101D1300C582CCC582C583CDC583F0A3C582CCC59E
:101D230082C583CDC583DAE6D0E0CA22C3E498F83E
:101D3300E499F9121D708026C3E49AFAE49BFBE947
:101D430020E7E9121D70E498F8E499F922C3E498B6
:101D5300F8E499F9121D70E498F8E499F9C3E49A48
:101D6300FAE49BFB22EB20E7CFE920E7E0B9001080
:101D7300BB0008E88AF084F8AAF022E4FBC8FA2240
:101D8300EB70227B10C833C8C933C9335007C39AD9
:101D9300C3DBF280069A50012ADBEAC833F4C8C9D0
:101DA30033F4C9FA2275F008E4C833C8C933C93318
:101DB300C99AC99B5004C92AC93BD5F0ECFBC83367
:101DC300F4C8E4C9FA22600D08C6A2E713C618C610
:101DD30013C6D5E0F322600C08C6C313C618C61396
:101DE300C6D5E0F422700422600D18C6C333C608BA
:101DF300C633C6D5E0F41822251810AF08F51840ED
:101E03000C15198008F51840021519D2AF2200C02D
:101E1300D0251810AF08F518500C05198008F518CF
:101E230050020519D2AFD0D0222518F58210AF0881
:101E3300F518400C15198008F51840021519D2AF92
:101E4300851983222518F582E43519F5832225188F
:101E5300F8E43519F9222518FAE43519FB22251877
:101E6300FCE43519FD22E4732518C582C0E0E519A9
:101E730034FFC583C0E0E518C3958224F810AF088A
:101E83008583198582188008858319858218D2AFC6
:101E9300CEF0A3E520F0A37808E608F0A3DEFAEF7E
:101EA300F0A3E58124FAF8E608F0A3E608F0A3E638
:101EB30008F0A30808E608F0A3E608F0A3158115C7
:101EC30081D0E0FED0E0F8158115811581E8C0E0EE
:101ED300EEC0E0222518C582C0E0E51934FFC583B2
:101EE300C0E0E518C3958224F910AF0885831985EE
:101EF30082188008858319858218D2AFCEF0A3E5B6
:101F030020F0A37808E608F0A3DEFAEFF0A3E5815A
:101F130024FBF8E608F0A3E608F0A30808E608F0B7
:101F2300A3E608F0A315811581D0E0FED0E0F815F3
:101F3300811581E8C0E0EEC0E0228519838518820F
:101F4300E0A3FEE0A3F5207808E0A3F608DFFAE0BB
:101F5300A3FFE0A3C0E0E0A3C0E0E0A3C0E0E0A3F0
:101F6300C0E0E0A3C0E010AF088582188583198024
:101F730008858218858319D2AFD083D082020132BB
:101F8300851983851882E0A3FEE0A3F5207808E095
:101F9300A3F608DFFAE0A3FFE0A3C0E0E0A3C0E0FC
:101FA300E0A3C0E0E0A3C0E010AF088582188583FA
:101FB300198008858218858319D2AFD083D08222F5
:101FC300C0D02518C582C0E0E51934FFC583C0E041
:101FD300E518C3958224F310AF0885831985821809
:101FE3008008858319858218D2AFC8F0A3E9F0A3CE
:101FF300EAF0A3EBF0A37908E709F0A3D8FAECF031
:10200300A3EDF0A3EEF0A3EFF0A3D0E0F0A3D0E0B4
:10201300F0A3D0E0F0A3E520F0A3E5F0F0A3228540
:102023001983851882E0C0E0A3E0F9A3E0FAA3E0F6
:10203300FBA37808E0F608A3DFFAE0FCA3E0FDA326
:10204300E0FEA3E0FFA3E0C0E0A3E0C0E0A3E0F56F
:10205300D0A3E0F520A3E0A3F5F010AF0885831922
:102063008582188008858319858218D2AFD082D0E3
:1020730083D0E0F8D0E032740480067402800274E6
:1020830001C0E0F404121E2CD0E0121D01227404DE
:10209300800474028000CCC0E0EDC0E0E518C39C6E
:1020A300CCAD1950011D10AF068C188D1980068C0C
:1020B300188D19D2AF121D0ED0E0FDD0E0FC22D056
:1020C30083D082E9C0E0E493A3C386F0C5F095F022
:1020D300F908E493A386F0C5F095F0700BE493A39D
:1020E300C3994005E9048002A3E475F002A42582A4
:1020F300F582E5F03583F583D0E0F9E493A3C0E0FE
:10210300E493C0E022D083D082ECC0E0EDC0E0E4F1
:1021130093A3FCE493A3FDED4C600D122154EC2436
:10212300FFFCED34FFFD80EFE493A3FCE493A3FDF8
:10213300ED4C600D122193EC24FFFCED34FFFD8088
:10214300EFD0E0FDD0E0FCE493A3C0E0E493C0E073
:1021530022C0E0C3E49396087401939618400FE4F9
:102163009366700808740193661870007019A3A32E
:10217300C3E49396087401939618A3A3400DD0E08B
:10218300D0E0D0E0022144A3A3A3A3A3A3D0E022E1
:10219300C0E0C0F088F0E4936670080874019366A9
:1021A300187000A8F0A3A3700BD0F0D0E0D0E0D05B
:0B21B300E0022144A3A3D0F0D0E02202
:1021C00074F6121ED7EAFEEBFF8C088D09EE24345C
:1021D000F8E43FF9E8FCE9FD1222F2E0FAEE2437D8
:1021E000F582E43FF583E0F88508F0A4C885F00A9D
:1021F0008509F0A4250AF9EA28F8E439F97A257B5B
:1022000000121D70EA8C828D83F0FA131313541F91
:10221000F8EE28F8E43FF9E8245DF582E439F58327
:10222000E0C0E074075AF8D0E0B800028004C3139D
:10223000D8FCA2E05003EA8020EE2436F582E43F89
:10224000F583E0F5F0EA84A8F0EE28F8E43FF9E839
:102250002438F582E439F583E0F97F03021F8374A3
:10226000F5121ED7EAFEEBFFEE2434F582E43FF5CB
:1022700083E0C0E01222F2D0E0F08E828F83A3A32D
:10228000A3A3A3E0FAA3E0FB8E828F83A3A3A3A35F
:10229000A3A3A3E0C39AF508A3E09BF509EE247F6E
:1022A000F8E43FF9880A890B8882F583E0640170BD
:1022B0002CEE2480F582E43FF583EA2401F8E43B28
:1022C000F9E0687003A3E06970137C047D07EEFAFF
:1022D000EFFB120EDF850A82850B83E4F0AC08ADBC
:1022E00009EEFAEFFB1221C0E9F9122DDD7F04029D
:1022F0001F83EE2435F582E43FF58322C082C0833C
:10230000851882851983E0F8A3E0F9C3EA9CEB9D68
:102310005010C3EC98ED99401BC3EA98EB99501408
:10232000800EC3EA98EB994007C3EC98ED994004FE
:10233000790180027900D083D08222EAC39CFAEB33
:102340009DFB2274ED121ED79003ADE0640860057A
:10235000E06407702C9061C8E060269003DBE0F831
:1023600074FF68601CE875F00DA4C8AAF02AF9741F
:10237000DD28FE740339FF8E828F83A3A3A3E07050
:102380000579000224E5EE2468F50EE43FF50F9090
:102390006060E0850E82850F83F075109E751107D1
:1023A000750800750900E5D914F50AE5D95403F557
:1023B0000B601FEE2483F50CE43FF50D7403650BF1
:1023C0006059E50A6017EE2467F582E43FF583E083
:1023D000700B793DEEFAEFFB120F0F80A490079976
:1023E000E064016023850C82850D83E060047A043B
:1023F00080027A00E50AC39AFA95E0FB120CB78ACC
:10240000088B09EA4509700612120F022381850C18
:1024100082850D83E070048A108B117A008014E5A8
:10242000D9C0E0EAF8E51028F582E43511F583D04B
:10243000E0F00AEAC3950A40E6850C82850D83E048
:10244000602874FC250AF50A781012207EAC0AA9CF
:102450000BEEFAEFFB120FCF7402121E11E9700A95
:10246000AA08AB0912174F0223D27403650B6054FC
:10247000850A0C750D00780C12207EAC10AD11AAE7
:1024800008AB09120F937402121E11850E82850F7C
:1024900083E0F87480687005750C7F8002880CE515
:1024A0000CF50D780D122082780B122082A90AAC4F
:1024B00008AD099003DBE0FA7B00120AD774021220
:1024C0001E11801C9003ADE06408AC10AD117009C2
:1024D000EEFAEFFB120FFF8007EEFAEFFB1210B9D6
:1024E00012121B79017F0C021F8374F3121ED77422
:1024F000FC121DFBEAFEEBFF8909A2AFE433F508ED
:10250000C2AFEE2463F50AE43FF50B8010AA0AABD4
:102510000B120F4512174F90070BE004F0850A824B
:10252000850B83E0F8A3E0F9E849602DE82402FA7E
:10253000E439FBEA2402F50CE43BF50D780C12209B
:102540007E8A828B83E0FCA3E0F9EEFAEFFB120FA8
:10255000397402121E11E960B490070BE0604D90CF
:10256000070CE0F890070BE0C398500C7402650963
:10257000703A90070DE060348E828F83A3A3A3A3EB
:10258000E08518828519831225BC7402121E47E863
:102590001225BC90070AE028F07402121E61AA18E6
:1025A000AB197901120B3790070BE4F0E508A2E0B4
:1025B00092AF7404121E117F06021F83F0A3E4F091
:1025C00090070BE0F82200008521878522C622C0F3
:1025D000E074EB121FC3A2AFE433F508C2AF759BE2
:1025E00000906182E0A2E05030E591A2E0502A75AF
:1025F00091FE7401652170211227621211131227B6
:1026000050122091122B877404121E11E96401707C
:1026100005790112116D122343906182E0A2E55009
:102620005DE591A2E550577591DF9003ADE0640739
:102630006005E06408702F12276274016521703E06
:10264000121113122750122091122B877404121E9C
:1026500011E964017005790112116D7901EEFAEF4B
:10266000FB1224EA8018E0640D70139003CFE0049D
:10267000F064287002E4F07A00E0F912122190610F
:1026800082E0A2E64003022725E591A2E64003028C
:1026900027257591BF9003ADE0640570081210FB0B
:1026A000121107800312110175210012118BE9909C
:1026B00003AEF0790012116D120E017A017B0090C9
:1026C00003ACE0F9121719907803E0644270569059
:1026D000079DE014F0704EC2AF1226DC00782AD0BD
:1026E000E0F618D0E0F6E59F5407F87005750DFF89
:1026F0008003750D7FC4C0E07829E6F50A08E65529
:102700000DF50B740B780A121DD9D0E0250AF8904C
:102710006270E0A2E740F8E8C333906272F0906222
:1027200070E0D2E0F0906181E0A2E35009E5E9A217
:10273000E3500375E9F7A3E0A2E75009E591A2E7AA
:10274000500375917FE508A2E092AF7F0802202236
:102750008E828F83E0F8A3E0C82416F582E438F572
:1027600083229003DBE0F875F00DA4C8AAF02AF9E3
:1027700074DD28FE740339FF22C0E0C0D0C082C0DF
:1027800083906183E0A2E05009E5BFA2E0500375A9
:10279000BFFEE0A2E15009E5BFA2E1500375BFFD15
:1027A000E0A2E25009E5BFA2E2500375BFFBE0A240
:1027B000E35009E5BFA2E3500375BFF7E0A2E45080
:1027C00009E5BFA2E4500375BFEFE0A2E55009E5BB
:1027D000BFA2E5500375BFDFE0A2E65009E5BFA246
:1027E000E6500375BFBFD083D082D0D0D0E032C0D6
:1027F000E074F2121FC3E5A7A2E4500FE5A1A2E422
:10280000500953A7EF75A1EF122843E5A7A2E550A1
:102810000CE5A1A2E5500653A7DF75A1DFE5A7A24D
:10282000E15009E5A1A2E1500375A1FDE5A7A2E2EF
:10283000500CE5A1A2E2500653A7FB75A1FB7F0156
:1028400002202274F8121ED77521019003ADE064B6
:102850000670077A007B001210E3A2AFE433FED2C9
:10286000AF9003B3E0640170187A207B009003AC52
:10287000E0F91218817A207B009003ACE0F912177E
:102880001F906182E0D2E6F090079AE0602185C651
:102890002280169003B2E064017008E5C654F84443
:1028A00005F5C653BEFC1225C87401652160E4EE2F
:1028B000A2E092AF7F01021F830000008E238F24CD
:1028C000858228858327851882851983E0CEA3E039
:1028D000CF852882852783EBC9EAC8EDCBECCA7582
:1028E000F010C3E833C8E933C9EA33CAEB33CBC3CA
:1028F000EA9EF526EB9FF525B35004AB25AA26ECFE
:1029000033CCED33CDD5F0DAAE23AF242274E91207
:102910001ED774FA121DFBEAFEEBFF8C088D09121C
:102920001125EAF8EBF9ECFAEDFB8E828F83121C8D
:10293000F59003ADE024F7C394055006751001022D
:102940002A441210598A0A8B0BEA450B7003022A9B
:10295000411211198A0C8B0D121119EA650C7003C2
:10296000EB650D60ECEEFCEFFDAA18AB1912111F20
:10297000850A82850B83A3A3780C121CB3908FFA6F
:10298000780C121C7A8518828519837814121CB36E
:10299000908FFA7814121C7A780C7914121AA050BD
:1029A0001F780C7914121C3F908F8E780C121AC06D
:1029B0004047850C10850D11850E12850F1380453B
:1029C000908F8E8514108515118516128517137832
:1029D00010790C121C3F7810121AC0501C75100090
:1029E00075110075120075130178107914121C3FCF
:1029F0007810790C121C06800C7510017511007589
:102A0000120075130074097810121BE7908F9278EA
:102A10000C121CB37810790C121B5F9003ADE064AC
:102A200008600AE064066005E064057020908F96F7
:102A30007810121AC05016908F9A7810121C1980B4
:102A40000C75100075110075120075130085088251
:102A50008509837810121CC27406121E117F1002A1
:102A60001F8374F7121ED7121137900798E0640184
:102A70007010906245E4F0A3F053F4F343FE0C535E
:102A800090F31210D1E5C654B84441F5C6E59E5402
:102A900047644170F8906185740FF0900796E0F4F8
:102AA0007002A3E0602C750801750900900796E09C
:102AB0007808121DE8E508F4FAA3E0600814600A3B
:102AC00014600C800DEA52808008EA52908003EA7C
:102AD00052A079007F02021F8374F7121ED7E9FE0D
:102AE000EAFF74016E700C7A807B009003ACE0F911
:102AF000121719902FDCE493F46008E493F9120D97
:102B0000E3800953C6B8E59E544770FA1210D79077
:102B10000798E064017003120E19900796E0F470B4
:102B200002A3E0602B750801750900900796E07814
:102B300008121DE8E508FAA3E0600814600A1460B2
:102B40000C800DEA42808008EA42908003EA42A0AD
:102B50001210598A088B09A808A909E8496016E5E6
:102B6000E170FCE82414F582E439F583E0F874FFA1
:102B700068600288E174016F700A7A019003ACE02A
:102B8000F91217B5022AD474F1121ED78A088B09DC
:102B90008C0A8D0B908FFA7808121C7A740F121E13
:102BA00047780C121CB3908FFA780C121C7A7808B4
:102BB000790C121AA0908F8E50107808790C121C84
:102BC0003F7808121AC04014800E780C7908121C45
:102BD0003F780C121AC050047901800279007F08F6
:102BE000021F8374ED121ED78A088B098C0A8D0B85
:102BF000908FFA7808121C7A7413121E47780C1200
:102C00001CB3908FFA780C121C7A780C7908121A7F
:102C1000A040117808790C121C3FAA08AB09AC0A35
:102C2000AD0B80227510007511007512007513012F
:102C30007810790C121C3F78107908121C06AA1023
:102C4000AB11AC12AD137F0C021F83908FFA780882
:102C5000121CB38A828B837808121C8D7F04021F9A
:102C60008374F5121ED78C828D837808121CB38A68
:102C7000828B837808121C53122CB5C3E098F0A302
:102C8000E099122CA7401E9090267808121CB38A57
:102C9000828B837808121C2C8E828F83E02420F094
:102CA000A3E0344EF080A4F08E828F83C3E09420A2
:102CB000A3E0944E22EA2404F8E43BF9E8FEE9FF9D
:102CC0008C828D83A3A3A3A3E0F8A3E0F98E828F67
:102CD000832274F5121ED7E9FE900726E0FAA3E0DE
:102CE000FBEE29F8E433F974E928F582748E39F59E
:102CF00083E02AF508A3E03BF509780812207E90CE
:102D0000900A121CD11228BC7402121E118A088B60
:102D1000098C0A8D0B74107808121BCEAA08AB0917
:102D20007F04021F8374F1121ED78A0C8B0D8C0E48
:102D30008D0F7411121E471220957411121E47E058
:102D40002401F508A3E03400F509E4F50AF50B7851
:102D50000C7908121ADF908FA67808121CB3780C31
:102D60007908121ADFAA0CAB0DAC0EAD0F1228BCFD
:102D70007402121E118B09EA450960047A0180026F
:102D80007A00EC2AFCE43DFD7413121E47E0F8A320
:102D9000E0F9E8FEE9FFECF8EDF97A717B02121D2B
:102DA0007088088909E4F50AF50B8E828F8378080C
:102DB000121CC2ECF8EDF97A717B02121D708A08C0
:102DC0008B0974057808121DE88E828F83A3A3A354
:102DD000A3E508F0A3E509F07F08021F83C082C0C5
:102DE00083E9906000F0D083D08222C0E074F212B8
:102DF0001FC3A2AFE433FED2AFC2C0E5D1A2E450FC
:102E00000675D10F121695751A00EEA2E092AF7FEB
:102E100001022022C0E074F2121FC3A2AFE433F516
:102E200008D2AF7F007E01EFC39408506AE5895E47
:102E3000605EEFF87900E875F003A4C8AAF075F0B9
:102E400000A42AFA75F003E9A42AF974BB28F582D4
:102E5000741C39F583E0F8A3E0F9E8496032EFFA31
:102E60007B00EFF87900E875F003A4C8ACF075F0CA
:102E700000A42CFC75F003E9A42CF974BB28F5829E
:102E8000741C39F583E0F8A3E0F5838882121E698B
:102E90000FEEC333FE8090758900C2C5E508A2E03D
:102EA00092AF7F01022022C0E074F2121FC3A2AFD2
:102EB000E433F508D2AF7F007E01EFC39408506A77
:102EC000E58A5E605EEFF87900E875F003A4C8AAB1
:102ED000F075F000A42AFA75F003E9A42AF974BB8E
:102EE00028F582741C39F583E0F8A3E0F9E849601D
:102EF00032EFFA7B00EFF87900E875F003A4C8AC74
:102F0000F075F000A42CFC75F003E9A42CF974BB57
:102F100028F582741C39F583E0F8A3E0F5838882F4
:102F2000121E690FEEC333FE8090758A00C2EBE576
:102F300008A2E092AF7F01022022C0E0C0D0E8C02A
:102F4000E0A2AFE433F8D2AFC2C7751A00E8A2E03E
:102F500092AFD0E0F8D0D0D0E032C0E0C0D0E8C02E
:102F6000E0E9C0E0EAC0E0EBC0E0C082C083A2AF0D
:102F7000E433F9D2AF900FFBE0F8900FFCE06870FB
:102F80000B539AFB900FFD7401F0802EC2E9900F55
:102F9000FBE0F8740128900FFBF0E8FA7B00747BEB
:102FA0002AF582740F3BF583E0F5C1900FFBE0C377
:102FB00094804006900FFB7400F0E9A2E092AFD03D
:102FC00083D082D0E0FBD0E0FAD0E0F9D0E0F8D0B6
:0A2FD000D0D0E032C2AF02000022B0
:102FDC00FFFFFFFFFFFFFFFF02013274F4121E6BB5
:102FEC0074F5121DFBEAFEEBFF8E828F837401F0E9
:102FFC00A37400F0A37400F0A374D4F08E828F83BA
:10300C00A3A3A3A37401F08E828F83A3A3A3A3A372
:10301C007420F0A37400F08E828F83A3A3A3A3A3C8
:10302C00A3A37420F0A37400F08E828F83A3A3A3B8
:10303C00A3A3A3A3A3A37402F0A37400F0EE240B28
:10304C00F582E43FF58374C8F0A37400F0EE240D10
:10305C00F582E43FF58374BCF0EE246EF582E43F18
:10306C00F58374E8F0A37403F0EE2470F582E43F6A
:10307C00F58374A0F0A3740FF0EE2472F582E43F94
:10308C00F58374C8F0A37400F0EE2474F582E43F69
:10309C00F583740AF0EE2475F582E43FF583740928
:1030AC00F0EE2476F582E43FF5837496F0A3740079
:1030BC00F0908F807406121E617405121D0EEE24A2
:1030CC008CF582E43FF5837404F0EE248CF582E4F5
:1030DC003FF583E0F508750900780812207E740826
:1030EC00121E61EE2478FAE43FFB1216C57402122C
:1030FC001E11EE249EF582E43FF5837403F0EE245A
:10310C009FF582E43FF5837440F0A374E2F0A3745E
:10311C0001F0A37400F0EE249DF582E43FF5837476
:10312C0000F0EE24A3F582E43FF5837400F07C10EC
:10313C007D007900EE24A4FAE43FFB1216DDEE24A8
:10314C00B4F582E43FF5837400F0EE24B5F582E427
:10315C003FF5837400F0909070AC18AD19740212A6
:10316C001D0E750800E508C394034003023201E507
:10317C0008F87900EE28F8EF39F9E8246BF582E4C9
:10318C0039F5837400F09090167402121E61740469
:10319C00121D0EA818A9197403121E47E8F0A3E912
:1031AC00F0E508F87900EE28F8EF39F9E8246BF52A
:1031BC000AE439F50B780A12207EE508F87900E864
:1031CC0075F01FA4C8AAF075F000A42AFA75F01FB8
:1031DC00E9A42AF9EE28F8EF39F9E8240EFCE439D1
:1031EC00FD79017404121E591219777402121E1102
:1031FC000508023171740B121E117F04021F3D74FD
:10320C00F7121E6B7A1E7B0312179D901ABFEAF001
:10321C00A3EBF0901ABFE0F8A3E0C8246EF582C8C7
:10322C003401F5837400F0901ABFE0F8A3E0C824D1
:10323C006FF582C83401F5837400F0A37400F0902C
:10324C001ABFE0F8A3E0C82471F582C83401F583F5
:10325C007400F0901ABFE0F8A3E0C82472F582C89D
:10326C003401F5837400F0901ABFE0F8A3E0C82491
:10327C0073F582C83401F5837400F0901ABFE0F83E
:10328C00A3E0C82415F582C83403F5837400F07CE0
:10329C00067D007900901ABFE0240FFAA3E03403F6
:1032AC00FB1216DD901ABFE0F8A3E0C82416F582D5
:1032BC00C83403F58374A7F0A37419F0901ABFE017
:1032CC00F8A3E0C82418F582C83403F58374BFF062
:1032DC00A37419F07A00EAC394035058EAF8790001
:1032EC00E875F088A4C8ABF075F000A42BFB75F062
:1032FC0088E9A42BF9901ABFE028F8A3E039F9E883
:10330C002474F8E93401F9E8FEE9FFEAC0E0EE24A0
:10331C0087F582E43FF583D0E0F0EE240CF582E4EF
:10332C003FF5837400F08E828F8374FFF0A374FFDB
:10333C00F00A80A27C037D007900901ABFE0240C77
:10334C00FAA3E03403FB1216DD901ABFE0F8A3E0F9
:10335C00C8241AF582C83403F58374B3F0A3741926
:10336C00F0901ABFE0F8A3E0C8241CF582C834031F
:10337C00F58374ADF0A37419F07F01021F3D74F353
:10338C00121E6B74E9121DFB890CEAFEEBFF12197D
:10339C00897ADD7B19121737901ABFE0F8A3E0F594
:1033AC00838882EEF0A3EFF0901ABFE0F8A3E0F56B
:1033BC00838882E0F8A3E0C82408F582C83400F5BD
:1033CC00837411F0A37419F0901ABFE0F8A3E0F520
:1033DC00838882E0F8A3E0F5838882A3A3A3A37477
:1033EC007DF0A37419F0E50CC0E0901ABFE0F8A3CF
:1033FC00E0C82471F582C83401F583D0E0F0901A4E
:10340C00BFE02402FCA3E03400FD7AB679811218E7
:10341C0051E9701C908FDE7808121CB3901ABFE033
:10342C00F8A3E0F5838882A3A37808121A8B600FA7
:10343C00901ABFE02402FAA3E03400FB1219839027
:10344C001ABFE0F8A3E0F5838882A3A3C082C083EF
:10345C00901ABFE024B8FCA3E03400FDD083D082E6
:10346C0074B6121D0E750800E508C39403400302E0
:10347C003551E508F87900901ABFE028F8A3E03937
:10348C00F9E8246DF582E439F583E0F50A750B0053
:10349C00780A12207EE508F87900E875F01FA4C8B8
:1034AC00AAF075F000A42AFA75F01FE9A42AF99085
:1034BC001ABFE028F8A3E039F9E82410FCE439FD40
:1034CC00E508F87900E875F088A4C8AAF075F00052
:1034DC00A42AFA75F088E9A42AF9901ABFE028F812
:1034EC00A3E039F9E82488FAE93401FB1216C57413
:1034FC0002121E11E508F87900901ABFE028F8A313
:10350C00E039F9E8246DF582E439F583E0C0E0E5B3
:10351C0008F87900E875F088A4C8AAF075F000A442
:10352C002AFA75F088E9A42AF9901ABFE028F8A3C2
:10353C00E039F9E824A7F582E93401F583D0E0F00D
:10354C000508023474908F157409121E61740E12E2
:10355C001D0E901ABFE0248FF8A3E03400F9740A12
:10356C00121E47E8F0A3E9F0901ABFE0F8A3E0C8F8
:10357C00249FF582C83400F583E0C0E0740C121E61
:10358C0047D0E0F0901ABFE0F8A3E0C824B7F5826A
:10359C00C83400F583E0C0E0740D121E47D0E0F093
:1035AC00901ABFE0F8A3E0C824A5F582C83400F552
:1035BC0083E0C0E0740E121E47D0E0F0901ABFE01A
:1035CC0024A6F8A3E03400F9740F121E47E8F0A308
:1035DC00E9F08E828F83A3A3A3A3A3A3A3A3A3A386
:1035EC00E0F8A3E0F97411121E47E8F0A3E9F074B7
:1035FC0009121E591218F3901ABFE0F8A3E0C82460
:10360C0076F582C83400F583E0C0E07404121E47DE
:10361C00D0E0F07404121E6179017A047B04121458
:10362C0055E9FA7903121947E9901ABFE0F8A3E0BB
:10363C00C82470F582C83400F583E0FCA3E0FD7A61
:10364C00027B0012060FE9FA7903121947E9901A66
:10365C00BFE0F8A3E0C82470F582C83400F583E01D
:10366C00FCA3E0FD7A037B0012060FE9FA79031242
:10367C001947E9901ABFE0247AFCA3E03400FD90CE
:10368C001ABFE0F8A3E0C8248EF582C83400F58395
:10369C00E0FA79001207C5E9FA7903121947E974BF
:1036AC0005121E477400F0A37400F0A37400F0A37D
:1036BC007400F0901ABFE0F8A3E0C824A0F582C80B
:1036CC003400F583E064026014901ABFE0F8A3E0C4
:1036DC00C824A0F582C83400F583E0700A74031284
:1036EC001E477402F080087403121E477401F09098
:1036FC001ABFE0F8A3E0C824A0F582C83400F58313
:10370C00E064026016901ABFE0F8A3E0C824A0F5AC
:10371C0082C83400F583E06403700A7402121E47F9
:10372C007401F080087402121E477400F0901ABFE6
:10373C00E0F8A3E0C824A0F582C83400F583E06467
:10374C00026014901ABFE0F8A3E0C824A0F582C868
:10375C003400F583E0700A7401121E477400F08087
:10376C00087401121E477402F0901ABFE0F8A3E02F
:10377C00C824A0F582C83400F583E064026014907C
:10378C001ABFE0F8A3E0C824A0F582C83400F58382
:10379C00E0700B8518828519837400F080098518F8
:1037AC00828519837401F07405121E6179047A08FC
:1037BC007B041214C7E9FA7903121947E97403124E
:1037CC001E6179017A007B041214C7E9FA7903129D
:1037DC001947E97402121E6179017A027B041214F2
:1037EC00C7E9FA7903121947E97401121E617901CC
:1037FC007A037B041214C7E9FA7903121947E9AC6E
:10380C0018AD1979017A067B041214C7E9FA790309
:10381C00121947E91207EFE9901ABFE0F8A3E0C8C4
:10382C002471F582C83401F583E0F91207F5909004
:10383C0026121CD11207D1E9FA7903121947E99023
:10384C009026121CD112099FE9FA7903121947E943
:10385C007A017B00901ABFE0F8A3E0C82471F582CE
:10386C00C83401F583E0F9121719E9FA7902121933
:10387C0047E97900120AB3E9FA7900121947E9907D
:10388C001ABFE0F8A3E0C824B6F582C83400F5836B
:10389C00E0602114600814600D146012801675C964
:1038AC000143C908800E75C90243C908800675C951
:1038BC000343C9087417121E117F05021F3D74F3D0
:1038CC00121E6B890CEAFEEBFFEE5400F8EF5480ED
:1038DC00F9E8496040901ABFE0F8A3E0C82471F5FC
:1038EC0082C83401F583E0F91217018A0A8B0BA800
:1038FC000AA90B88088909E849600FAA08AB0912C4
:10390C00199BAA08AB091216EFE9EE6400FAEF64F2
:10391C0080FB023AE3EEA2E05031901ABFE024168D
:10392C00FAA3E03403FB12144FE9FA790312194796
:10393C00E9901ABFE0241AFAA3E03403FB1214F145
:10394C00EE6401FAEF6400FB023AE3EE54026017F6
:10395C007A407B00A90C121995122FD4EE6402FA4E
:10396C00EF6400FB023AE3EE54406050901ABFE063
:10397C00F8A3E0C8246EF582C83401F583E0640135
:10398C00702F901ABFE024B8FCA3E03400FD7AB687
:10399C00798112184BE9FA7902121947E9901ABF8A
:1039AC00E0F8A3E0C8246EF582C83401F5837400F6
:1039BC00F0EE6440FAEF6400FB023AE3EE5404705C
:1039CC0003023A68901ABFE0F8A3E0C82472F582AB
:1039DC00C83401F5837401F07B007A017903121469
:1039EC006DE9FA7903121947E97A087B00901ABF3E
:1039FC00E0F8A3E0C82471F582C83401F583E0F93E
:103A0C00121887EA4B4C4D7049901ABFE0F8A3E0AE
:103A1C00C82472F582C83400F583E0F508A3E0F5FC
:103A2C0009E4F50AF50B780812207A7A087B0090E5
:103A3C001ABFE0F8A3E0C82471F582C83401F583FD
:103A4C00E0F91218757404121E11E9FA79021219B0
:103A5C0047E9EE6404FAEF6400FB807BEE540860E7
:103A6C002D121473E9FA7903121947E9901ABFE081
:103A7C00F8A3E0C8246FF582C83401F5837400F014
:103A8C00A37400F0EE6408FAEF6400FB8049EE5476
:103A9C0010600D1219C5EE6410FAEF6400FB80374C
:103AAC00EE5420602E901ABFE0F8A3E0F5838882D4
:103ABC00E0F8A3E0C82406F582C83400F583E0F8EA
:103ACC00A3E0F5838882121E69EE6420FAEF64008D
:103ADC00FB80047A007B007F05021F3D74F7121EE9
:103AEC006BEAFEEBFF8E828F83E064B07007EEFA18
:103AFC00EFFB1219A17F01021F3D74F2121E6B74B1
:103B0C00FD121DFBEAFEEBFF750800750900750838
:103B1C00007509007A007B03EAC39B5075EAF879BB
:103B2C0000E875F088A4C8ACF075F000A42CFC7506
:103B3C00F088E9A42CF9901ABFE028F8A3E039F931
:103B4C00E82474F582E93401F583E0F8A3E0F98EFA
:103B5C00828F83A3A3E0687003A3E0697031EAF855
:103B6C007900E875F088A4C8AAF075F000A42AFAC8
:103B7C0075F088E9A42AF9901ABFE028F8A3E03977
:103B8C00F9E82474F8E93401F98808890980030AF2
:103B9C008086E50845097003023D3F8E828F83A322
:103BAC00A3A3A3E0640B601B8E828F83A3A3A3A3A8
:103BBC00E0640170358E828F83A3A3A3A3A3E0647A
:103BCC000A70278E828F83A3A3A3A3E064016003F2
:103BDC00023D3F8E828F83A3A3A3A3A3A3A3A3E041
:103BEC00FA7901121947E9023D3F8E828F83A3A314
:103BFC00A3A3E0641360218E828F83A3A3A3A3E00D
:103C0C0064016003023CF08E828F83A3A3A3A3A361
:103C1C00E064126003023CF0E508240BF582E43505
:103C2C0009F583E06003023D3F8E828F83A3A3A33B
:103C3C00A3E064016005750A018003750A00E50ABA
:103C4C0060047A00800E8E828F83A3A3A3A3A3A308
:103C5C00A3A3E0FA7901121947E9E50A60047A0195
:103C6C0080027A00E5082487F582E43509F583E0C3
:103C7C00F9121935E508240BF582E43509F583743E
:103C8C0001F0A818A919880C890D780C12207E74E3
:103C9C0003121E61E5082434FAE43509FB1218FFFF
:103CAC007402121E11E97003023D3F8518828519BA
:103CBC0083E0FC7401121E47E0FAA3E0FB85088246
:103CCC00850983E0F8A3E0F9E8F91219D1E97063EA
:103CDC007A00850882850983E0F8A3E0F9E8F912F7
:103CEC001935809E8E828F83A3A3A3A3E0641B70DF
:103CFC00428E828F83A3A3A3A3A3E064287004A3A2
:103D0C00E06400702E8E828F83A3A3A3A3A3A3A32E
:103D1C00E0FC8E828F83A3A3A3A3A3A3A3A3E0FAA7
:103D2C00A3E0FBE5082487F582E43509F583E0F987
:103D3C0012192F8E828F83A3A3A3A3E0F9EE24057F
:103D4C00FAE43FFB12097B7403121E117F06021F5B
:103D5C003D74F5121E6B74FF121DFB8A088B0989CA
:103D6C000A7E007F007A007B03EAC39B506CEAF862
:103D7C007900E875F088A4C8ACF075F000A42CFCB0
:103D8C0075F088E9A42CF9901ABFE028F8A3E03963
:103D9C00F9E82474F582E93401F583E065087004D0
:103DAC00A3E065097031EAF87900E875F088A4C8D9
:103DBC00AAF075F000A42AFA75F088E9A42AF99003
:103DCC001ABFE028F8A3E039F9E82474F8E93401C3
:103DDC00F9E8FEE9FF80030A808FEE4F602775F04B
:103DEC00FFE50AA4C0E0851882851983D0E0F07B3A
:103DFC0001AC18AD19EE2487F582E43FF583E0FAA7
:103E0C0079001219537401121E117F03021F3D74A5
:103E1C00F6121E6BEAFEEBFF89088C09E50860259B
:103E2C0074016508701BE509601B74086509601551
:103E3C00EEFAEFFB121461E9FA7903121947E980E3
:103E4C0004740265087F02021F3D74F5121E6BEAB2
:103E5C00FEEBFF8C088D09890A901ABFE0F8A3E0ED
:103E6C00C824A1F582C83400F5831220917900AAE8
:103E7C0008AB091214F77404121E11E9FA79031233
:103E8C001947E97F03021F3D74F0121E6B74FB127D
:103E9C001DFB7403121E47EAF0A3EBF0E9C0E074BB
:103EAC0002121E47D0E0F0851882851983ECF0A32E
:103EBC00EDF07415121E47E0F50F7508007F007EBB
:103ECC0000E508C3950F4003023FB3E508F87900FD
:103EDC00851882851983E028FAA3E0398A82F58354
:103EEC00E024FFF50C0508E508F8790085188285B3
:103EFC001983E028FAA3E0398A82F583E0F50E05F0
:103F0C00087F007E007402121E47E0F8EFC3984051
:103F1C0003023FA3EFF879007403121E47E028FA5E
:103F2C00A3E0398A82F583E024FFF5090FEFF879D5
:103F3C00007403121E47E028FAA3E0398A82F58345
:103F4C00E0F50D0FE50D650E7046E50C6509703C4E
:103F5C00E509F50A750B00780A12207EE508F87958
:103F6C00007402121E47E028FCA3E039FDEFF8793B
:103F7C00007405121E47E028FAA3E039FB1216D78D
:103F8C007402121E11E960047E01800B7E00800712
:103F9C00E5092FFF023F11EE70047900800BE50C50
:103FAC002508F508023ECD79017405121E117F0813
:103FBC00021F3D74F2121E6B74C6121DFB8A0C8B11
:103FCC000D850C82850D83A3A3E060201470030281
:103FDC00489924FC7003024A52147003024C8D144D
:103FEC007003024D7724FA6024024DD0901ABFE082
:103FFC00240FFCA3E03403FD7A037B0412145BE969
:10400C00FA7903121947E9121941024DD0850C8235
:10401C00850D83A3A3A3E0600A24FC700302416313
:10402C00024DD0901ABFE0F8A3E0C8246FF582C807
:10403C003401F583E02401F0A3E03400F07E007F2E
:10404C0000750A03EFC3950A5051750806750900EF
:10405C00780812207EE50C2405FCE4350DFDEFF804
:10406C007900E875F088A4C8AAF075F000A42AFAC3
:10407C0075F088E9A42AF9901ABFE028F8A3E03972
:10408C00F9E82482FAE93401FB1216D77402121EE5
:10409C0011E960047E0180030F80A9EE6003024DDC
:1040AC00D09090727407121E617402121D0E9090C3
:1040BC000E740D121E617404121D0E7407121E5123
:1040CC00740E121E47E8F0A3E9F07402121E477436
:1040DC0000F07402121E5188088909780812207E9B
:1040EC007419121E617901740F121E59121977740A
:1040FC0002121E117402121E47E0F50878081220F5
:10410C00827418121E61E50C240CF582E4350DF551
:10411C0083E0F9E50C240DF582E4350DF583E0FA26
:10412C00A3E0FB1219B97401121E11E9600EE50C23
:10413C00240BF582E4350DF583E080027400C0E0B9
:10414C00901ABFE0F8A3E0C82415F582C83403F533
:10415C0083D0E0F0024DD0901ABFE0F8A3E0C82461
:10416C0015F582C83403F583E07003024DD0901A24
:10417C00BFE0F8A3E0C82415F582C83403F583E04A
:10418C00F83395E0F9E50C240BF582E4350DF58355
:10419C00E0FA3395E0FBE82AF8E93BF97A027B0078
:1041AC00121D68E8C0E0901ABFE0F8A3E0C824151F
:1041BC00F582C83403F583D0E0F0901ABFE0F8A381
:1041CC00E0C82415F582C83403F583E0F8901ABFD3
:1041DC00E0F9A3E0C9240FF582C93400F583E0C3EC
:1041EC0098A2D265D0334003024DD0901ABFE0F8AC
:1041FC00A3E0C82415F582C83403F583E0FF850CD1
:10420C0082850D83A3A3A3A3E0C0E07401121E4713
:10421C00D0E0F0901ABFE0F8A3E0C82415F582C8EE
:10422C003403F583E0FF7508067509007808122041
:10423C007EE50C2405FCE4350DFD7413121E591299
:10424C0016C57402121E11850C82850D83A3A3A3BF
:10425C00A3E0C0E07401121E47D0E0F0E50C240C82
:10426C00F582E4350DF583E0F50875090078081240
:10427C00207EE50C240DF582E4350DF583E0FCA3DE
:10428C00E0FD741D121E591216C57402121E11E5A2
:10429C000C240CF582E4350DF583E0C0E085188222
:1042AC00851983D0E0F0750A00750A007E00EEC314
:1042BC009403400302484C851882851983E0F50865
:1042CC007808122082741C121E61EEF87900E875D1
:1042DC00F088A4C8AAF075F000A42AFA75F088E951
:1042EC00A42AF9901ABFE028F8A3E039F9E824A72A
:1042FC00F582E93401F583E0F9EEFA7B00EA75F01A
:10430C0088A4CAA8F075F000A428F875F088EBA46E
:10431C0028FB901ABFE02AFAA3E03BFBEA2488FAB8
:10432C00EB3401FB1219B97401121E11E97003026E
:10433C004848EEF87900E875F088A4C8AAF075F042
:10434C0000A42AFA75F088E9A42AF9901ABFE0288B
:10435C00F8A3E039F9E82480F582E93401F583E02B
:10436C0060030244D4EEF87900E875F088A4C8AA7A
:10437C00F075F000A42AFA75F088E9A42AF9901ACD
:10438C00BFE028F8A3E039F9E82480F582E934018C
:10439C00F5837401F0750806750900780812207E03
:1043AC007413121E61EEF87900E875F088A4C8AA9F
:1043BC00F075F000A42AFA75F088E9A42AF9901A8D
:1043CC00BFE028F8A3E039F9E82482FAE93401FBCC
:1043DC001216C57402121E11851882851983E0F518
:1043EC0008750900780812207E741D121E61EEF803
:1043FC007900E875F088A4C8AAF075F000A42AFA30
:10440C0075F088E9A42AF9901ABFE028F8A3E039DE
:10441C00F9E82488FAE93401FB1216C57402121E5D
:10442C0011851882851983E0C0E0EEF87900E875F3
:10443C00F088A4C8AAF075F000A42AFA75F088E9EF
:10444C00A42AF9901ABFE028F8A3E039F9E824A7C8
:10445C00F582E93401F583D0E0F07401121E47E0D7
:10446C00C0E0EEF87900E875F088A4C8AAF075F001
:10447C0000A42AFA75F088E9A42AF9901ABFE0285A
:10448C00F8A3E039F9E82481F582E93401F583D009
:10449C00E0F0EFC0E0EEF87900E875F088A4C8AA67
:1044AC00F075F000A42AFA75F088E9A42AF9901A9C
:1044BC00BFE028F8A3E039F9E824FAF582E93401E1
:1044CC00F583D0E0F002484CEEF87900E875F088FE
:1044DC00A4C8AAF075F000A42AFA75F088E9A42AF9
:1044EC00F9901ABFE028F8A3E039F9E82480F582A6
:1044FC00E93401F583E064016003024848EEF87981
:10450C0000E875F088A4C8AAF075F000A42AFA7522
:10451C00F088E9A42AF9901ABFE028F8A3E039F949
:10452C00E824FAF582E93401F583E0F8EFC398A2A8
:10453C00D265D0335003024848EEFA7B00EA75F09E
:10454C0088A4CAACF075F000A42CFC75F088EBA420
:10455C002CFB901ABFE02AFAA3E03BFBEA24FAF505
:10456C0082EB3401F583E0FA3395E0FBEAF8EBF9E2
:10457C00EFC0E0EEFA7B00EA75F088A4CAACF075E7
:10458C00F000A42CFC75F088EBA42CFB901ABFE077
:10459C002AFAA3E03BFBEA24FAF582EB3401F5831B
:1045AC00D0E0F0E8FFEEF87900E875F088A4C8AB2D
:1045BC00F075F000A42BFB75F088E9A42BF9901A88
:1045CC00BFE028F8A3E039F9E82481F582E9340149
:1045DC00F583E0FA7401121E47E0C0E0EEF87900B2
:1045EC00E875F088A4C8ABF075F000A42BFB75F04F
:1045FC0088E9A42BF9901ABFE028F8A3E039F9E870
:10460C002481F582E93401F583D0E0F0EAC0E0744E
:10461C0001121E47D0E0F07A007B06EBC39A5003E0
:10462C000246DFEAFC7D00EEF87900E875F088A41C
:10463C00C885F00975F000A42509F50975F088E91D
:10464C00A42509F9901ABFE028F8A3E039F9E82C61
:10465C00F8E93DF9E82482F582E93401F583E0F5C7
:10466C0008EAF879007411121E47E58228F582E5F4
:10467C008339F583E0C0E0EAFC7D00EEF87900E8D0
:10468C0075F088A4C885F00975F000A42509F50912
:10469C0075F088E9A42509F9901ABFE028F8A3E081
:1046AC0039F9E82CF8E93DF9E82482F582E934017E
:1046BC00F583D0E0F0E508C0E0EAF8790074111257
:1046CC001E47E58228F582E58339F583D0E0F00AB0
:1046DC000246277800EEFA7B00EA75F088A4CAAC93
:1046EC00F075F000A42CFC75F088EBA42CFB901A50
:1046FC00BFE02AFAA3E03BFBEA24A7F582EB3401E6
:10470C00F583E0C398500E851882851983E0C39811
:10471C0050030247CFE8FC7D00EEFA7B00EA75F00F
:10472C0088A4CA85F00875F000A42508F50875F072
:10473C0088EBA42508FB901ABFE02AFAA3E03BFB08
:10474C00EA2CFAEB3DFBEA2488F582EB3401F58385
:10475C00E0F9E8FA7B00741B121E47E5822AF58209
:10476C00E5833BF583E0C0E0E8FC7D00EEFA7B00DE
:10477C00EA75F088A4CA85F00875F000A42508F540
:10478C000875F088EBA42508FB901ABFE02AFAA361
:10479C00E03BFBEA2CFAEB3DFBEA2488F582EB3498
:1047AC0001F583D0E0F0E9C0E0E8FA7B00741B125D
:1047BC001E47E5822AF582E5833BF583D0E0F008BD
:1047CC000246E1EEFA7B00EA75F088A4CAACF075FB
:1047DC00F000A42CFC75F088EBA42CFB901ABFE025
:1047EC002AFAA3E03BFBEA24A7F582EB3401F5831C
:1047FC00E0F8851882851983E0C0E0EEFA7B00EAC8
:10480C0075F088A4CAACF075F000A42CFC75F08887
:10481C00EBA42CFB901ABFE02AFAA3E03BFBEA24A2
:10482C00A7F582EB3401F583D0E0F0E8C0E0851801
:10483C0082851983D0E0F0750A0180040E0242BA19
:10484C007401650A70030242B5901ABFE0F8A3E048
:10485C00C8246FF582C83401F583C082C083901AD6
:10486C00BFE0F8A3E0C82477F582C83400F583E0F4
:10487C00F87900D083D082C3E098A3E099400B1262
:10488C001473E9FA7903121947E9024DD0901ABF53
:10489C00E0F8A3E0C82472F582C83401F583E06423
:1048AC00016003024DD0121899EAF8EBF9ECFAED1D
:1048BC00FB7409121E47121CF5901ABFE0F8A3E016
:1048CC00C8246FF582C83401F583C082C083901A66
:1048DC00BFE0F8A3E0C82477F582C83400F583E084
:1048EC00F87900D083D082C3E098A3E099402C9053
:1048FC001ABFE0F8A3E0C8246FF582C83401F58331
:10490C007400F0A37400F07B007A01790312146D2B
:10491C00E9FA7903121947E9024DD0901ABFE0F871
:10492C00A3E0C8246FF582C83401F5837400F0A3AA
:10493C007400F07A087B00901ABFE0F8A3E0C8245A
:10494C0071F582C83401F583E0F9121887EA4B4CF3
:10495C004D60227A087B00901ABFE0F8A3E0C824CF
:10496C0071F582C83401F583E0F9121881E9FA79FE
:10497C0002121947E9901ABFE0F8A3E0C82472F5B7
:10498C0082C83401F5837400F07E007A007B03EA60
:10499C00C39B5039EAF87900E875F088A4C8ACF0EC
:1049AC0075F000A42CFC75F088E9A42CF9901ABFC2
:1049BC00E028F8A3E039F9E82480F582E93401F520
:1049CC0083E0640170047E0180030A80C2EE700AE9
:1049DC007A157903121947E980697A107B00901ACD
:1049EC00BFE0F8A3E0C82471F582C83401F583E078
:1049FC00F9121887EA4B4C4D7049901ABFE0F8A396
:104A0C00E0C82474F582C83400F583E0F508A3E00F
:104A1C00F509E4F50AF50B780812207A7A107B0078
:104A2C00901ABFE0F8A3E0C82471F582C83401F5F0
:104A3C0083E0F91218757404121E11E9FA79021246
:104A4C001947E9024DD0901ABFE0F8A3E0C82473CF
:104A5C00F582C83401F583E064016003024C6012F6
:104A6C0018997409121E47121CDD850C82850D8362
:104A7C00A3E06003024BE17E00EEC394034003020B
:104A8C004BE1EEF87900E875F088A4C8AAF075F04F
:104A9C0000A42AFA75F088E9A42AF9901ABFE02834
:104AAC00F8A3E039F9E82474F8E93401F9880889A5
:104ABC0009E508240CF582E43509F583E06402600D
:104ACC0003024BDD750A06750B00780A12207EE591
:104ADC000C2404FCE4350DFDE508240EFAE435093C
:104AEC00FB1216D77402121E11E964016003024B0B
:104AFC00DDE508240BF582E43509F5837401F0E556
:104B0C00082485F582E43509F5837400F0850C8260
:104B1C00850D83A3A3A3A3A3A3A3A3A3A3E0F8A39B
:104B2C00E0F9850882850983E8F0A3E9F0E508241B
:104B3C000CF582E43509F5837403F09090747405D8
:104B4C00121E617402121D0E901ABFE0F8A3E0C889
:104B5C002471F582C83401F583E0F50A780A122035
:104B6C008279027406121E61850882850983E0FA37
:104B7C00A3E0FB1207FB7401121E11E9FA79031270
:104B8C001947E9901ABFE0F8A3E0F5838882E0F8B2
:104B9C00A3E0F5838882A3A3E0F8A3E0F5838882E1
:104BAC00121E69EEF87900901ABFE028F8A3E039DC
:104BBC00F9E8240CF582E93403F5837401F07903E8
:104BCC00901ABFE0240CFAA3E03403FB12193B80CB
:104BDC00040E024A857A107B00901ABFE0F8A3E01D
:104BEC00C82471F582C83401F583E0F9121887EAFC
:104BFC004B4C4D7049901ABFE0F8A3E0C82474F5F3
:104C0C0082C83400F583E0F508A3E0F509E4F50A61
:104C1C00F50B780812207A7A107B00901ABFE0F816
:104C2C00A3E0C82471F582C83401F583E0F91218A9
:104C3C00757404121E11E9FA7902121947E9901AD7
:104C4C00BFE0F8A3E0C82473F582C83401F583747F
:104C5C0000F0802A850C82850D83A3E07020850CE2
:104C6C0082850D83A3A3A3A3A3A3A3A3A3A3E0FA69
:104C7C00A3E0FB121461E9FA7903121947E9024D1A
:104C8C00D07E007F007A007B03EAC39B5078EAF861
:104C9C007900E875F088A4C8ACF075F000A42CFC81
:104CAC0075F088E9A42CF9901ABFE028F8A3E03934
:104CBC00F9E82474F582E93401F583E0F8A3E0F90E
:104CCC00850C82850D83A3A3A3E0687003A3E06920
:104CDC007031EAF87900E875F088A4C8AAF075F08C
:104CEC0000A42AFA75F088E9A42AF9901ABFE028E2
:104CFC00F8A3E039F9E82474F8E93401F9E8FEE99D
:104D0C00FF80030A8083EE4F605FEE240CF582E493
:104D1C003FF5837400F08E828F8374FFF0A374FFD1
:104D2C00F0EE2487F582E43FF583E0F87900901AE1
:104D3C00BFE028F8A3E039F9E8240CF582E9340344
:104D4C00F5837400F0850C82850D83A3A3A3A3A324
:104D5C00E0FA7904121947E97903901ABFE0240CA0
:104D6C00FAA3E03403FB12193B805990907674033C
:104D7C00121E617402121D0E750802780812208230
:104D8C007404121E5188088909780812207E7C2927
:104D9C007D00850C82850D83A3A3A3A3E0FAA3E079
:104DAC00FB901ABFE0F8A3E0C82471F582C8340167
:104DBC00F583E0F9121A737403121E11E9FA7903E0
:104DCC00121947E97901743A121E117F06021F3D30
:104DDC00C082C0837A00EAC394034003024ED3EA34
:104DEC00F87900E875F088A4C8ABF075F000A42B36
:104DFC00FB75F088E9A42BF9901ABFE028F8A3E022
:104E0C0039F9E82480F582E93401F583E064016026
:104E1C0003024ECF901ABFE0F8A3E0C82473F582CA
:104E2C00C83401F5837401F0EAF87900E875F0886C
:104E3C00A4C8ABF075F000A42BFB75F088E9A42B8B
:104E4C00F9901ABFE028F8A3E039F9E82480F5823C
:104E5C00E93401F5837402F0EAF87900E875F0881A
:104E6C00A4C8ABF075F000A42BFB75F088E9A42B5B
:104E7C00F9901ABFE028F8A3E039F9E82482FCE99C
:104E8C003401FDEAF87900E875F088A4C8AAF07539
:104E9C00F000A42AFA75F088E9A42AF9901ABFE068
:104EAC0028F8A3E039F9E82481F582E93401F58387
:104EBC00E0FB7A007900121467E9FA7903121947BA
:104ECC00E980040A024DE2D083D08202013274F6EA
:104EDC00121E6B7A047B00901ABFE0F8A3E0C82482
:104EEC0071F582C83401F583E0F9121887EA4B4C4E
:104EFC004D60227A047B00901ABFE0F8A3E0C8242E
:104F0C0071F582C83401F583E0F9121881E9FA7958
:104F1C0002121947E97A087B00901ABFE0F8A3E067
:104F2C00C82471F582C83401F583E0F9121887EAB8
:104F3C004B4C4D60227A087B00901ABFE0F8A3E03E
:104F4C00C82471F582C83401F583E0F9121881E99F
:104F5C00FA7902121947E97A107B00901ABFE0F82F
:104F6C00A3E0C82471F582C83401F583E0F9121866
:104F7C0087EA4B4C4D60227A107B00901ABFE0F808
:104F8C00A3E0C82471F582C83401F583E0F9121846
:104F9C0081E9FA7902121947E97E00901ABFE0F80C
:104FAC00A3E0C82473F582C83401F583E064017072
:104FBC0016901ABFE0F8A3E0C82473F582C8340138
:104FCC00F5837400F07E01901ABFE0F8A3E0C824CA
:104FDC0072F582C83401F583E064017021901ABF28
:104FEC00E0F8A3E0C82472F582C83401F58374009C
:104FFC00F0121473E9FA7903121947E97E017F0064
:10500C00EFC3940340030250BAEFF87900E875F04F
:10501C0088A4C8AAF075F000A42AFA75F088E9A44F
:10502C002AF9901ABFE028F8A3E039F9E82480F5B2
:10503C0082E93401F583E06403703FEFF87900E80E
:10504C0075F088A4C8AAF075F000A42AFA75F08847
:10505C00E9A42AF9901ABFE028F8A3E039F9E8246A
:10506C0074F582E93401F583E0FAA3E0FB121461D4
:10507C00E9FA7903121947E97E01EFF87900E8752E
:10508C00F088A4C8AAF075F000A42AFA75F088E993
:10509C00A42AF9901ABFE028F8A3E039F9E8248093
:1050AC00F582E93401F5837400F00F02500C901A6C
:1050BC00BFE0F8A3E0C8246FF582C83401F583740F
:1050CC0000F0A37400F074016E701A901ABFE0F82F
:1050DC00A3E0C82478F582C83400F583E0F508A372
:1050EC00E0F5098006750800750900AA08AB09E40B
:1050FC00FCFD7F02021F3D74F3121E6BE9FF8A0A4E
:10510C008B0BECFEEFC394034003025210EEC394DE
:10511C00154003025210EFF87900E875F088A4C826
:10512C00AAF075F000A42AFA75F088E9A42AF9907F
:10513C001ABFE028F8A3E039F9E82480F582E934B5
:10514C0001F583E064036003025210EFF87900E884
:10515C0075F088A4C8AAF075F000A42AFA75F08836
:10516C00E9A42AF9901ABFE028F8A3E039F9E82459
:10517C0074F508E93401F509E508240BF582E435EA
:10518C0009F583E06057EEF50C780C122082780A52
:10519C0012207E7C257D00850882850983E0FAA398
:1051AC00E0FB901ABFE0F8A3E0C82471F582C83484
:1051BC0001F583E0F9121A737403121E11E9FA79DE
:1051CC0003121947E97012E508240BF582E435093E
:1051DC00F5837400F07901802D79008029EEF9AC0B
:1051EC000AAD0BE5082434FAE43509FB1218F9E989
:1051FC00640170047901800E7A137903121947E95E
:10520C007900800279007F05021F3D74F2121E6B3B
:10521C0074F2121DFB8A0C8B0DE9FF7E00750801E0
:10522C0078081220827403121E51880889097808A4
:10523C0012207E740B121E518808890978081220DE
:10524C007E7411121E5188088909780812207E7408
:10525C0014121E61EFF9AA0CAB0D12190B74071284
:10526C001E11E964016003025FCF740C121E47E04B
:10527C0060391470030253311470030253571470C5
:10528C000302537D1470030253B1147003025DAA20
:10529C00147003025E24147003025E9E14700302E9
:1052AC005F58147003025C16025FCF7C017402120B
:1052BC001E47E0F97408121E47E0FAA3E0FB12192E
:1052CC0071E9605E7E0174016E70577A047B009008
:1052DC001ABFE0F8A3E0C82471F582C83401F58345
:1052EC00E0F9121887EA4B4C4D70371219CB8A082B
:1052FC008B098C0A8D0B780812207A7A047B00902B
:10530C001ABFE0F8A3E0C82471F582C83401F58314
:10531C00E0F91218757404121E11E9FA79021219C7
:10532C0047E9025FCF7C017402121E47E0F9740852
:10533C00121E47E0FAA3E0FB121971E9600A7E0124
:10534C0074016E70031219CB025FCF7C01740212D0
:10535C001E47E0F97408121E47E0FAA3E0FB12198D
:10536C0071E9600A7E0174016E7003121941025FCB
:10537C00CF7C017402121E47E0F97408121E47E03C
:10538C00FAA3E0FB121971E960187E0174016E70CA
:10539C00117903901ABFE0240CFAA3E03403FB123A
:1053AC00193B025FCF750801780812208274011234
:1053BC001E5188088909780812207E740D121E511E
:1053CC0088088909780812207E7406121E518808F4
:1053DC008909780812207E740A121E617409121E43
:1053EC0047E0F9740F121E47E0FAA3E0FB121965AF
:1053FC007407121E11E970030254B37403121E4792
:10540C00E0640760030254B3851882851983E0C3F6
:10541C00942040030254B37401121E47E0C394035A
:10542C0040030254B37E0174016E707B8518828533
:10543C001983E0F508750900780812207E740C12A7
:10544C001E47E0FCA3E0FD7403121E47E0F8790050
:10545C00E875F01FA4C8AAF075F000A42AFA75F03C
:10546C001FE9A42AF9901ABFE028F8A3E039F9E85B
:10547C0024C6FAE439FB1216C57402121E118518E3
:10548C0082851983E0C0E07401121E47E0F87900B0
:10549C00901ABFE028F8A3E039F9E82423F582E953
:1054AC003401F583D0E0F0EE600302561E7508015E
:1054BC0078081220827401121E5188088909780814
:1054CC0012207E740D121E5188088909780812204A
:1054DC007E7408121E617407121E47E0F9740D12D7
:1054EC001E47E0FAA3E0FB12195F7405121E11E9C6
:1054FC00700302561E7403121E47E070030255BF60
:10550C0024F2600724FC606E02561E8518828519F1
:10551C0083E0C39415505C851882851983E0605331
:10552C007E0174016E704C851882851983E0F50834
:10553C00750900780812207E740C121E47E0FCA33B
:10554C00E0FD901ABFE02430FAA3E03401FB121600
:10555C00C57402121E11851882851983E0C0E09073
:10556C001ABFE0F8A3E0C82444F582C83401F583DF
:10557C00D0E0F002561E851882851983E064107005
:10558C00307E0174016E7029750810750900780859
:10559C0012207E740C121E47E0FCA3E0FD901ABF93
:1055AC00E0245CFAA3E03401FB1216C57402121E4F
:1055BC0011805F851882851983E0C3941150537E46
:1055CC000174016E704C851882851983E0F508759D
:1055DC000900780812207E740C121E47E0FCA3E030
:1055EC00FD901ABFE02445FAA3E03401FB1216C566
:1055FC007402121E11851882851983E0C0E0901A7E
:10560C00BFE0F8A3E0C82455F582C83401F583D077
:10561C00E0F0EE6003025BAD7508017808122082A1
:10562C007405121E5188088909780812207E7406A8
:10563C00121E617405121E47E0F9740B121E47E02E
:10564C00FAA3E0FB1219597403121E11E97003023C
:10565C005BAD7403121E47E01470030256ED147018
:10566C000302573B1470030257891470030257D777
:10567C0014700302581714700302586524FE70034B
:10568C000258A91470030258F714700302599314AA
:10569C0070030259E1147003025945147003025A45
:1056AC002F24FE7003025A5B147003025A9B147071
:1056BC0003025AD524FE7003025B23147003025BB1
:1056CC006224156003025BAD7E0174016E700F9055
:1056DC001ABFE024B8FAA3E03400FB121983025B72
:1056EC00AD7404121E47121CE9E8494A4B60149031
:1056FC00901A7808121CB37404121E477808121AF8
:10570C008B70297E0174016E70227404121E47780E
:10571C0008121CB3E508C0E0901ABFE0F8A3E0C87B
:10572C0024BCF582C83400F583D0E0F0025BAD7484
:10573C0004121E47121CE9E8494A4B603D908FDA6F
:10574C007808121CB37404121E477808121AB05051
:10575C00297E0174016E70227404121E477808129F
:10576C001CB3901ABFE0F8A3E0C824BDF582C8347E
:10577C0000F583E508F0A3E509F0025BAD740412B3
:10578C001E47121CE9E8494A4B603D908FDA7808B5
:10579C00121CB37404121E477808121AB050297EDA
:1057AC000174016E70227404121E477808121CB327
:1057BC00901ABFE0F8A3E0C824BFF582C83400F506
:1057CC0083E508F0A3E509F0025BAD908FDA780869
:1057DC00121CB37404121E477808121AB050297E9A
:1057EC000174016E70227404121E477808121CB3E7
:1057FC00901ABFE0F8A3E0C824C1F582C83400F5C4
:10580C0083E508F0A3E509F0025BAD7404121E47B2
:10581C00121CE9E8494A4B603D908FDA7808121C5B
:10582C00B37404121E477808121AB050297E017402
:10583C00016E70227404121E477808121CB3901A61
:10584C00BFE0F8A3E0C824C3F582C83400F583E5B3
:10585C0008F0A3E509F0025BAD908FD67808121C16
:10586C00B37404121E477808121AB0502D7E0174BE
:10587C00016E702675F0FF7404121E477808121C16
:10588C00B3E508A4C0E0901ABFE0F8A3E0C824C5B3
:10589C00F582C83400F583D0E0F0025BAD740412DD
:1058AC001E47121CE9E8494A4B603D908FDA780894
:1058BC00121CB37404121E477808121AB050297EB9
:1058CC000174016E70227404121E477808121CB306
:1058DC00901ABFE0F8A3E0C82426F582C83401F57D
:1058EC0083E508F0A3E509F0025BAD7404121E47D2
:1058FC00121CE9E8494A4B603D908FDA7808121C7B
:10590C00B37404121E477808121AB050297E017421
:10591C00016E70227404121E477808121CB3901A80
:10592C00BFE0F8A3E0C82428F582C83401F583E56C
:10593C0008F0A3E509F0025BAD7404121E47121CBB
:10594C00E9E8494A4B603D908FDA7808121CB37431
:10595C0004121E477808121AB050297E0174016E89
:10596C0070227404121E477808121CB3901ABFE000
:10597C00F8A3E0C8242AF582C83401F583E508F0C1
:10598C00A3E509F0025BAD7404121E47121CE9E892
:10599C00494A4B603D908FD27808121CB3740412A4
:1059AC001E477808121AB050297E0174016E7022BD
:1059BC007404121E477808121CB3E508C0E0901A54
:1059CC00BFE0F8A3E0C8242CF582C83401F583D0DD
:1059DC00E0F0025BAD7404121E47121CE9E8494A60
:1059EC004B603D908FD27808121CB37404121E4782
:1059FC007808121AB050297E0174016E702274045A
:105A0C00121E477808121CB3E508C0E0901ABFE0DC
:105A1C00F8A3E0C8242DF582C83401F583D0E0F05A
:105A2C00025BAD7E0174016E70227404121E477805
:105A3C0008121CB3901ABFE0F8A3E0C8242EF5821C
:105A4C00C83401F583E508F0A3E509F0025BAD90DD
:105A5C008FCE7808121CB37404121E477808121AE1
:105A6C00B050297E0174016E70227404121E4778A6
:105A7C0008121CB3E508C0E0901ABFE0F8A3E0C818
:105A8C002456F582C83401F583D0E0F0025BAD906A
:105A9C00900A7808121CB37404121E477808121A64
:105AAC00B050237E0174016E701C7404121E4712D8
:105ABC001CE9901ABFE0FCA3E0CC2457F582CC344F
:105ACC0001F583121CF5025BAD7404121E47121C07
:105ADC00E9E8494A4B601490901A7808121CB37488
:105AEC0004121E477808121A8B70297E0174016EFD
:105AFC0070227404121E477808121CB3E508C0E02B
:105B0C00901ABFE0F8A3E0C8245BF582C83401F515
:105B1C0083D0E0F0025BAD908FCA7808121CB3748E
